{
  "_format": "hh-sol-artifact-1",
  "contractName": "KpiManagement",
  "sourceName": "contracts/KpiManagement.sol",
  "abi": [
    {
      "inputs": [],
      "stateMutability": "nonpayable",
      "type": "constructor"
    },
    {
      "anonymous": false,
      "inputs": [
        {
          "indexed": true,
          "internalType": "string",
          "name": "kpiId",
          "type": "string"
        },
        {
          "indexed": false,
          "internalType": "string",
          "name": "tenKpi",
          "type": "string"
        },
        {
          "indexed": false,
          "internalType": "string",
          "name": "loaiKpi",
          "type": "string"
        }
      ],
      "name": "KpiCriteriaCreated",
      "type": "event"
    },
    {
      "anonymous": false,
      "inputs": [
        {
          "indexed": true,
          "internalType": "string",
          "name": "kpiId",
          "type": "string"
        }
      ],
      "name": "KpiCriteriaDeactivated",
      "type": "event"
    },
    {
      "anonymous": false,
      "inputs": [
        {
          "indexed": true,
          "internalType": "string",
          "name": "kpiId",
          "type": "string"
        },
        {
          "indexed": false,
          "internalType": "string",
          "name": "tenKpi",
          "type": "string"
        }
      ],
      "name": "KpiCriteriaUpdated",
      "type": "event"
    },
    {
      "anonymous": false,
      "inputs": [
        {
          "indexed": true,
          "internalType": "uint256",
          "name": "evaluationId",
          "type": "uint256"
        },
        {
          "indexed": false,
          "internalType": "string",
          "name": "nguoiDanhGiaDid",
          "type": "string"
        }
      ],
      "name": "KpiEvaluationApproved",
      "type": "event"
    },
    {
      "anonymous": false,
      "inputs": [
        {
          "indexed": true,
          "internalType": "uint256",
          "name": "evaluationId",
          "type": "uint256"
        },
        {
          "indexed": false,
          "internalType": "string",
          "name": "employeeDid",
          "type": "string"
        },
        {
          "indexed": false,
          "internalType": "string",
          "name": "kpiId",
          "type": "string"
        },
        {
          "indexed": false,
          "internalType": "string",
          "name": "kyDanhGia",
          "type": "string"
        }
      ],
      "name": "KpiEvaluationCreated",
      "type": "event"
    },
    {
      "anonymous": false,
      "inputs": [
        {
          "indexed": true,
          "internalType": "uint256",
          "name": "evaluationId",
          "type": "uint256"
        },
        {
          "indexed": false,
          "internalType": "uint256",
          "name": "diemSo",
          "type": "uint256"
        },
        {
          "indexed": false,
          "internalType": "string",
          "name": "xepLoai",
          "type": "string"
        }
      ],
      "name": "KpiEvaluationUpdated",
      "type": "event"
    },
    {
      "anonymous": false,
      "inputs": [
        {
          "indexed": true,
          "internalType": "address",
          "name": "previousOwner",
          "type": "address"
        },
        {
          "indexed": true,
          "internalType": "address",
          "name": "newOwner",
          "type": "address"
        }
      ],
      "name": "OwnershipTransferred",
      "type": "event"
    },
    {
      "anonymous": false,
      "inputs": [
        {
          "indexed": true,
          "internalType": "bytes32",
          "name": "role",
          "type": "bytes32"
        },
        {
          "indexed": true,
          "internalType": "bytes32",
          "name": "previousAdminRole",
          "type": "bytes32"
        },
        {
          "indexed": true,
          "internalType": "bytes32",
          "name": "newAdminRole",
          "type": "bytes32"
        }
      ],
      "name": "RoleAdminChanged",
      "type": "event"
    },
    {
      "anonymous": false,
      "inputs": [
        {
          "indexed": true,
          "internalType": "bytes32",
          "name": "role",
          "type": "bytes32"
        },
        {
          "indexed": true,
          "internalType": "address",
          "name": "account",
          "type": "address"
        },
        {
          "indexed": true,
          "internalType": "address",
          "name": "sender",
          "type": "address"
        }
      ],
      "name": "RoleGranted",
      "type": "event"
    },
    {
      "anonymous": false,
      "inputs": [
        {
          "indexed": true,
          "internalType": "bytes32",
          "name": "role",
          "type": "bytes32"
        },
        {
          "indexed": true,
          "internalType": "address",
          "name": "account",
          "type": "address"
        },
        {
          "indexed": true,
          "internalType": "address",
          "name": "sender",
          "type": "address"
        }
      ],
      "name": "RoleRevoked",
      "type": "event"
    },
    {
      "inputs": [],
      "name": "ADMIN_ROLE",
      "outputs": [
        {
          "internalType": "bytes32",
          "name": "",
          "type": "bytes32"
        }
      ],
      "stateMutability": "view",
      "type": "function"
    },
    {
      "inputs": [],
      "name": "DEFAULT_ADMIN_ROLE",
      "outputs": [
        {
          "internalType": "bytes32",
          "name": "",
          "type": "bytes32"
        }
      ],
      "stateMutability": "view",
      "type": "function"
    },
    {
      "inputs": [],
      "name": "EMPLOYEE_ROLE",
      "outputs": [
        {
          "internalType": "bytes32",
          "name": "",
          "type": "bytes32"
        }
      ],
      "stateMutability": "view",
      "type": "function"
    },
    {
      "inputs": [],
      "name": "EVALUATOR_ROLE",
      "outputs": [
        {
          "internalType": "bytes32",
          "name": "",
          "type": "bytes32"
        }
      ],
      "stateMutability": "view",
      "type": "function"
    },
    {
      "inputs": [
        {
          "internalType": "uint256",
          "name": "evaluationId",
          "type": "uint256"
        }
      ],
      "name": "approveKpiEvaluation",
      "outputs": [],
      "stateMutability": "nonpayable",
      "type": "function"
    },
    {
      "inputs": [
        {
          "internalType": "string",
          "name": "kpiId",
          "type": "string"
        },
        {
          "internalType": "string",
          "name": "tenKpi",
          "type": "string"
        },
        {
          "internalType": "string",
          "name": "moTa",
          "type": "string"
        },
        {
          "internalType": "string",
          "name": "loaiKpi",
          "type": "string"
        },
        {
          "internalType": "string",
          "name": "donViDo",
          "type": "string"
        },
        {
          "internalType": "uint256",
          "name": "trongSo",
          "type": "uint256"
        },
        {
          "internalType": "uint256",
          "name": "nguongDat",
          "type": "uint256"
        },
        {
          "internalType": "uint256",
          "name": "nguongXuatSac",
          "type": "uint256"
        },
        {
          "internalType": "string[]",
          "name": "apDungChoChucVu",
          "type": "string[]"
        },
        {
          "internalType": "string",
          "name": "chuKyDanhGia",
          "type": "string"
        }
      ],
      "name": "createKpiCriteria",
      "outputs": [],
      "stateMutability": "nonpayable",
      "type": "function"
    },
    {
      "inputs": [
        {
          "internalType": "string",
          "name": "employeeDid",
          "type": "string"
        },
        {
          "internalType": "string",
          "name": "kpiId",
          "type": "string"
        },
        {
          "internalType": "string",
          "name": "kyDanhGia",
          "type": "string"
        },
        {
          "internalType": "uint256",
          "name": "ngayBatDau",
          "type": "uint256"
        },
        {
          "internalType": "uint256",
          "name": "ngayKetThuc",
          "type": "uint256"
        },
        {
          "internalType": "uint256",
          "name": "giaTriThucTe",
          "type": "uint256"
        },
        {
          "internalType": "string",
          "name": "nguoiDanhGiaDid",
          "type": "string"
        },
        {
          "internalType": "string",
          "name": "nhanXet",
          "type": "string"
        }
      ],
      "name": "createKpiEvaluation",
      "outputs": [
        {
          "internalType": "uint256",
          "name": "",
          "type": "uint256"
        }
      ],
      "stateMutability": "nonpayable",
      "type": "function"
    },
    {
      "inputs": [
        {
          "internalType": "string",
          "name": "kpiId",
          "type": "string"
        }
      ],
      "name": "deactivateKpiCriteria",
      "outputs": [],
      "stateMutability": "nonpayable",
      "type": "function"
    },
    {
      "inputs": [
        {
          "internalType": "string",
          "name": "",
          "type": "string"
        },
        {
          "internalType": "uint256",
          "name": "",
          "type": "uint256"
        }
      ],
      "name": "employeeEvaluations",
      "outputs": [
        {
          "internalType": "uint256",
          "name": "",
          "type": "uint256"
        }
      ],
      "stateMutability": "view",
      "type": "function"
    },
    {
      "inputs": [
        {
          "internalType": "string",
          "name": "",
          "type": "string"
        },
        {
          "internalType": "uint256",
          "name": "",
          "type": "uint256"
        }
      ],
      "name": "evaluationsByPeriod",
      "outputs": [
        {
          "internalType": "uint256",
          "name": "",
          "type": "uint256"
        }
      ],
      "stateMutability": "view",
      "type": "function"
    },
    {
      "inputs": [
        {
          "internalType": "string",
          "name": "employeeDid",
          "type": "string"
        }
      ],
      "name": "getEmployeeEvaluations",
      "outputs": [
        {
          "internalType": "uint256[]",
          "name": "",
          "type": "uint256[]"
        }
      ],
      "stateMutability": "view",
      "type": "function"
    },
    {
      "inputs": [
        {
          "internalType": "string",
          "name": "employeeDid",
          "type": "string"
        },
        {
          "internalType": "string",
          "name": "kyDanhGia",
          "type": "string"
        }
      ],
      "name": "getEmployeeKpiSummary",
      "outputs": [
        {
          "internalType": "uint256",
          "name": "totalScore",
          "type": "uint256"
        },
        {
          "internalType": "uint256",
          "name": "evaluationCount",
          "type": "uint256"
        },
        {
          "internalType": "string",
          "name": "overallRanking",
          "type": "string"
        }
      ],
      "stateMutability": "view",
      "type": "function"
    },
    {
      "inputs": [
        {
          "internalType": "string",
          "name": "kyDanhGia",
          "type": "string"
        }
      ],
      "name": "getEvaluationsByPeriod",
      "outputs": [
        {
          "internalType": "uint256[]",
          "name": "",
          "type": "uint256[]"
        }
      ],
      "stateMutability": "view",
      "type": "function"
    },
    {
      "inputs": [
        {
          "internalType": "string",
          "name": "kpiId",
          "type": "string"
        }
      ],
      "name": "getKpiCriteria",
      "outputs": [
        {
          "components": [
            {
              "internalType": "string",
              "name": "kpiId",
              "type": "string"
            },
            {
              "internalType": "string",
              "name": "tenKpi",
              "type": "string"
            },
            {
              "internalType": "string",
              "name": "moTa",
              "type": "string"
            },
            {
              "internalType": "string",
              "name": "loaiKpi",
              "type": "string"
            },
            {
              "internalType": "string",
              "name": "donViDo",
              "type": "string"
            },
            {
              "internalType": "uint256",
              "name": "trongSo",
              "type": "uint256"
            },
            {
              "internalType": "uint256",
              "name": "nguongDat",
              "type": "uint256"
            },
            {
              "internalType": "uint256",
              "name": "nguongXuatSac",
              "type": "uint256"
            },
            {
              "internalType": "string[]",
              "name": "apDungChoChucVu",
              "type": "string[]"
            },
            {
              "internalType": "string",
              "name": "chuKyDanhGia",
              "type": "string"
            },
            {
              "internalType": "bool",
              "name": "isActive",
              "type": "bool"
            },
            {
              "internalType": "uint256",
              "name": "createdAt",
              "type": "uint256"
            }
          ],
          "internalType": "struct KpiManagement.KpiCriteria",
          "name": "",
          "type": "tuple"
        }
      ],
      "stateMutability": "view",
      "type": "function"
    },
    {
      "inputs": [
        {
          "internalType": "uint256",
          "name": "evaluationId",
          "type": "uint256"
        }
      ],
      "name": "getKpiEvaluation",
      "outputs": [
        {
          "components": [
            {
              "internalType": "uint256",
              "name": "evaluationId",
              "type": "uint256"
            },
            {
              "internalType": "string",
              "name": "employeeDid",
              "type": "string"
            },
            {
              "internalType": "string",
              "name": "kpiId",
              "type": "string"
            },
            {
              "internalType": "string",
              "name": "kyDanhGia",
              "type": "string"
            },
            {
              "internalType": "uint256",
              "name": "ngayBatDau",
              "type": "uint256"
            },
            {
              "internalType": "uint256",
              "name": "ngayKetThuc",
              "type": "uint256"
            },
            {
              "internalType": "uint256",
              "name": "giaTriThucTe",
              "type": "uint256"
            },
            {
              "internalType": "uint256",
              "name": "diemSo",
              "type": "uint256"
            },
            {
              "internalType": "string",
              "name": "xepLoai",
              "type": "string"
            },
            {
              "internalType": "string",
              "name": "nguoiDanhGiaDid",
              "type": "string"
            },
            {
              "internalType": "string",
              "name": "nhanXet",
              "type": "string"
            },
            {
              "internalType": "string",
              "name": "trangThai",
              "type": "string"
            },
            {
              "internalType": "uint256",
              "name": "createdAt",
              "type": "uint256"
            },
            {
              "internalType": "uint256",
              "name": "updatedAt",
              "type": "uint256"
            }
          ],
          "internalType": "struct KpiManagement.KpiEvaluation",
          "name": "",
          "type": "tuple"
        }
      ],
      "stateMutability": "view",
      "type": "function"
    },
    {
      "inputs": [
        {
          "internalType": "string",
          "name": "kpiId",
          "type": "string"
        }
      ],
      "name": "getKpiEvaluationsByCriteria",
      "outputs": [
        {
          "internalType": "uint256[]",
          "name": "",
          "type": "uint256[]"
        }
      ],
      "stateMutability": "view",
      "type": "function"
    },
    {
      "inputs": [
        {
          "internalType": "bytes32",
          "name": "role",
          "type": "bytes32"
        }
      ],
      "name": "getRoleAdmin",
      "outputs": [
        {
          "internalType": "bytes32",
          "name": "",
          "type": "bytes32"
        }
      ],
      "stateMutability": "view",
      "type": "function"
    },
    {
      "inputs": [],
      "name": "getTotalEvaluations",
      "outputs": [
        {
          "internalType": "uint256",
          "name": "",
          "type": "uint256"
        }
      ],
      "stateMutability": "view",
      "type": "function"
    },
    {
      "inputs": [],
      "name": "getTotalKpiCriteria",
      "outputs": [
        {
          "internalType": "uint256",
          "name": "",
          "type": "uint256"
        }
      ],
      "stateMutability": "view",
      "type": "function"
    },
    {
      "inputs": [
        {
          "internalType": "address",
          "name": "account",
          "type": "address"
        }
      ],
      "name": "grantEmployeeRole",
      "outputs": [],
      "stateMutability": "nonpayable",
      "type": "function"
    },
    {
      "inputs": [
        {
          "internalType": "address",
          "name": "account",
          "type": "address"
        }
      ],
      "name": "grantEvaluatorRole",
      "outputs": [],
      "stateMutability": "nonpayable",
      "type": "function"
    },
    {
      "inputs": [
        {
          "internalType": "bytes32",
          "name": "role",
          "type": "bytes32"
        },
        {
          "internalType": "address",
          "name": "account",
          "type": "address"
        }
      ],
      "name": "grantRole",
      "outputs": [],
      "stateMutability": "nonpayable",
      "type": "function"
    },
    {
      "inputs": [
        {
          "internalType": "bytes32",
          "name": "role",
          "type": "bytes32"
        },
        {
          "internalType": "address",
          "name": "account",
          "type": "address"
        }
      ],
      "name": "hasRole",
      "outputs": [
        {
          "internalType": "bool",
          "name": "",
          "type": "bool"
        }
      ],
      "stateMutability": "view",
      "type": "function"
    },
    {
      "inputs": [
        {
          "internalType": "string",
          "name": "kpiId",
          "type": "string"
        }
      ],
      "name": "isKpiCriteriaActive",
      "outputs": [
        {
          "internalType": "bool",
          "name": "",
          "type": "bool"
        }
      ],
      "stateMutability": "view",
      "type": "function"
    },
    {
      "inputs": [
        {
          "internalType": "string",
          "name": "",
          "type": "string"
        }
      ],
      "name": "kpiCriteria",
      "outputs": [
        {
          "internalType": "string",
          "name": "kpiId",
          "type": "string"
        },
        {
          "internalType": "string",
          "name": "tenKpi",
          "type": "string"
        },
        {
          "internalType": "string",
          "name": "moTa",
          "type": "string"
        },
        {
          "internalType": "string",
          "name": "loaiKpi",
          "type": "string"
        },
        {
          "internalType": "string",
          "name": "donViDo",
          "type": "string"
        },
        {
          "internalType": "uint256",
          "name": "trongSo",
          "type": "uint256"
        },
        {
          "internalType": "uint256",
          "name": "nguongDat",
          "type": "uint256"
        },
        {
          "internalType": "uint256",
          "name": "nguongXuatSac",
          "type": "uint256"
        },
        {
          "internalType": "string",
          "name": "chuKyDanhGia",
          "type": "string"
        },
        {
          "internalType": "bool",
          "name": "isActive",
          "type": "bool"
        },
        {
          "internalType": "uint256",
          "name": "createdAt",
          "type": "uint256"
        }
      ],
      "stateMutability": "view",
      "type": "function"
    },
    {
      "inputs": [
        {
          "internalType": "uint256",
          "name": "",
          "type": "uint256"
        }
      ],
      "name": "kpiEvaluations",
      "outputs": [
        {
          "internalType": "uint256",
          "name": "evaluationId",
          "type": "uint256"
        },
        {
          "internalType": "string",
          "name": "employeeDid",
          "type": "string"
        },
        {
          "internalType": "string",
          "name": "kpiId",
          "type": "string"
        },
        {
          "internalType": "string",
          "name": "kyDanhGia",
          "type": "string"
        },
        {
          "internalType": "uint256",
          "name": "ngayBatDau",
          "type": "uint256"
        },
        {
          "internalType": "uint256",
          "name": "ngayKetThuc",
          "type": "uint256"
        },
        {
          "internalType": "uint256",
          "name": "giaTriThucTe",
          "type": "uint256"
        },
        {
          "internalType": "uint256",
          "name": "diemSo",
          "type": "uint256"
        },
        {
          "internalType": "string",
          "name": "xepLoai",
          "type": "string"
        },
        {
          "internalType": "string",
          "name": "nguoiDanhGiaDid",
          "type": "string"
        },
        {
          "internalType": "string",
          "name": "nhanXet",
          "type": "string"
        },
        {
          "internalType": "string",
          "name": "trangThai",
          "type": "string"
        },
        {
          "internalType": "uint256",
          "name": "createdAt",
          "type": "uint256"
        },
        {
          "internalType": "uint256",
          "name": "updatedAt",
          "type": "uint256"
        }
      ],
      "stateMutability": "view",
      "type": "function"
    },
    {
      "inputs": [
        {
          "internalType": "string",
          "name": "",
          "type": "string"
        },
        {
          "internalType": "uint256",
          "name": "",
          "type": "uint256"
        }
      ],
      "name": "kpiEvaluationsByCriteria",
      "outputs": [
        {
          "internalType": "uint256",
          "name": "",
          "type": "uint256"
        }
      ],
      "stateMutability": "view",
      "type": "function"
    },
    {
      "inputs": [],
      "name": "owner",
      "outputs": [
        {
          "internalType": "address",
          "name": "",
          "type": "address"
        }
      ],
      "stateMutability": "view",
      "type": "function"
    },
    {
      "inputs": [],
      "name": "renounceOwnership",
      "outputs": [],
      "stateMutability": "nonpayable",
      "type": "function"
    },
    {
      "inputs": [
        {
          "internalType": "bytes32",
          "name": "role",
          "type": "bytes32"
        },
        {
          "internalType": "address",
          "name": "account",
          "type": "address"
        }
      ],
      "name": "renounceRole",
      "outputs": [],
      "stateMutability": "nonpayable",
      "type": "function"
    },
    {
      "inputs": [
        {
          "internalType": "bytes32",
          "name": "role",
          "type": "bytes32"
        },
        {
          "internalType": "address",
          "name": "account",
          "type": "address"
        }
      ],
      "name": "revokeRole",
      "outputs": [],
      "stateMutability": "nonpayable",
      "type": "function"
    },
    {
      "inputs": [
        {
          "internalType": "bytes4",
          "name": "interfaceId",
          "type": "bytes4"
        }
      ],
      "name": "supportsInterface",
      "outputs": [
        {
          "internalType": "bool",
          "name": "",
          "type": "bool"
        }
      ],
      "stateMutability": "view",
      "type": "function"
    },
    {
      "inputs": [
        {
          "internalType": "address",
          "name": "newOwner",
          "type": "address"
        }
      ],
      "name": "transferOwnership",
      "outputs": [],
      "stateMutability": "nonpayable",
      "type": "function"
    },
    {
      "inputs": [
        {
          "internalType": "string",
          "name": "kpiId",
          "type": "string"
        },
        {
          "internalType": "string",
          "name": "tenKpi",
          "type": "string"
        },
        {
          "internalType": "string",
          "name": "moTa",
          "type": "string"
        },
        {
          "internalType": "string",
          "name": "donViDo",
          "type": "string"
        },
        {
          "internalType": "uint256",
          "name": "trongSo",
          "type": "uint256"
        },
        {
          "internalType": "uint256",
          "name": "nguongDat",
          "type": "uint256"
        },
        {
          "internalType": "uint256",
          "name": "nguongXuatSac",
          "type": "uint256"
        },
        {
          "internalType": "string[]",
          "name": "apDungChoChucVu",
          "type": "string[]"
        },
        {
          "internalType": "string",
          "name": "chuKyDanhGia",
          "type": "string"
        }
      ],
      "name": "updateKpiCriteria",
      "outputs": [],
      "stateMutability": "nonpayable",
      "type": "function"
    },
    {
      "inputs": [
        {
          "internalType": "uint256",
          "name": "evaluationId",
          "type": "uint256"
        },
        {
          "internalType": "uint256",
          "name": "giaTriThucTe",
          "type": "uint256"
        },
        {
          "internalType": "string",
          "name": "nhanXet",
          "type": "string"
        },
        {
          "internalType": "string",
          "name": "trangThai",
          "type": "string"
        }
      ],
      "name": "updateKpiEvaluation",
      "outputs": [],
      "stateMutability": "nonpayable",
      "type": "function"
    }
  ],
  "bytecode": "0x60806040818152346200012c5760008054336001600160a01b0319821681178355906001600160a01b03167f8be0079c531659141344cd1fd0a4f28419497f9722a3daafe3b4186f6b6457e08380a38080526001602092818452808320338452845260ff818420541615620000f5575b7fa49807205ce4d355092ef5a8a18f56e8913cf4a201fbe287825b095693c2177593848452828152818420338552815260ff828520541615620000ba575b6146ef8681620001328239f35b848452828152818420903385525282209060ff19825416179055339160008051602062004821833981519152339280a43880808080620000ad565b82805281845280832033845284528083208260ff19825416179055333384600080516020620048218339815191528180a46200006f565b600080fdfe608080604052600436101561001357600080fd5b60003560e01c90816301ffc9a7146132ef575080630669b5b91461329257806308cfc1ea1461321a5780631085d7791461316c578063164ea55914612fc157806319ce610c14612fa3578063248a9ca314612f745780632612b1af14612eec5780632a4cab9014612eb15780632f2ff15d14612dfe57806330d0ea3114612dc3578063317b8e9614612da557806336568abe14612d13578063418e1fd414612330578063432badd8146120805780634d1ec4ad14611d2b5780636272a9b814611cf9578063715018a614611ca0578063721308b214611c1857806375b238fc14611bdd5780638b5d453f146112335780638da5cb5b1461120a57806391d14854146111bd5780639ba2b0a11461116c578063a217fddf14611150578063aabd3a5b14610f91578063aeaee36514610f5f578063c78700e714610eb4578063c7c458bc14610812578063d40a6c7e146104b4578063d547741f14610473578063e936b5141461041e578063f2fde38b14610355578063f3b3444b146102805763f4aba5a6146101a057600080fd5b3461027b5760208060031936011261027b577f01a1d9656e2513c613d30076781814a6064f25bfc5c38c01ee1a35ab767f5d19600435916101df61369c565b82600052600581526101f76040600020541515613e60565b82600052600581526040600020600b8101610212815461349b565b601f811161025a575b5060186b1118481c1a1948191d5e595d60a21b019055600d4291015561024033613c07565b90610255604051928284938452830190613476565b0390a2005b6102759082600052601f85600020910160051c810190613d61565b3861021b565b600080fd5b3461027b5760208060031936011261027b5761029a613342565b6102a261369c565b7f5a3425ea67e73c95853ecfc0c443062de292a303c186bc2aac1178ae1b86c62a9182600052600181526102dd6001604060002001546139fc565b60008381526001825260408082206001600160a01b0390941680835293835290205460ff161561030957005b826000526001815260406000209082600052526040600020600160ff1982541617905533917f2f8788117e7eff1d82e926ec794901d17c78024a50270940304540a733656f0d600080a4005b3461027b57602036600319011261027b5761036e613342565b610376613b7b565b6001600160a01b039081169081156103ca57600054826bffffffffffffffffffffffff60a01b821617600055167f8be0079c531659141344cd1fd0a4f28419497f9722a3daafe3b4186f6b6457e0600080a3005b60405162461bcd60e51b815260206004820152602660248201527f4f776e61626c653a206e6577206f776e657220697320746865207a65726f206160448201526564647265737360d01b6064820152608490fd5b3461027b5760206104466104313661363d565b92908160405193828580945193849201613453565b81016006815203019020805482101561027b576020916104659161366e565b90546040519160031b1c8152f35b3461027b57604036600319011261027b576104b2600435610492613358565b908060005260016020526104ad6001604060002001546139fc565b613b05565b005b3461027b57602036600319011261027b576004356001600160401b03811161027b5760206104e96105849236906004016133fd565b60006101606040516104fa8161336e565b6060815260608582015260606040820152606080820152606060808201528260a08201528260c08201528260e08201526060610100820152606061012082015282610140820152015260405190610573600b82519385818186019661056081838a613453565b8101600481520301902001541515613ddf565b604051938492839251928391613453565b810160048152030190206040519061059b8261336e565b6040516105b3816105ac81856134d5565b03826133dc565b82526040516105c9816105ac81600186016134d5565b60208301526040516105e2816105ac81600286016134d5565b60408301526040516105fb816105ac81600386016134d5565b6060830152604051610614816105ac81600486016134d5565b6080830152600581015460a0830152600681015460c0830152600781015460e0830152600881018054610646816135a6565b9161065460405193846133dc565b818352602083019060005260206000206000915b8383106107ed5786600b878761010084015260405161068e816105ac81600986016134d5565b61012084015260ff600a82015416151561014084015201546101608201526040516020815261072f6107196107036106ed6106d7865161018060208801526101a0870190613476565b6020870151868203601f19016040880152613476565b6040860151858203601f19016060870152613476565b6060850151848203601f19016080860152613476565b6080840151838203601f190160a0850152613476565b9160a081015160c083015260c081015160e083015260e081015161010083015261010081015192601f1983820301610120840152835180825260208201916020808360051b8301019601926000915b8383106107c0578680876101606107a78c610120840151601f1986830301610140870152613476565b9161014081015115158285015201516101808301520390f35b90919293966020806107de600193601f198682030187528b51613476565b9901930193019193929061077e565b600160208192604051610804816105ac81896134d5565b815201920192019190610668565b3461027b5761012036600319011261027b576004356001600160401b03811161027b576108439036906004016133fd565b6024356001600160401b03811161027b576108629036906004016133fd565b6044356001600160401b03811161027b576108819036906004016133fd565b916064356001600160401b03811161027b576108a19036906004016133fd565b9260e4356001600160401b03811161027b576108c19036906004016135bd565b610104356001600160401b03811161027b576108e19036906004016133fd565b946108ea61369c565b61092b602060405161090b600b8851928481818c0195610560818389613453565b61091a60646084351115613d15565b604051809381928951928391613453565b810160048152030190209285516001600160401b038111610bd15761096081610957600188015461349b565b60018801613d78565b806020601f8211600114610e4757600091610e3c575b508160011b916000199060031b1c19161760018501555b8051906001600160401b038211610bd15781906109ba826109b1600289015461349b565b60028901613d78565b602090601f8311600114610dca57600092610dbf575b50508160011b916000199060031b1c19161760028401555b8051906001600160401b038211610bd1578190610a1582610a0c600488015461349b565b60048801613d78565b602090601f8311600114610d4d57600092610d42575b50508160011b916000199060031b1c19161760048301555b608435600583015560a435600683015560c4356007830155805190600160401b8211610bd1576008830154826008850155808310610cca575b5060200190600883016000526020600020916000905b828210610be7575050505060090183516001600160401b038111610bd157610ac481610abe845461349b565b84613d78565b6020601f8211600114610b405791816102559492610b20947fcc8369db20dba0a70091488726ca898638cabb522714c7fbb842db4301ebfb949798600092610b35575b50508160011b916000199060031b1c1916179055613dbf565b92604051918291602083526020830190613476565b015190508880610b07565b601f198216958360005260206000209660005b818110610bb95750927fcc8369db20dba0a70091488726ca898638cabb522714c7fbb842db4301ebfb949697610b20959360019383610255999710610ba0575b505050811b019055613dbf565b015160001960f88460031b161c19169055888080610b93565b83830151895560019098019760209384019301610b53565b634e487b7160e01b600052604160045260246000fd5b80518051906001600160401b038211610bd157610c0e82610c08885461349b565b88613d78565b602090601f8311600114610c5a579282600194936020938695600092610c4f575b5050600019600383901b1c191690841b1787555b01940191019092610a92565b015190508d80610c2f565b908660005260206000209160005b601f1985168110610cb2575083602093600196938796938794601f19811610610c99575b505050811b018755610c43565b015160001960f88460031b161c191690558d8080610c8c565b91926020600181928685015181550194019201610c68565b600884016000526020600020908382015b8183018110610ceb575050610a7c565b80610cf86001925461349b565b80610d05575b5001610cdb565b601f81118314610d1b5750600081555b8a610cfe565b600090828252610d39601f60208420920160051c8201858301613d61565b81835555610d15565b015190508780610a2b565b9250600485016000526020600020906000935b601f1984168510610da4576001945083601f19811610610d8b575b505050811b016004830155610a43565b015160001960f88460031b161c19169055878080610d7b565b81810151835560209485019460019093019290910190610d60565b0151905088806109d0565b9250600286016000526020600020906000935b601f1984168510610e21576001945083601f19811610610e08575b505050811b0160028401556109e8565b015160001960f88460031b161c19169055888080610df8565b81810151835560209485019460019093019290910190610ddd565b905087015189610976565b91506001860160005260206000206000925b601f1983168410610e9c576001935082601f19811610610e83575b5050811b01600185015561098d565b89015160001960f88460031b161c191690558980610e74565b89810151825560209384019360019092019101610e59565b3461027b5760208060031936011261027b576004356001600160401b03811161027b5781610ee9610efc9236906004016133fd565b8160405193828580945193849201613453565b8101600881520301902090604051908181845491828152019360005281600020916000905b828210610f4857610f4485610f38818903826133dc565b6040519182918261356b565b0390f35b835486529485019460019384019390910190610f21565b3461027b576020610f726104313661363d565b81016008815203019020805482101561027b576020916104659161366e565b3461027b57602036600319011261027b576004356000526005602052604060002080546040519182806001830190610fc8916134d5565b03610fd390846133dc565b60405180610fe481600285016134d5565b03610fef90826133dc565b6040518061100081600386016134d5565b0361100b90826133dc565b600483015460058401549060068501549060078601549060405191828060088a0190611036916134d5565b0361104190846133dc565b60405193846110538160098c016134d5565b0361105e90866133dc565b604051958661107081600a8d016134d5565b0361107b90886133dc565b604051978861108d81600b8e016134d5565b03611098908a6133dc565b600c8b01549a600d0154996040519d8e9d8e528d6101c090816020820152016110c091613476565b8d810360408f01526110d191613476565b8c810360608e01526110e291613476565b9360808c015260a08b015260c08a015260e089015287810361010089015261110991613476565b86810361012088015261111b91613476565b85810361014087015261112d91613476565b84810361016086015261113f91613476565b916101808401526101a08301520390f35b3461027b57600036600319011261027b57602060405160008152f35b3461027b57602036600319011261027b576004356001600160401b03811161027b5760ff600a6111a66020610ee9819536906004016133fd565b810160048152030190200154166040519015158152f35b3461027b57604036600319011261027b576111d6613358565b600435600052600160205260406000209060018060a01b0316600052602052602060ff604060002054166040519015158152f35b3461027b57600036600319011261027b576000546040516001600160a01b039091168152602090f35b3461027b5761010036600319011261027b576004356001600160401b03811161027b576112649036906004016133fd565b6024356001600160401b03811161027b576112839036906004016133fd565b6044356001600160401b03811161027b576112a29036906004016133fd565b9060c4356001600160401b03811161027b576112c29036906004016133fd565b9260e4356001600160401b03811161027b576112e29036906004016133fd565b916112eb6138b7565b815115611b985761130c600b60405160208185516105608183858a01613453565b60ff600a60405160208185516113258183858a01613453565b8101600481520301902001541615611b53576084356064351015611b1957600160035401928360035561135a60a43583613ed9565b95611364876141c1565b604051976113718961338a565b8689528560208a01528460408a01528760608a015260643560808a015260843560a08a015260a43560c08a015260e08901526101008801526101208701526101408601526040516113c1816133a6565b600481526304e6861760e41b602082015261016086015242610180860152426101a086015282600052600560205260406000208551815560208601518051906001600160401b038211610bd157819061142a82611421600187015461349b565b60018701613d78565b602090601f8311600114611aa757600092611a9c575b50508160011b916000199060031b1c19161760018201555b60408601518051906001600160401b038211610bd157819061148a82611481600287015461349b565b60028701613d78565b602090601f8311600114611a2a57600092611a1f575b50508160011b916000199060031b1c19161760028201555b60608601518051906001600160401b038211610bd15781906114ea826114e1600387015461349b565b60038701613d78565b602090601f83116001146119ad576000926119a2575b50508160011b916000199060031b1c19161760038201555b6080860151600482015560a0860151600582015560c0860151600682015560e0860151600782015561010086015180516001600160401b038111610bd1578060088401926115708261156a865461349b565b86613d78565b602090601f831160011461193c57600092611931575b50508160011b916000199060031b1c19161790555b61012086015180516001600160401b038111610bd1578060098401926115c58261156a865461349b565b602090601f83116001146118cb576000926118c0575b50508160011b916000199060031b1c19161790555b61014086015180516001600160401b038111610bd15780600a84019261161a8261156a865461349b565b602090601f831160011461185a5760009261184f575b50508160011b916000199060031b1c19161790555b6101608601519586516001600160401b038111610bd15760209761167982611670600b87015461349b565b600b8701613d78565b8890601f83116001146117ab57947fc148f359b347da2ceee1f099aae5f692aa088f36f51fe6c37676c41ec94bbb559694600d6101a061179596868c9d976117879761177a9c6000926117a0575b50508160011b916000199060031b1c191617600b8501555b610180810151600c8501550151910155611718886040518c81816117098b83815193849201613453565b81016006815203019020613e2b565b61173f886040518c8185516117308183858a01613453565b81016007815203019020613e2b565b611766886040518c8187516117578183858c01613453565b81016008815203019020613e2b565b604051958695606087526060870190613476565b908582038b870152613476565b908382036040850152613476565b0390a2604051908152f35b0151905038806116c7565b90600b8501600052896000209160005b601f1985168110611838575094600d6101a061179596600187611787978e9f99977fc148f359b347da2ceee1f099aae5f692aa088f36f51fe6c37676c41ec94bbb559e9c61177a9e99601f1981161061181f575b505050811b01600b8501556116df565b015160001960f88460031b161c1916905538808061180f565b91928b6001819286850151815501940192016117bb565b015190508980611630565b6000858152602081209350601f198516905b8181106118a8575090846001959493921061188f575b505050811b019055611645565b015160001960f88460031b161c19169055898080611882565b9293602060018192878601518155019501930161186c565b0151905089806115db565b6000858152602081209350601f198516905b8181106119195750908460019594939210611900575b505050811b0190556115f0565b015160001960f88460031b161c191690558980806118f3565b929360206001819287860151815501950193016118dd565b015190508980611586565b6000858152602081209350601f198516905b81811061198a5750908460019594939210611971575b505050811b01905561159b565b015160001960f88460031b161c19169055898080611964565b9293602060018192878601518155019501930161194e565b015190508880611500565b9250600384016000526020600020906000935b601f1984168510611a04576001945083601f198116106119eb575b505050811b016003820155611518565b015160001960f88460031b161c191690558880806119db565b818101518355602094850194600190930192909101906119c0565b0151905088806114a0565b9250600284016000526020600020906000935b601f1984168510611a81576001945083601f19811610611a68575b505050811b0160028201556114b8565b015160001960f88460031b161c19169055888080611a58565b81810151835560209485019460019093019290910190611a3d565b015190508880611440565b9250600184016000526020600020906000935b601f1984168510611afe576001945083601f19811610611ae5575b505050811b016001820155611458565b015160001960f88460031b161c19169055888080611ad5565b81810151835560209485019460019093019290910190611aba565b60405162461bcd60e51b8152602060048201526012602482015271496e76616c696420646174652072616e676560701b6044820152606490fd5b60405162461bcd60e51b815260206004820152601a60248201527f4b5049206372697465726961206973206e6f74206163746976650000000000006044820152606490fd5b60405162461bcd60e51b815260206004820152601c60248201527f456d706c6f796565204449442063616e6e6f7420626520656d707479000000006044820152606490fd5b3461027b57600036600319011261027b5760206040517fa49807205ce4d355092ef5a8a18f56e8913cf4a201fbe287825b095693c217758152f35b3461027b5760208060031936011261027b576004356001600160401b03811161027b5781610ee9611c4d9236906004016133fd565b8101600681520301902090604051908181845491828152019360005281600020916000905b828210611c8957610f4485610f38818903826133dc565b835486529485019460019384019390910190611c72565b3461027b57600036600319011261027b57611cb9613b7b565b600080546001600160a01b0319811682556001600160a01b03167f8be0079c531659141344cd1fd0a4f28419497f9722a3daafe3b4186f6b6457e08280a3005b3461027b576020611d0c6104313661363d565b81016007815203019020805482101561027b576020916104659161366e565b3461027b57608036600319011261027b576001600160401b0360043560243560443583811161027b57611d629036906004016133fd565b9060643584811161027b57611d7b9036906004016133fd565b611d836138b7565b8360005260209260058452611d9e6040600020541515613e60565b84600052600584526040600020926006840181815403611f99575b558051600a840191878211610bd1578190611dd88261156a865461349b565b8690601f8311600114611f3457600092611f29575b50508160011b916000199060031b1c19161790555b600b8201908051958611610bd157611e1e86610abe845461349b565b8390601f8711600114611ea1579580917fdcf9a7b647e1588c188dc6a3235d338b4cf696a1b1844c44486867a666283d239697600092611e96575b50508160011b916000199060031b1c19161790555b42600d82015561025560078201549160408051948594855284015260086040840191016134d5565b015190508780611e59565b90601f1987169183600052856000209260005b818110611f1257509160019391897fdcf9a7b647e1588c188dc6a3235d338b4cf696a1b1844c44486867a666283d23999a9410611ef9575b505050811b019055611e6e565b015160001960f88460031b161c19169055878080611eec565b929387600181928786015181550195019301611eb4565b015190508880611ded565b60008581528881209350601f198516905b89828210611f83575050908460019594939210611f6a575b505050811b019055611e02565b015160001960f88460031b161c19169055888080611f5d565b6001859682939686015181550195019301611f45565b611fc4611fb983604051611fb4816105ac8160028d016134d5565b613ed9565b8060078801556141c1565b805160088701918a8211610bd1578190611fe28261156a865461349b565b8990601f831160011461201b57600092612010575b50508160011b916000199060031b1c1916179055611db9565b015190508b80611ff7565b60008581528b81209350601f198516905b8c82821061206a575050908460019594939210612051575b505050811b019055611db9565b015160001960f88460031b161c191690558b8080612044565b600185968293968601518155019501930161202c565b3461027b57602036600319011261027b5760006101a06040516120a28161338a565b82815260606020820152606060408201526060808201528260808201528260a08201528260c08201528260e082015260606101008201526060610120820152606061014082015260606101608201528261018082015201526004358060005260056020526121166040600020541515613e60565b60005260056020526040600020600d604051916121328361338a565b8054835260405161214a816105ac81600186016134d5565b6020840152604051612163816105ac81600286016134d5565b604084015260405161217c816105ac81600386016134d5565b606084015260048101546080840152600581015460a0840152600681015460c0840152600781015460e08401526040516121bd816105ac81600886016134d5565b6101008401526040516121d7816105ac81600986016134d5565b6101208401526040516121f1816105ac81600a86016134d5565b61014084015260405161220b816105ac81600b86016134d5565b610160840152600c81015461018084015201546101a0820152604051809160208252805160208301526101a06123196123016122e96122d161229061227a61226460208901516101c060408c01526101e08b0190613476565b60408901518a8203601f190160608c0152613476565b6060880151898203601f190160808b0152613476565b608087015160a089015260a087015160c089015260c087015160e089015260e0870151610100890152610100870151601f19898303016101208a0152613476565b610120860151878203601f1901610140890152613476565b610140850151868203601f1901610160880152613476565b610160840151858203601f1901610180870152613476565b916101808101518285015201516101c08301520390f35b3461027b5761014036600319011261027b576004356001600160401b03811161027b576123619036906004016133fd565b6024356001600160401b03811161027b576123809036906004016133fd565b6044356001600160401b03811161027b5761239f9036906004016133fd565b916064356001600160401b03811161027b576123bf9036906004016133fd565b926084356001600160401b03811161027b576123df9036906004016133fd565b610104356001600160401b03811161027b576123ff9036906004016135bd565b610124356001600160401b03811161027b5761241f9036906004016133fd565b9161242861369c565b845115612cd557855115612c9057612445606460a4351115613d15565b600b604051602081885161245c8183858d01613453565b810160048152030190200154612c4b57604051936124798561336e565b8585528660208601526040850152866060850152608084015260a43560a084015260c43560c084015260e43560e084015261010083015261012082015260016101408201524261016082015260405160208184516124da8183858901613453565b810160048152030190209080518051906001600160401b038211610bd157819061250e82612508875461349b565b87613d78565b602090601f8311600114612bdf57600092612bd4575b50508160011b916000199060031b1c19161782555b60208101518051906001600160401b038211610bd157819061256282610957600188015461349b565b602090601f8311600114612b6257600092612b57575b50508160011b916000199060031b1c19161760018301555b60408101518051906001600160401b038211610bd15781906125c2826125b9600288015461349b565b60028801613d78565b602090601f8311600114612ae557600092612ada575b50508160011b916000199060031b1c19161760028301555b60608101518051906001600160401b038211610bd157819061262282612619600388015461349b565b60038801613d78565b602090601f8311600114612a6857600092612a5d575b50508160011b916000199060031b1c19161760038301555b60808101518051906001600160401b038211610bd157819061267982610a0c600488015461349b565b602090601f83116001146129eb576000926129e0575b50508160011b916000199060031b1c19161760048301555b60a0810151600583015560c0810151600683015560e08101516007830155610100810151805190600160401b8211610bd1576008840154826008860155808310612968575b5060200190600884016000526020600020916000905b82821061288b5750505050600982016101208201518051906001600160401b038211610bd15761273c82612736855461349b565b85613d78565b602090601f83116001146127ef57610160610255956127c195856127d69a967fa977b628247e5045cc570bc5cc93e028d32ddb23a29f5a5917318042dda6b64c9c9a96600b966000926127e4575b50508160011b916000199060031b1c19161790555b600a8401610140820151151560ff801983541691161790550151910155613dbf565b94604051938493604085526040850190613476565b908382036020850152613476565b015190508e8061278a565b90601f198316918460005260206000209260005b8181106128735750956127c1956001867fa977b628247e5045cc570bc5cc93e028d32ddb23a29f5a5917318042dda6b64c9c9a96600b96610160966127d69e9a6102559d1061285a575b505050811b01905561279f565b015160001960f88460031b161c191690558e808061284d565b92936020600181928786015181550195019301612803565b80518051906001600160401b038211610bd1576128ac82610c08885461349b565b602090601f83116001146128f85792826001949360209386956000926128ed575b5050600019600383901b1c191690841b1787555b01940191019092612702565b015190508e806128cd565b908660005260206000209160005b601f1985168110612950575083602093600196938796938794601f19811610612937575b505050811b0187556128e1565b015160001960f88460031b161c191690558e808061292a565b91926020600181928685015181550194019201612906565b600885016000526020600020908382015b81830181106129895750506126ec565b806129966001925461349b565b806129a3575b5001612979565b601f811183146129b95750600081555b8b61299c565b6000908282526129d7601f60208420920160051c8201858301613d61565b818355556129b3565b01519050878061268f565b9250600485016000526020600020906000935b601f1984168510612a42576001945083601f19811610612a29575b505050811b0160048301556126a7565b015160001960f88460031b161c19169055878080612a19565b818101518355602094850194600190930192909101906129fe565b015190508780612638565b9250600385016000526020600020906000935b601f1984168510612abf576001945083601f19811610612aa6575b505050811b016003830155612650565b015160001960f88460031b161c19169055878080612a96565b81810151835560209485019460019093019290910190612a7b565b0151905087806125d8565b9250600285016000526020600020906000935b601f1984168510612b3c576001945083601f19811610612b23575b505050811b0160028301556125f0565b015160001960f88460031b161c19169055878080612b13565b81810151835560209485019460019093019290910190612af8565b015190508780612578565b9250600185016000526020600020906000935b601f1984168510612bb9576001945083601f19811610612ba0575b505050811b016001830155612590565b015160001960f88460031b161c19169055878080612b90565b81810151835560209485019460019093019290910190612b75565b015190508780612524565b9250846000526020600020906000935b601f1984168510612c30576001945083601f19811610612c17575b505050811b018255612539565b015160001960f88460031b161c19169055878080612c0a565b81810151835560209485019460019093019290910190612bef565b60405162461bcd60e51b815260206004820152601b60248201527f4b504920637269746572696120616c72656164792065786973747300000000006044820152606490fd5b60405162461bcd60e51b815260206004820152601760248201527f54656e204b50492063616e6e6f7420626520656d7074790000000000000000006044820152606490fd5b60405162461bcd60e51b81526020600482015260166024820152754b50492049442063616e6e6f7420626520656d70747960501b6044820152606490fd5b3461027b57604036600319011261027b57612d2c613358565b336001600160a01b03821603612d48576104b290600435613b05565b60405162461bcd60e51b815260206004820152602f60248201527f416363657373436f6e74726f6c3a2063616e206f6e6c792072656e6f756e636560448201526e103937b632b9903337b91039b2b63360891b6064820152608490fd5b3461027b57600036600319011261027b576020600254604051908152f35b3461027b57600036600319011261027b5760206040517f4848aa3d2c0568bab3ca9720f91818ee0957e95426fa0627cc4809e2e5ed8be08152f35b3461027b57604036600319011261027b57600435612e1a613358565b816000526001602052612e346001604060002001546139fc565b81600052600160205260406000209060018060a01b0316908160005260205260ff6040600020541615612e6357005b8160005260016020526040600020816000526020526040600020600160ff1982541617905533917f2f8788117e7eff1d82e926ec794901d17c78024a50270940304540a733656f0d600080a4005b3461027b57600036600319011261027b5760206040517f5a3425ea67e73c95853ecfc0c443062de292a303c186bc2aac1178ae1b86c62a8152f35b3461027b5760208060031936011261027b576004356001600160401b03811161027b5781610ee9612f219236906004016133fd565b8101600781520301902090604051908181845491828152019360005281600020916000905b828210612f5d57610f4485610f38818903826133dc565b835486529485019460019384019390910190612f46565b3461027b57602036600319011261027b5760043560005260016020526020600160406000200154604051908152f35b3461027b57600036600319011261027b576020600354604051908152f35b3461027b57602036600319011261027b576004356001600160401b03811161027b57612ff19036906004016133fd565b604051818180935160208193019161300892613453565b8101600481520360200190206040518061302281846134d5565b0361302d90826133dc565b604051918261303f81600184016134d5565b0361304a90846133dc565b6040518061305b81600285016134d5565b0361306690826133dc565b6040518061307781600386016134d5565b0361308290826133dc565b6040518061309381600487016134d5565b0361309e90826133dc565b600584015490600685015460078601549160405194858060098a01906130c3916134d5565b036130ce90876133dc565b600a88015460ff1697600b0154966040519a8b9a610160808d528c016130f391613476565b8b810360208d015261310491613476565b8a810360408c015261311591613476565b89810360608b015261312691613476565b88810360808a015261313791613476565b9260a088015260c087015260e086015284810361010086015261315991613476565b9115156101208401526101408301520390f35b3461027b57602036600319011261027b576004356001600160401b03811161027b5761319f6131f39136906004016133fd565b6131a761369c565b600a6131db60206040516131ca600b8651928481818a0195610560818389613453565b604051809381928751928391613453565b810160048152030190200160ff198154169055613dbf565b7f089e269e692b16303715bb6af72ce6dd1578a6a4a2f1768bd6e97cab5b3f5346600080a2005b3461027b57604036600319011261027b576001600160401b0360043581811161027b5761324b9036906004016133fd565b9060243590811161027b57610f449161326b6132719236906004016133fd565b90614272565b60409391935193849384526020840152606060408401526060830190613476565b3461027b5760208060031936011261027b576132ac613342565b6132b461369c565b7f4848aa3d2c0568bab3ca9720f91818ee0957e95426fa0627cc4809e2e5ed8be09182600052600181526102dd6001604060002001546139fc565b3461027b57602036600319011261027b576004359063ffffffff60e01b821680920361027b57602091637965db0b60e01b8114908115613331575b5015158152f35b6301ffc9a760e01b1490508361332a565b600435906001600160a01b038216820361027b57565b602435906001600160a01b038216820361027b57565b61018081019081106001600160401b03821117610bd157604052565b6101c081019081106001600160401b03821117610bd157604052565b604081019081106001600160401b03821117610bd157604052565b608081019081106001600160401b03821117610bd157604052565b90601f801991011681019081106001600160401b03821117610bd157604052565b81601f8201121561027b578035906001600160401b038211610bd15760405192613431601f8401601f1916602001856133dc565b8284526020838301011161027b57816000926020809301838601378301015290565b60005b8381106134665750506000910152565b8181015183820152602001613456565b9060209161348f81518092818552858086019101613453565b601f01601f1916010190565b90600182811c921680156134cb575b60208310146134b557565b634e487b7160e01b600052602260045260246000fd5b91607f16916134aa565b90600092918054916134e68361349b565b9182825260019384811690816000146135485750600114613508575b50505050565b90919394506000526020928360002092846000945b838610613534575050505001019038808080613502565b80548587018301529401938590820161351d565b9294505050602093945060ff191683830152151560051b01019038808080613502565b6020908160408183019282815285518094520193019160005b828110613592575050505090565b835185529381019392810192600101613584565b6001600160401b038111610bd15760051b60200190565b9080601f8301121561027b578135906135d5826135a6565b926135e360405194856133dc565b828452602092838086019160051b8301019280841161027b57848301915b8483106136115750505050505090565b82356001600160401b03811161027b578691613632848480948901016133fd565b815201920191613601565b604060031982011261027b57600435906001600160401b03821161027b57613667916004016133fd565b9060243590565b80548210156136865760005260206000200190600090565b634e487b7160e01b600052603260045260246000fd5b3360009081527f50efbde2d46c37e9785f1791697f77e94bb7b701e19f1930a668820722d37694602090815260408083205490927fa49807205ce4d355092ef5a8a18f56e8913cf4a201fbe287825b095693c217759160019060ff1615613704575050505050565b61370d33613c07565b9285519161371a836133c1565b604283528583019360603686378351156138a3576030855383518210156138a35790607860218501536041915b818311613835575050506137f35760486137ef9386936137d3936137c4985198899376020b1b1b2b9b9a1b7b73a3937b61d1030b1b1b7bab73a1604d1b8a86015261379b815180928c603789019101613453565b8401917001034b99036b4b9b9b4b733903937b6329607d1b603784015251809386840190613453565b010360288101875201856133dc565b5192839262461bcd60e51b845260048401526024830190613476565b0390fd5b60648486519062461bcd60e51b825280600483015260248201527f537472696e67733a20686578206c656e67746820696e73756666696369656e746044820152fd5b909192600f8116601081101561388f576f181899199a1a9b1b9c1cb0b131b232b360811b901a6138658587613bf6565b5360041c92801561387b57600019019190613747565b634e487b7160e01b82526011600452602482fd5b634e487b7160e01b83526032600452602483fd5b634e487b7160e01b81526032600452602490fd5b3360009081527fe7cde21d50c1b02a2f8cc90c75a6cb6dec76dd80cdc9be1968e265db5683a537602090815260408083205490927f4848aa3d2c0568bab3ca9720f91818ee0957e95426fa0627cc4809e2e5ed8be09160019060ff161561391f575050505050565b61392833613c07565b92855191613935836133c1565b604283528583019360603686378351156138a3576030855383518210156138a35790607860218501536041915b8183116139b6575050506137f35760486137ef9386936137d3936137c4985198899376020b1b1b2b9b9a1b7b73a3937b61d1030b1b1b7bab73a1604d1b8a86015261379b815180928c603789019101613453565b909192600f8116601081101561388f576f181899199a1a9b1b9c1cb0b131b232b360811b901a6139e68587613bf6565b5360041c92801561387b57600019019190613962565b6000818152600191602091838352604093848220338352845260ff858320541615613a28575050505050565b613a3133613c07565b92855191613a3e836133c1565b604283528583019360603686378351156138a3576030855383518210156138a35790607860218501536041915b818311613abf575050506137f35760486137ef9386936137d3936137c4985198899376020b1b1b2b9b9a1b7b73a3937b61d1030b1b1b7bab73a1604d1b8a86015261379b815180928c603789019101613453565b909192600f8116601081101561388f576f181899199a1a9b1b9c1cb0b131b232b360811b901a613aef8587613bf6565b5360041c92801561387b57600019019190613a6b565b906000918083526001602052604083209160018060a01b03169182845260205260ff604084205416613b3657505050565b8083526001602052604083208284526020526040832060ff1981541690557ff6391f5c32d9c69d2a47ea670b442974b53935d1edc7fd64eb21e047a839171b339380a4565b6000546001600160a01b03163303613b8f57565b606460405162461bcd60e51b815260206004820152602060248201527f4f776e61626c653a2063616c6c6572206973206e6f7420746865206f776e65726044820152fd5b91908201809211613be057565b634e487b7160e01b600052601160045260246000fd5b908151811015613686570160200190565b60405190606082018281106001600160401b03821117610bd157604052602a82526020820160403682378251156136865760309053815160019081101561368657607860218401536029905b808211613ca7575050613c635790565b606460405162461bcd60e51b815260206004820152602060248201527f537472696e67733a20686578206c656e67746820696e73756666696369656e746044820152fd5b9091600f81166010811015613d00576f181899199a1a9b1b9c1cb0b131b232b360811b901a613cd68486613bf6565b5360041c918015613ceb576000190190613c53565b60246000634e487b7160e01b81526011600452fd5b60246000634e487b7160e01b81526032600452fd5b15613d1c57565b60405162461bcd60e51b815260206004820152601760248201527f54726f6e6720736f206d757374206265203c3d203130300000000000000000006044820152606490fd5b818110613d6c575050565b60008155600101613d61565b9190601f8111613d8757505050565b613db3926000526020600020906020601f840160051c83019310613db5575b601f0160051c0190613d61565b565b9091508190613da6565b613dd790602060405192828480945193849201613453565b810103902090565b15613de657565b60405162461bcd60e51b815260206004820152601b60248201527f4b504920637269746572696120646f6573206e6f7420657869737400000000006044820152606490fd5b8054600160401b811015610bd157613e489160018201815561366e565b819291549060031b91821b91600019901b1916179055565b15613e6757565b60405162461bcd60e51b815260206004820152601960248201527f4576616c756174696f6e20646f6573206e6f74206578697374000000000000006044820152606490fd5b91908203918211613be057565b8115613ec3570490565b634e487b7160e01b600052601260045260246000fd5b90604080518351613eef81836020809801613453565b81019084816004938481520301902090825192613f0b8461336e565b8051613f1b816105ac81876134d5565b8452805195600196613f33816105ac818b89016134d5565b818601528151613f4a816105ac81600289016134d5565b828601528151613f61816105ac81600389016134d5565b606086019081528251613f7a816105ac81888a016134d5565b6080870152600585015460a087015260068501549560c0810196875260078601549560e0820196875260088101998a5490613fb4826135a6565b91613fc1885193846133dc565b80835260009c8d52868d208d908885015b83831061419f57505050505091610160600b6944696e68206c756f6e6760b01b95937f606c48af7aa0b6848d5b98d1b45f1271b74f4ca1809de35bee0856cc6163c0279897956101008501528751614031816105ac81600986016134d5565b61012085015260ff600a820154161515610140850152015491015251818151910120925161405e816133a6565b600a815201521461408d575b5051821061407b5750606492915050565b5111905061408857604b90565b603290565b81518061409a575061406a565b809196959250841015614195578251908185101561412757505081518060031b908082046008149015171561411457600a900483101561410b576032830292808404603214901517156140f857506140f59293505190613eb9565b90565b634e487b7160e01b815260118552602490fd5b50603293505050565b634e487b7160e01b825260118652602482fd5b61414192949161413991979697613eac565b925190613eac565b601981029080820460191490151715614182579061415e91613eb9565b604b019182604b1161416f57505090565b634e487b7160e01b825260119052602490fd5b634e487b7160e01b835260118452602483fd5b5060649450505050565b848a81928d516141b3816105ac81896134d5565b815201920192019190613fd2565b605a81101561423e57604b81101561421e57603211156141ff576040516141e7816133a6565b600881526710da1d584819185d60c21b602082015290565b60405161420b816133a6565b600381526211185d60ea1b602082015290565b5060405161422b816133a6565b6003815262151bdd60ea1b602082015290565b5060405161424b816133a6565b6008815267587561742073616360c01b602082015290565b6000198114613be05760010190565b602061428e919392938160405193828580945193849201613453565b81016006815203019020916040518084602082965493848152019060005260206000209260005b8181106146a05750506142ca925003846133dc565b60009260009360009160005b815181101561463e5760208160051b8301015160005260056020526040600020604051906143038261338a565b8054825260405161431b816105ac81600186016134d5565b6020830152604051614334816105ac81600286016134d5565b604083015260405161434d816105ac81600386016134d5565b606083015260048101546080830152600581015460a0830152600681015460c0830152600781015460e083015260405161438e816105ac81600886016134d5565b6101008301526040516143a8816105ac81600986016134d5565b6101208301526040516143c2816105ac81600a86016134d5565b610140830152604051906143e4826143dd81600b85016134d5565b03836133dc565b81610160840152600d600c918281015461018086015201546101a0840152606083015160208151910120885160208a01201491826145e8575b5050614433575b5061442e90614263565b6142d6565b9261445560206040869a94979a01518160405193828580945193849201613453565b81016004815203019020936040519461446d8661336e565b60405161447e816105ac81856134d5565b8652604051614494816105ac81600186016134d5565b60208701526040516144ad816105ac81600286016134d5565b60408701526040516144c6816105ac81600386016134d5565b60608701526040516144df816105ac81600486016134d5565b6080870152600581015460a0870152600681015460c0870152600781015460e0870152600881018054614511816135a6565b9161451f60405193846133dc565b81835260208301906000526020600020906000905b8382106145c3575050505060e09291600b91610100890152604051614560816105ac81600986016134d5565b61012089015260ff600a820154161515610140890152015461016087015201519060a085015191828102928184041490151715613be05761442e9260a06145ad6145bc946145b694613bd3565b96015190613bd3565b97614263565b9390614424565b6001602081926040516145da816105ac818a6134d5565b815201930191019091614534565b7f3f437077f52723070cec42fdd9611915faf58e7d8e77a8e0b282ed1d671455b39250602081816b1118481c1a1948191d5e595d60a21b93519101209260405190614632826133a6565b8152015214388061441d565b505091509283156146735780156146695761465891613eb9565b905b614663826141c1565b91929190565b505060009061465a565b50509050600090600090604051602081018181106001600160401b03821117610bd1576040526000815290565b84548352600194850194889450602090930192016142b556fea26469706673582212209c88402dc096621406dedcf0781acbce1b5c69159e5ea6f51a9be1ac3a36382e64736f6c634300081300332f8788117e7eff1d82e926ec794901d17c78024a50270940304540a733656f0d",
  "linkReferences": {},
  "deployedLinkReferences": {}
}