{"contracts/PayrollManagement.sol":{"PayrollManagement":{"abi":[{"inputs":[{"internalType":"address","name":"_payrollToken","type":"address"},{"internalType":"address","name":"_kpiContract","type":"address"},{"internalType":"address","name":"_attendanceContract","type":"address"}],"stateMutability":"nonpayable","type":"constructor"},{"anonymous":false,"inputs":[{"indexed":true,"internalType":"address","name":"attendanceContractAddress","type":"address"}],"name":"AttendanceContractSet","type":"event"},{"anonymous":false,"inputs":[{"indexed":true,"internalType":"string","name":"employeeDid","type":"string"},{"indexed":false,"internalType":"uint256","name":"baseSalary","type":"uint256"},{"indexed":false,"internalType":"uint256","name":"kpiBonus","type":"uint256"}],"name":"EmployeeSalarySet","type":"event"},{"anonymous":false,"inputs":[{"indexed":true,"internalType":"address","name":"depositor","type":"address"},{"indexed":false,"internalType":"uint256","name":"amount","type":"uint256"}],"name":"FundsDeposited","type":"event"},{"anonymous":false,"inputs":[{"indexed":true,"internalType":"address","name":"withdrawer","type":"address"},{"indexed":false,"internalType":"uint256","name":"amount","type":"uint256"}],"name":"FundsWithdrawn","type":"event"},{"anonymous":false,"inputs":[{"indexed":true,"internalType":"address","name":"kpiContractAddress","type":"address"}],"name":"KpiContractSet","type":"event"},{"anonymous":false,"inputs":[{"indexed":true,"internalType":"address","name":"previousOwner","type":"address"},{"indexed":true,"internalType":"address","name":"newOwner","type":"address"}],"name":"OwnershipTransferred","type":"event"},{"anonymous":false,"inputs":[{"indexed":true,"internalType":"uint256","name":"payrollId","type":"uint256"},{"indexed":false,"internalType":"string","name":"employeeDid","type":"string"},{"indexed":false,"internalType":"address","name":"approvedBy","type":"address"}],"name":"PayrollApproved","type":"event"},{"anonymous":false,"inputs":[{"indexed":true,"internalType":"uint256","name":"payrollId","type":"uint256"},{"indexed":false,"internalType":"string","name":"employeeDid","type":"string"}],"name":"PayrollCancelled","type":"event"},{"anonymous":false,"inputs":[{"indexed":false,"internalType":"uint256","name":"standardWorkingDays","type":"uint256"},{"indexed":false,"internalType":"uint256","name":"standardWorkingHours","type":"uint256"}],"name":"PayrollConfigUpdated","type":"event"},{"anonymous":false,"inputs":[{"indexed":true,"internalType":"uint256","name":"payrollId","type":"uint256"},{"indexed":false,"internalType":"string","name":"employeeDid","type":"string"},{"indexed":false,"internalType":"string","name":"period","type":"string"},{"indexed":false,"internalType":"uint256","name":"netSalary","type":"uint256"}],"name":"PayrollCreated","type":"event"},{"anonymous":false,"inputs":[{"indexed":true,"internalType":"uint256","name":"payrollId","type":"uint256"},{"indexed":false,"internalType":"string","name":"employeeDid","type":"string"},{"indexed":false,"internalType":"uint256","name":"amount","type":"uint256"},{"indexed":false,"internalType":"bytes32","name":"txHash","type":"bytes32"}],"name":"PayrollPaid","type":"event"},{"anonymous":false,"inputs":[{"indexed":true,"internalType":"uint256","name":"payrollId","type":"uint256"},{"indexed":false,"internalType":"string","name":"employeeDid","type":"string"},{"indexed":false,"internalType":"uint256","name":"newNetSalary","type":"uint256"}],"name":"PayrollUpdated","type":"event"},{"anonymous":false,"inputs":[{"indexed":true,"internalType":"bytes32","name":"role","type":"bytes32"},{"indexed":true,"internalType":"bytes32","name":"previousAdminRole","type":"bytes32"},{"indexed":true,"internalType":"bytes32","name":"newAdminRole","type":"bytes32"}],"name":"RoleAdminChanged","type":"event"},{"anonymous":false,"inputs":[{"indexed":true,"internalType":"bytes32","name":"role","type":"bytes32"},{"indexed":true,"internalType":"address","name":"account","type":"address"},{"indexed":true,"internalType":"address","name":"sender","type":"address"}],"name":"RoleGranted","type":"event"},{"anonymous":false,"inputs":[{"indexed":true,"internalType":"bytes32","name":"role","type":"bytes32"},{"indexed":true,"internalType":"address","name":"account","type":"address"},{"indexed":true,"internalType":"address","name":"sender","type":"address"}],"name":"RoleRevoked","type":"event"},{"anonymous":false,"inputs":[{"indexed":true,"internalType":"address","name":"tokenAddress","type":"address"}],"name":"TokenSet","type":"event"},{"anonymous":false,"inputs":[{"indexed":true,"internalType":"uint256","name":"transactionId","type":"uint256"},{"indexed":false,"internalType":"string","name":"employeeDid","type":"string"},{"indexed":false,"internalType":"uint256","name":"amount","type":"uint256"},{"indexed":false,"internalType":"string","name":"transactionType","type":"string"}],"name":"TransactionRecorded","type":"event"},{"inputs":[],"name":"ADMIN_ROLE","outputs":[{"internalType":"bytes32","name":"","type":"bytes32"}],"stateMutability":"view","type":"function"},{"inputs":[],"name":"DEFAULT_ADMIN_ROLE","outputs":[{"internalType":"bytes32","name":"","type":"bytes32"}],"stateMutability":"view","type":"function"},{"inputs":[],"name":"EMPLOYEE_ROLE","outputs":[{"internalType":"bytes32","name":"","type":"bytes32"}],"stateMutability":"view","type":"function"},{"inputs":[],"name":"HR_ROLE","outputs":[{"internalType":"bytes32","name":"","type":"bytes32"}],"stateMutability":"view","type":"function"},{"inputs":[{"internalType":"uint256","name":"payrollId","type":"uint256"}],"name":"approvePayroll","outputs":[],"stateMutability":"nonpayable","type":"function"},{"inputs":[],"name":"attendanceContract","outputs":[{"internalType":"contract IAttendanceManagement","name":"","type":"address"}],"stateMutability":"view","type":"function"},{"inputs":[{"internalType":"string","name":"employeeDid","type":"string"},{"internalType":"string","name":"period","type":"string"}],"name":"calculateNetSalaryAuto","outputs":[{"internalType":"uint256","name":"baseSalaryActual","type":"uint256"},{"internalType":"uint256","name":"kpiBonus","type":"uint256"},{"internalType":"uint256","name":"allowance","type":"uint256"},{"internalType":"uint256","name":"overtimeBonus","type":"uint256"},{"internalType":"uint256","name":"taxAmount","type":"uint256"},{"internalType":"uint256","name":"netSalary","type":"uint256"},{"internalType":"uint256","name":"workingDays","type":"uint256"},{"internalType":"uint256","name":"kpiScore","type":"uint256"}],"stateMutability":"view","type":"function"},{"inputs":[{"internalType":"string","name":"employeeDid","type":"string"},{"internalType":"uint256","name":"kpiScore","type":"uint256"},{"internalType":"uint256","name":"workingDays","type":"uint256"},{"internalType":"uint256","name":"overtimeHours","type":"uint256"}],"name":"calculateNetSalaryManual","outputs":[{"internalType":"uint256","name":"baseSalaryActual","type":"uint256"},{"internalType":"uint256","name":"kpiBonus","type":"uint256"},{"internalType":"uint256","name":"allowance","type":"uint256"},{"internalType":"uint256","name":"overtimeBonus","type":"uint256"},{"internalType":"uint256","name":"taxAmount","type":"uint256"},{"internalType":"uint256","name":"netSalary","type":"uint256"}],"stateMutability":"view","type":"function"},{"inputs":[{"internalType":"uint256","name":"payrollId","type":"uint256"}],"name":"cancelPayroll","outputs":[],"stateMutability":"nonpayable","type":"function"},{"inputs":[],"name":"contractBalance","outputs":[{"internalType":"uint256","name":"","type":"uint256"}],"stateMutability":"view","type":"function"},{"inputs":[{"internalType":"string","name":"employeeDid","type":"string"},{"internalType":"string","name":"period","type":"string"}],"name":"createPayroll","outputs":[{"internalType":"uint256","name":"","type":"uint256"}],"stateMutability":"nonpayable","type":"function"},{"inputs":[{"internalType":"string","name":"employeeDid","type":"string"},{"internalType":"string","name":"period","type":"string"},{"internalType":"uint256","name":"kpiScore","type":"uint256"},{"internalType":"uint256","name":"workingDays","type":"uint256"},{"internalType":"uint256","name":"overtimeHours","type":"uint256"}],"name":"createPayrollManual","outputs":[{"internalType":"uint256","name":"","type":"uint256"}],"stateMutability":"nonpayable","type":"function"},{"inputs":[{"internalType":"string","name":"employeeDid","type":"string"}],"name":"deactivateEmployeeSalary","outputs":[],"stateMutability":"nonpayable","type":"function"},{"inputs":[{"internalType":"uint256","name":"amount","type":"uint256"}],"name":"depositFunds","outputs":[],"stateMutability":"payable","type":"function"},{"inputs":[{"internalType":"string","name":"","type":"string"},{"internalType":"uint256","name":"","type":"uint256"}],"name":"employeePayrolls","outputs":[{"internalType":"uint256","name":"","type":"uint256"}],"stateMutability":"view","type":"function"},{"inputs":[{"internalType":"string","name":"","type":"string"}],"name":"employeeSalaries","outputs":[{"internalType":"string","name":"employeeDid","type":"string"},{"internalType":"uint256","name":"baseSalary","type":"uint256"},{"internalType":"uint256","name":"kpiBonus","type":"uint256"},{"internalType":"uint256","name":"allowance","type":"uint256"},{"internalType":"uint256","name":"taxRate","type":"uint256"},{"internalType":"uint256","name":"overtimeRate","type":"uint256"},{"internalType":"bool","name":"isActive","type":"bool"},{"internalType":"uint256","name":"lastPaidDate","type":"uint256"},{"internalType":"uint256","name":"totalPaid","type":"uint256"}],"stateMutability":"view","type":"function"},{"inputs":[{"internalType":"string","name":"","type":"string"},{"internalType":"uint256","name":"","type":"uint256"}],"name":"employeeTransactions","outputs":[{"internalType":"uint256","name":"","type":"uint256"}],"stateMutability":"view","type":"function"},{"inputs":[],"name":"getBalanceSummary","outputs":[{"internalType":"uint256","name":"_totalDeposited","type":"uint256"},{"internalType":"uint256","name":"_totalPaid","type":"uint256"},{"internalType":"uint256","name":"_contractBalance","type":"uint256"},{"internalType":"bool","name":"isBalanced","type":"bool"}],"stateMutability":"view","type":"function"},{"inputs":[],"name":"getContractBalance","outputs":[{"internalType":"uint256","name":"","type":"uint256"}],"stateMutability":"view","type":"function"},{"inputs":[{"internalType":"string","name":"employeeDid","type":"string"}],"name":"getEmployeePayrolls","outputs":[{"internalType":"uint256[]","name":"","type":"uint256[]"}],"stateMutability":"view","type":"function"},{"inputs":[{"internalType":"string","name":"employeeDid","type":"string"}],"name":"getEmployeeSalary","outputs":[{"components":[{"internalType":"string","name":"employeeDid","type":"string"},{"internalType":"uint256","name":"baseSalary","type":"uint256"},{"internalType":"uint256","name":"kpiBonus","type":"uint256"},{"internalType":"uint256","name":"allowance","type":"uint256"},{"internalType":"uint256","name":"taxRate","type":"uint256"},{"internalType":"uint256","name":"overtimeRate","type":"uint256"},{"internalType":"bool","name":"isActive","type":"bool"},{"internalType":"uint256","name":"lastPaidDate","type":"uint256"},{"internalType":"uint256","name":"totalPaid","type":"uint256"}],"internalType":"struct PayrollManagement.EmployeeSalary","name":"","type":"tuple"}],"stateMutability":"view","type":"function"},{"inputs":[{"internalType":"string","name":"employeeDid","type":"string"}],"name":"getEmployeeTransactions","outputs":[{"internalType":"uint256[]","name":"","type":"uint256[]"}],"stateMutability":"view","type":"function"},{"inputs":[{"internalType":"uint256","name":"payrollId","type":"uint256"}],"name":"getPayrollRecord","outputs":[{"components":[{"internalType":"uint256","name":"payrollId","type":"uint256"},{"internalType":"string","name":"employeeDid","type":"string"},{"internalType":"string","name":"period","type":"string"},{"internalType":"uint256","name":"baseSalary","type":"uint256"},{"internalType":"uint256","name":"actualWorkingDays","type":"uint256"},{"internalType":"uint256","name":"standardWorkingDays","type":"uint256"},{"internalType":"uint256","name":"baseSalaryActual","type":"uint256"},{"internalType":"uint256","name":"kpiBonus","type":"uint256"},{"internalType":"uint256","name":"allowance","type":"uint256"},{"internalType":"uint256","name":"overtimeBonus","type":"uint256"},{"internalType":"uint256","name":"taxAmount","type":"uint256"},{"internalType":"uint256","name":"netSalary","type":"uint256"},{"internalType":"uint256","name":"paidAmount","type":"uint256"},{"internalType":"string","name":"status","type":"string"},{"internalType":"uint256","name":"createdAt","type":"uint256"},{"internalType":"uint256","name":"approvedAt","type":"uint256"},{"internalType":"uint256","name":"paidAt","type":"uint256"},{"internalType":"address","name":"approvedBy","type":"address"},{"internalType":"address","name":"paidBy","type":"address"}],"internalType":"struct PayrollManagement.PayrollRecord","name":"","type":"tuple"}],"stateMutability":"view","type":"function"},{"inputs":[{"internalType":"string","name":"period","type":"string"}],"name":"getPeriodPayrolls","outputs":[{"internalType":"uint256[]","name":"","type":"uint256[]"}],"stateMutability":"view","type":"function"},{"inputs":[{"internalType":"bytes32","name":"role","type":"bytes32"}],"name":"getRoleAdmin","outputs":[{"internalType":"bytes32","name":"","type":"bytes32"}],"stateMutability":"view","type":"function"},{"inputs":[{"internalType":"uint256","name":"transactionId","type":"uint256"}],"name":"getTransaction","outputs":[{"components":[{"internalType":"uint256","name":"transactionId","type":"uint256"},{"internalType":"string","name":"employeeDid","type":"string"},{"internalType":"uint256","name":"amount","type":"uint256"},{"internalType":"string","name":"transactionType","type":"string"},{"internalType":"string","name":"description","type":"string"},{"internalType":"uint256","name":"timestamp","type":"uint256"},{"internalType":"bytes32","name":"txHash","type":"bytes32"}],"internalType":"struct PayrollManagement.TransactionRecord","name":"","type":"tuple"}],"stateMutability":"view","type":"function"},{"inputs":[{"internalType":"address","name":"account","type":"address"}],"name":"grantEmployeeRole","outputs":[],"stateMutability":"nonpayable","type":"function"},{"inputs":[{"internalType":"address","name":"account","type":"address"}],"name":"grantHRRole","outputs":[],"stateMutability":"nonpayable","type":"function"},{"inputs":[{"internalType":"bytes32","name":"role","type":"bytes32"},{"internalType":"address","name":"account","type":"address"}],"name":"grantRole","outputs":[],"stateMutability":"nonpayable","type":"function"},{"inputs":[{"internalType":"bytes32","name":"role","type":"bytes32"},{"internalType":"address","name":"account","type":"address"}],"name":"hasRole","outputs":[{"internalType":"bool","name":"","type":"bool"}],"stateMutability":"view","type":"function"},{"inputs":[],"name":"kpiContract","outputs":[{"internalType":"contract IKpiManagement","name":"","type":"address"}],"stateMutability":"view","type":"function"},{"inputs":[],"name":"owner","outputs":[{"internalType":"address","name":"","type":"address"}],"stateMutability":"view","type":"function"},{"inputs":[{"internalType":"uint256","name":"payrollId","type":"uint256"}],"name":"payEmployee","outputs":[],"stateMutability":"nonpayable","type":"function"},{"inputs":[{"internalType":"uint256","name":"","type":"uint256"}],"name":"payrollRecords","outputs":[{"internalType":"uint256","name":"payrollId","type":"uint256"},{"internalType":"string","name":"employeeDid","type":"string"},{"internalType":"string","name":"period","type":"string"},{"internalType":"uint256","name":"baseSalary","type":"uint256"},{"internalType":"uint256","name":"actualWorkingDays","type":"uint256"},{"internalType":"uint256","name":"standardWorkingDays","type":"uint256"},{"internalType":"uint256","name":"baseSalaryActual","type":"uint256"},{"internalType":"uint256","name":"kpiBonus","type":"uint256"},{"internalType":"uint256","name":"allowance","type":"uint256"},{"internalType":"uint256","name":"overtimeBonus","type":"uint256"},{"internalType":"uint256","name":"taxAmount","type":"uint256"},{"internalType":"uint256","name":"netSalary","type":"uint256"},{"internalType":"uint256","name":"paidAmount","type":"uint256"},{"internalType":"string","name":"status","type":"string"},{"internalType":"uint256","name":"createdAt","type":"uint256"},{"internalType":"uint256","name":"approvedAt","type":"uint256"},{"internalType":"uint256","name":"paidAt","type":"uint256"},{"internalType":"address","name":"approvedBy","type":"address"},{"internalType":"address","name":"paidBy","type":"address"}],"stateMutability":"view","type":"function"},{"inputs":[],"name":"payrollToken","outputs":[{"internalType":"contract IERC20","name":"","type":"address"}],"stateMutability":"view","type":"function"},{"inputs":[{"internalType":"string","name":"","type":"string"},{"internalType":"uint256","name":"","type":"uint256"}],"name":"periodPayrolls","outputs":[{"internalType":"uint256","name":"","type":"uint256"}],"stateMutability":"view","type":"function"},{"inputs":[],"name":"renounceOwnership","outputs":[],"stateMutability":"nonpayable","type":"function"},{"inputs":[{"internalType":"bytes32","name":"role","type":"bytes32"},{"internalType":"address","name":"account","type":"address"}],"name":"renounceRole","outputs":[],"stateMutability":"nonpayable","type":"function"},{"inputs":[{"internalType":"bytes32","name":"role","type":"bytes32"},{"internalType":"address","name":"account","type":"address"}],"name":"revokeRole","outputs":[],"stateMutability":"nonpayable","type":"function"},{"inputs":[{"internalType":"address","name":"_attendanceContract","type":"address"}],"name":"setAttendanceContract","outputs":[],"stateMutability":"nonpayable","type":"function"},{"inputs":[{"internalType":"string","name":"employeeDid","type":"string"},{"internalType":"uint256","name":"baseSalary","type":"uint256"},{"internalType":"uint256","name":"kpiBonus","type":"uint256"},{"internalType":"uint256","name":"allowance","type":"uint256"},{"internalType":"uint256","name":"taxRate","type":"uint256"},{"internalType":"uint256","name":"overtimeRate","type":"uint256"}],"name":"setEmployeeSalary","outputs":[],"stateMutability":"nonpayable","type":"function"},{"inputs":[{"internalType":"address","name":"_kpiContract","type":"address"}],"name":"setKpiContract","outputs":[],"stateMutability":"nonpayable","type":"function"},{"inputs":[{"internalType":"address","name":"_payrollToken","type":"address"}],"name":"setPayrollToken","outputs":[],"stateMutability":"nonpayable","type":"function"},{"inputs":[],"name":"standardWorkingDaysPerMonth","outputs":[{"internalType":"uint256","name":"","type":"uint256"}],"stateMutability":"view","type":"function"},{"inputs":[],"name":"standardWorkingHoursPerMonth","outputs":[{"internalType":"uint256","name":"","type":"uint256"}],"stateMutability":"view","type":"function"},{"inputs":[],"name":"standardWorkingHoursPerYear","outputs":[{"internalType":"uint256","name":"","type":"uint256"}],"stateMutability":"view","type":"function"},{"inputs":[{"internalType":"bytes4","name":"interfaceId","type":"bytes4"}],"name":"supportsInterface","outputs":[{"internalType":"bool","name":"","type":"bool"}],"stateMutability":"view","type":"function"},{"inputs":[],"name":"totalDeposited","outputs":[{"internalType":"uint256","name":"","type":"uint256"}],"stateMutability":"view","type":"function"},{"inputs":[],"name":"totalPaid","outputs":[{"internalType":"uint256","name":"","type":"uint256"}],"stateMutability":"view","type":"function"},{"inputs":[{"internalType":"uint256","name":"","type":"uint256"}],"name":"transactions","outputs":[{"internalType":"uint256","name":"transactionId","type":"uint256"},{"internalType":"string","name":"employeeDid","type":"string"},{"internalType":"uint256","name":"amount","type":"uint256"},{"internalType":"string","name":"transactionType","type":"string"},{"internalType":"string","name":"description","type":"string"},{"internalType":"uint256","name":"timestamp","type":"uint256"},{"internalType":"bytes32","name":"txHash","type":"bytes32"}],"stateMutability":"view","type":"function"},{"inputs":[{"internalType":"address","name":"newOwner","type":"address"}],"name":"transferOwnership","outputs":[],"stateMutability":"nonpayable","type":"function"},{"inputs":[{"internalType":"string","name":"employeeDid","type":"string"},{"internalType":"uint256","name":"baseSalary","type":"uint256"},{"internalType":"uint256","name":"kpiBonus","type":"uint256"},{"internalType":"uint256","name":"allowance","type":"uint256"},{"internalType":"uint256","name":"taxRate","type":"uint256"},{"internalType":"uint256","name":"overtimeRate","type":"uint256"}],"name":"updateEmployeeSalary","outputs":[],"stateMutability":"nonpayable","type":"function"},{"inputs":[{"internalType":"uint256","name":"payrollId","type":"uint256"},{"internalType":"uint256","name":"kpiScore","type":"uint256"},{"internalType":"uint256","name":"workingDays","type":"uint256"},{"internalType":"uint256","name":"overtimeHours","type":"uint256"}],"name":"updatePayroll","outputs":[],"stateMutability":"nonpayable","type":"function"},{"inputs":[{"internalType":"uint256","name":"_standardWorkingDays","type":"uint256"},{"internalType":"uint256","name":"_standardWorkingHours","type":"uint256"}],"name":"updatePayrollConfig","outputs":[],"stateMutability":"nonpayable","type":"function"},{"inputs":[{"internalType":"uint256","name":"amount","type":"uint256"}],"name":"withdrawFunds","outputs":[],"stateMutability":"nonpayable","type":"function"},{"stateMutability":"payable","type":"receive"}],"evm":{"bytecode":{"linkReferences":{},"object":"608034620002e757601f620053f838819003918201601f191683019291906001600160401b03841183851017620002ec578160609284926040968752833981010312620002e757620000518162000302565b906020916200006f846200006785850162000302565b930162000302565b600080546001600160a01b0319808216339081178455929690956001600160a01b039586949193859391929084167f8be0079c531659141344cd1fd0a4f28419497f9722a3daafe3b4186f6b6457e08b80a3600180600255601660085560b0600955610820600a558980528082528a8a20338b52825260ff8b8b20541615620002b0575b7fa49807205ce4d355092ef5a8a18f56e8913cf4a201fbe287825b095693c21775808b528183528b8b20338c52835260ff8c8c2054161562000277575b507ffd70517941c75212b0f9013e45c47a37d6d983c5304288c7af285f2ea40cbba791828b528181528b8b20338c52815260ff8c8c205416156200023c575b505050168062000207575b501680620001d2575b501691826200019c575b83516150c09081620003188239f35b827f5efc264d5d2c80d5ecd3505a89b7c8b6bffbc86e436fe4218d13e6d85124d16592600754161760075580a23880806200018d565b808460065416176006557f8db477f6b4424c3995e606a7117a72572af19f492bee06697ad2c8329f2ab7e58580a23862000183565b808660055416176005557fa07c91c183e42229e705a9795a1c06d76528b673788b849597364528c96eefb78780a2386200017a565b828b528181528b8b2090338c52528a8a209060ff1982541617905533903390600080516020620053d88339815191528b80a43880806200016f565b808b528183528b8b20338c5283528b8b208260ff1982541617905533903390600080516020620053d88339815191528d80a43862000130565b8980528082528a8a20338b5282528a8a208160ff1982541617905533338b600080516020620053d88339815191528180a4620000f3565b600080fd5b634e487b7160e01b600052604160045260246000fd5b51906001600160a01b0382168203620002e75756fe610140806040526004361015610068575b50361561001c57600080fd5b61002834601154614771565b60115561003734601354614771565b6013556040513481527f543ba50a5eec5e6178218e364b1d0f396157b3c8fa278522c2cb7fd99407d47460203392a2005b60003560e01c90816301ffc9a714613fb757508063034d0e7c14613f8557806308820ca014613e5e578063155dd5ee14613d0b57806318aaa21914613c975780631adb88eb146139035780631b655ef01461387b5780631e7a339114613852578063248a9ca3146138235780632a4cab90146137e85780632f2ff15d1461373557806333ea3dc81461359957806336568abe1461350757806338ce4fd8146133565780633b76594d1461321d5780633e1c8238146131ff57806349676faa1461317757806352830aa7146130a357806353e6837e14612eaa57806361bc441d14612dfc57806362c7d48114612d685780636e468c5f14612c995780636f9fb98a14612c7657806370ac906714612aba578063715018a614612a6157806375b238fc14612a385780637b43608c14612a065780638b7afe2e146129e85780638da5cb5b146129bf5780638eb335d11461296a57806391d148541461291d5780639ace38c214612852578063a13e7ea7146126b9578063a217fddf1461269d578063a4ffe09c1461267f578063b1e967b1146125d9578063b90aac681461247b578063bb3a9a7f146123d0578063c0e5f23d146122ca578063c7012a9814611a52578063cbae42f914611a29578063cc0c7ee814611a0b578063cf20c6d1146119e2578063d547741f146119a1578063dc3620e31461134e578063e7b0f66614611330578063e7e6a1f814610cb8578063e8fb165214610b66578063ec10c8de14610aac578063f2fde38b146109e3578063f3b3444b146108e8578063f3c6a198146108bf578063fbcdcea5146105eb578063fc19c040146102f55763ff50abdc146102d25738610010565b346102f05760003660031901126102f0576020601154604051908152f35b600080fd5b346102f05760203660031901126102f057600061024060405161031781614041565b82815260606020820152606060408201528260608201528260808201528260a08201528260c08201528260e0820152826101008201528261012082015282610140820152826101608201528261018082015260606101a0820152826101c0820152826101e08201528261020082015282610220820152015260043580600052600c6020526103ab6040600020541515614d87565b600052600c6020526040600020604051906103c582614041565b805482526040516103e4816103dd816001860161429f565b0382614093565b60208301526040516103fd816103dd816002860161429f565b60408301526003810154606083015260048101546080830152600581015460a0830152600681015460c0830152600781015460e083015260088101546101008301526009810154610120830152600a810154610140830152600b810154610160830152600c81015461018083015260405161047f816103dd81600d860161429f565b6101a0830152600e8101546101c0830152600f8101546101e0830152601081015461020083015260018060a01b03601182015416610220830152601260018060a01b03910154166102408201526040518091602082528051602083015261059a6105136104fd60208401516102606040870152610280860190614240565b6040840151858203601f19016060870152614240565b60608301516080850152608083015160a085015260a083015160c085015260c083015160e085015260e08301516101008501526101008301516101208501526101208301516101408501526101408301516101608501526101608301516101808501526101808301516101a08501526101a0830151601f19858303016101c0860152614240565b906101c08101516101e08401526101e081015161020084015261020081015161022084015260018060a01b036102208201511661024084015261024060018060a01b03910151166102608301520390f35b346102f05760803660031901126102f05760043560243560443560008051602061502b833981519152600052602060018152604060002033600052815260ff604060002054168015610891575b610641906147e6565b83600052600c815260406000209161065b83541515614d87565b60405161066f816103dd81600d880161429f565b82815191012061067d6149e6565b8381519101200361084c576106956064851115614cef565b6106a2601f821115614d3b565b600183019260405183816106b68188614dd3565b600b815203019020604051906106cb8261400a565b604051806106d9818461429f565b036106e49082614093565b825260018101548583019181835260028101549860408501998a5286600383015493606087019485526004840154966080810197885260058501549460a08201958652600681015460ff16151560c0830152600781015460e083015260080154906101000152600854610756916149c6565b9061076091614748565b998451905161076e91614748565b9061077891614748565b612710900491519260643590600a54600c9004905190610797916149c6565b906107a191614748565b90516107ac91614748565b6064900480926107bc838b614771565b906107c691614771565b906107d091614771565b92516107dc9084614748565b6064900492836107eb91614a90565b9788956004860155600685015560078401556009830155600a820155600b015560405192839260408452604084016108229161429f565b91830152037fc4c138cf6e124771be2081f23d0afa448b1c8d50a02de3069f3fec33169d80ea91a2005b60405162461bcd60e51b815260048101839052601f60248201527f43616e206f6e6c79207570646174652070656e64696e6720706179726f6c6c006044820152606490fd5b5060008051602061504b8339815191526000908152600182526040808220338352835290205460ff16610638565b346102f05760003660031901126102f057602060405160008051602061502b8339815191528152f35b346102f0576020806003193601126102f057610902614198565b60008051602061504b8339815191526000526001808352604060002033600052835261093560ff6040600020541661478f565b7f5a3425ea67e73c95853ecfc0c443062de292a303c186bc2aac1178ae1b86c62a928360005281815261096e826040600020015461437b565b600084815282825260408082206001600160a01b0390951680835294835290205460ff161561099957005b83600052818152604060002090836000525260406000209060ff1982541617905533917f2f8788117e7eff1d82e926ec794901d17c78024a50270940304540a733656f0d600080a4005b346102f05760203660031901126102f0576109fc614198565b610a046146f0565b6001600160a01b03908116908115610a5857600054826bffffffffffffffffffffffff60a01b821617600055167f8be0079c531659141344cd1fd0a4f28419497f9722a3daafe3b4186f6b6457e0600080a3005b60405162461bcd60e51b815260206004820152602660248201527f4f776e61626c653a206e6577206f776e657220697320746865207a65726f206160448201526564647265737360d01b6064820152608490fd5b346102f05760203660031901126102f057610ac5614198565b610acd6146f0565b6001600160a01b03168015610b1557600780546001600160a01b031916821790557f5efc264d5d2c80d5ecd3505a89b7c8b6bffbc86e436fe4218d13e6d85124d165600080a2005b60405162461bcd60e51b815260206004820152602360248201527f496e76616c696420617474656e64616e636520636f6e7472616374206164647260448201526265737360e81b6064820152608490fd5b346102f0576020806003193601126102f0576004359060008051602061504b833981519152600052600181526040600020336000528152610bae60ff6040600020541661478f565b81600052600c8152604060002090610bc882541515614d87565b600d8201604051610bdd816103dd818561429f565b828151910120610beb6149e6565b83815191012003610c7d5791610c729183610c30610c2a7f44dd012f44acefe4a6fb2b5d2128a7a4bef294a4718a160d4999b44fadba3b389654614265565b8261485a565b601067105c1c1c9bdd995960c21b01905542600f8301556011820180546001600160a01b0319163317905560408051818152938493909184019060010161429f565b9033908301520390a2005b60405162461bcd60e51b8152600481018390526013602482015272506179726f6c6c206e6f742070656e64696e6760681b6044820152606490fd5b346102f057610cc636614335565b336000908152600080516020614feb833981519152602052604090205460ff16801561130a575b610cf6906147e6565b610d2460ff60066040516020818751610d128183858c01614147565b8101600b8152030190200154166148e9565b6006546001600160a01b0316600081611235575b610d4491508284614a9d565b959693909460016003949394540197886003556001610d7260208c8160405193828580945193849201614147565b8101600b815203019020015497516008549060405199610d918b614041565b8b8b528c60208c01528860408c015260608b015260808a015260a089015260c088015260e0870152610100860152610120850152610140840152816101608401526000610180840152610de26149e6565b6101a0840152426101c084015260006101e084015260006102008401526000610220840152600061024084015283600052600c6020526040600020948351865560208401518051906001600160401b038211611125578190610e5482610e4b60018c0154614265565b60018c01614884565b602090601f83116001146111c3576000926111b8575b50508160011b916000199060031b1c19161760018701555b60408401518051906001600160401b038211611125578190610eb482610eab60028c0154614265565b60028c01614884565b602090601f83116001146111465760009261113b575b50508160011b916000199060031b1c19161760028701555b606084015160038701556080840151600487015560a0840151600587015560c0840151600687015560e0840151600787015561010084015160088701556101208401516009870155610140840151600a870155610160840151600b870155610180840151600c8701556101a0840151928351966001600160401b03881161112557878795610f8260209a610f79600d860154614265565b600d8601614884565b8990601f831160011461109b57918061108595949260008051602061506b833981519152999a94600092611090575b50508160011b916000199060031b1c191617600d8201555b6101c0820151600e8201556101e0820151600f82015561020082015160108201556102208201516011820180546001600160a01b03199081166001600160a01b03938416179091556102409093015160129092018054909316911617905560405183516110529188918b90829061104381838b8601614147565b8101600d815203019020614a09565b611079866040518a81885161106a8183858d01614147565b8101600e815203019020614a09565b60405193849384614a43565b0390a2604051908152f35b015190508c80610fb1565b97929190600d83016000528a6000209860005b601f198416811061110b57509160008051602061506b83398151915298996001926110859796959483601f198116106110f2575b505050811b01600d820155610fc9565b015160001960f88460031b161c191690558c80806110e2565b828201518b556001909a01998b9950918c01918c016110ae565b634e487b7160e01b600052604160045260246000fd5b015190508880610eca565b9250600289016000526020600020906000935b601f198416851061119d576001945083601f19811610611184575b505050811b016002870155610ee2565b015160001960f88460031b161c19169055888080611174565b81810151835560209485019460019093019290910190611159565b015190508880610e6a565b9250600189016000526020600020906000935b601f198416851061121a576001945083601f19811610611201575b505050811b016001870155610e82565b015160001960f88460031b161c191690558880806111f1565b818101518355602094850194600190930192909101906111d6565b5060006040518092630467e0f560e11b825281806112578789600484016149a1565b03915afa80156112fe576000916000916112d8575b5080156112cf5761127c916149c6565b6064811161128a5780610d38565b60405162461bcd60e51b815260206004820152601f60248201527f496e76616c6964204b50492073636f72652066726f6d20636f6e7472616374006044820152606490fd5b5050600061127c565b90506112f791503d806000833e6112ef8183614093565b810190614935565b508461126c565b6040513d6000823e3d90fd5b5033600090815260008051602061500b833981519152602052604090205460ff16610ced565b346102f05760003660031901126102f0576020601254604051908152f35b346102f05760a03660031901126102f0576004356001600160401b0381116102f05761137e9036906004016140cf565b6024356001600160401b0381116102f05761139d9036906004016140cf565b336000908152600080516020614feb833981519152602052604090205460ff16801561197b575b6113cd906147e6565b6113e960ff60066040516020818751610d128183858c01614147565b6114126044356113fc6064821115614cef565b61140b601f6064351115614d3b565b8284614a9d565b939496955050505060643581526040608435910152604051602081865161143c8183858b01614147565b8101600b81520301902091604051936114548561400a565b604051611465816103dd818861429f565b85526008600185015494856020880152600281015460408801526003810154606088015260048101546080880152600581015460a088015260ff600682015416151560c0880152600781015460e088015201546101008601526114d7600854946114d286606435926149c6565b614748565b9260646115016114f66084356114d2600c600a540460208c01516149c6565b60a089015190614748565b049061151a8261151583611515878a614771565b614771565b92611536606461152e60808b015187614748565b048095614a90565b956020600160035401998a600355015197604051986115548a614041565b8a8a528b60208b01528760408b015260608a015260643560808a015260a089015260c088015260e08701526101008601526101208501526101408401528161016084015260006101808401526115a86149e6565b6101a0840152426101c084015260006101e084015260006102008401526000610220840152600061024084015283600052600c6020526040600020948351865560208401518051906001600160401b03821161112557819061161182610e4b60018c0154614265565b602090601f8311600114611909576000926118fe575b50508160011b916000199060031b1c19161760018701555b60408401518051906001600160401b03821161112557819061166882610eab60028c0154614265565b602090601f831160011461188c57600092611881575b50508160011b916000199060031b1c19161760028701555b606084015160038701556080840151600487015560a0840151600587015560c0840151600687015560e0840151600787015561010084015160088701556101208401516009870155610140840151600a870155610160840151600b870155610180840151600c8701556101a0840151928351966001600160401b0388116111255787879561172d60209a610f79600d860154614265565b8990601f83116001146117f757918061108595949260008051602061506b833981519152999a946000926117ec575b50508160011b916000199060031b1c191617600d8201555b6101c0820151600e8201556101e0820151600f82015561020082015160108201556011810190610240601260018060a01b03928361022087015116946bffffffffffffffffffffffff60a01b9586825416179055019301511690825416179055611052866040518a8187516110438183858c01614147565b015190508c8061175c565b97929190600d83016000528a6000209860005b601f198416811061186757509160008051602061506b83398151915298996001926110859796959483601f1981161061184e575b505050811b01600d820155611774565b015160001960f88460031b161c191690558c808061183e565b828201518b556001909a01998b9950918c01918c0161180a565b01519050888061167e565b9250600289016000526020600020906000935b601f19841685106118e3576001945083601f198116106118ca575b505050811b016002870155611696565b015160001960f88460031b161c191690558880806118ba565b8181015183556020948501946001909301929091019061189f565b015190508880611627565b9250600189016000526020600020906000935b601f1984168510611960576001945083601f19811610611947575b505050811b01600187015561163f565b015160001960f88460031b161c19169055888080611937565b8181015183556020948501946001909301929091019061191c565b5033600090815260008051602061500b833981519152602052604090205460ff166113c4565b346102f05760403660031901126102f0576119e06004356119c06141ae565b908060005260016020526119db60016040600020015461437b565b61467a565b005b346102f05760003660031901126102f0576005546040516001600160a01b039091168152602090f35b346102f05760003660031901126102f0576020600a54604051908152f35b346102f05760003660031901126102f0576007546040516001600160a01b039091168152602090f35b346102f05760203660031901126102f05733600090815260008051602061500b8339815191526020526040902054611a8c9060ff1661478f565b611a94614f21565b600435600052600c6020526040600020611ab081541515614d87565b600d8101604051611ac5816103dd818561429f565b60208151910120611ad4614e55565b602081519101200361228e57600b820154908115612250576005546001600160a01b03919082168015612202576020602491604051928380926370a0823160e01b82523060048301525afa80156112fe5784906000906121cc575b611b3b92501015614e79565b611b48610c2a8254614265565b60086314185a5960e21b019055600c83018290554260108401556012830180546001600160a01b03191633179055604051600890602081611b8c8160018901614dd3565b600b81520301902042600782015501611ba6838254614771565b9055611bb482601254614771565b60125560055481168015801591906121c5576020602491604051928380926370a0823160e01b82523060048301525afa9081156112fe57600091612193575b505b601355156121515760055460405163a9059cbb60e01b8152336004820152602481018490529160209183916044918391600091165af180156112fe57611c4391600091612122575b50614edd565b6040516020810190611c7b81611c6d85600435428791606093918352602083015260408201520190565b03601f198101835282614093565b519020915b604051927202830bcb937b636103337b9103832b934b7b21606d1b6020850152611cc284611cb46033820160028601614dd3565b03601f198101865285614093565b60405193611cde85611cd7816001870161429f565b0386614093565b604051611cea81614078565b600681526553616c61727960d01b60208201526001600454019182600455604051611d1481614026565b838152602081019188835287604083015283606083015260808201524260a08201528460c082015283600052600f60205260406000209181518355518051906001600160401b038211611125578190611d7d82611d746001880154614265565b60018801614884565b602090601f83116001146120b0576000926120a5575b50508160011b916000199060031b1c19161760018301555b6040810151600283015560608101518051906001600160401b038211611125578190611de782611dde6003880154614265565b60038801614884565b602090601f831160011461203357600092612028575b50508160011b916000199060031b1c19161760038301555b60808101518051906001600160401b03821161112557611e4582611e3c6004870154614265565b60048701614884565b602090601f8311600114611f675793600660c07f7aa2b2c1775c7b79c4437b21360f4005ef7648644a57e3c6221240719c5c7f379b9c9585611f27967f35f40bc6254d16659c30da1d658dc7236ac919f02ed864ab8357f22295ee4d2d9a96611f139a600092611f5c575b50508160011b916000199060031b1c19161760048501555b60a081015160058501550151910155611eff866040516020818751611ef08183858c01614147565b81016010815203019020614a09565b604051938493606085526060850190614240565b908a60208501528382036040850152614240565b0390a2611f426040519260608452600160608501910161429f565b936020830152604082015280600435930390a26001600255005b015190503880611eb0565b906004850160005260206000209160005b601f1985168110612010575060c07f7aa2b2c1775c7b79c4437b21360f4005ef7648644a57e3c6221240719c5c7f379b9c956001867f35f40bc6254d16659c30da1d658dc7236ac919f02ed864ab8357f22295ee4d2d9a96611f139a96600696611f279a601f19811610611ff7575b505050811b016004850155611ec8565b015160001960f88460031b161c19169055388080611fe7565b91926020600181928685015181550194019201611f78565b015190508a80611dfd565b9250600385016000526020600020906000935b601f198416851061208a576001945083601f19811610612071575b505050811b016003830155611e15565b015160001960f88460031b161c191690558a8080612061565b81810151835560209485019460019093019290910190612046565b015190508a80611d93565b9250600185016000526020600020906000935b601f1984168510612107576001945083601f198116106120ee575b505050811b016001830155611dab565b015160001960f88460031b161c191690558a80806120de565b818101518355602094850194600190930192909101906120c3565b612144915060203d60201161214a575b61213c8183614093565b810190614ec5565b84611c3d565b503d612132565b506000808080843382f1156112fe57604051602081019061218a81611c6d85600435428791606093918352602083015260408201520190565b51902091611c80565b90506020813d6020116121bd575b816121ae60209383614093565b810103126102f0575185611bf3565b3d91506121a1565b5047611bf5565b50506020813d6020116121fa575b816121e760209383614093565b810103126102f05783611b3b9151611b2f565b3d91506121da565b5082471015611b3b5760405162461bcd60e51b815260206004820152601860248201527f496e73756666696369656e74204554482062616c616e636500000000000000006044820152606490fd5b60405162461bcd60e51b8152602060048201526016602482015275125b9d985b1a59081c185e5b595b9d08185b5bdd5b9d60521b6044820152606490fd5b60405162461bcd60e51b815260206004820152601460248201527314185e5c9bdb1b081b9bdd08185c1c1c9bdd995960621b6044820152606490fd5b346102f0576122d836614335565b6122f460ff60066040516020818751610d128183858c01614147565b600654600092906001600160a01b03168061234f575b61010084612319818686614a9d565b9695969390939291925194604051978852602088015260408701526060860152608085015260a084015260c083015260e0820152f35b604051630467e0f560e11b81529350600090849081806123738787600484016149a1565b03915afa9081156112fe5761010093612319926000916000916123b2575b5080156123a9576123a1916149c6565b93509061230a565b505060006123a1565b90506123c991503d806000833e6112ef8183614093565b5086612391565b346102f0576020806003193601126102f0576004356001600160401b0381116102f057816124056124189236906004016140cf565b8160405193828580945193849201614147565b8101600d81520301902090604051908181845491828152019360005281600020916000905b828210612464576124608561245481890382614093565b60405191829182614205565b0390f35b83548652948501946001938401939091019061243d565b346102f057612489366141c4565b336000908152600080516020614feb833981519152602090815260409091205490969391929060ff1680156125ab575b6124c2906147e6565b60405160ff60068651928a81818a01956124dd818389614147565b8101600b815203019020015416156125665792600561255a937fa833b2b1d3891905e8131e62fb850438cd3c07fbea8916196f6e960b4eb130469896936125328b60409a988b51809381928a51928391614147565b8101600b815203019020918860018401558760028401556003830155600482015501556148c9565b948351928352820152a2005b60405162461bcd60e51b815260048101899052601760248201527f456d706c6f7965652073616c617279206e6f74207365740000000000000000006044820152606490fd5b5060008051602061504b8339815191526000908152600188526040808220338352895290205460ff166124b9565b346102f05760203660031901126102f0576125f2614198565b6125fa6146f0565b6001600160a01b0316801561264257600580546001600160a01b031916821790557fa07c91c183e42229e705a9795a1c06d76528b673788b849597364528c96eefb7600080a2005b60405162461bcd60e51b8152602060048201526015602482015274496e76616c696420746f6b656e206164647265737360581b6044820152606490fd5b346102f05760003660031901126102f0576020600954604051908152f35b346102f05760003660031901126102f057602060405160008152f35b346102f0576020806003193601126102f057600435906001600160401b0382116102f0576126ee61281d9236906004016140cf565b61276c82604051926126ff8461400a565b60608452600082850152600060408501526000606085015260006080850152600060a0850152600060c0850152600060e08501526000610100809501526040519061275b60ff6006835194868181870197610d1281838b614147565b604051938492839251928391614147565b8101600b81520301902091604051926127848461400a565b604051612795816103dd818561429f565b84526001810154928285019384526002820154916040860192835260038101546060870190815260048201546080880190815260058301549060a0890191825260ff6006850154169260c08a019315158452600860078601549560e08c01968752015496868b019788526040519b8c9b8a8d52518c6101209b8c9101526101408d0190614240565b995160408c01525160608b01525160808a01525160a08901525160c088015251151560e0870152519085015251908301520390f35b346102f05760203660031901126102f057600435600052600f60205260406000208054604051916128918361288a816001850161429f565b0384614093565b600281015461290e604051916128ae8361288a816003880161429f565b612900604051916128c68361288a8160048a0161429f565b60066005870154960154946128ed604051998a998a5260e060208b015260e08a0190614240565b9160408901528782036060890152614240565b908582036080870152614240565b9160a084015260c08301520390f35b346102f05760403660031901126102f0576129366141ae565b600435600052600160205260406000209060018060a01b0316600052602052602060ff604060002054166040519015158152f35b346102f057602061299261297d36614116565b92908160405193828580945193849201614147565b8101600d81520301902080548210156102f0576020916129b19161416a565b90546040519160031b1c8152f35b346102f05760003660031901126102f0576000546040516001600160a01b039091168152602090f35b346102f05760003660031901126102f0576020601354604051908152f35b346102f0576020612a1961297d36614116565b8101601081520301902080548210156102f0576020916129b19161416a565b346102f05760003660031901126102f057602060405160008051602061504b8339815191528152f35b346102f05760003660031901126102f057612a7a6146f0565b600080546001600160a01b0319811682556001600160a01b03167f8be0079c531659141344cd1fd0a4f28419497f9722a3daafe3b4186f6b6457e08280a3005b346102f05760203660031901126102f057600435600052600c602052604060002080612c398154612b016040518060e052612af8816001870161429f565b0360e051614093565b612b2160405180608052612b18816002870161429f565b03608051614093565b612b7b836003810154926004820154600583015460068401546007850154600886015491600987015493600a88015495600b890154976010600f600c8c01549b6040519d8e80612b7481600d860161429f565b0390614093565b600e8101546101005201549f01549d601260018060a01b03918260118201541660c052015416610120526040518060a05252612bdd612bca61026080602060a051015260a0510160e051614240565b60a0516040818303910152608051614240565b9a606060a0510152608060a051015260a08051015260c060a051015260e060a051015261010060a051015261012060a051015261014060a051015261016060a051015261018060a051015260a0516101a0818403910152614240565b91610100516101c060a05101526101e060a051015261020060a051015260c05161022060a05101526101205161024060a051015260a05180910390f35b346102f05760003660031901126102f0576020612c91614f75565b604051908152f35b346102f05760203660031901126102f0576004356001600160401b0381116102f057612cd16020612405612d389336906004016140cf565b8101600b81520301902060405190612cf482612ced818461429f565b0383614093565b6001810154906002810154906003810154600482015460058301549060ff600685015416926008600786015495015495604051998a99610120808c528b0190614240565b9760208a015260408901526060880152608087015260a0860152151560c085015260e08401526101008301520390f35b346102f05760003660031901126102f0576040516337cfdcc560e11b8152602081600481305afa80156112fe57600090612dca575b601154601254608092612db08183614771565b831491604051938452602084015260408301526060820152f35b506020813d8211612df4575b81612de360209383614093565b810103126102f05760809051612d9d565b3d9150612dd6565b346102f05760203660031901126102f057612e15614198565b612e1d6146f0565b6001600160a01b03168015612e6557600680546001600160a01b031916821790557f8db477f6b4424c3995e606a7117a72572af19f492bee06697ad2c8329f2ab7e5600080a2005b60405162461bcd60e51b815260206004820152601c60248201527f496e76616c6964204b504920636f6e74726163742061646472657373000000006044820152606490fd5b346102f05760803660031901126102f0576004356001600160401b0381116102f057612eda9036906004016140cf565b6024356044359160405190805191806020830193612ef9818387614147565b8101600b81520360200190206006015460ff16612f15906148e9565b612f226064841115614cef565b612f2f601f851115614d3b565b60405180928192518092612f4292614147565b8101600b81520360200190209060405190612f5c8261400a565b60405180612f6a818661429f565b03612f759082614093565b8252600183015492602083019184835260028201549560408501968752600383015495606086019687526004840154956080810196875260058501549460a08201958652600681015460ff16151560c0830152600781015460e083015260080154906101000152600854612fe8916149c6565b90612ff291614748565b958351905161300091614748565b9061300a91614748565b612710900493519160643590600a54600c9004905190613029916149c6565b9061303391614748565b905161303e91614748565b6064900490818161304f8688614771565b9061305991614771565b9061306391614771565b925161306f9084614748565b60649004928361307e91614a90565b93604051958652602086015260408501526060840152608083015260a082015260c090f35b346102f0576020806003193601126102f0576004356001600160401b0381116102f0576006916130da6131329236906004016140cf565b60008051602061502b83398151915260005260018252604060002033600052825260ff604060002054168015613149575b613114906147e6565b6040519061275b60ff86835194868181870197610d1281838b614147565b600b9082019081520301902001805460ff19169055005b5060008051602061504b8339815191526000908152600183526040808220338352845290205460ff1661310b565b346102f0576020806003193601126102f0576004356001600160401b0381116102f057816124056131ac9236906004016140cf565b8101600e81520301902090604051908181845491828152019360005281600020916000905b8282106131e8576124608561245481890382614093565b8354865294850194600193840193909101906131d1565b346102f05760003660031901126102f0576020600854604051908152f35b6020806003193601126102f05760055460043591906001600160a01b031680156132ed5790806000926064604051809581936323b872dd60e01b83523360048401523060248401528860448401525af19182156112fe577f543ba50a5eec5e6178218e364b1d0f396157b3c8fa278522c2cb7fd99407d474926132a7916000916132d05750614edd565b6132b383601154614771565b6011556132c283601354614771565b6013556040519283523392a2005b6132e79150833d851161214a5761213c8183614093565b85611c3d565b5081340361331c577f543ba50a5eec5e6178218e364b1d0f396157b3c8fa278522c2cb7fd99407d474906132a7565b6064906040519062461bcd60e51b82526004820152601360248201527208aa89040c2dadeeadce840dad2e6dac2e8c6d606b1b6044820152fd5b346102f0576020806003193601126102f0576004359060008051602061502b83398151915260005260018152604060002033600052815260ff6040600020541680156134d9575b6133a6906147e6565b81600052600c815260406000206133bf81541515614d87565b600d81016040516133d4816103dd818561429f565b8381519101206133e26149e6565b8481519101201480156134ad575b15613454579161344f6001928461342b610c2a7f61054c61a3f82a296b7cfd4d6a7993fc78af450d2733c04ccb92ae5d1d54b20f9754614265565b60126810d85b98d95b1b195960ba1b0190556040518381529384938401910161429f565b0390a2005b60405162461bcd60e51b815260048101849052602b60248201527f43616e206f6e6c792063616e63656c2070656e64696e67206f7220617070726f60448201526a1d9959081c185e5c9bdb1b60aa1b6064820152608490fd5b506040516134bf816103dd818561429f565b8381519101206134cd614e55565b848151910120146133f0565b5060008051602061504b8339815191526000908152600182526040808220338352835290205460ff1661339d565b346102f05760403660031901126102f0576135206141ae565b336001600160a01b0382160361353c576119e09060043561467a565b60405162461bcd60e51b815260206004820152602f60248201527f416363657373436f6e74726f6c3a2063616e206f6e6c792072656e6f756e636560448201526e103937b632b9903337b91039b2b63360891b6064820152608490fd5b346102f0576020806003193601126102f0576040516004356135ba82614026565b60008252600060c0606093848682015282604082015284808201528460808201528260a0820152015280600052600f8352604060002054156136f057600052600f825260406000206040519161360f83614026565b815483526136df6040519161362b8361288a816001880161429f565b8585019283526002840154604086019081526136ce604051613654816103dd8160038b0161429f565b8388019081526040519361366f85611cd78160048c0161429f565b608089019485526136b3600660058a01549960a08c019a8b5201549760c08b019889526040519b8c9b818d5251908c01525160e060408c01526101008b0190614240565b9351908901525191601f1992838983030160808a0152614240565b9151908683030160a0870152614240565b915160c08401525160e08301520390f35b60405162461bcd60e51b815260048101849052601a60248201527f5472616e73616374696f6e20646f6573206e6f742065786973740000000000006044820152606490fd5b346102f05760403660031901126102f0576004356137516141ae565b81600052600160205261376b60016040600020015461437b565b81600052600160205260406000209060018060a01b0316908160005260205260ff604060002054161561379a57005b8160005260016020526040600020816000526020526040600020600160ff1982541617905533917f2f8788117e7eff1d82e926ec794901d17c78024a50270940304540a733656f0d600080a4005b346102f05760003660031901126102f05760206040517f5a3425ea67e73c95853ecfc0c443062de292a303c186bc2aac1178ae1b86c62a8152f35b346102f05760203660031901126102f05760043560005260016020526020600160406000200154604051908152f35b346102f05760003660031901126102f0576006546040516001600160a01b039091168152602090f35b346102f0576020806003193601126102f0576004356001600160401b0381116102f057816124056138b09236906004016140cf565b8101601081520301902090604051908181845491828152019360005281600020916000905b8282106138ec576124608561245481890382614093565b8354865294850194600193840193909101906138d5565b346102f057613911366141c4565b336000908152600080516020614feb833981519152602052604090205493959390919060ff168015613c71575b613947906147e6565b835115613c2c576064808711613bea57808211613ba857808310613b5a5750604051926139738461400a565b8484528560208501528660408501526060840152608083015260a0820152600160c0820152600060e0820152600061010082015260405160208184516139bc8183858901614147565b8101600b8152030190209080518051906001600160401b038211611125576139ee826139e88654614265565b86614884565b602090601f8311600114613ac157610100613aa89484604098957fa833b2b1d3891905e8131e62fb850438cd3c07fbea8916196f6e960b4eb130469a9895600895600092613ab6575b50508160011b916000199060031b1c19161784555b60208101516001850155878101516002850155606081015160038501556080810151600485015560a081015160058501556006840160c0820151151560ff8019835416911617905560e0810151600785015501519101556148c9565b9382519182526020820152a2005b015190508c80613a37565b908460005260206000209160005b601f1985168110613b425750613aa8946001857fa833b2b1d3891905e8131e62fb850438cd3c07fbea8916196f6e960b4eb130469a98956008956101009560409c99601f19811610613b29575b505050811b018455613a4c565b015160001960f88460031b161c191690558c8080613b1c565b91926020600181928685015181550194019201613acf565b608490602960f81b6040519162461bcd60e51b835260206004840152602160248401527f4f76657274696d652072617465206d757374206265203e3d20313030202831786044840152820152fd5b60405162461bcd60e51b815260206004820152601760248201527f5461782072617465206d757374206265203c3d203130300000000000000000006044820152fd5b60405162461bcd60e51b815260206004820152601860248201527f4b504920626f6e7573206d757374206265203c3d2031303000000000000000006044820152fd5b60405162461bcd60e51b815260206004820152601c60248201527f456d706c6f796565204449442063616e6e6f7420626520656d707479000000006044820152606490fd5b5033600090815260008051602061500b833981519152602052604090205460ff1661393e565b346102f0576020806003193601126102f057613cb1614198565b60008051602061504b83398151915260005260018083526040600020336000528352613ce460ff6040600020541661478f565b60008051602061502b833981519152928360005281815261096e826040600020015461437b565b346102f05760203660031901126102f057600435613d276146f0565b613d2f614f21565b613d5681601354613d4281831115614e79565b613d4e82601254614771565b601255614a90565b6013556005546001600160a01b0390811615613e14576005546000805460405163a9059cbb60e01b81529084166001600160a01b031660048201526024810185905292916020918491604491839186165af19081156112fe57613de46020927feaff4b37086828766ad3268786972c0cd24259d4c87a80f9d3963a3c3d999b0d94600091613df75750614edd565b6000541692604051908152a26001600255005b613e0e9150843d811161214a5761213c8183614093565b86611c3d565b60008080808585825416828215613e55575bf1156112fe5760207feaff4b37086828766ad3268786972c0cd24259d4c87a80f9d3963a3c3d999b0d91613de4565b506108fc613e26565b346102f05760403660031901126102f05733600090815260008051602061500b83398151915260205260409020546004359060243590613ea09060ff1661478f565b8115613f36578015613ee657816040917f599d9b7a01a6cf80e498b224fbf50ac4d5ec5bc0305a17d60e13dba94eae1617936008558060095582519182526020820152a1005b60405162461bcd60e51b815260206004820152602260248201527f5374616e6461726420776f726b696e6720686f757273206d757374206265203e604482015261020360f41b6064820152608490fd5b60405162461bcd60e51b815260206004820152602160248201527f5374616e6461726420776f726b696e672064617973206d757374206265203e206044820152600360fc1b6064820152608490fd5b346102f0576020613f9861297d36614116565b8101600e81520301902080548210156102f0576020916129b19161416a565b346102f05760203660031901126102f0576004359063ffffffff60e01b82168092036102f057602091637965db0b60e01b8114908115613ff9575b5015158152f35b6301ffc9a760e01b14905083613ff2565b61012081019081106001600160401b0382111761112557604052565b60e081019081106001600160401b0382111761112557604052565b61026081019081106001600160401b0382111761112557604052565b606081019081106001600160401b0382111761112557604052565b604081019081106001600160401b0382111761112557604052565b90601f801991011681019081106001600160401b0382111761112557604052565b6001600160401b03811161112557601f01601f191660200190565b81601f820112156102f0578035906140e6826140b4565b926140f46040519485614093565b828452602083830101116102f057816000926020809301838601378301015290565b60406003198201126102f057600435906001600160401b0382116102f057614140916004016140cf565b9060243590565b60005b83811061415a5750506000910152565b818101518382015260200161414a565b80548210156141825760005260206000200190600090565b634e487b7160e01b600052603260045260246000fd5b600435906001600160a01b03821682036102f057565b602435906001600160a01b03821682036102f057565b60c06003198201126102f057600435906001600160401b0382116102f0576141ee916004016140cf565b906024359060443590606435906084359060a43590565b6020908160408183019282815285518094520193019160005b82811061422c575050505090565b83518552938101939281019260010161421e565b9060209161425981518092818552858086019101614147565b601f01601f1916010190565b90600182811c92168015614295575b602083101461427f57565b634e487b7160e01b600052602260045260246000fd5b91607f1691614274565b90600092918054916142b083614265565b91828252600193848116908160001461431257506001146142d2575b50505050565b90919394506000526020928360002092846000945b8386106142fe5750505050010190388080806142cc565b8054858701830152940193859082016142e7565b9294505050602093945060ff191683830152151560051b010190388080806142cc565b9060406003198301126102f0576001600160401b036004358181116102f05783614361916004016140cf565b926024359182116102f057614378916004016140cf565b90565b6000818152600191602091838352604093848220338352845260ff8583205416156143a7575050505050565b338551936143b48561405d565b602a8552858501918736843785511561466657603083538551841015614666576078602187015360295b8481116145fc57506145ba57865192608084018481106001600160401b038211176145a657885260428452868401946060368737845115614592576030865384518210156145925790607860218601536041915b818311614524575050506144e2576144de9386936144c2936144b360489461448a9a519a8b957f416363657373436f6e74726f6c3a206163636f756e74200000000000000000008c8801525180926037880190614147565b8401917001034b99036b4b9b9b4b733903937b6329607d1b603784015251809386840190614147565b01036028810187520185614093565b5192839262461bcd60e51b845260048401526024830190614240565b0390fd5b60648587519062461bcd60e51b825280600483015260248201527f537472696e67733a20686578206c656e67746820696e73756666696369656e746044820152fd5b909192600f8116601081101561457e576f181899199a1a9b1b9c1cb0b131b232b360811b901a614554858861477e565b5360041c92801561456a57600019019190614432565b634e487b7160e01b82526011600452602482fd5b634e487b7160e01b83526032600452602483fd5b634e487b7160e01b81526032600452602490fd5b634e487b7160e01b86526041600452602486fd5b60648688519062461bcd60e51b825280600483015260248201527f537472696e67733a20686578206c656e67746820696e73756666696369656e746044820152fd5b90600f81166010811015614652576f181899199a1a9b1b9c1cb0b131b232b360811b901a61462a838961477e565b5360041c90801561463e57600019016143de565b634e487b7160e01b86526011600452602486fd5b634e487b7160e01b87526032600452602487fd5b634e487b7160e01b85526032600452602485fd5b906000918083526001602052604083209160018060a01b03169182845260205260ff6040842054166146ab57505050565b8083526001602052604083208284526020526040832060ff1981541690557ff6391f5c32d9c69d2a47ea670b442974b53935d1edc7fd64eb21e047a839171b339380a4565b6000546001600160a01b0316330361470457565b606460405162461bcd60e51b815260206004820152602060248201527f4f776e61626c653a2063616c6c6572206973206e6f7420746865206f776e65726044820152fd5b8181029291811591840414171561475b57565b634e487b7160e01b600052601160045260246000fd5b9190820180921161475b57565b908151811015614182570160200190565b1561479657565b60405162461bcd60e51b815260206004820152602260248201527f4f6e6c792061646d696e2063616e20706572666f726d2074686973206163746960448201526137b760f11b6064820152608490fd5b156147ed57565b60405162461bcd60e51b815260206004820152602860248201527f4f6e6c79204852206f722061646d696e2063616e20706572666f726d20746869604482015267399030b1ba34b7b760c11b6064820152608490fd5b81811061484e575050565b60008155600101614843565b90601f8111614867575050565b61488291600052601f6020600020910160051c810190614843565b565b9190601f811161489357505050565b614882926000526020600020906020601f840160051c830193106148bf575b601f0160051c0190614843565b90915081906148b2565b6148e190602060405192828480945193849201614147565b810103902090565b156148f057565b60405162461bcd60e51b815260206004820152601a60248201527f456d706c6f7965652073616c617279206e6f74206163746976650000000000006044820152606490fd5b90916060828403126102f0578151926020830151926040810151906001600160401b0382116102f0570181601f820112156102f0578051614975816140b4565b926149836040519485614093565b818452602082840101116102f0576143789160208085019101614147565b90916149b861437893604084526040840190614240565b916020818403910152614240565b81156149d0570490565b634e487b7160e01b600052601260045260246000fd5b604051906149f382614078565b600782526650656e64696e6760c81b6020830152565b80546801000000000000000081101561112557614a2b9160018201815561416a565b819291549060031b91821b91600019901b1916179055565b939291614a6c90614a5e604093606088526060880190614240565b908682036020880152614240565b930152565b60405190614a7e8261405d565b60006040838281528260208201520152565b9190820391821161475b57565b91929092614aa9614a71565b5060405183518190614abf818360208901614147565b8101600b81520360200190209260405191614ad98361400a565b60405180614ae7818861429f565b03614af29082614093565b83526001850154946020840195865260028101549260408501938452600382015497606086019889526004830154956080810196875260058401549360a08201948552600681015460ff16151560c0830152600781015460e083015260080154906101000152614b6191614c11565b918651600854614b70916149c6565b8351614b7b91614748565b9387519051614b8991614748565b90614b9391614748565b6127109004965195600a54600c9004905190614bae916149c6565b6040830151614bbc91614748565b9051614bc791614748565b60649004938486614bd88986614771565b90614be291614771565b90614bec91614771565b9351614bf89085614748565b606490049384614c0791614a90565b9296959493929190565b614c19614a71565b506007546001600160a01b0316918215614cc8576040516336f2682960e21b815292606092849283918291614c5191600484016149a1565b03915afa80156112fe5760009182908392614c84575b5060405192614c758461405d565b83526020830152604082015290565b929150506060823d8211614cc0575b81614ca060609383614093565b81010312614cbd5750805160406020830151920151909138614c67565b80fd5b3d9150614c93565b50505060085460095460405191614cde8361405d565b825260208201526000604082015290565b15614cf657565b60405162461bcd60e51b815260206004820152601860248201527f4b50492073636f7265206d757374206265203c3d2031303000000000000000006044820152606490fd5b15614d4257565b60405162461bcd60e51b815260206004820152601a60248201527f576f726b696e672064617973206d757374206265203c3d2033310000000000006044820152606490fd5b15614d8e57565b60405162461bcd60e51b815260206004820152601d60248201527f506179726f6c6c207265636f726420646f6573206e6f742065786973740000006044820152606490fd5b600092918154614de281614265565b92600191808316908115614e3a5750600114614dfe5750505050565b90919293945060005260209081600020906000915b858310614e2957505050500190388080806142cc565b805485840152918301918101614e13565b60ff19168452505050811515909102019150388080806142cc565b60405190614e6282614078565b6008825267105c1c1c9bdd995960c21b6020830152565b15614e8057565b60405162461bcd60e51b815260206004820152601d60248201527f496e73756666696369656e7420636f6e74726163742062616c616e63650000006044820152606490fd5b908160209103126102f0575180151581036102f05790565b15614ee457565b60405162461bcd60e51b8152602060048201526015602482015274151bdad95b881d1c985b9cd9995c8819985a5b1959605a1b6044820152606490fd5b6002805414614f305760028055565b60405162461bcd60e51b815260206004820152601f60248201527f5265656e7472616e637947756172643a207265656e7472616e742063616c6c006044820152606490fd5b6005546001600160a01b03168015614fe5576020602491604051928380926370a0823160e01b82523060048301525afa9081156112fe57600091614fb7575090565b906020823d8211614fdd575b81614fd060209383614093565b81010312614cbd57505190565b3d9150614fc3565b50479056fe3779f59c00fa5618369bab564c6b7d7351c2e76feae47a272b4c818773ec26a550efbde2d46c37e9785f1791697f77e94bb7b701e19f1930a668820722d37694fd70517941c75212b0f9013e45c47a37d6d983c5304288c7af285f2ea40cbba7a49807205ce4d355092ef5a8a18f56e8913cf4a201fbe287825b095693c2177598843665a28970affdad861c54033e4b02e040abc60f5bf43e36f950741c1098a264697066735822122061d384d7e5df78ea8ed5f18c698dc359e4307e94e26443398b1da01b44795bce64736f6c634300081300332f8788117e7eff1d82e926ec794901d17c78024a50270940304540a733656f0d","opcodes":"PUSH1 0x80 CALLVALUE PUSH3 0x2E7 JUMPI PUSH1 0x1F PUSH3 0x53F8 CODESIZE DUP2 SWAP1 SUB SWAP2 DUP3 ADD PUSH1 0x1F NOT AND DUP4 ADD SWAP3 SWAP2 SWAP1 PUSH1 0x1 PUSH1 0x1 PUSH1 0x40 SHL SUB DUP5 GT DUP4 DUP6 LT OR PUSH3 0x2EC JUMPI DUP2 PUSH1 0x60 SWAP3 DUP5 SWAP3 PUSH1 0x40 SWAP7 DUP8 MSTORE DUP4 CODECOPY DUP2 ADD SUB SLT PUSH3 0x2E7 JUMPI PUSH3 0x51 DUP2 PUSH3 0x302 JUMP JUMPDEST SWAP1 PUSH1 0x20 SWAP2 PUSH3 0x6F DUP5 PUSH3 0x67 DUP6 DUP6 ADD PUSH3 0x302 JUMP JUMPDEST SWAP4 ADD PUSH3 0x302 JUMP JUMPDEST PUSH1 0x0 DUP1 SLOAD PUSH1 0x1 PUSH1 0x1 PUSH1 0xA0 SHL SUB NOT DUP1 DUP3 AND CALLER SWAP1 DUP2 OR DUP5 SSTORE SWAP3 SWAP7 SWAP1 SWAP6 PUSH1 0x1 PUSH1 0x1 PUSH1 0xA0 SHL SUB SWAP6 DUP7 SWAP5 SWAP2 SWAP4 DUP6 SWAP4 SWAP2 SWAP3 SWAP1 DUP5 AND PUSH32 0x8BE0079C531659141344CD1FD0A4F28419497F9722A3DAAFE3B4186F6B6457E0 DUP12 DUP1 LOG3 PUSH1 0x1 DUP1 PUSH1 0x2 SSTORE PUSH1 0x16 PUSH1 0x8 SSTORE PUSH1 0xB0 PUSH1 0x9 SSTORE PUSH2 0x820 PUSH1 0xA SSTORE DUP10 DUP1 MSTORE DUP1 DUP3 MSTORE DUP11 DUP11 KECCAK256 CALLER DUP12 MSTORE DUP3 MSTORE PUSH1 0xFF DUP12 DUP12 KECCAK256 SLOAD AND ISZERO PUSH3 0x2B0 JUMPI JUMPDEST PUSH32 0xA49807205CE4D355092EF5A8A18F56E8913CF4A201FBE287825B095693C21775 DUP1 DUP12 MSTORE DUP2 DUP4 MSTORE DUP12 DUP12 KECCAK256 CALLER DUP13 MSTORE DUP4 MSTORE PUSH1 0xFF DUP13 DUP13 KECCAK256 SLOAD AND ISZERO PUSH3 0x277 JUMPI JUMPDEST POP PUSH32 0xFD70517941C75212B0F9013E45C47A37D6D983C5304288C7AF285F2EA40CBBA7 SWAP2 DUP3 DUP12 MSTORE DUP2 DUP2 MSTORE DUP12 DUP12 KECCAK256 CALLER DUP13 MSTORE DUP2 MSTORE PUSH1 0xFF DUP13 DUP13 KECCAK256 SLOAD AND ISZERO PUSH3 0x23C JUMPI JUMPDEST POP POP POP AND DUP1 PUSH3 0x207 JUMPI JUMPDEST POP AND DUP1 PUSH3 0x1D2 JUMPI JUMPDEST POP AND SWAP2 DUP3 PUSH3 0x19C JUMPI JUMPDEST DUP4 MLOAD PUSH2 0x50C0 SWAP1 DUP2 PUSH3 0x318 DUP3 CODECOPY RETURN JUMPDEST DUP3 PUSH32 0x5EFC264D5D2C80D5ECD3505A89B7C8B6BFFBC86E436FE4218D13E6D85124D165 SWAP3 PUSH1 0x7 SLOAD AND OR PUSH1 0x7 SSTORE DUP1 LOG2 CODESIZE DUP1 DUP1 PUSH3 0x18D JUMP JUMPDEST DUP1 DUP5 PUSH1 0x6 SLOAD AND OR PUSH1 0x6 SSTORE PUSH32 0x8DB477F6B4424C3995E606A7117A72572AF19F492BEE06697AD2C8329F2AB7E5 DUP6 DUP1 LOG2 CODESIZE PUSH3 0x183 JUMP JUMPDEST DUP1 DUP7 PUSH1 0x5 SLOAD AND OR PUSH1 0x5 SSTORE PUSH32 0xA07C91C183E42229E705A9795A1C06D76528B673788B849597364528C96EEFB7 DUP8 DUP1 LOG2 CODESIZE PUSH3 0x17A JUMP JUMPDEST DUP3 DUP12 MSTORE DUP2 DUP2 MSTORE DUP12 DUP12 KECCAK256 SWAP1 CALLER DUP13 MSTORE MSTORE DUP11 DUP11 KECCAK256 SWAP1 PUSH1 0xFF NOT DUP3 SLOAD AND OR SWAP1 SSTORE CALLER SWAP1 CALLER SWAP1 PUSH1 0x0 DUP1 MLOAD PUSH1 0x20 PUSH3 0x53D8 DUP4 CODECOPY DUP2 MLOAD SWAP2 MSTORE DUP12 DUP1 LOG4 CODESIZE DUP1 DUP1 PUSH3 0x16F JUMP JUMPDEST DUP1 DUP12 MSTORE DUP2 DUP4 MSTORE DUP12 DUP12 KECCAK256 CALLER DUP13 MSTORE DUP4 MSTORE DUP12 DUP12 KECCAK256 DUP3 PUSH1 0xFF NOT DUP3 SLOAD AND OR SWAP1 SSTORE CALLER SWAP1 CALLER SWAP1 PUSH1 0x0 DUP1 MLOAD PUSH1 0x20 PUSH3 0x53D8 DUP4 CODECOPY DUP2 MLOAD SWAP2 MSTORE DUP14 DUP1 LOG4 CODESIZE PUSH3 0x130 JUMP JUMPDEST DUP10 DUP1 MSTORE DUP1 DUP3 MSTORE DUP11 DUP11 KECCAK256 CALLER DUP12 MSTORE DUP3 MSTORE DUP11 DUP11 KECCAK256 DUP2 PUSH1 0xFF NOT DUP3 SLOAD AND OR SWAP1 SSTORE CALLER CALLER DUP12 PUSH1 0x0 DUP1 MLOAD PUSH1 0x20 PUSH3 0x53D8 DUP4 CODECOPY DUP2 MLOAD SWAP2 MSTORE DUP2 DUP1 LOG4 PUSH3 0xF3 JUMP JUMPDEST PUSH1 0x0 DUP1 REVERT JUMPDEST PUSH4 0x4E487B71 PUSH1 0xE0 SHL PUSH1 0x0 MSTORE PUSH1 0x41 PUSH1 0x4 MSTORE PUSH1 0x24 PUSH1 0x0 REVERT JUMPDEST MLOAD SWAP1 PUSH1 0x1 PUSH1 0x1 PUSH1 0xA0 SHL SUB DUP3 AND DUP3 SUB PUSH3 0x2E7 JUMPI JUMP INVALID PUSH2 0x140 DUP1 PUSH1 0x40 MSTORE PUSH1 0x4 CALLDATASIZE LT ISZERO PUSH2 0x68 JUMPI JUMPDEST POP CALLDATASIZE ISZERO PUSH2 0x1C JUMPI PUSH1 0x0 DUP1 REVERT JUMPDEST PUSH2 0x28 CALLVALUE PUSH1 0x11 SLOAD PUSH2 0x4771 JUMP JUMPDEST PUSH1 0x11 SSTORE PUSH2 0x37 CALLVALUE PUSH1 0x13 SLOAD PUSH2 0x4771 JUMP JUMPDEST PUSH1 0x13 SSTORE PUSH1 0x40 MLOAD CALLVALUE DUP2 MSTORE PUSH32 0x543BA50A5EEC5E6178218E364B1D0F396157B3C8FA278522C2CB7FD99407D474 PUSH1 0x20 CALLER SWAP3 LOG2 STOP JUMPDEST PUSH1 0x0 CALLDATALOAD PUSH1 0xE0 SHR SWAP1 DUP2 PUSH4 0x1FFC9A7 EQ PUSH2 0x3FB7 JUMPI POP DUP1 PUSH4 0x34D0E7C EQ PUSH2 0x3F85 JUMPI DUP1 PUSH4 0x8820CA0 EQ PUSH2 0x3E5E JUMPI DUP1 PUSH4 0x155DD5EE EQ PUSH2 0x3D0B JUMPI DUP1 PUSH4 0x18AAA219 EQ PUSH2 0x3C97 JUMPI DUP1 PUSH4 0x1ADB88EB EQ PUSH2 0x3903 JUMPI DUP1 PUSH4 0x1B655EF0 EQ PUSH2 0x387B JUMPI DUP1 PUSH4 0x1E7A3391 EQ PUSH2 0x3852 JUMPI DUP1 PUSH4 0x248A9CA3 EQ PUSH2 0x3823 JUMPI DUP1 PUSH4 0x2A4CAB90 EQ PUSH2 0x37E8 JUMPI DUP1 PUSH4 0x2F2FF15D EQ PUSH2 0x3735 JUMPI DUP1 PUSH4 0x33EA3DC8 EQ PUSH2 0x3599 JUMPI DUP1 PUSH4 0x36568ABE EQ PUSH2 0x3507 JUMPI DUP1 PUSH4 0x38CE4FD8 EQ PUSH2 0x3356 JUMPI DUP1 PUSH4 0x3B76594D EQ PUSH2 0x321D JUMPI DUP1 PUSH4 0x3E1C8238 EQ PUSH2 0x31FF JUMPI DUP1 PUSH4 0x49676FAA EQ PUSH2 0x3177 JUMPI DUP1 PUSH4 0x52830AA7 EQ PUSH2 0x30A3 JUMPI DUP1 PUSH4 0x53E6837E EQ PUSH2 0x2EAA JUMPI DUP1 PUSH4 0x61BC441D EQ PUSH2 0x2DFC JUMPI DUP1 PUSH4 0x62C7D481 EQ PUSH2 0x2D68 JUMPI DUP1 PUSH4 0x6E468C5F EQ PUSH2 0x2C99 JUMPI DUP1 PUSH4 0x6F9FB98A EQ PUSH2 0x2C76 JUMPI DUP1 PUSH4 0x70AC9067 EQ PUSH2 0x2ABA JUMPI DUP1 PUSH4 0x715018A6 EQ PUSH2 0x2A61 JUMPI DUP1 PUSH4 0x75B238FC EQ PUSH2 0x2A38 JUMPI DUP1 PUSH4 0x7B43608C EQ PUSH2 0x2A06 JUMPI DUP1 PUSH4 0x8B7AFE2E EQ PUSH2 0x29E8 JUMPI DUP1 PUSH4 0x8DA5CB5B EQ PUSH2 0x29BF JUMPI DUP1 PUSH4 0x8EB335D1 EQ PUSH2 0x296A JUMPI DUP1 PUSH4 0x91D14854 EQ PUSH2 0x291D JUMPI DUP1 PUSH4 0x9ACE38C2 EQ PUSH2 0x2852 JUMPI DUP1 PUSH4 0xA13E7EA7 EQ PUSH2 0x26B9 JUMPI DUP1 PUSH4 0xA217FDDF EQ PUSH2 0x269D JUMPI DUP1 PUSH4 0xA4FFE09C EQ PUSH2 0x267F JUMPI DUP1 PUSH4 0xB1E967B1 EQ PUSH2 0x25D9 JUMPI DUP1 PUSH4 0xB90AAC68 EQ PUSH2 0x247B JUMPI DUP1 PUSH4 0xBB3A9A7F EQ PUSH2 0x23D0 JUMPI DUP1 PUSH4 0xC0E5F23D EQ PUSH2 0x22CA JUMPI DUP1 PUSH4 0xC7012A98 EQ PUSH2 0x1A52 JUMPI DUP1 PUSH4 0xCBAE42F9 EQ PUSH2 0x1A29 JUMPI DUP1 PUSH4 0xCC0C7EE8 EQ PUSH2 0x1A0B JUMPI DUP1 PUSH4 0xCF20C6D1 EQ PUSH2 0x19E2 JUMPI DUP1 PUSH4 0xD547741F EQ PUSH2 0x19A1 JUMPI DUP1 PUSH4 0xDC3620E3 EQ PUSH2 0x134E JUMPI DUP1 PUSH4 0xE7B0F666 EQ PUSH2 0x1330 JUMPI DUP1 PUSH4 0xE7E6A1F8 EQ PUSH2 0xCB8 JUMPI DUP1 PUSH4 0xE8FB1652 EQ PUSH2 0xB66 JUMPI DUP1 PUSH4 0xEC10C8DE EQ PUSH2 0xAAC JUMPI DUP1 PUSH4 0xF2FDE38B EQ PUSH2 0x9E3 JUMPI DUP1 PUSH4 0xF3B3444B EQ PUSH2 0x8E8 JUMPI DUP1 PUSH4 0xF3C6A198 EQ PUSH2 0x8BF JUMPI DUP1 PUSH4 0xFBCDCEA5 EQ PUSH2 0x5EB JUMPI DUP1 PUSH4 0xFC19C040 EQ PUSH2 0x2F5 JUMPI PUSH4 0xFF50ABDC EQ PUSH2 0x2D2 JUMPI CODESIZE PUSH2 0x10 JUMP JUMPDEST CALLVALUE PUSH2 0x2F0 JUMPI PUSH1 0x0 CALLDATASIZE PUSH1 0x3 NOT ADD SLT PUSH2 0x2F0 JUMPI PUSH1 0x20 PUSH1 0x11 SLOAD PUSH1 0x40 MLOAD SWAP1 DUP2 MSTORE RETURN JUMPDEST PUSH1 0x0 DUP1 REVERT JUMPDEST CALLVALUE PUSH2 0x2F0 JUMPI PUSH1 0x20 CALLDATASIZE PUSH1 0x3 NOT ADD SLT PUSH2 0x2F0 JUMPI PUSH1 0x0 PUSH2 0x240 PUSH1 0x40 MLOAD PUSH2 0x317 DUP2 PUSH2 0x4041 JUMP JUMPDEST DUP3 DUP2 MSTORE PUSH1 0x60 PUSH1 0x20 DUP3 ADD MSTORE PUSH1 0x60 PUSH1 0x40 DUP3 ADD MSTORE DUP3 PUSH1 0x60 DUP3 ADD MSTORE DUP3 PUSH1 0x80 DUP3 ADD MSTORE DUP3 PUSH1 0xA0 DUP3 ADD MSTORE DUP3 PUSH1 0xC0 DUP3 ADD MSTORE DUP3 PUSH1 0xE0 DUP3 ADD MSTORE DUP3 PUSH2 0x100 DUP3 ADD MSTORE DUP3 PUSH2 0x120 DUP3 ADD MSTORE DUP3 PUSH2 0x140 DUP3 ADD MSTORE DUP3 PUSH2 0x160 DUP3 ADD MSTORE DUP3 PUSH2 0x180 DUP3 ADD MSTORE PUSH1 0x60 PUSH2 0x1A0 DUP3 ADD MSTORE DUP3 PUSH2 0x1C0 DUP3 ADD MSTORE DUP3 PUSH2 0x1E0 DUP3 ADD MSTORE DUP3 PUSH2 0x200 DUP3 ADD MSTORE DUP3 PUSH2 0x220 DUP3 ADD MSTORE ADD MSTORE PUSH1 0x4 CALLDATALOAD DUP1 PUSH1 0x0 MSTORE PUSH1 0xC PUSH1 0x20 MSTORE PUSH2 0x3AB PUSH1 0x40 PUSH1 0x0 KECCAK256 SLOAD ISZERO ISZERO PUSH2 0x4D87 JUMP JUMPDEST PUSH1 0x0 MSTORE PUSH1 0xC PUSH1 0x20 MSTORE PUSH1 0x40 PUSH1 0x0 KECCAK256 PUSH1 0x40 MLOAD SWAP1 PUSH2 0x3C5 DUP3 PUSH2 0x4041 JUMP JUMPDEST DUP1 SLOAD DUP3 MSTORE PUSH1 0x40 MLOAD PUSH2 0x3E4 DUP2 PUSH2 0x3DD DUP2 PUSH1 0x1 DUP7 ADD PUSH2 0x429F JUMP JUMPDEST SUB DUP3 PUSH2 0x4093 JUMP JUMPDEST PUSH1 0x20 DUP4 ADD MSTORE PUSH1 0x40 MLOAD PUSH2 0x3FD DUP2 PUSH2 0x3DD DUP2 PUSH1 0x2 DUP7 ADD PUSH2 0x429F JUMP JUMPDEST PUSH1 0x40 DUP4 ADD MSTORE PUSH1 0x3 DUP2 ADD SLOAD PUSH1 0x60 DUP4 ADD MSTORE PUSH1 0x4 DUP2 ADD SLOAD PUSH1 0x80 DUP4 ADD MSTORE PUSH1 0x5 DUP2 ADD SLOAD PUSH1 0xA0 DUP4 ADD MSTORE PUSH1 0x6 DUP2 ADD SLOAD PUSH1 0xC0 DUP4 ADD MSTORE PUSH1 0x7 DUP2 ADD SLOAD PUSH1 0xE0 DUP4 ADD MSTORE PUSH1 0x8 DUP2 ADD SLOAD PUSH2 0x100 DUP4 ADD MSTORE PUSH1 0x9 DUP2 ADD SLOAD PUSH2 0x120 DUP4 ADD MSTORE PUSH1 0xA DUP2 ADD SLOAD PUSH2 0x140 DUP4 ADD MSTORE PUSH1 0xB DUP2 ADD SLOAD PUSH2 0x160 DUP4 ADD MSTORE PUSH1 0xC DUP2 ADD SLOAD PUSH2 0x180 DUP4 ADD MSTORE PUSH1 0x40 MLOAD PUSH2 0x47F DUP2 PUSH2 0x3DD DUP2 PUSH1 0xD DUP7 ADD PUSH2 0x429F JUMP JUMPDEST PUSH2 0x1A0 DUP4 ADD MSTORE PUSH1 0xE DUP2 ADD SLOAD PUSH2 0x1C0 DUP4 ADD MSTORE PUSH1 0xF DUP2 ADD SLOAD PUSH2 0x1E0 DUP4 ADD MSTORE PUSH1 0x10 DUP2 ADD SLOAD PUSH2 0x200 DUP4 ADD MSTORE PUSH1 0x1 DUP1 PUSH1 0xA0 SHL SUB PUSH1 0x11 DUP3 ADD SLOAD AND PUSH2 0x220 DUP4 ADD MSTORE PUSH1 0x12 PUSH1 0x1 DUP1 PUSH1 0xA0 SHL SUB SWAP2 ADD SLOAD AND PUSH2 0x240 DUP3 ADD MSTORE PUSH1 0x40 MLOAD DUP1 SWAP2 PUSH1 0x20 DUP3 MSTORE DUP1 MLOAD PUSH1 0x20 DUP4 ADD MSTORE PUSH2 0x59A PUSH2 0x513 PUSH2 0x4FD PUSH1 0x20 DUP5 ADD MLOAD PUSH2 0x260 PUSH1 0x40 DUP8 ADD MSTORE PUSH2 0x280 DUP7 ADD SWAP1 PUSH2 0x4240 JUMP JUMPDEST PUSH1 0x40 DUP5 ADD MLOAD DUP6 DUP3 SUB PUSH1 0x1F NOT ADD PUSH1 0x60 DUP8 ADD MSTORE PUSH2 0x4240 JUMP JUMPDEST PUSH1 0x60 DUP4 ADD MLOAD PUSH1 0x80 DUP6 ADD MSTORE PUSH1 0x80 DUP4 ADD MLOAD PUSH1 0xA0 DUP6 ADD MSTORE PUSH1 0xA0 DUP4 ADD MLOAD PUSH1 0xC0 DUP6 ADD MSTORE PUSH1 0xC0 DUP4 ADD MLOAD PUSH1 0xE0 DUP6 ADD MSTORE PUSH1 0xE0 DUP4 ADD MLOAD PUSH2 0x100 DUP6 ADD MSTORE PUSH2 0x100 DUP4 ADD MLOAD PUSH2 0x120 DUP6 ADD MSTORE PUSH2 0x120 DUP4 ADD MLOAD PUSH2 0x140 DUP6 ADD MSTORE PUSH2 0x140 DUP4 ADD MLOAD PUSH2 0x160 DUP6 ADD MSTORE PUSH2 0x160 DUP4 ADD MLOAD PUSH2 0x180 DUP6 ADD MSTORE PUSH2 0x180 DUP4 ADD MLOAD PUSH2 0x1A0 DUP6 ADD MSTORE PUSH2 0x1A0 DUP4 ADD MLOAD PUSH1 0x1F NOT DUP6 DUP4 SUB ADD PUSH2 0x1C0 DUP7 ADD MSTORE PUSH2 0x4240 JUMP JUMPDEST SWAP1 PUSH2 0x1C0 DUP2 ADD MLOAD PUSH2 0x1E0 DUP5 ADD MSTORE PUSH2 0x1E0 DUP2 ADD MLOAD PUSH2 0x200 DUP5 ADD MSTORE PUSH2 0x200 DUP2 ADD MLOAD PUSH2 0x220 DUP5 ADD MSTORE PUSH1 0x1 DUP1 PUSH1 0xA0 SHL SUB PUSH2 0x220 DUP3 ADD MLOAD AND PUSH2 0x240 DUP5 ADD MSTORE PUSH2 0x240 PUSH1 0x1 DUP1 PUSH1 0xA0 SHL SUB SWAP2 ADD MLOAD AND PUSH2 0x260 DUP4 ADD MSTORE SUB SWAP1 RETURN JUMPDEST CALLVALUE PUSH2 0x2F0 JUMPI PUSH1 0x80 CALLDATASIZE PUSH1 0x3 NOT ADD SLT PUSH2 0x2F0 JUMPI PUSH1 0x4 CALLDATALOAD PUSH1 0x24 CALLDATALOAD PUSH1 0x44 CALLDATALOAD PUSH1 0x0 DUP1 MLOAD PUSH1 0x20 PUSH2 0x502B DUP4 CODECOPY DUP2 MLOAD SWAP2 MSTORE PUSH1 0x0 MSTORE PUSH1 0x20 PUSH1 0x1 DUP2 MSTORE PUSH1 0x40 PUSH1 0x0 KECCAK256 CALLER PUSH1 0x0 MSTORE DUP2 MSTORE PUSH1 0xFF PUSH1 0x40 PUSH1 0x0 KECCAK256 SLOAD AND DUP1 ISZERO PUSH2 0x891 JUMPI JUMPDEST PUSH2 0x641 SWAP1 PUSH2 0x47E6 JUMP JUMPDEST DUP4 PUSH1 0x0 MSTORE PUSH1 0xC DUP2 MSTORE PUSH1 0x40 PUSH1 0x0 KECCAK256 SWAP2 PUSH2 0x65B DUP4 SLOAD ISZERO ISZERO PUSH2 0x4D87 JUMP JUMPDEST PUSH1 0x40 MLOAD PUSH2 0x66F DUP2 PUSH2 0x3DD DUP2 PUSH1 0xD DUP9 ADD PUSH2 0x429F JUMP JUMPDEST DUP3 DUP2 MLOAD SWAP2 ADD KECCAK256 PUSH2 0x67D PUSH2 0x49E6 JUMP JUMPDEST DUP4 DUP2 MLOAD SWAP2 ADD KECCAK256 SUB PUSH2 0x84C JUMPI PUSH2 0x695 PUSH1 0x64 DUP6 GT ISZERO PUSH2 0x4CEF JUMP JUMPDEST PUSH2 0x6A2 PUSH1 0x1F DUP3 GT ISZERO PUSH2 0x4D3B JUMP JUMPDEST PUSH1 0x1 DUP4 ADD SWAP3 PUSH1 0x40 MLOAD DUP4 DUP2 PUSH2 0x6B6 DUP2 DUP9 PUSH2 0x4DD3 JUMP JUMPDEST PUSH1 0xB DUP2 MSTORE SUB ADD SWAP1 KECCAK256 PUSH1 0x40 MLOAD SWAP1 PUSH2 0x6CB DUP3 PUSH2 0x400A JUMP JUMPDEST PUSH1 0x40 MLOAD DUP1 PUSH2 0x6D9 DUP2 DUP5 PUSH2 0x429F JUMP JUMPDEST SUB PUSH2 0x6E4 SWAP1 DUP3 PUSH2 0x4093 JUMP JUMPDEST DUP3 MSTORE PUSH1 0x1 DUP2 ADD SLOAD DUP6 DUP4 ADD SWAP2 DUP2 DUP4 MSTORE PUSH1 0x2 DUP2 ADD SLOAD SWAP9 PUSH1 0x40 DUP6 ADD SWAP10 DUP11 MSTORE DUP7 PUSH1 0x3 DUP4 ADD SLOAD SWAP4 PUSH1 0x60 DUP8 ADD SWAP5 DUP6 MSTORE PUSH1 0x4 DUP5 ADD SLOAD SWAP7 PUSH1 0x80 DUP2 ADD SWAP8 DUP9 MSTORE PUSH1 0x5 DUP6 ADD SLOAD SWAP5 PUSH1 0xA0 DUP3 ADD SWAP6 DUP7 MSTORE PUSH1 0x6 DUP2 ADD SLOAD PUSH1 0xFF AND ISZERO ISZERO PUSH1 0xC0 DUP4 ADD MSTORE PUSH1 0x7 DUP2 ADD SLOAD PUSH1 0xE0 DUP4 ADD MSTORE PUSH1 0x8 ADD SLOAD SWAP1 PUSH2 0x100 ADD MSTORE PUSH1 0x8 SLOAD PUSH2 0x756 SWAP2 PUSH2 0x49C6 JUMP JUMPDEST SWAP1 PUSH2 0x760 SWAP2 PUSH2 0x4748 JUMP JUMPDEST SWAP10 DUP5 MLOAD SWAP1 MLOAD PUSH2 0x76E SWAP2 PUSH2 0x4748 JUMP JUMPDEST SWAP1 PUSH2 0x778 SWAP2 PUSH2 0x4748 JUMP JUMPDEST PUSH2 0x2710 SWAP1 DIV SWAP2 MLOAD SWAP3 PUSH1 0x64 CALLDATALOAD SWAP1 PUSH1 0xA SLOAD PUSH1 0xC SWAP1 DIV SWAP1 MLOAD SWAP1 PUSH2 0x797 SWAP2 PUSH2 0x49C6 JUMP JUMPDEST SWAP1 PUSH2 0x7A1 SWAP2 PUSH2 0x4748 JUMP JUMPDEST SWAP1 MLOAD PUSH2 0x7AC SWAP2 PUSH2 0x4748 JUMP JUMPDEST PUSH1 0x64 SWAP1 DIV DUP1 SWAP3 PUSH2 0x7BC DUP4 DUP12 PUSH2 0x4771 JUMP JUMPDEST SWAP1 PUSH2 0x7C6 SWAP2 PUSH2 0x4771 JUMP JUMPDEST SWAP1 PUSH2 0x7D0 SWAP2 PUSH2 0x4771 JUMP JUMPDEST SWAP3 MLOAD PUSH2 0x7DC SWAP1 DUP5 PUSH2 0x4748 JUMP JUMPDEST PUSH1 0x64 SWAP1 DIV SWAP3 DUP4 PUSH2 0x7EB SWAP2 PUSH2 0x4A90 JUMP JUMPDEST SWAP8 DUP9 SWAP6 PUSH1 0x4 DUP7 ADD SSTORE PUSH1 0x6 DUP6 ADD SSTORE PUSH1 0x7 DUP5 ADD SSTORE PUSH1 0x9 DUP4 ADD SSTORE PUSH1 0xA DUP3 ADD SSTORE PUSH1 0xB ADD SSTORE PUSH1 0x40 MLOAD SWAP3 DUP4 SWAP3 PUSH1 0x40 DUP5 MSTORE PUSH1 0x40 DUP5 ADD PUSH2 0x822 SWAP2 PUSH2 0x429F JUMP JUMPDEST SWAP2 DUP4 ADD MSTORE SUB PUSH32 0xC4C138CF6E124771BE2081F23D0AFA448B1C8D50A02DE3069F3FEC33169D80EA SWAP2 LOG2 STOP JUMPDEST PUSH1 0x40 MLOAD PUSH3 0x461BCD PUSH1 0xE5 SHL DUP2 MSTORE PUSH1 0x4 DUP2 ADD DUP4 SWAP1 MSTORE PUSH1 0x1F PUSH1 0x24 DUP3 ADD MSTORE PUSH32 0x43616E206F6E6C79207570646174652070656E64696E6720706179726F6C6C00 PUSH1 0x44 DUP3 ADD MSTORE PUSH1 0x64 SWAP1 REVERT JUMPDEST POP PUSH1 0x0 DUP1 MLOAD PUSH1 0x20 PUSH2 0x504B DUP4 CODECOPY DUP2 MLOAD SWAP2 MSTORE PUSH1 0x0 SWAP1 DUP2 MSTORE PUSH1 0x1 DUP3 MSTORE PUSH1 0x40 DUP1 DUP3 KECCAK256 CALLER DUP4 MSTORE DUP4 MSTORE SWAP1 KECCAK256 SLOAD PUSH1 0xFF AND PUSH2 0x638 JUMP JUMPDEST CALLVALUE PUSH2 0x2F0 JUMPI PUSH1 0x0 CALLDATASIZE PUSH1 0x3 NOT ADD SLT PUSH2 0x2F0 JUMPI PUSH1 0x20 PUSH1 0x40 MLOAD PUSH1 0x0 DUP1 MLOAD PUSH1 0x20 PUSH2 0x502B DUP4 CODECOPY DUP2 MLOAD SWAP2 MSTORE DUP2 MSTORE RETURN JUMPDEST CALLVALUE PUSH2 0x2F0 JUMPI PUSH1 0x20 DUP1 PUSH1 0x3 NOT CALLDATASIZE ADD SLT PUSH2 0x2F0 JUMPI PUSH2 0x902 PUSH2 0x4198 JUMP JUMPDEST PUSH1 0x0 DUP1 MLOAD PUSH1 0x20 PUSH2 0x504B DUP4 CODECOPY DUP2 MLOAD SWAP2 MSTORE PUSH1 0x0 MSTORE PUSH1 0x1 DUP1 DUP4 MSTORE PUSH1 0x40 PUSH1 0x0 KECCAK256 CALLER PUSH1 0x0 MSTORE DUP4 MSTORE PUSH2 0x935 PUSH1 0xFF PUSH1 0x40 PUSH1 0x0 KECCAK256 SLOAD AND PUSH2 0x478F JUMP JUMPDEST PUSH32 0x5A3425EA67E73C95853ECFC0C443062DE292A303C186BC2AAC1178AE1B86C62A SWAP3 DUP4 PUSH1 0x0 MSTORE DUP2 DUP2 MSTORE PUSH2 0x96E DUP3 PUSH1 0x40 PUSH1 0x0 KECCAK256 ADD SLOAD PUSH2 0x437B JUMP JUMPDEST PUSH1 0x0 DUP5 DUP2 MSTORE DUP3 DUP3 MSTORE PUSH1 0x40 DUP1 DUP3 KECCAK256 PUSH1 0x1 PUSH1 0x1 PUSH1 0xA0 SHL SUB SWAP1 SWAP6 AND DUP1 DUP4 MSTORE SWAP5 DUP4 MSTORE SWAP1 KECCAK256 SLOAD PUSH1 0xFF AND ISZERO PUSH2 0x999 JUMPI STOP JUMPDEST DUP4 PUSH1 0x0 MSTORE DUP2 DUP2 MSTORE PUSH1 0x40 PUSH1 0x0 KECCAK256 SWAP1 DUP4 PUSH1 0x0 MSTORE MSTORE PUSH1 0x40 PUSH1 0x0 KECCAK256 SWAP1 PUSH1 0xFF NOT DUP3 SLOAD AND OR SWAP1 SSTORE CALLER SWAP2 PUSH32 0x2F8788117E7EFF1D82E926EC794901D17C78024A50270940304540A733656F0D PUSH1 0x0 DUP1 LOG4 STOP JUMPDEST CALLVALUE PUSH2 0x2F0 JUMPI PUSH1 0x20 CALLDATASIZE PUSH1 0x3 NOT ADD SLT PUSH2 0x2F0 JUMPI PUSH2 0x9FC PUSH2 0x4198 JUMP JUMPDEST PUSH2 0xA04 PUSH2 0x46F0 JUMP JUMPDEST PUSH1 0x1 PUSH1 0x1 PUSH1 0xA0 SHL SUB SWAP1 DUP2 AND SWAP1 DUP2 ISZERO PUSH2 0xA58 JUMPI PUSH1 0x0 SLOAD DUP3 PUSH12 0xFFFFFFFFFFFFFFFFFFFFFFFF PUSH1 0xA0 SHL DUP3 AND OR PUSH1 0x0 SSTORE AND PUSH32 0x8BE0079C531659141344CD1FD0A4F28419497F9722A3DAAFE3B4186F6B6457E0 PUSH1 0x0 DUP1 LOG3 STOP JUMPDEST PUSH1 0x40 MLOAD PUSH3 0x461BCD PUSH1 0xE5 SHL DUP2 MSTORE PUSH1 0x20 PUSH1 0x4 DUP3 ADD MSTORE PUSH1 0x26 PUSH1 0x24 DUP3 ADD MSTORE PUSH32 0x4F776E61626C653A206E6577206F776E657220697320746865207A65726F2061 PUSH1 0x44 DUP3 ADD MSTORE PUSH6 0x646472657373 PUSH1 0xD0 SHL PUSH1 0x64 DUP3 ADD MSTORE PUSH1 0x84 SWAP1 REVERT JUMPDEST CALLVALUE PUSH2 0x2F0 JUMPI PUSH1 0x20 CALLDATASIZE PUSH1 0x3 NOT ADD SLT PUSH2 0x2F0 JUMPI PUSH2 0xAC5 PUSH2 0x4198 JUMP JUMPDEST PUSH2 0xACD PUSH2 0x46F0 JUMP JUMPDEST PUSH1 0x1 PUSH1 0x1 PUSH1 0xA0 SHL SUB AND DUP1 ISZERO PUSH2 0xB15 JUMPI PUSH1 0x7 DUP1 SLOAD PUSH1 0x1 PUSH1 0x1 PUSH1 0xA0 SHL SUB NOT AND DUP3 OR SWAP1 SSTORE PUSH32 0x5EFC264D5D2C80D5ECD3505A89B7C8B6BFFBC86E436FE4218D13E6D85124D165 PUSH1 0x0 DUP1 LOG2 STOP JUMPDEST PUSH1 0x40 MLOAD PUSH3 0x461BCD PUSH1 0xE5 SHL DUP2 MSTORE PUSH1 0x20 PUSH1 0x4 DUP3 ADD MSTORE PUSH1 0x23 PUSH1 0x24 DUP3 ADD MSTORE PUSH32 0x496E76616C696420617474656E64616E636520636F6E74726163742061646472 PUSH1 0x44 DUP3 ADD MSTORE PUSH3 0x657373 PUSH1 0xE8 SHL PUSH1 0x64 DUP3 ADD MSTORE PUSH1 0x84 SWAP1 REVERT JUMPDEST CALLVALUE PUSH2 0x2F0 JUMPI PUSH1 0x20 DUP1 PUSH1 0x3 NOT CALLDATASIZE ADD SLT PUSH2 0x2F0 JUMPI PUSH1 0x4 CALLDATALOAD SWAP1 PUSH1 0x0 DUP1 MLOAD PUSH1 0x20 PUSH2 0x504B DUP4 CODECOPY DUP2 MLOAD SWAP2 MSTORE PUSH1 0x0 MSTORE PUSH1 0x1 DUP2 MSTORE PUSH1 0x40 PUSH1 0x0 KECCAK256 CALLER PUSH1 0x0 MSTORE DUP2 MSTORE PUSH2 0xBAE PUSH1 0xFF PUSH1 0x40 PUSH1 0x0 KECCAK256 SLOAD AND PUSH2 0x478F JUMP JUMPDEST DUP2 PUSH1 0x0 MSTORE PUSH1 0xC DUP2 MSTORE PUSH1 0x40 PUSH1 0x0 KECCAK256 SWAP1 PUSH2 0xBC8 DUP3 SLOAD ISZERO ISZERO PUSH2 0x4D87 JUMP JUMPDEST PUSH1 0xD DUP3 ADD PUSH1 0x40 MLOAD PUSH2 0xBDD DUP2 PUSH2 0x3DD DUP2 DUP6 PUSH2 0x429F JUMP JUMPDEST DUP3 DUP2 MLOAD SWAP2 ADD KECCAK256 PUSH2 0xBEB PUSH2 0x49E6 JUMP JUMPDEST DUP4 DUP2 MLOAD SWAP2 ADD KECCAK256 SUB PUSH2 0xC7D JUMPI SWAP2 PUSH2 0xC72 SWAP2 DUP4 PUSH2 0xC30 PUSH2 0xC2A PUSH32 0x44DD012F44ACEFE4A6FB2B5D2128A7A4BEF294A4718A160D4999B44FADBA3B38 SWAP7 SLOAD PUSH2 0x4265 JUMP JUMPDEST DUP3 PUSH2 0x485A JUMP JUMPDEST PUSH1 0x10 PUSH8 0x105C1C1C9BDD9959 PUSH1 0xC2 SHL ADD SWAP1 SSTORE TIMESTAMP PUSH1 0xF DUP4 ADD SSTORE PUSH1 0x11 DUP3 ADD DUP1 SLOAD PUSH1 0x1 PUSH1 0x1 PUSH1 0xA0 SHL SUB NOT AND CALLER OR SWAP1 SSTORE PUSH1 0x40 DUP1 MLOAD DUP2 DUP2 MSTORE SWAP4 DUP5 SWAP4 SWAP1 SWAP2 DUP5 ADD SWAP1 PUSH1 0x1 ADD PUSH2 0x429F JUMP JUMPDEST SWAP1 CALLER SWAP1 DUP4 ADD MSTORE SUB SWAP1 LOG2 STOP JUMPDEST PUSH1 0x40 MLOAD PUSH3 0x461BCD PUSH1 0xE5 SHL DUP2 MSTORE PUSH1 0x4 DUP2 ADD DUP4 SWAP1 MSTORE PUSH1 0x13 PUSH1 0x24 DUP3 ADD MSTORE PUSH19 0x506179726F6C6C206E6F742070656E64696E67 PUSH1 0x68 SHL PUSH1 0x44 DUP3 ADD MSTORE PUSH1 0x64 SWAP1 REVERT JUMPDEST CALLVALUE PUSH2 0x2F0 JUMPI PUSH2 0xCC6 CALLDATASIZE PUSH2 0x4335 JUMP JUMPDEST CALLER PUSH1 0x0 SWAP1 DUP2 MSTORE PUSH1 0x0 DUP1 MLOAD PUSH1 0x20 PUSH2 0x4FEB DUP4 CODECOPY DUP2 MLOAD SWAP2 MSTORE PUSH1 0x20 MSTORE PUSH1 0x40 SWAP1 KECCAK256 SLOAD PUSH1 0xFF AND DUP1 ISZERO PUSH2 0x130A JUMPI JUMPDEST PUSH2 0xCF6 SWAP1 PUSH2 0x47E6 JUMP JUMPDEST PUSH2 0xD24 PUSH1 0xFF PUSH1 0x6 PUSH1 0x40 MLOAD PUSH1 0x20 DUP2 DUP8 MLOAD PUSH2 0xD12 DUP2 DUP4 DUP6 DUP13 ADD PUSH2 0x4147 JUMP JUMPDEST DUP2 ADD PUSH1 0xB DUP2 MSTORE SUB ADD SWAP1 KECCAK256 ADD SLOAD AND PUSH2 0x48E9 JUMP JUMPDEST PUSH1 0x6 SLOAD PUSH1 0x1 PUSH1 0x1 PUSH1 0xA0 SHL SUB AND PUSH1 0x0 DUP2 PUSH2 0x1235 JUMPI JUMPDEST PUSH2 0xD44 SWAP2 POP DUP3 DUP5 PUSH2 0x4A9D JUMP JUMPDEST SWAP6 SWAP7 SWAP4 SWAP1 SWAP5 PUSH1 0x1 PUSH1 0x3 SWAP5 SWAP4 SWAP5 SLOAD ADD SWAP8 DUP9 PUSH1 0x3 SSTORE PUSH1 0x1 PUSH2 0xD72 PUSH1 0x20 DUP13 DUP2 PUSH1 0x40 MLOAD SWAP4 DUP3 DUP6 DUP1 SWAP5 MLOAD SWAP4 DUP5 SWAP3 ADD PUSH2 0x4147 JUMP JUMPDEST DUP2 ADD PUSH1 0xB DUP2 MSTORE SUB ADD SWAP1 KECCAK256 ADD SLOAD SWAP8 MLOAD PUSH1 0x8 SLOAD SWAP1 PUSH1 0x40 MLOAD SWAP10 PUSH2 0xD91 DUP12 PUSH2 0x4041 JUMP JUMPDEST DUP12 DUP12 MSTORE DUP13 PUSH1 0x20 DUP13 ADD MSTORE DUP9 PUSH1 0x40 DUP13 ADD MSTORE PUSH1 0x60 DUP12 ADD MSTORE PUSH1 0x80 DUP11 ADD MSTORE PUSH1 0xA0 DUP10 ADD MSTORE PUSH1 0xC0 DUP9 ADD MSTORE PUSH1 0xE0 DUP8 ADD MSTORE PUSH2 0x100 DUP7 ADD MSTORE PUSH2 0x120 DUP6 ADD MSTORE PUSH2 0x140 DUP5 ADD MSTORE DUP2 PUSH2 0x160 DUP5 ADD MSTORE PUSH1 0x0 PUSH2 0x180 DUP5 ADD MSTORE PUSH2 0xDE2 PUSH2 0x49E6 JUMP JUMPDEST PUSH2 0x1A0 DUP5 ADD MSTORE TIMESTAMP PUSH2 0x1C0 DUP5 ADD MSTORE PUSH1 0x0 PUSH2 0x1E0 DUP5 ADD MSTORE PUSH1 0x0 PUSH2 0x200 DUP5 ADD MSTORE PUSH1 0x0 PUSH2 0x220 DUP5 ADD MSTORE PUSH1 0x0 PUSH2 0x240 DUP5 ADD MSTORE DUP4 PUSH1 0x0 MSTORE PUSH1 0xC PUSH1 0x20 MSTORE PUSH1 0x40 PUSH1 0x0 KECCAK256 SWAP5 DUP4 MLOAD DUP7 SSTORE PUSH1 0x20 DUP5 ADD MLOAD DUP1 MLOAD SWAP1 PUSH1 0x1 PUSH1 0x1 PUSH1 0x40 SHL SUB DUP3 GT PUSH2 0x1125 JUMPI DUP2 SWAP1 PUSH2 0xE54 DUP3 PUSH2 0xE4B PUSH1 0x1 DUP13 ADD SLOAD PUSH2 0x4265 JUMP JUMPDEST PUSH1 0x1 DUP13 ADD PUSH2 0x4884 JUMP JUMPDEST PUSH1 0x20 SWAP1 PUSH1 0x1F DUP4 GT PUSH1 0x1 EQ PUSH2 0x11C3 JUMPI PUSH1 0x0 SWAP3 PUSH2 0x11B8 JUMPI JUMPDEST POP POP DUP2 PUSH1 0x1 SHL SWAP2 PUSH1 0x0 NOT SWAP1 PUSH1 0x3 SHL SHR NOT AND OR PUSH1 0x1 DUP8 ADD SSTORE JUMPDEST PUSH1 0x40 DUP5 ADD MLOAD DUP1 MLOAD SWAP1 PUSH1 0x1 PUSH1 0x1 PUSH1 0x40 SHL SUB DUP3 GT PUSH2 0x1125 JUMPI DUP2 SWAP1 PUSH2 0xEB4 DUP3 PUSH2 0xEAB PUSH1 0x2 DUP13 ADD SLOAD PUSH2 0x4265 JUMP JUMPDEST PUSH1 0x2 DUP13 ADD PUSH2 0x4884 JUMP JUMPDEST PUSH1 0x20 SWAP1 PUSH1 0x1F DUP4 GT PUSH1 0x1 EQ PUSH2 0x1146 JUMPI PUSH1 0x0 SWAP3 PUSH2 0x113B JUMPI JUMPDEST POP POP DUP2 PUSH1 0x1 SHL SWAP2 PUSH1 0x0 NOT SWAP1 PUSH1 0x3 SHL SHR NOT AND OR PUSH1 0x2 DUP8 ADD SSTORE JUMPDEST PUSH1 0x60 DUP5 ADD MLOAD PUSH1 0x3 DUP8 ADD SSTORE PUSH1 0x80 DUP5 ADD MLOAD PUSH1 0x4 DUP8 ADD SSTORE PUSH1 0xA0 DUP5 ADD MLOAD PUSH1 0x5 DUP8 ADD SSTORE PUSH1 0xC0 DUP5 ADD MLOAD PUSH1 0x6 DUP8 ADD SSTORE PUSH1 0xE0 DUP5 ADD MLOAD PUSH1 0x7 DUP8 ADD SSTORE PUSH2 0x100 DUP5 ADD MLOAD PUSH1 0x8 DUP8 ADD SSTORE PUSH2 0x120 DUP5 ADD MLOAD PUSH1 0x9 DUP8 ADD SSTORE PUSH2 0x140 DUP5 ADD MLOAD PUSH1 0xA DUP8 ADD SSTORE PUSH2 0x160 DUP5 ADD MLOAD PUSH1 0xB DUP8 ADD SSTORE PUSH2 0x180 DUP5 ADD MLOAD PUSH1 0xC DUP8 ADD SSTORE PUSH2 0x1A0 DUP5 ADD MLOAD SWAP3 DUP4 MLOAD SWAP7 PUSH1 0x1 PUSH1 0x1 PUSH1 0x40 SHL SUB DUP9 GT PUSH2 0x1125 JUMPI DUP8 DUP8 SWAP6 PUSH2 0xF82 PUSH1 0x20 SWAP11 PUSH2 0xF79 PUSH1 0xD DUP7 ADD SLOAD PUSH2 0x4265 JUMP JUMPDEST PUSH1 0xD DUP7 ADD PUSH2 0x4884 JUMP JUMPDEST DUP10 SWAP1 PUSH1 0x1F DUP4 GT PUSH1 0x1 EQ PUSH2 0x109B JUMPI SWAP2 DUP1 PUSH2 0x1085 SWAP6 SWAP5 SWAP3 PUSH1 0x0 DUP1 MLOAD PUSH1 0x20 PUSH2 0x506B DUP4 CODECOPY DUP2 MLOAD SWAP2 MSTORE SWAP10 SWAP11 SWAP5 PUSH1 0x0 SWAP3 PUSH2 0x1090 JUMPI JUMPDEST POP POP DUP2 PUSH1 0x1 SHL SWAP2 PUSH1 0x0 NOT SWAP1 PUSH1 0x3 SHL SHR NOT AND OR PUSH1 0xD DUP3 ADD SSTORE JUMPDEST PUSH2 0x1C0 DUP3 ADD MLOAD PUSH1 0xE DUP3 ADD SSTORE PUSH2 0x1E0 DUP3 ADD MLOAD PUSH1 0xF DUP3 ADD SSTORE PUSH2 0x200 DUP3 ADD MLOAD PUSH1 0x10 DUP3 ADD SSTORE PUSH2 0x220 DUP3 ADD MLOAD PUSH1 0x11 DUP3 ADD DUP1 SLOAD PUSH1 0x1 PUSH1 0x1 PUSH1 0xA0 SHL SUB NOT SWAP1 DUP2 AND PUSH1 0x1 PUSH1 0x1 PUSH1 0xA0 SHL SUB SWAP4 DUP5 AND OR SWAP1 SWAP2 SSTORE PUSH2 0x240 SWAP1 SWAP4 ADD MLOAD PUSH1 0x12 SWAP1 SWAP3 ADD DUP1 SLOAD SWAP1 SWAP4 AND SWAP2 AND OR SWAP1 SSTORE PUSH1 0x40 MLOAD DUP4 MLOAD PUSH2 0x1052 SWAP2 DUP9 SWAP2 DUP12 SWAP1 DUP3 SWAP1 PUSH2 0x1043 DUP2 DUP4 DUP12 DUP7 ADD PUSH2 0x4147 JUMP JUMPDEST DUP2 ADD PUSH1 0xD DUP2 MSTORE SUB ADD SWAP1 KECCAK256 PUSH2 0x4A09 JUMP JUMPDEST PUSH2 0x1079 DUP7 PUSH1 0x40 MLOAD DUP11 DUP2 DUP9 MLOAD PUSH2 0x106A DUP2 DUP4 DUP6 DUP14 ADD PUSH2 0x4147 JUMP JUMPDEST DUP2 ADD PUSH1 0xE DUP2 MSTORE SUB ADD SWAP1 KECCAK256 PUSH2 0x4A09 JUMP JUMPDEST PUSH1 0x40 MLOAD SWAP4 DUP5 SWAP4 DUP5 PUSH2 0x4A43 JUMP JUMPDEST SUB SWAP1 LOG2 PUSH1 0x40 MLOAD SWAP1 DUP2 MSTORE RETURN JUMPDEST ADD MLOAD SWAP1 POP DUP13 DUP1 PUSH2 0xFB1 JUMP JUMPDEST SWAP8 SWAP3 SWAP2 SWAP1 PUSH1 0xD DUP4 ADD PUSH1 0x0 MSTORE DUP11 PUSH1 0x0 KECCAK256 SWAP9 PUSH1 0x0 JUMPDEST PUSH1 0x1F NOT DUP5 AND DUP2 LT PUSH2 0x110B JUMPI POP SWAP2 PUSH1 0x0 DUP1 MLOAD PUSH1 0x20 PUSH2 0x506B DUP4 CODECOPY DUP2 MLOAD SWAP2 MSTORE SWAP9 SWAP10 PUSH1 0x1 SWAP3 PUSH2 0x1085 SWAP8 SWAP7 SWAP6 SWAP5 DUP4 PUSH1 0x1F NOT DUP2 AND LT PUSH2 0x10F2 JUMPI JUMPDEST POP POP POP DUP2 SHL ADD PUSH1 0xD DUP3 ADD SSTORE PUSH2 0xFC9 JUMP JUMPDEST ADD MLOAD PUSH1 0x0 NOT PUSH1 0xF8 DUP5 PUSH1 0x3 SHL AND SHR NOT AND SWAP1 SSTORE DUP13 DUP1 DUP1 PUSH2 0x10E2 JUMP JUMPDEST DUP3 DUP3 ADD MLOAD DUP12 SSTORE PUSH1 0x1 SWAP1 SWAP11 ADD SWAP10 DUP12 SWAP10 POP SWAP2 DUP13 ADD SWAP2 DUP13 ADD PUSH2 0x10AE JUMP JUMPDEST PUSH4 0x4E487B71 PUSH1 0xE0 SHL PUSH1 0x0 MSTORE PUSH1 0x41 PUSH1 0x4 MSTORE PUSH1 0x24 PUSH1 0x0 REVERT JUMPDEST ADD MLOAD SWAP1 POP DUP9 DUP1 PUSH2 0xECA JUMP JUMPDEST SWAP3 POP PUSH1 0x2 DUP10 ADD PUSH1 0x0 MSTORE PUSH1 0x20 PUSH1 0x0 KECCAK256 SWAP1 PUSH1 0x0 SWAP4 JUMPDEST PUSH1 0x1F NOT DUP5 AND DUP6 LT PUSH2 0x119D JUMPI PUSH1 0x1 SWAP5 POP DUP4 PUSH1 0x1F NOT DUP2 AND LT PUSH2 0x1184 JUMPI JUMPDEST POP POP POP DUP2 SHL ADD PUSH1 0x2 DUP8 ADD SSTORE PUSH2 0xEE2 JUMP JUMPDEST ADD MLOAD PUSH1 0x0 NOT PUSH1 0xF8 DUP5 PUSH1 0x3 SHL AND SHR NOT AND SWAP1 SSTORE DUP9 DUP1 DUP1 PUSH2 0x1174 JUMP JUMPDEST DUP2 DUP2 ADD MLOAD DUP4 SSTORE PUSH1 0x20 SWAP5 DUP6 ADD SWAP5 PUSH1 0x1 SWAP1 SWAP4 ADD SWAP3 SWAP1 SWAP2 ADD SWAP1 PUSH2 0x1159 JUMP JUMPDEST ADD MLOAD SWAP1 POP DUP9 DUP1 PUSH2 0xE6A JUMP JUMPDEST SWAP3 POP PUSH1 0x1 DUP10 ADD PUSH1 0x0 MSTORE PUSH1 0x20 PUSH1 0x0 KECCAK256 SWAP1 PUSH1 0x0 SWAP4 JUMPDEST PUSH1 0x1F NOT DUP5 AND DUP6 LT PUSH2 0x121A JUMPI PUSH1 0x1 SWAP5 POP DUP4 PUSH1 0x1F NOT DUP2 AND LT PUSH2 0x1201 JUMPI JUMPDEST POP POP POP DUP2 SHL ADD PUSH1 0x1 DUP8 ADD SSTORE PUSH2 0xE82 JUMP JUMPDEST ADD MLOAD PUSH1 0x0 NOT PUSH1 0xF8 DUP5 PUSH1 0x3 SHL AND SHR NOT AND SWAP1 SSTORE DUP9 DUP1 DUP1 PUSH2 0x11F1 JUMP JUMPDEST DUP2 DUP2 ADD MLOAD DUP4 SSTORE PUSH1 0x20 SWAP5 DUP6 ADD SWAP5 PUSH1 0x1 SWAP1 SWAP4 ADD SWAP3 SWAP1 SWAP2 ADD SWAP1 PUSH2 0x11D6 JUMP JUMPDEST POP PUSH1 0x0 PUSH1 0x40 MLOAD DUP1 SWAP3 PUSH4 0x467E0F5 PUSH1 0xE1 SHL DUP3 MSTORE DUP2 DUP1 PUSH2 0x1257 DUP8 DUP10 PUSH1 0x4 DUP5 ADD PUSH2 0x49A1 JUMP JUMPDEST SUB SWAP2 GAS STATICCALL DUP1 ISZERO PUSH2 0x12FE JUMPI PUSH1 0x0 SWAP2 PUSH1 0x0 SWAP2 PUSH2 0x12D8 JUMPI JUMPDEST POP DUP1 ISZERO PUSH2 0x12CF JUMPI PUSH2 0x127C SWAP2 PUSH2 0x49C6 JUMP JUMPDEST PUSH1 0x64 DUP2 GT PUSH2 0x128A JUMPI DUP1 PUSH2 0xD38 JUMP JUMPDEST PUSH1 0x40 MLOAD PUSH3 0x461BCD PUSH1 0xE5 SHL DUP2 MSTORE PUSH1 0x20 PUSH1 0x4 DUP3 ADD MSTORE PUSH1 0x1F PUSH1 0x24 DUP3 ADD MSTORE PUSH32 0x496E76616C6964204B50492073636F72652066726F6D20636F6E747261637400 PUSH1 0x44 DUP3 ADD MSTORE PUSH1 0x64 SWAP1 REVERT JUMPDEST POP POP PUSH1 0x0 PUSH2 0x127C JUMP JUMPDEST SWAP1 POP PUSH2 0x12F7 SWAP2 POP RETURNDATASIZE DUP1 PUSH1 0x0 DUP4 RETURNDATACOPY PUSH2 0x12EF DUP2 DUP4 PUSH2 0x4093 JUMP JUMPDEST DUP2 ADD SWAP1 PUSH2 0x4935 JUMP JUMPDEST POP DUP5 PUSH2 0x126C JUMP JUMPDEST PUSH1 0x40 MLOAD RETURNDATASIZE PUSH1 0x0 DUP3 RETURNDATACOPY RETURNDATASIZE SWAP1 REVERT JUMPDEST POP CALLER PUSH1 0x0 SWAP1 DUP2 MSTORE PUSH1 0x0 DUP1 MLOAD PUSH1 0x20 PUSH2 0x500B DUP4 CODECOPY DUP2 MLOAD SWAP2 MSTORE PUSH1 0x20 MSTORE PUSH1 0x40 SWAP1 KECCAK256 SLOAD PUSH1 0xFF AND PUSH2 0xCED JUMP JUMPDEST CALLVALUE PUSH2 0x2F0 JUMPI PUSH1 0x0 CALLDATASIZE PUSH1 0x3 NOT ADD SLT PUSH2 0x2F0 JUMPI PUSH1 0x20 PUSH1 0x12 SLOAD PUSH1 0x40 MLOAD SWAP1 DUP2 MSTORE RETURN JUMPDEST CALLVALUE PUSH2 0x2F0 JUMPI PUSH1 0xA0 CALLDATASIZE PUSH1 0x3 NOT ADD SLT PUSH2 0x2F0 JUMPI PUSH1 0x4 CALLDATALOAD PUSH1 0x1 PUSH1 0x1 PUSH1 0x40 SHL SUB DUP2 GT PUSH2 0x2F0 JUMPI PUSH2 0x137E SWAP1 CALLDATASIZE SWAP1 PUSH1 0x4 ADD PUSH2 0x40CF JUMP JUMPDEST PUSH1 0x24 CALLDATALOAD PUSH1 0x1 PUSH1 0x1 PUSH1 0x40 SHL SUB DUP2 GT PUSH2 0x2F0 JUMPI PUSH2 0x139D SWAP1 CALLDATASIZE SWAP1 PUSH1 0x4 ADD PUSH2 0x40CF JUMP JUMPDEST CALLER PUSH1 0x0 SWAP1 DUP2 MSTORE PUSH1 0x0 DUP1 MLOAD PUSH1 0x20 PUSH2 0x4FEB DUP4 CODECOPY DUP2 MLOAD SWAP2 MSTORE PUSH1 0x20 MSTORE PUSH1 0x40 SWAP1 KECCAK256 SLOAD PUSH1 0xFF AND DUP1 ISZERO PUSH2 0x197B JUMPI JUMPDEST PUSH2 0x13CD SWAP1 PUSH2 0x47E6 JUMP JUMPDEST PUSH2 0x13E9 PUSH1 0xFF PUSH1 0x6 PUSH1 0x40 MLOAD PUSH1 0x20 DUP2 DUP8 MLOAD PUSH2 0xD12 DUP2 DUP4 DUP6 DUP13 ADD PUSH2 0x4147 JUMP JUMPDEST PUSH2 0x1412 PUSH1 0x44 CALLDATALOAD PUSH2 0x13FC PUSH1 0x64 DUP3 GT ISZERO PUSH2 0x4CEF JUMP JUMPDEST PUSH2 0x140B PUSH1 0x1F PUSH1 0x64 CALLDATALOAD GT ISZERO PUSH2 0x4D3B JUMP JUMPDEST DUP3 DUP5 PUSH2 0x4A9D JUMP JUMPDEST SWAP4 SWAP5 SWAP7 SWAP6 POP POP POP POP PUSH1 0x64 CALLDATALOAD DUP2 MSTORE PUSH1 0x40 PUSH1 0x84 CALLDATALOAD SWAP2 ADD MSTORE PUSH1 0x40 MLOAD PUSH1 0x20 DUP2 DUP7 MLOAD PUSH2 0x143C DUP2 DUP4 DUP6 DUP12 ADD PUSH2 0x4147 JUMP JUMPDEST DUP2 ADD PUSH1 0xB DUP2 MSTORE SUB ADD SWAP1 KECCAK256 SWAP2 PUSH1 0x40 MLOAD SWAP4 PUSH2 0x1454 DUP6 PUSH2 0x400A JUMP JUMPDEST PUSH1 0x40 MLOAD PUSH2 0x1465 DUP2 PUSH2 0x3DD DUP2 DUP9 PUSH2 0x429F JUMP JUMPDEST DUP6 MSTORE PUSH1 0x8 PUSH1 0x1 DUP6 ADD SLOAD SWAP5 DUP6 PUSH1 0x20 DUP9 ADD MSTORE PUSH1 0x2 DUP2 ADD SLOAD PUSH1 0x40 DUP9 ADD MSTORE PUSH1 0x3 DUP2 ADD SLOAD PUSH1 0x60 DUP9 ADD MSTORE PUSH1 0x4 DUP2 ADD SLOAD PUSH1 0x80 DUP9 ADD MSTORE PUSH1 0x5 DUP2 ADD SLOAD PUSH1 0xA0 DUP9 ADD MSTORE PUSH1 0xFF PUSH1 0x6 DUP3 ADD SLOAD AND ISZERO ISZERO PUSH1 0xC0 DUP9 ADD MSTORE PUSH1 0x7 DUP2 ADD SLOAD PUSH1 0xE0 DUP9 ADD MSTORE ADD SLOAD PUSH2 0x100 DUP7 ADD MSTORE PUSH2 0x14D7 PUSH1 0x8 SLOAD SWAP5 PUSH2 0x14D2 DUP7 PUSH1 0x64 CALLDATALOAD SWAP3 PUSH2 0x49C6 JUMP JUMPDEST PUSH2 0x4748 JUMP JUMPDEST SWAP3 PUSH1 0x64 PUSH2 0x1501 PUSH2 0x14F6 PUSH1 0x84 CALLDATALOAD PUSH2 0x14D2 PUSH1 0xC PUSH1 0xA SLOAD DIV PUSH1 0x20 DUP13 ADD MLOAD PUSH2 0x49C6 JUMP JUMPDEST PUSH1 0xA0 DUP10 ADD MLOAD SWAP1 PUSH2 0x4748 JUMP JUMPDEST DIV SWAP1 PUSH2 0x151A DUP3 PUSH2 0x1515 DUP4 PUSH2 0x1515 DUP8 DUP11 PUSH2 0x4771 JUMP JUMPDEST PUSH2 0x4771 JUMP JUMPDEST SWAP3 PUSH2 0x1536 PUSH1 0x64 PUSH2 0x152E PUSH1 0x80 DUP12 ADD MLOAD DUP8 PUSH2 0x4748 JUMP JUMPDEST DIV DUP1 SWAP6 PUSH2 0x4A90 JUMP JUMPDEST SWAP6 PUSH1 0x20 PUSH1 0x1 PUSH1 0x3 SLOAD ADD SWAP10 DUP11 PUSH1 0x3 SSTORE ADD MLOAD SWAP8 PUSH1 0x40 MLOAD SWAP9 PUSH2 0x1554 DUP11 PUSH2 0x4041 JUMP JUMPDEST DUP11 DUP11 MSTORE DUP12 PUSH1 0x20 DUP12 ADD MSTORE DUP8 PUSH1 0x40 DUP12 ADD MSTORE PUSH1 0x60 DUP11 ADD MSTORE PUSH1 0x64 CALLDATALOAD PUSH1 0x80 DUP11 ADD MSTORE PUSH1 0xA0 DUP10 ADD MSTORE PUSH1 0xC0 DUP9 ADD MSTORE PUSH1 0xE0 DUP8 ADD MSTORE PUSH2 0x100 DUP7 ADD MSTORE PUSH2 0x120 DUP6 ADD MSTORE PUSH2 0x140 DUP5 ADD MSTORE DUP2 PUSH2 0x160 DUP5 ADD MSTORE PUSH1 0x0 PUSH2 0x180 DUP5 ADD MSTORE PUSH2 0x15A8 PUSH2 0x49E6 JUMP JUMPDEST PUSH2 0x1A0 DUP5 ADD MSTORE TIMESTAMP PUSH2 0x1C0 DUP5 ADD MSTORE PUSH1 0x0 PUSH2 0x1E0 DUP5 ADD MSTORE PUSH1 0x0 PUSH2 0x200 DUP5 ADD MSTORE PUSH1 0x0 PUSH2 0x220 DUP5 ADD MSTORE PUSH1 0x0 PUSH2 0x240 DUP5 ADD MSTORE DUP4 PUSH1 0x0 MSTORE PUSH1 0xC PUSH1 0x20 MSTORE PUSH1 0x40 PUSH1 0x0 KECCAK256 SWAP5 DUP4 MLOAD DUP7 SSTORE PUSH1 0x20 DUP5 ADD MLOAD DUP1 MLOAD SWAP1 PUSH1 0x1 PUSH1 0x1 PUSH1 0x40 SHL SUB DUP3 GT PUSH2 0x1125 JUMPI DUP2 SWAP1 PUSH2 0x1611 DUP3 PUSH2 0xE4B PUSH1 0x1 DUP13 ADD SLOAD PUSH2 0x4265 JUMP JUMPDEST PUSH1 0x20 SWAP1 PUSH1 0x1F DUP4 GT PUSH1 0x1 EQ PUSH2 0x1909 JUMPI PUSH1 0x0 SWAP3 PUSH2 0x18FE JUMPI JUMPDEST POP POP DUP2 PUSH1 0x1 SHL SWAP2 PUSH1 0x0 NOT SWAP1 PUSH1 0x3 SHL SHR NOT AND OR PUSH1 0x1 DUP8 ADD SSTORE JUMPDEST PUSH1 0x40 DUP5 ADD MLOAD DUP1 MLOAD SWAP1 PUSH1 0x1 PUSH1 0x1 PUSH1 0x40 SHL SUB DUP3 GT PUSH2 0x1125 JUMPI DUP2 SWAP1 PUSH2 0x1668 DUP3 PUSH2 0xEAB PUSH1 0x2 DUP13 ADD SLOAD PUSH2 0x4265 JUMP JUMPDEST PUSH1 0x20 SWAP1 PUSH1 0x1F DUP4 GT PUSH1 0x1 EQ PUSH2 0x188C JUMPI PUSH1 0x0 SWAP3 PUSH2 0x1881 JUMPI JUMPDEST POP POP DUP2 PUSH1 0x1 SHL SWAP2 PUSH1 0x0 NOT SWAP1 PUSH1 0x3 SHL SHR NOT AND OR PUSH1 0x2 DUP8 ADD SSTORE JUMPDEST PUSH1 0x60 DUP5 ADD MLOAD PUSH1 0x3 DUP8 ADD SSTORE PUSH1 0x80 DUP5 ADD MLOAD PUSH1 0x4 DUP8 ADD SSTORE PUSH1 0xA0 DUP5 ADD MLOAD PUSH1 0x5 DUP8 ADD SSTORE PUSH1 0xC0 DUP5 ADD MLOAD PUSH1 0x6 DUP8 ADD SSTORE PUSH1 0xE0 DUP5 ADD MLOAD PUSH1 0x7 DUP8 ADD SSTORE PUSH2 0x100 DUP5 ADD MLOAD PUSH1 0x8 DUP8 ADD SSTORE PUSH2 0x120 DUP5 ADD MLOAD PUSH1 0x9 DUP8 ADD SSTORE PUSH2 0x140 DUP5 ADD MLOAD PUSH1 0xA DUP8 ADD SSTORE PUSH2 0x160 DUP5 ADD MLOAD PUSH1 0xB DUP8 ADD SSTORE PUSH2 0x180 DUP5 ADD MLOAD PUSH1 0xC DUP8 ADD SSTORE PUSH2 0x1A0 DUP5 ADD MLOAD SWAP3 DUP4 MLOAD SWAP7 PUSH1 0x1 PUSH1 0x1 PUSH1 0x40 SHL SUB DUP9 GT PUSH2 0x1125 JUMPI DUP8 DUP8 SWAP6 PUSH2 0x172D PUSH1 0x20 SWAP11 PUSH2 0xF79 PUSH1 0xD DUP7 ADD SLOAD PUSH2 0x4265 JUMP JUMPDEST DUP10 SWAP1 PUSH1 0x1F DUP4 GT PUSH1 0x1 EQ PUSH2 0x17F7 JUMPI SWAP2 DUP1 PUSH2 0x1085 SWAP6 SWAP5 SWAP3 PUSH1 0x0 DUP1 MLOAD PUSH1 0x20 PUSH2 0x506B DUP4 CODECOPY DUP2 MLOAD SWAP2 MSTORE SWAP10 SWAP11 SWAP5 PUSH1 0x0 SWAP3 PUSH2 0x17EC JUMPI JUMPDEST POP POP DUP2 PUSH1 0x1 SHL SWAP2 PUSH1 0x0 NOT SWAP1 PUSH1 0x3 SHL SHR NOT AND OR PUSH1 0xD DUP3 ADD SSTORE JUMPDEST PUSH2 0x1C0 DUP3 ADD MLOAD PUSH1 0xE DUP3 ADD SSTORE PUSH2 0x1E0 DUP3 ADD MLOAD PUSH1 0xF DUP3 ADD SSTORE PUSH2 0x200 DUP3 ADD MLOAD PUSH1 0x10 DUP3 ADD SSTORE PUSH1 0x11 DUP2 ADD SWAP1 PUSH2 0x240 PUSH1 0x12 PUSH1 0x1 DUP1 PUSH1 0xA0 SHL SUB SWAP3 DUP4 PUSH2 0x220 DUP8 ADD MLOAD AND SWAP5 PUSH12 0xFFFFFFFFFFFFFFFFFFFFFFFF PUSH1 0xA0 SHL SWAP6 DUP7 DUP3 SLOAD AND OR SWAP1 SSTORE ADD SWAP4 ADD MLOAD AND SWAP1 DUP3 SLOAD AND OR SWAP1 SSTORE PUSH2 0x1052 DUP7 PUSH1 0x40 MLOAD DUP11 DUP2 DUP8 MLOAD PUSH2 0x1043 DUP2 DUP4 DUP6 DUP13 ADD PUSH2 0x4147 JUMP JUMPDEST ADD MLOAD SWAP1 POP DUP13 DUP1 PUSH2 0x175C JUMP JUMPDEST SWAP8 SWAP3 SWAP2 SWAP1 PUSH1 0xD DUP4 ADD PUSH1 0x0 MSTORE DUP11 PUSH1 0x0 KECCAK256 SWAP9 PUSH1 0x0 JUMPDEST PUSH1 0x1F NOT DUP5 AND DUP2 LT PUSH2 0x1867 JUMPI POP SWAP2 PUSH1 0x0 DUP1 MLOAD PUSH1 0x20 PUSH2 0x506B DUP4 CODECOPY DUP2 MLOAD SWAP2 MSTORE SWAP9 SWAP10 PUSH1 0x1 SWAP3 PUSH2 0x1085 SWAP8 SWAP7 SWAP6 SWAP5 DUP4 PUSH1 0x1F NOT DUP2 AND LT PUSH2 0x184E JUMPI JUMPDEST POP POP POP DUP2 SHL ADD PUSH1 0xD DUP3 ADD SSTORE PUSH2 0x1774 JUMP JUMPDEST ADD MLOAD PUSH1 0x0 NOT PUSH1 0xF8 DUP5 PUSH1 0x3 SHL AND SHR NOT AND SWAP1 SSTORE DUP13 DUP1 DUP1 PUSH2 0x183E JUMP JUMPDEST DUP3 DUP3 ADD MLOAD DUP12 SSTORE PUSH1 0x1 SWAP1 SWAP11 ADD SWAP10 DUP12 SWAP10 POP SWAP2 DUP13 ADD SWAP2 DUP13 ADD PUSH2 0x180A JUMP JUMPDEST ADD MLOAD SWAP1 POP DUP9 DUP1 PUSH2 0x167E JUMP JUMPDEST SWAP3 POP PUSH1 0x2 DUP10 ADD PUSH1 0x0 MSTORE PUSH1 0x20 PUSH1 0x0 KECCAK256 SWAP1 PUSH1 0x0 SWAP4 JUMPDEST PUSH1 0x1F NOT DUP5 AND DUP6 LT PUSH2 0x18E3 JUMPI PUSH1 0x1 SWAP5 POP DUP4 PUSH1 0x1F NOT DUP2 AND LT PUSH2 0x18CA JUMPI JUMPDEST POP POP POP DUP2 SHL ADD PUSH1 0x2 DUP8 ADD SSTORE PUSH2 0x1696 JUMP JUMPDEST ADD MLOAD PUSH1 0x0 NOT PUSH1 0xF8 DUP5 PUSH1 0x3 SHL AND SHR NOT AND SWAP1 SSTORE DUP9 DUP1 DUP1 PUSH2 0x18BA JUMP JUMPDEST DUP2 DUP2 ADD MLOAD DUP4 SSTORE PUSH1 0x20 SWAP5 DUP6 ADD SWAP5 PUSH1 0x1 SWAP1 SWAP4 ADD SWAP3 SWAP1 SWAP2 ADD SWAP1 PUSH2 0x189F JUMP JUMPDEST ADD MLOAD SWAP1 POP DUP9 DUP1 PUSH2 0x1627 JUMP JUMPDEST SWAP3 POP PUSH1 0x1 DUP10 ADD PUSH1 0x0 MSTORE PUSH1 0x20 PUSH1 0x0 KECCAK256 SWAP1 PUSH1 0x0 SWAP4 JUMPDEST PUSH1 0x1F NOT DUP5 AND DUP6 LT PUSH2 0x1960 JUMPI PUSH1 0x1 SWAP5 POP DUP4 PUSH1 0x1F NOT DUP2 AND LT PUSH2 0x1947 JUMPI JUMPDEST POP POP POP DUP2 SHL ADD PUSH1 0x1 DUP8 ADD SSTORE PUSH2 0x163F JUMP JUMPDEST ADD MLOAD PUSH1 0x0 NOT PUSH1 0xF8 DUP5 PUSH1 0x3 SHL AND SHR NOT AND SWAP1 SSTORE DUP9 DUP1 DUP1 PUSH2 0x1937 JUMP JUMPDEST DUP2 DUP2 ADD MLOAD DUP4 SSTORE PUSH1 0x20 SWAP5 DUP6 ADD SWAP5 PUSH1 0x1 SWAP1 SWAP4 ADD SWAP3 SWAP1 SWAP2 ADD SWAP1 PUSH2 0x191C JUMP JUMPDEST POP CALLER PUSH1 0x0 SWAP1 DUP2 MSTORE PUSH1 0x0 DUP1 MLOAD PUSH1 0x20 PUSH2 0x500B DUP4 CODECOPY DUP2 MLOAD SWAP2 MSTORE PUSH1 0x20 MSTORE PUSH1 0x40 SWAP1 KECCAK256 SLOAD PUSH1 0xFF AND PUSH2 0x13C4 JUMP JUMPDEST CALLVALUE PUSH2 0x2F0 JUMPI PUSH1 0x40 CALLDATASIZE PUSH1 0x3 NOT ADD SLT PUSH2 0x2F0 JUMPI PUSH2 0x19E0 PUSH1 0x4 CALLDATALOAD PUSH2 0x19C0 PUSH2 0x41AE JUMP JUMPDEST SWAP1 DUP1 PUSH1 0x0 MSTORE PUSH1 0x1 PUSH1 0x20 MSTORE PUSH2 0x19DB PUSH1 0x1 PUSH1 0x40 PUSH1 0x0 KECCAK256 ADD SLOAD PUSH2 0x437B JUMP JUMPDEST PUSH2 0x467A JUMP JUMPDEST STOP JUMPDEST CALLVALUE PUSH2 0x2F0 JUMPI PUSH1 0x0 CALLDATASIZE PUSH1 0x3 NOT ADD SLT PUSH2 0x2F0 JUMPI PUSH1 0x5 SLOAD PUSH1 0x40 MLOAD PUSH1 0x1 PUSH1 0x1 PUSH1 0xA0 SHL SUB SWAP1 SWAP2 AND DUP2 MSTORE PUSH1 0x20 SWAP1 RETURN JUMPDEST CALLVALUE PUSH2 0x2F0 JUMPI PUSH1 0x0 CALLDATASIZE PUSH1 0x3 NOT ADD SLT PUSH2 0x2F0 JUMPI PUSH1 0x20 PUSH1 0xA SLOAD PUSH1 0x40 MLOAD SWAP1 DUP2 MSTORE RETURN JUMPDEST CALLVALUE PUSH2 0x2F0 JUMPI PUSH1 0x0 CALLDATASIZE PUSH1 0x3 NOT ADD SLT PUSH2 0x2F0 JUMPI PUSH1 0x7 SLOAD PUSH1 0x40 MLOAD PUSH1 0x1 PUSH1 0x1 PUSH1 0xA0 SHL SUB SWAP1 SWAP2 AND DUP2 MSTORE PUSH1 0x20 SWAP1 RETURN JUMPDEST CALLVALUE PUSH2 0x2F0 JUMPI PUSH1 0x20 CALLDATASIZE PUSH1 0x3 NOT ADD SLT PUSH2 0x2F0 JUMPI CALLER PUSH1 0x0 SWAP1 DUP2 MSTORE PUSH1 0x0 DUP1 MLOAD PUSH1 0x20 PUSH2 0x500B DUP4 CODECOPY DUP2 MLOAD SWAP2 MSTORE PUSH1 0x20 MSTORE PUSH1 0x40 SWAP1 KECCAK256 SLOAD PUSH2 0x1A8C SWAP1 PUSH1 0xFF AND PUSH2 0x478F JUMP JUMPDEST PUSH2 0x1A94 PUSH2 0x4F21 JUMP JUMPDEST PUSH1 0x4 CALLDATALOAD PUSH1 0x0 MSTORE PUSH1 0xC PUSH1 0x20 MSTORE PUSH1 0x40 PUSH1 0x0 KECCAK256 PUSH2 0x1AB0 DUP2 SLOAD ISZERO ISZERO PUSH2 0x4D87 JUMP JUMPDEST PUSH1 0xD DUP2 ADD PUSH1 0x40 MLOAD PUSH2 0x1AC5 DUP2 PUSH2 0x3DD DUP2 DUP6 PUSH2 0x429F JUMP JUMPDEST PUSH1 0x20 DUP2 MLOAD SWAP2 ADD KECCAK256 PUSH2 0x1AD4 PUSH2 0x4E55 JUMP JUMPDEST PUSH1 0x20 DUP2 MLOAD SWAP2 ADD KECCAK256 SUB PUSH2 0x228E JUMPI PUSH1 0xB DUP3 ADD SLOAD SWAP1 DUP2 ISZERO PUSH2 0x2250 JUMPI PUSH1 0x5 SLOAD PUSH1 0x1 PUSH1 0x1 PUSH1 0xA0 SHL SUB SWAP2 SWAP1 DUP3 AND DUP1 ISZERO PUSH2 0x2202 JUMPI PUSH1 0x20 PUSH1 0x24 SWAP2 PUSH1 0x40 MLOAD SWAP3 DUP4 DUP1 SWAP3 PUSH4 0x70A08231 PUSH1 0xE0 SHL DUP3 MSTORE ADDRESS PUSH1 0x4 DUP4 ADD MSTORE GAS STATICCALL DUP1 ISZERO PUSH2 0x12FE JUMPI DUP5 SWAP1 PUSH1 0x0 SWAP1 PUSH2 0x21CC JUMPI JUMPDEST PUSH2 0x1B3B SWAP3 POP LT ISZERO PUSH2 0x4E79 JUMP JUMPDEST PUSH2 0x1B48 PUSH2 0xC2A DUP3 SLOAD PUSH2 0x4265 JUMP JUMPDEST PUSH1 0x8 PUSH4 0x14185A59 PUSH1 0xE2 SHL ADD SWAP1 SSTORE PUSH1 0xC DUP4 ADD DUP3 SWAP1 SSTORE TIMESTAMP PUSH1 0x10 DUP5 ADD SSTORE PUSH1 0x12 DUP4 ADD DUP1 SLOAD PUSH1 0x1 PUSH1 0x1 PUSH1 0xA0 SHL SUB NOT AND CALLER OR SWAP1 SSTORE PUSH1 0x40 MLOAD PUSH1 0x8 SWAP1 PUSH1 0x20 DUP2 PUSH2 0x1B8C DUP2 PUSH1 0x1 DUP10 ADD PUSH2 0x4DD3 JUMP JUMPDEST PUSH1 0xB DUP2 MSTORE SUB ADD SWAP1 KECCAK256 TIMESTAMP PUSH1 0x7 DUP3 ADD SSTORE ADD PUSH2 0x1BA6 DUP4 DUP3 SLOAD PUSH2 0x4771 JUMP JUMPDEST SWAP1 SSTORE PUSH2 0x1BB4 DUP3 PUSH1 0x12 SLOAD PUSH2 0x4771 JUMP JUMPDEST PUSH1 0x12 SSTORE PUSH1 0x5 SLOAD DUP2 AND DUP1 ISZERO DUP1 ISZERO SWAP2 SWAP1 PUSH2 0x21C5 JUMPI PUSH1 0x20 PUSH1 0x24 SWAP2 PUSH1 0x40 MLOAD SWAP3 DUP4 DUP1 SWAP3 PUSH4 0x70A08231 PUSH1 0xE0 SHL DUP3 MSTORE ADDRESS PUSH1 0x4 DUP4 ADD MSTORE GAS STATICCALL SWAP1 DUP2 ISZERO PUSH2 0x12FE JUMPI PUSH1 0x0 SWAP2 PUSH2 0x2193 JUMPI JUMPDEST POP JUMPDEST PUSH1 0x13 SSTORE ISZERO PUSH2 0x2151 JUMPI PUSH1 0x5 SLOAD PUSH1 0x40 MLOAD PUSH4 0xA9059CBB PUSH1 0xE0 SHL DUP2 MSTORE CALLER PUSH1 0x4 DUP3 ADD MSTORE PUSH1 0x24 DUP2 ADD DUP5 SWAP1 MSTORE SWAP2 PUSH1 0x20 SWAP2 DUP4 SWAP2 PUSH1 0x44 SWAP2 DUP4 SWAP2 PUSH1 0x0 SWAP2 AND GAS CALL DUP1 ISZERO PUSH2 0x12FE JUMPI PUSH2 0x1C43 SWAP2 PUSH1 0x0 SWAP2 PUSH2 0x2122 JUMPI JUMPDEST POP PUSH2 0x4EDD JUMP JUMPDEST PUSH1 0x40 MLOAD PUSH1 0x20 DUP2 ADD SWAP1 PUSH2 0x1C7B DUP2 PUSH2 0x1C6D DUP6 PUSH1 0x4 CALLDATALOAD TIMESTAMP DUP8 SWAP2 PUSH1 0x60 SWAP4 SWAP2 DUP4 MSTORE PUSH1 0x20 DUP4 ADD MSTORE PUSH1 0x40 DUP3 ADD MSTORE ADD SWAP1 JUMP JUMPDEST SUB PUSH1 0x1F NOT DUP2 ADD DUP4 MSTORE DUP3 PUSH2 0x4093 JUMP JUMPDEST MLOAD SWAP1 KECCAK256 SWAP2 JUMPDEST PUSH1 0x40 MLOAD SWAP3 PUSH19 0x2830BCB937B636103337B9103832B934B7B21 PUSH1 0x6D SHL PUSH1 0x20 DUP6 ADD MSTORE PUSH2 0x1CC2 DUP5 PUSH2 0x1CB4 PUSH1 0x33 DUP3 ADD PUSH1 0x2 DUP7 ADD PUSH2 0x4DD3 JUMP JUMPDEST SUB PUSH1 0x1F NOT DUP2 ADD DUP7 MSTORE DUP6 PUSH2 0x4093 JUMP JUMPDEST PUSH1 0x40 MLOAD SWAP4 PUSH2 0x1CDE DUP6 PUSH2 0x1CD7 DUP2 PUSH1 0x1 DUP8 ADD PUSH2 0x429F JUMP JUMPDEST SUB DUP7 PUSH2 0x4093 JUMP JUMPDEST PUSH1 0x40 MLOAD PUSH2 0x1CEA DUP2 PUSH2 0x4078 JUMP JUMPDEST PUSH1 0x6 DUP2 MSTORE PUSH6 0x53616C617279 PUSH1 0xD0 SHL PUSH1 0x20 DUP3 ADD MSTORE PUSH1 0x1 PUSH1 0x4 SLOAD ADD SWAP2 DUP3 PUSH1 0x4 SSTORE PUSH1 0x40 MLOAD PUSH2 0x1D14 DUP2 PUSH2 0x4026 JUMP JUMPDEST DUP4 DUP2 MSTORE PUSH1 0x20 DUP2 ADD SWAP2 DUP9 DUP4 MSTORE DUP8 PUSH1 0x40 DUP4 ADD MSTORE DUP4 PUSH1 0x60 DUP4 ADD MSTORE PUSH1 0x80 DUP3 ADD MSTORE TIMESTAMP PUSH1 0xA0 DUP3 ADD MSTORE DUP5 PUSH1 0xC0 DUP3 ADD MSTORE DUP4 PUSH1 0x0 MSTORE PUSH1 0xF PUSH1 0x20 MSTORE PUSH1 0x40 PUSH1 0x0 KECCAK256 SWAP2 DUP2 MLOAD DUP4 SSTORE MLOAD DUP1 MLOAD SWAP1 PUSH1 0x1 PUSH1 0x1 PUSH1 0x40 SHL SUB DUP3 GT PUSH2 0x1125 JUMPI DUP2 SWAP1 PUSH2 0x1D7D DUP3 PUSH2 0x1D74 PUSH1 0x1 DUP9 ADD SLOAD PUSH2 0x4265 JUMP JUMPDEST PUSH1 0x1 DUP9 ADD PUSH2 0x4884 JUMP JUMPDEST PUSH1 0x20 SWAP1 PUSH1 0x1F DUP4 GT PUSH1 0x1 EQ PUSH2 0x20B0 JUMPI PUSH1 0x0 SWAP3 PUSH2 0x20A5 JUMPI JUMPDEST POP POP DUP2 PUSH1 0x1 SHL SWAP2 PUSH1 0x0 NOT SWAP1 PUSH1 0x3 SHL SHR NOT AND OR PUSH1 0x1 DUP4 ADD SSTORE JUMPDEST PUSH1 0x40 DUP2 ADD MLOAD PUSH1 0x2 DUP4 ADD SSTORE PUSH1 0x60 DUP2 ADD MLOAD DUP1 MLOAD SWAP1 PUSH1 0x1 PUSH1 0x1 PUSH1 0x40 SHL SUB DUP3 GT PUSH2 0x1125 JUMPI DUP2 SWAP1 PUSH2 0x1DE7 DUP3 PUSH2 0x1DDE PUSH1 0x3 DUP9 ADD SLOAD PUSH2 0x4265 JUMP JUMPDEST PUSH1 0x3 DUP9 ADD PUSH2 0x4884 JUMP JUMPDEST PUSH1 0x20 SWAP1 PUSH1 0x1F DUP4 GT PUSH1 0x1 EQ PUSH2 0x2033 JUMPI PUSH1 0x0 SWAP3 PUSH2 0x2028 JUMPI JUMPDEST POP POP DUP2 PUSH1 0x1 SHL SWAP2 PUSH1 0x0 NOT SWAP1 PUSH1 0x3 SHL SHR NOT AND OR PUSH1 0x3 DUP4 ADD SSTORE JUMPDEST PUSH1 0x80 DUP2 ADD MLOAD DUP1 MLOAD SWAP1 PUSH1 0x1 PUSH1 0x1 PUSH1 0x40 SHL SUB DUP3 GT PUSH2 0x1125 JUMPI PUSH2 0x1E45 DUP3 PUSH2 0x1E3C PUSH1 0x4 DUP8 ADD SLOAD PUSH2 0x4265 JUMP JUMPDEST PUSH1 0x4 DUP8 ADD PUSH2 0x4884 JUMP JUMPDEST PUSH1 0x20 SWAP1 PUSH1 0x1F DUP4 GT PUSH1 0x1 EQ PUSH2 0x1F67 JUMPI SWAP4 PUSH1 0x6 PUSH1 0xC0 PUSH32 0x7AA2B2C1775C7B79C4437B21360F4005EF7648644A57E3C6221240719C5C7F37 SWAP12 SWAP13 SWAP6 DUP6 PUSH2 0x1F27 SWAP7 PUSH32 0x35F40BC6254D16659C30DA1D658DC7236AC919F02ED864AB8357F22295EE4D2D SWAP11 SWAP7 PUSH2 0x1F13 SWAP11 PUSH1 0x0 SWAP3 PUSH2 0x1F5C JUMPI JUMPDEST POP POP DUP2 PUSH1 0x1 SHL SWAP2 PUSH1 0x0 NOT SWAP1 PUSH1 0x3 SHL SHR NOT AND OR PUSH1 0x4 DUP6 ADD SSTORE JUMPDEST PUSH1 0xA0 DUP2 ADD MLOAD PUSH1 0x5 DUP6 ADD SSTORE ADD MLOAD SWAP2 ADD SSTORE PUSH2 0x1EFF DUP7 PUSH1 0x40 MLOAD PUSH1 0x20 DUP2 DUP8 MLOAD PUSH2 0x1EF0 DUP2 DUP4 DUP6 DUP13 ADD PUSH2 0x4147 JUMP JUMPDEST DUP2 ADD PUSH1 0x10 DUP2 MSTORE SUB ADD SWAP1 KECCAK256 PUSH2 0x4A09 JUMP JUMPDEST PUSH1 0x40 MLOAD SWAP4 DUP5 SWAP4 PUSH1 0x60 DUP6 MSTORE PUSH1 0x60 DUP6 ADD SWAP1 PUSH2 0x4240 JUMP JUMPDEST SWAP1 DUP11 PUSH1 0x20 DUP6 ADD MSTORE DUP4 DUP3 SUB PUSH1 0x40 DUP6 ADD MSTORE PUSH2 0x4240 JUMP JUMPDEST SUB SWAP1 LOG2 PUSH2 0x1F42 PUSH1 0x40 MLOAD SWAP3 PUSH1 0x60 DUP5 MSTORE PUSH1 0x1 PUSH1 0x60 DUP6 ADD SWAP2 ADD PUSH2 0x429F JUMP JUMPDEST SWAP4 PUSH1 0x20 DUP4 ADD MSTORE PUSH1 0x40 DUP3 ADD MSTORE DUP1 PUSH1 0x4 CALLDATALOAD SWAP4 SUB SWAP1 LOG2 PUSH1 0x1 PUSH1 0x2 SSTORE STOP JUMPDEST ADD MLOAD SWAP1 POP CODESIZE DUP1 PUSH2 0x1EB0 JUMP JUMPDEST SWAP1 PUSH1 0x4 DUP6 ADD PUSH1 0x0 MSTORE PUSH1 0x20 PUSH1 0x0 KECCAK256 SWAP2 PUSH1 0x0 JUMPDEST PUSH1 0x1F NOT DUP6 AND DUP2 LT PUSH2 0x2010 JUMPI POP PUSH1 0xC0 PUSH32 0x7AA2B2C1775C7B79C4437B21360F4005EF7648644A57E3C6221240719C5C7F37 SWAP12 SWAP13 SWAP6 PUSH1 0x1 DUP7 PUSH32 0x35F40BC6254D16659C30DA1D658DC7236AC919F02ED864AB8357F22295EE4D2D SWAP11 SWAP7 PUSH2 0x1F13 SWAP11 SWAP7 PUSH1 0x6 SWAP7 PUSH2 0x1F27 SWAP11 PUSH1 0x1F NOT DUP2 AND LT PUSH2 0x1FF7 JUMPI JUMPDEST POP POP POP DUP2 SHL ADD PUSH1 0x4 DUP6 ADD SSTORE PUSH2 0x1EC8 JUMP JUMPDEST ADD MLOAD PUSH1 0x0 NOT PUSH1 0xF8 DUP5 PUSH1 0x3 SHL AND SHR NOT AND SWAP1 SSTORE CODESIZE DUP1 DUP1 PUSH2 0x1FE7 JUMP JUMPDEST SWAP2 SWAP3 PUSH1 0x20 PUSH1 0x1 DUP2 SWAP3 DUP7 DUP6 ADD MLOAD DUP2 SSTORE ADD SWAP5 ADD SWAP3 ADD PUSH2 0x1F78 JUMP JUMPDEST ADD MLOAD SWAP1 POP DUP11 DUP1 PUSH2 0x1DFD JUMP JUMPDEST SWAP3 POP PUSH1 0x3 DUP6 ADD PUSH1 0x0 MSTORE PUSH1 0x20 PUSH1 0x0 KECCAK256 SWAP1 PUSH1 0x0 SWAP4 JUMPDEST PUSH1 0x1F NOT DUP5 AND DUP6 LT PUSH2 0x208A JUMPI PUSH1 0x1 SWAP5 POP DUP4 PUSH1 0x1F NOT DUP2 AND LT PUSH2 0x2071 JUMPI JUMPDEST POP POP POP DUP2 SHL ADD PUSH1 0x3 DUP4 ADD SSTORE PUSH2 0x1E15 JUMP JUMPDEST ADD MLOAD PUSH1 0x0 NOT PUSH1 0xF8 DUP5 PUSH1 0x3 SHL AND SHR NOT AND SWAP1 SSTORE DUP11 DUP1 DUP1 PUSH2 0x2061 JUMP JUMPDEST DUP2 DUP2 ADD MLOAD DUP4 SSTORE PUSH1 0x20 SWAP5 DUP6 ADD SWAP5 PUSH1 0x1 SWAP1 SWAP4 ADD SWAP3 SWAP1 SWAP2 ADD SWAP1 PUSH2 0x2046 JUMP JUMPDEST ADD MLOAD SWAP1 POP DUP11 DUP1 PUSH2 0x1D93 JUMP JUMPDEST SWAP3 POP PUSH1 0x1 DUP6 ADD PUSH1 0x0 MSTORE PUSH1 0x20 PUSH1 0x0 KECCAK256 SWAP1 PUSH1 0x0 SWAP4 JUMPDEST PUSH1 0x1F NOT DUP5 AND DUP6 LT PUSH2 0x2107 JUMPI PUSH1 0x1 SWAP5 POP DUP4 PUSH1 0x1F NOT DUP2 AND LT PUSH2 0x20EE JUMPI JUMPDEST POP POP POP DUP2 SHL ADD PUSH1 0x1 DUP4 ADD SSTORE PUSH2 0x1DAB JUMP JUMPDEST ADD MLOAD PUSH1 0x0 NOT PUSH1 0xF8 DUP5 PUSH1 0x3 SHL AND SHR NOT AND SWAP1 SSTORE DUP11 DUP1 DUP1 PUSH2 0x20DE JUMP JUMPDEST DUP2 DUP2 ADD MLOAD DUP4 SSTORE PUSH1 0x20 SWAP5 DUP6 ADD SWAP5 PUSH1 0x1 SWAP1 SWAP4 ADD SWAP3 SWAP1 SWAP2 ADD SWAP1 PUSH2 0x20C3 JUMP JUMPDEST PUSH2 0x2144 SWAP2 POP PUSH1 0x20 RETURNDATASIZE PUSH1 0x20 GT PUSH2 0x214A JUMPI JUMPDEST PUSH2 0x213C DUP2 DUP4 PUSH2 0x4093 JUMP JUMPDEST DUP2 ADD SWAP1 PUSH2 0x4EC5 JUMP JUMPDEST DUP5 PUSH2 0x1C3D JUMP JUMPDEST POP RETURNDATASIZE PUSH2 0x2132 JUMP JUMPDEST POP PUSH1 0x0 DUP1 DUP1 DUP1 DUP5 CALLER DUP3 CALL ISZERO PUSH2 0x12FE JUMPI PUSH1 0x40 MLOAD PUSH1 0x20 DUP2 ADD SWAP1 PUSH2 0x218A DUP2 PUSH2 0x1C6D DUP6 PUSH1 0x4 CALLDATALOAD TIMESTAMP DUP8 SWAP2 PUSH1 0x60 SWAP4 SWAP2 DUP4 MSTORE PUSH1 0x20 DUP4 ADD MSTORE PUSH1 0x40 DUP3 ADD MSTORE ADD SWAP1 JUMP JUMPDEST MLOAD SWAP1 KECCAK256 SWAP2 PUSH2 0x1C80 JUMP JUMPDEST SWAP1 POP PUSH1 0x20 DUP2 RETURNDATASIZE PUSH1 0x20 GT PUSH2 0x21BD JUMPI JUMPDEST DUP2 PUSH2 0x21AE PUSH1 0x20 SWAP4 DUP4 PUSH2 0x4093 JUMP JUMPDEST DUP2 ADD SUB SLT PUSH2 0x2F0 JUMPI MLOAD DUP6 PUSH2 0x1BF3 JUMP JUMPDEST RETURNDATASIZE SWAP2 POP PUSH2 0x21A1 JUMP JUMPDEST POP SELFBALANCE PUSH2 0x1BF5 JUMP JUMPDEST POP POP PUSH1 0x20 DUP2 RETURNDATASIZE PUSH1 0x20 GT PUSH2 0x21FA JUMPI JUMPDEST DUP2 PUSH2 0x21E7 PUSH1 0x20 SWAP4 DUP4 PUSH2 0x4093 JUMP JUMPDEST DUP2 ADD SUB SLT PUSH2 0x2F0 JUMPI DUP4 PUSH2 0x1B3B SWAP2 MLOAD PUSH2 0x1B2F JUMP JUMPDEST RETURNDATASIZE SWAP2 POP PUSH2 0x21DA JUMP JUMPDEST POP DUP3 SELFBALANCE LT ISZERO PUSH2 0x1B3B JUMPI PUSH1 0x40 MLOAD PUSH3 0x461BCD PUSH1 0xE5 SHL DUP2 MSTORE PUSH1 0x20 PUSH1 0x4 DUP3 ADD MSTORE PUSH1 0x18 PUSH1 0x24 DUP3 ADD MSTORE PUSH32 0x496E73756666696369656E74204554482062616C616E63650000000000000000 PUSH1 0x44 DUP3 ADD MSTORE PUSH1 0x64 SWAP1 REVERT JUMPDEST PUSH1 0x40 MLOAD PUSH3 0x461BCD PUSH1 0xE5 SHL DUP2 MSTORE PUSH1 0x20 PUSH1 0x4 DUP3 ADD MSTORE PUSH1 0x16 PUSH1 0x24 DUP3 ADD MSTORE PUSH22 0x125B9D985B1A59081C185E5B595B9D08185B5BDD5B9D PUSH1 0x52 SHL PUSH1 0x44 DUP3 ADD MSTORE PUSH1 0x64 SWAP1 REVERT JUMPDEST PUSH1 0x40 MLOAD PUSH3 0x461BCD PUSH1 0xE5 SHL DUP2 MSTORE PUSH1 0x20 PUSH1 0x4 DUP3 ADD MSTORE PUSH1 0x14 PUSH1 0x24 DUP3 ADD MSTORE PUSH20 0x14185E5C9BDB1B081B9BDD08185C1C1C9BDD9959 PUSH1 0x62 SHL PUSH1 0x44 DUP3 ADD MSTORE PUSH1 0x64 SWAP1 REVERT JUMPDEST CALLVALUE PUSH2 0x2F0 JUMPI PUSH2 0x22D8 CALLDATASIZE PUSH2 0x4335 JUMP JUMPDEST PUSH2 0x22F4 PUSH1 0xFF PUSH1 0x6 PUSH1 0x40 MLOAD PUSH1 0x20 DUP2 DUP8 MLOAD PUSH2 0xD12 DUP2 DUP4 DUP6 DUP13 ADD PUSH2 0x4147 JUMP JUMPDEST PUSH1 0x6 SLOAD PUSH1 0x0 SWAP3 SWAP1 PUSH1 0x1 PUSH1 0x1 PUSH1 0xA0 SHL SUB AND DUP1 PUSH2 0x234F JUMPI JUMPDEST PUSH2 0x100 DUP5 PUSH2 0x2319 DUP2 DUP7 DUP7 PUSH2 0x4A9D JUMP JUMPDEST SWAP7 SWAP6 SWAP7 SWAP4 SWAP1 SWAP4 SWAP3 SWAP2 SWAP3 MLOAD SWAP5 PUSH1 0x40 MLOAD SWAP8 DUP9 MSTORE PUSH1 0x20 DUP9 ADD MSTORE PUSH1 0x40 DUP8 ADD MSTORE PUSH1 0x60 DUP7 ADD MSTORE PUSH1 0x80 DUP6 ADD MSTORE PUSH1 0xA0 DUP5 ADD MSTORE PUSH1 0xC0 DUP4 ADD MSTORE PUSH1 0xE0 DUP3 ADD MSTORE RETURN JUMPDEST PUSH1 0x40 MLOAD PUSH4 0x467E0F5 PUSH1 0xE1 SHL DUP2 MSTORE SWAP4 POP PUSH1 0x0 SWAP1 DUP5 SWAP1 DUP2 DUP1 PUSH2 0x2373 DUP8 DUP8 PUSH1 0x4 DUP5 ADD PUSH2 0x49A1 JUMP JUMPDEST SUB SWAP2 GAS STATICCALL SWAP1 DUP2 ISZERO PUSH2 0x12FE JUMPI PUSH2 0x100 SWAP4 PUSH2 0x2319 SWAP3 PUSH1 0x0 SWAP2 PUSH1 0x0 SWAP2 PUSH2 0x23B2 JUMPI JUMPDEST POP DUP1 ISZERO PUSH2 0x23A9 JUMPI PUSH2 0x23A1 SWAP2 PUSH2 0x49C6 JUMP JUMPDEST SWAP4 POP SWAP1 PUSH2 0x230A JUMP JUMPDEST POP POP PUSH1 0x0 PUSH2 0x23A1 JUMP JUMPDEST SWAP1 POP PUSH2 0x23C9 SWAP2 POP RETURNDATASIZE DUP1 PUSH1 0x0 DUP4 RETURNDATACOPY PUSH2 0x12EF DUP2 DUP4 PUSH2 0x4093 JUMP JUMPDEST POP DUP7 PUSH2 0x2391 JUMP JUMPDEST CALLVALUE PUSH2 0x2F0 JUMPI PUSH1 0x20 DUP1 PUSH1 0x3 NOT CALLDATASIZE ADD SLT PUSH2 0x2F0 JUMPI PUSH1 0x4 CALLDATALOAD PUSH1 0x1 PUSH1 0x1 PUSH1 0x40 SHL SUB DUP2 GT PUSH2 0x2F0 JUMPI DUP2 PUSH2 0x2405 PUSH2 0x2418 SWAP3 CALLDATASIZE SWAP1 PUSH1 0x4 ADD PUSH2 0x40CF JUMP JUMPDEST DUP2 PUSH1 0x40 MLOAD SWAP4 DUP3 DUP6 DUP1 SWAP5 MLOAD SWAP4 DUP5 SWAP3 ADD PUSH2 0x4147 JUMP JUMPDEST DUP2 ADD PUSH1 0xD DUP2 MSTORE SUB ADD SWAP1 KECCAK256 SWAP1 PUSH1 0x40 MLOAD SWAP1 DUP2 DUP2 DUP5 SLOAD SWAP2 DUP3 DUP2 MSTORE ADD SWAP4 PUSH1 0x0 MSTORE DUP2 PUSH1 0x0 KECCAK256 SWAP2 PUSH1 0x0 SWAP1 JUMPDEST DUP3 DUP3 LT PUSH2 0x2464 JUMPI PUSH2 0x2460 DUP6 PUSH2 0x2454 DUP2 DUP10 SUB DUP3 PUSH2 0x4093 JUMP JUMPDEST PUSH1 0x40 MLOAD SWAP2 DUP3 SWAP2 DUP3 PUSH2 0x4205 JUMP JUMPDEST SUB SWAP1 RETURN JUMPDEST DUP4 SLOAD DUP7 MSTORE SWAP5 DUP6 ADD SWAP5 PUSH1 0x1 SWAP4 DUP5 ADD SWAP4 SWAP1 SWAP2 ADD SWAP1 PUSH2 0x243D JUMP JUMPDEST CALLVALUE PUSH2 0x2F0 JUMPI PUSH2 0x2489 CALLDATASIZE PUSH2 0x41C4 JUMP JUMPDEST CALLER PUSH1 0x0 SWAP1 DUP2 MSTORE PUSH1 0x0 DUP1 MLOAD PUSH1 0x20 PUSH2 0x4FEB DUP4 CODECOPY DUP2 MLOAD SWAP2 MSTORE PUSH1 0x20 SWAP1 DUP2 MSTORE PUSH1 0x40 SWAP1 SWAP2 KECCAK256 SLOAD SWAP1 SWAP7 SWAP4 SWAP2 SWAP3 SWAP1 PUSH1 0xFF AND DUP1 ISZERO PUSH2 0x25AB JUMPI JUMPDEST PUSH2 0x24C2 SWAP1 PUSH2 0x47E6 JUMP JUMPDEST PUSH1 0x40 MLOAD PUSH1 0xFF PUSH1 0x6 DUP7 MLOAD SWAP3 DUP11 DUP2 DUP2 DUP11 ADD SWAP6 PUSH2 0x24DD DUP2 DUP4 DUP10 PUSH2 0x4147 JUMP JUMPDEST DUP2 ADD PUSH1 0xB DUP2 MSTORE SUB ADD SWAP1 KECCAK256 ADD SLOAD AND ISZERO PUSH2 0x2566 JUMPI SWAP3 PUSH1 0x5 PUSH2 0x255A SWAP4 PUSH32 0xA833B2B1D3891905E8131E62FB850438CD3C07FBEA8916196F6E960B4EB13046 SWAP9 SWAP7 SWAP4 PUSH2 0x2532 DUP12 PUSH1 0x40 SWAP11 SWAP9 DUP12 MLOAD DUP1 SWAP4 DUP2 SWAP3 DUP11 MLOAD SWAP3 DUP4 SWAP2 PUSH2 0x4147 JUMP JUMPDEST DUP2 ADD PUSH1 0xB DUP2 MSTORE SUB ADD SWAP1 KECCAK256 SWAP2 DUP9 PUSH1 0x1 DUP5 ADD SSTORE DUP8 PUSH1 0x2 DUP5 ADD SSTORE PUSH1 0x3 DUP4 ADD SSTORE PUSH1 0x4 DUP3 ADD SSTORE ADD SSTORE PUSH2 0x48C9 JUMP JUMPDEST SWAP5 DUP4 MLOAD SWAP3 DUP4 MSTORE DUP3 ADD MSTORE LOG2 STOP JUMPDEST PUSH1 0x40 MLOAD PUSH3 0x461BCD PUSH1 0xE5 SHL DUP2 MSTORE PUSH1 0x4 DUP2 ADD DUP10 SWAP1 MSTORE PUSH1 0x17 PUSH1 0x24 DUP3 ADD MSTORE PUSH32 0x456D706C6F7965652073616C617279206E6F7420736574000000000000000000 PUSH1 0x44 DUP3 ADD MSTORE PUSH1 0x64 SWAP1 REVERT JUMPDEST POP PUSH1 0x0 DUP1 MLOAD PUSH1 0x20 PUSH2 0x504B DUP4 CODECOPY DUP2 MLOAD SWAP2 MSTORE PUSH1 0x0 SWAP1 DUP2 MSTORE PUSH1 0x1 DUP9 MSTORE PUSH1 0x40 DUP1 DUP3 KECCAK256 CALLER DUP4 MSTORE DUP10 MSTORE SWAP1 KECCAK256 SLOAD PUSH1 0xFF AND PUSH2 0x24B9 JUMP JUMPDEST CALLVALUE PUSH2 0x2F0 JUMPI PUSH1 0x20 CALLDATASIZE PUSH1 0x3 NOT ADD SLT PUSH2 0x2F0 JUMPI PUSH2 0x25F2 PUSH2 0x4198 JUMP JUMPDEST PUSH2 0x25FA PUSH2 0x46F0 JUMP JUMPDEST PUSH1 0x1 PUSH1 0x1 PUSH1 0xA0 SHL SUB AND DUP1 ISZERO PUSH2 0x2642 JUMPI PUSH1 0x5 DUP1 SLOAD PUSH1 0x1 PUSH1 0x1 PUSH1 0xA0 SHL SUB NOT AND DUP3 OR SWAP1 SSTORE PUSH32 0xA07C91C183E42229E705A9795A1C06D76528B673788B849597364528C96EEFB7 PUSH1 0x0 DUP1 LOG2 STOP JUMPDEST PUSH1 0x40 MLOAD PUSH3 0x461BCD PUSH1 0xE5 SHL DUP2 MSTORE PUSH1 0x20 PUSH1 0x4 DUP3 ADD MSTORE PUSH1 0x15 PUSH1 0x24 DUP3 ADD MSTORE PUSH21 0x496E76616C696420746F6B656E2061646472657373 PUSH1 0x58 SHL PUSH1 0x44 DUP3 ADD MSTORE PUSH1 0x64 SWAP1 REVERT JUMPDEST CALLVALUE PUSH2 0x2F0 JUMPI PUSH1 0x0 CALLDATASIZE PUSH1 0x3 NOT ADD SLT PUSH2 0x2F0 JUMPI PUSH1 0x20 PUSH1 0x9 SLOAD PUSH1 0x40 MLOAD SWAP1 DUP2 MSTORE RETURN JUMPDEST CALLVALUE PUSH2 0x2F0 JUMPI PUSH1 0x0 CALLDATASIZE PUSH1 0x3 NOT ADD SLT PUSH2 0x2F0 JUMPI PUSH1 0x20 PUSH1 0x40 MLOAD PUSH1 0x0 DUP2 MSTORE RETURN JUMPDEST CALLVALUE PUSH2 0x2F0 JUMPI PUSH1 0x20 DUP1 PUSH1 0x3 NOT CALLDATASIZE ADD SLT PUSH2 0x2F0 JUMPI PUSH1 0x4 CALLDATALOAD SWAP1 PUSH1 0x1 PUSH1 0x1 PUSH1 0x40 SHL SUB DUP3 GT PUSH2 0x2F0 JUMPI PUSH2 0x26EE PUSH2 0x281D SWAP3 CALLDATASIZE SWAP1 PUSH1 0x4 ADD PUSH2 0x40CF JUMP JUMPDEST PUSH2 0x276C DUP3 PUSH1 0x40 MLOAD SWAP3 PUSH2 0x26FF DUP5 PUSH2 0x400A JUMP JUMPDEST PUSH1 0x60 DUP5 MSTORE PUSH1 0x0 DUP3 DUP6 ADD MSTORE PUSH1 0x0 PUSH1 0x40 DUP6 ADD MSTORE PUSH1 0x0 PUSH1 0x60 DUP6 ADD MSTORE PUSH1 0x0 PUSH1 0x80 DUP6 ADD MSTORE PUSH1 0x0 PUSH1 0xA0 DUP6 ADD MSTORE PUSH1 0x0 PUSH1 0xC0 DUP6 ADD MSTORE PUSH1 0x0 PUSH1 0xE0 DUP6 ADD MSTORE PUSH1 0x0 PUSH2 0x100 DUP1 SWAP6 ADD MSTORE PUSH1 0x40 MLOAD SWAP1 PUSH2 0x275B PUSH1 0xFF PUSH1 0x6 DUP4 MLOAD SWAP5 DUP7 DUP2 DUP2 DUP8 ADD SWAP8 PUSH2 0xD12 DUP2 DUP4 DUP12 PUSH2 0x4147 JUMP JUMPDEST PUSH1 0x40 MLOAD SWAP4 DUP5 SWAP3 DUP4 SWAP3 MLOAD SWAP3 DUP4 SWAP2 PUSH2 0x4147 JUMP JUMPDEST DUP2 ADD PUSH1 0xB DUP2 MSTORE SUB ADD SWAP1 KECCAK256 SWAP2 PUSH1 0x40 MLOAD SWAP3 PUSH2 0x2784 DUP5 PUSH2 0x400A JUMP JUMPDEST PUSH1 0x40 MLOAD PUSH2 0x2795 DUP2 PUSH2 0x3DD DUP2 DUP6 PUSH2 0x429F JUMP JUMPDEST DUP5 MSTORE PUSH1 0x1 DUP2 ADD SLOAD SWAP3 DUP3 DUP6 ADD SWAP4 DUP5 MSTORE PUSH1 0x2 DUP3 ADD SLOAD SWAP2 PUSH1 0x40 DUP7 ADD SWAP3 DUP4 MSTORE PUSH1 0x3 DUP2 ADD SLOAD PUSH1 0x60 DUP8 ADD SWAP1 DUP2 MSTORE PUSH1 0x4 DUP3 ADD SLOAD PUSH1 0x80 DUP9 ADD SWAP1 DUP2 MSTORE PUSH1 0x5 DUP4 ADD SLOAD SWAP1 PUSH1 0xA0 DUP10 ADD SWAP2 DUP3 MSTORE PUSH1 0xFF PUSH1 0x6 DUP6 ADD SLOAD AND SWAP3 PUSH1 0xC0 DUP11 ADD SWAP4 ISZERO ISZERO DUP5 MSTORE PUSH1 0x8 PUSH1 0x7 DUP7 ADD SLOAD SWAP6 PUSH1 0xE0 DUP13 ADD SWAP7 DUP8 MSTORE ADD SLOAD SWAP7 DUP7 DUP12 ADD SWAP8 DUP9 MSTORE PUSH1 0x40 MLOAD SWAP12 DUP13 SWAP12 DUP11 DUP14 MSTORE MLOAD DUP13 PUSH2 0x120 SWAP12 DUP13 SWAP2 ADD MSTORE PUSH2 0x140 DUP14 ADD SWAP1 PUSH2 0x4240 JUMP JUMPDEST SWAP10 MLOAD PUSH1 0x40 DUP13 ADD MSTORE MLOAD PUSH1 0x60 DUP12 ADD MSTORE MLOAD PUSH1 0x80 DUP11 ADD MSTORE MLOAD PUSH1 0xA0 DUP10 ADD MSTORE MLOAD PUSH1 0xC0 DUP9 ADD MSTORE MLOAD ISZERO ISZERO PUSH1 0xE0 DUP8 ADD MSTORE MLOAD SWAP1 DUP6 ADD MSTORE MLOAD SWAP1 DUP4 ADD MSTORE SUB SWAP1 RETURN JUMPDEST CALLVALUE PUSH2 0x2F0 JUMPI PUSH1 0x20 CALLDATASIZE PUSH1 0x3 NOT ADD SLT PUSH2 0x2F0 JUMPI PUSH1 0x4 CALLDATALOAD PUSH1 0x0 MSTORE PUSH1 0xF PUSH1 0x20 MSTORE PUSH1 0x40 PUSH1 0x0 KECCAK256 DUP1 SLOAD PUSH1 0x40 MLOAD SWAP2 PUSH2 0x2891 DUP4 PUSH2 0x288A DUP2 PUSH1 0x1 DUP6 ADD PUSH2 0x429F JUMP JUMPDEST SUB DUP5 PUSH2 0x4093 JUMP JUMPDEST PUSH1 0x2 DUP2 ADD SLOAD PUSH2 0x290E PUSH1 0x40 MLOAD SWAP2 PUSH2 0x28AE DUP4 PUSH2 0x288A DUP2 PUSH1 0x3 DUP9 ADD PUSH2 0x429F JUMP JUMPDEST PUSH2 0x2900 PUSH1 0x40 MLOAD SWAP2 PUSH2 0x28C6 DUP4 PUSH2 0x288A DUP2 PUSH1 0x4 DUP11 ADD PUSH2 0x429F JUMP JUMPDEST PUSH1 0x6 PUSH1 0x5 DUP8 ADD SLOAD SWAP7 ADD SLOAD SWAP5 PUSH2 0x28ED PUSH1 0x40 MLOAD SWAP10 DUP11 SWAP10 DUP11 MSTORE PUSH1 0xE0 PUSH1 0x20 DUP12 ADD MSTORE PUSH1 0xE0 DUP11 ADD SWAP1 PUSH2 0x4240 JUMP JUMPDEST SWAP2 PUSH1 0x40 DUP10 ADD MSTORE DUP8 DUP3 SUB PUSH1 0x60 DUP10 ADD MSTORE PUSH2 0x4240 JUMP JUMPDEST SWAP1 DUP6 DUP3 SUB PUSH1 0x80 DUP8 ADD MSTORE PUSH2 0x4240 JUMP JUMPDEST SWAP2 PUSH1 0xA0 DUP5 ADD MSTORE PUSH1 0xC0 DUP4 ADD MSTORE SUB SWAP1 RETURN JUMPDEST CALLVALUE PUSH2 0x2F0 JUMPI PUSH1 0x40 CALLDATASIZE PUSH1 0x3 NOT ADD SLT PUSH2 0x2F0 JUMPI PUSH2 0x2936 PUSH2 0x41AE JUMP JUMPDEST PUSH1 0x4 CALLDATALOAD PUSH1 0x0 MSTORE PUSH1 0x1 PUSH1 0x20 MSTORE PUSH1 0x40 PUSH1 0x0 KECCAK256 SWAP1 PUSH1 0x1 DUP1 PUSH1 0xA0 SHL SUB AND PUSH1 0x0 MSTORE PUSH1 0x20 MSTORE PUSH1 0x20 PUSH1 0xFF PUSH1 0x40 PUSH1 0x0 KECCAK256 SLOAD AND PUSH1 0x40 MLOAD SWAP1 ISZERO ISZERO DUP2 MSTORE RETURN JUMPDEST CALLVALUE PUSH2 0x2F0 JUMPI PUSH1 0x20 PUSH2 0x2992 PUSH2 0x297D CALLDATASIZE PUSH2 0x4116 JUMP JUMPDEST SWAP3 SWAP1 DUP2 PUSH1 0x40 MLOAD SWAP4 DUP3 DUP6 DUP1 SWAP5 MLOAD SWAP4 DUP5 SWAP3 ADD PUSH2 0x4147 JUMP JUMPDEST DUP2 ADD PUSH1 0xD DUP2 MSTORE SUB ADD SWAP1 KECCAK256 DUP1 SLOAD DUP3 LT ISZERO PUSH2 0x2F0 JUMPI PUSH1 0x20 SWAP2 PUSH2 0x29B1 SWAP2 PUSH2 0x416A JUMP JUMPDEST SWAP1 SLOAD PUSH1 0x40 MLOAD SWAP2 PUSH1 0x3 SHL SHR DUP2 MSTORE RETURN JUMPDEST CALLVALUE PUSH2 0x2F0 JUMPI PUSH1 0x0 CALLDATASIZE PUSH1 0x3 NOT ADD SLT PUSH2 0x2F0 JUMPI PUSH1 0x0 SLOAD PUSH1 0x40 MLOAD PUSH1 0x1 PUSH1 0x1 PUSH1 0xA0 SHL SUB SWAP1 SWAP2 AND DUP2 MSTORE PUSH1 0x20 SWAP1 RETURN JUMPDEST CALLVALUE PUSH2 0x2F0 JUMPI PUSH1 0x0 CALLDATASIZE PUSH1 0x3 NOT ADD SLT PUSH2 0x2F0 JUMPI PUSH1 0x20 PUSH1 0x13 SLOAD PUSH1 0x40 MLOAD SWAP1 DUP2 MSTORE RETURN JUMPDEST CALLVALUE PUSH2 0x2F0 JUMPI PUSH1 0x20 PUSH2 0x2A19 PUSH2 0x297D CALLDATASIZE PUSH2 0x4116 JUMP JUMPDEST DUP2 ADD PUSH1 0x10 DUP2 MSTORE SUB ADD SWAP1 KECCAK256 DUP1 SLOAD DUP3 LT ISZERO PUSH2 0x2F0 JUMPI PUSH1 0x20 SWAP2 PUSH2 0x29B1 SWAP2 PUSH2 0x416A JUMP JUMPDEST CALLVALUE PUSH2 0x2F0 JUMPI PUSH1 0x0 CALLDATASIZE PUSH1 0x3 NOT ADD SLT PUSH2 0x2F0 JUMPI PUSH1 0x20 PUSH1 0x40 MLOAD PUSH1 0x0 DUP1 MLOAD PUSH1 0x20 PUSH2 0x504B DUP4 CODECOPY DUP2 MLOAD SWAP2 MSTORE DUP2 MSTORE RETURN JUMPDEST CALLVALUE PUSH2 0x2F0 JUMPI PUSH1 0x0 CALLDATASIZE PUSH1 0x3 NOT ADD SLT PUSH2 0x2F0 JUMPI PUSH2 0x2A7A PUSH2 0x46F0 JUMP JUMPDEST PUSH1 0x0 DUP1 SLOAD PUSH1 0x1 PUSH1 0x1 PUSH1 0xA0 SHL SUB NOT DUP2 AND DUP3 SSTORE PUSH1 0x1 PUSH1 0x1 PUSH1 0xA0 SHL SUB AND PUSH32 0x8BE0079C531659141344CD1FD0A4F28419497F9722A3DAAFE3B4186F6B6457E0 DUP3 DUP1 LOG3 STOP JUMPDEST CALLVALUE PUSH2 0x2F0 JUMPI PUSH1 0x20 CALLDATASIZE PUSH1 0x3 NOT ADD SLT PUSH2 0x2F0 JUMPI PUSH1 0x4 CALLDATALOAD PUSH1 0x0 MSTORE PUSH1 0xC PUSH1 0x20 MSTORE PUSH1 0x40 PUSH1 0x0 KECCAK256 DUP1 PUSH2 0x2C39 DUP2 SLOAD PUSH2 0x2B01 PUSH1 0x40 MLOAD DUP1 PUSH1 0xE0 MSTORE PUSH2 0x2AF8 DUP2 PUSH1 0x1 DUP8 ADD PUSH2 0x429F JUMP JUMPDEST SUB PUSH1 0xE0 MLOAD PUSH2 0x4093 JUMP JUMPDEST PUSH2 0x2B21 PUSH1 0x40 MLOAD DUP1 PUSH1 0x80 MSTORE PUSH2 0x2B18 DUP2 PUSH1 0x2 DUP8 ADD PUSH2 0x429F JUMP JUMPDEST SUB PUSH1 0x80 MLOAD PUSH2 0x4093 JUMP JUMPDEST PUSH2 0x2B7B DUP4 PUSH1 0x3 DUP2 ADD SLOAD SWAP3 PUSH1 0x4 DUP3 ADD SLOAD PUSH1 0x5 DUP4 ADD SLOAD PUSH1 0x6 DUP5 ADD SLOAD PUSH1 0x7 DUP6 ADD SLOAD PUSH1 0x8 DUP7 ADD SLOAD SWAP2 PUSH1 0x9 DUP8 ADD SLOAD SWAP4 PUSH1 0xA DUP9 ADD SLOAD SWAP6 PUSH1 0xB DUP10 ADD SLOAD SWAP8 PUSH1 0x10 PUSH1 0xF PUSH1 0xC DUP13 ADD SLOAD SWAP12 PUSH1 0x40 MLOAD SWAP14 DUP15 DUP1 PUSH2 0x2B74 DUP2 PUSH1 0xD DUP7 ADD PUSH2 0x429F JUMP JUMPDEST SUB SWAP1 PUSH2 0x4093 JUMP JUMPDEST PUSH1 0xE DUP2 ADD SLOAD PUSH2 0x100 MSTORE ADD SLOAD SWAP16 ADD SLOAD SWAP14 PUSH1 0x12 PUSH1 0x1 DUP1 PUSH1 0xA0 SHL SUB SWAP2 DUP3 PUSH1 0x11 DUP3 ADD SLOAD AND PUSH1 0xC0 MSTORE ADD SLOAD AND PUSH2 0x120 MSTORE PUSH1 0x40 MLOAD DUP1 PUSH1 0xA0 MSTORE MSTORE PUSH2 0x2BDD PUSH2 0x2BCA PUSH2 0x260 DUP1 PUSH1 0x20 PUSH1 0xA0 MLOAD ADD MSTORE PUSH1 0xA0 MLOAD ADD PUSH1 0xE0 MLOAD PUSH2 0x4240 JUMP JUMPDEST PUSH1 0xA0 MLOAD PUSH1 0x40 DUP2 DUP4 SUB SWAP2 ADD MSTORE PUSH1 0x80 MLOAD PUSH2 0x4240 JUMP JUMPDEST SWAP11 PUSH1 0x60 PUSH1 0xA0 MLOAD ADD MSTORE PUSH1 0x80 PUSH1 0xA0 MLOAD ADD MSTORE PUSH1 0xA0 DUP1 MLOAD ADD MSTORE PUSH1 0xC0 PUSH1 0xA0 MLOAD ADD MSTORE PUSH1 0xE0 PUSH1 0xA0 MLOAD ADD MSTORE PUSH2 0x100 PUSH1 0xA0 MLOAD ADD MSTORE PUSH2 0x120 PUSH1 0xA0 MLOAD ADD MSTORE PUSH2 0x140 PUSH1 0xA0 MLOAD ADD MSTORE PUSH2 0x160 PUSH1 0xA0 MLOAD ADD MSTORE PUSH2 0x180 PUSH1 0xA0 MLOAD ADD MSTORE PUSH1 0xA0 MLOAD PUSH2 0x1A0 DUP2 DUP5 SUB SWAP2 ADD MSTORE PUSH2 0x4240 JUMP JUMPDEST SWAP2 PUSH2 0x100 MLOAD PUSH2 0x1C0 PUSH1 0xA0 MLOAD ADD MSTORE PUSH2 0x1E0 PUSH1 0xA0 MLOAD ADD MSTORE PUSH2 0x200 PUSH1 0xA0 MLOAD ADD MSTORE PUSH1 0xC0 MLOAD PUSH2 0x220 PUSH1 0xA0 MLOAD ADD MSTORE PUSH2 0x120 MLOAD PUSH2 0x240 PUSH1 0xA0 MLOAD ADD MSTORE PUSH1 0xA0 MLOAD DUP1 SWAP2 SUB SWAP1 RETURN JUMPDEST CALLVALUE PUSH2 0x2F0 JUMPI PUSH1 0x0 CALLDATASIZE PUSH1 0x3 NOT ADD SLT PUSH2 0x2F0 JUMPI PUSH1 0x20 PUSH2 0x2C91 PUSH2 0x4F75 JUMP JUMPDEST PUSH1 0x40 MLOAD SWAP1 DUP2 MSTORE RETURN JUMPDEST CALLVALUE PUSH2 0x2F0 JUMPI PUSH1 0x20 CALLDATASIZE PUSH1 0x3 NOT ADD SLT PUSH2 0x2F0 JUMPI PUSH1 0x4 CALLDATALOAD PUSH1 0x1 PUSH1 0x1 PUSH1 0x40 SHL SUB DUP2 GT PUSH2 0x2F0 JUMPI PUSH2 0x2CD1 PUSH1 0x20 PUSH2 0x2405 PUSH2 0x2D38 SWAP4 CALLDATASIZE SWAP1 PUSH1 0x4 ADD PUSH2 0x40CF JUMP JUMPDEST DUP2 ADD PUSH1 0xB DUP2 MSTORE SUB ADD SWAP1 KECCAK256 PUSH1 0x40 MLOAD SWAP1 PUSH2 0x2CF4 DUP3 PUSH2 0x2CED DUP2 DUP5 PUSH2 0x429F JUMP JUMPDEST SUB DUP4 PUSH2 0x4093 JUMP JUMPDEST PUSH1 0x1 DUP2 ADD SLOAD SWAP1 PUSH1 0x2 DUP2 ADD SLOAD SWAP1 PUSH1 0x3 DUP2 ADD SLOAD PUSH1 0x4 DUP3 ADD SLOAD PUSH1 0x5 DUP4 ADD SLOAD SWAP1 PUSH1 0xFF PUSH1 0x6 DUP6 ADD SLOAD AND SWAP3 PUSH1 0x8 PUSH1 0x7 DUP7 ADD SLOAD SWAP6 ADD SLOAD SWAP6 PUSH1 0x40 MLOAD SWAP10 DUP11 SWAP10 PUSH2 0x120 DUP1 DUP13 MSTORE DUP12 ADD SWAP1 PUSH2 0x4240 JUMP JUMPDEST SWAP8 PUSH1 0x20 DUP11 ADD MSTORE PUSH1 0x40 DUP10 ADD MSTORE PUSH1 0x60 DUP9 ADD MSTORE PUSH1 0x80 DUP8 ADD MSTORE PUSH1 0xA0 DUP7 ADD MSTORE ISZERO ISZERO PUSH1 0xC0 DUP6 ADD MSTORE PUSH1 0xE0 DUP5 ADD MSTORE PUSH2 0x100 DUP4 ADD MSTORE SUB SWAP1 RETURN JUMPDEST CALLVALUE PUSH2 0x2F0 JUMPI PUSH1 0x0 CALLDATASIZE PUSH1 0x3 NOT ADD SLT PUSH2 0x2F0 JUMPI PUSH1 0x40 MLOAD PUSH4 0x37CFDCC5 PUSH1 0xE1 SHL DUP2 MSTORE PUSH1 0x20 DUP2 PUSH1 0x4 DUP2 ADDRESS GAS STATICCALL DUP1 ISZERO PUSH2 0x12FE JUMPI PUSH1 0x0 SWAP1 PUSH2 0x2DCA JUMPI JUMPDEST PUSH1 0x11 SLOAD PUSH1 0x12 SLOAD PUSH1 0x80 SWAP3 PUSH2 0x2DB0 DUP2 DUP4 PUSH2 0x4771 JUMP JUMPDEST DUP4 EQ SWAP2 PUSH1 0x40 MLOAD SWAP4 DUP5 MSTORE PUSH1 0x20 DUP5 ADD MSTORE PUSH1 0x40 DUP4 ADD MSTORE PUSH1 0x60 DUP3 ADD MSTORE RETURN JUMPDEST POP PUSH1 0x20 DUP2 RETURNDATASIZE DUP3 GT PUSH2 0x2DF4 JUMPI JUMPDEST DUP2 PUSH2 0x2DE3 PUSH1 0x20 SWAP4 DUP4 PUSH2 0x4093 JUMP JUMPDEST DUP2 ADD SUB SLT PUSH2 0x2F0 JUMPI PUSH1 0x80 SWAP1 MLOAD PUSH2 0x2D9D JUMP JUMPDEST RETURNDATASIZE SWAP2 POP PUSH2 0x2DD6 JUMP JUMPDEST CALLVALUE PUSH2 0x2F0 JUMPI PUSH1 0x20 CALLDATASIZE PUSH1 0x3 NOT ADD SLT PUSH2 0x2F0 JUMPI PUSH2 0x2E15 PUSH2 0x4198 JUMP JUMPDEST PUSH2 0x2E1D PUSH2 0x46F0 JUMP JUMPDEST PUSH1 0x1 PUSH1 0x1 PUSH1 0xA0 SHL SUB AND DUP1 ISZERO PUSH2 0x2E65 JUMPI PUSH1 0x6 DUP1 SLOAD PUSH1 0x1 PUSH1 0x1 PUSH1 0xA0 SHL SUB NOT AND DUP3 OR SWAP1 SSTORE PUSH32 0x8DB477F6B4424C3995E606A7117A72572AF19F492BEE06697AD2C8329F2AB7E5 PUSH1 0x0 DUP1 LOG2 STOP JUMPDEST PUSH1 0x40 MLOAD PUSH3 0x461BCD PUSH1 0xE5 SHL DUP2 MSTORE PUSH1 0x20 PUSH1 0x4 DUP3 ADD MSTORE PUSH1 0x1C PUSH1 0x24 DUP3 ADD MSTORE PUSH32 0x496E76616C6964204B504920636F6E7472616374206164647265737300000000 PUSH1 0x44 DUP3 ADD MSTORE PUSH1 0x64 SWAP1 REVERT JUMPDEST CALLVALUE PUSH2 0x2F0 JUMPI PUSH1 0x80 CALLDATASIZE PUSH1 0x3 NOT ADD SLT PUSH2 0x2F0 JUMPI PUSH1 0x4 CALLDATALOAD PUSH1 0x1 PUSH1 0x1 PUSH1 0x40 SHL SUB DUP2 GT PUSH2 0x2F0 JUMPI PUSH2 0x2EDA SWAP1 CALLDATASIZE SWAP1 PUSH1 0x4 ADD PUSH2 0x40CF JUMP JUMPDEST PUSH1 0x24 CALLDATALOAD PUSH1 0x44 CALLDATALOAD SWAP2 PUSH1 0x40 MLOAD SWAP1 DUP1 MLOAD SWAP2 DUP1 PUSH1 0x20 DUP4 ADD SWAP4 PUSH2 0x2EF9 DUP2 DUP4 DUP8 PUSH2 0x4147 JUMP JUMPDEST DUP2 ADD PUSH1 0xB DUP2 MSTORE SUB PUSH1 0x20 ADD SWAP1 KECCAK256 PUSH1 0x6 ADD SLOAD PUSH1 0xFF AND PUSH2 0x2F15 SWAP1 PUSH2 0x48E9 JUMP JUMPDEST PUSH2 0x2F22 PUSH1 0x64 DUP5 GT ISZERO PUSH2 0x4CEF JUMP JUMPDEST PUSH2 0x2F2F PUSH1 0x1F DUP6 GT ISZERO PUSH2 0x4D3B JUMP JUMPDEST PUSH1 0x40 MLOAD DUP1 SWAP3 DUP2 SWAP3 MLOAD DUP1 SWAP3 PUSH2 0x2F42 SWAP3 PUSH2 0x4147 JUMP JUMPDEST DUP2 ADD PUSH1 0xB DUP2 MSTORE SUB PUSH1 0x20 ADD SWAP1 KECCAK256 SWAP1 PUSH1 0x40 MLOAD SWAP1 PUSH2 0x2F5C DUP3 PUSH2 0x400A JUMP JUMPDEST PUSH1 0x40 MLOAD DUP1 PUSH2 0x2F6A DUP2 DUP7 PUSH2 0x429F JUMP JUMPDEST SUB PUSH2 0x2F75 SWAP1 DUP3 PUSH2 0x4093 JUMP JUMPDEST DUP3 MSTORE PUSH1 0x1 DUP4 ADD SLOAD SWAP3 PUSH1 0x20 DUP4 ADD SWAP2 DUP5 DUP4 MSTORE PUSH1 0x2 DUP3 ADD SLOAD SWAP6 PUSH1 0x40 DUP6 ADD SWAP7 DUP8 MSTORE PUSH1 0x3 DUP4 ADD SLOAD SWAP6 PUSH1 0x60 DUP7 ADD SWAP7 DUP8 MSTORE PUSH1 0x4 DUP5 ADD SLOAD SWAP6 PUSH1 0x80 DUP2 ADD SWAP7 DUP8 MSTORE PUSH1 0x5 DUP6 ADD SLOAD SWAP5 PUSH1 0xA0 DUP3 ADD SWAP6 DUP7 MSTORE PUSH1 0x6 DUP2 ADD SLOAD PUSH1 0xFF AND ISZERO ISZERO PUSH1 0xC0 DUP4 ADD MSTORE PUSH1 0x7 DUP2 ADD SLOAD PUSH1 0xE0 DUP4 ADD MSTORE PUSH1 0x8 ADD SLOAD SWAP1 PUSH2 0x100 ADD MSTORE PUSH1 0x8 SLOAD PUSH2 0x2FE8 SWAP2 PUSH2 0x49C6 JUMP JUMPDEST SWAP1 PUSH2 0x2FF2 SWAP2 PUSH2 0x4748 JUMP JUMPDEST SWAP6 DUP4 MLOAD SWAP1 MLOAD PUSH2 0x3000 SWAP2 PUSH2 0x4748 JUMP JUMPDEST SWAP1 PUSH2 0x300A SWAP2 PUSH2 0x4748 JUMP JUMPDEST PUSH2 0x2710 SWAP1 DIV SWAP4 MLOAD SWAP2 PUSH1 0x64 CALLDATALOAD SWAP1 PUSH1 0xA SLOAD PUSH1 0xC SWAP1 DIV SWAP1 MLOAD SWAP1 PUSH2 0x3029 SWAP2 PUSH2 0x49C6 JUMP JUMPDEST SWAP1 PUSH2 0x3033 SWAP2 PUSH2 0x4748 JUMP JUMPDEST SWAP1 MLOAD PUSH2 0x303E SWAP2 PUSH2 0x4748 JUMP JUMPDEST PUSH1 0x64 SWAP1 DIV SWAP1 DUP2 DUP2 PUSH2 0x304F DUP7 DUP9 PUSH2 0x4771 JUMP JUMPDEST SWAP1 PUSH2 0x3059 SWAP2 PUSH2 0x4771 JUMP JUMPDEST SWAP1 PUSH2 0x3063 SWAP2 PUSH2 0x4771 JUMP JUMPDEST SWAP3 MLOAD PUSH2 0x306F SWAP1 DUP5 PUSH2 0x4748 JUMP JUMPDEST PUSH1 0x64 SWAP1 DIV SWAP3 DUP4 PUSH2 0x307E SWAP2 PUSH2 0x4A90 JUMP JUMPDEST SWAP4 PUSH1 0x40 MLOAD SWAP6 DUP7 MSTORE PUSH1 0x20 DUP7 ADD MSTORE PUSH1 0x40 DUP6 ADD MSTORE PUSH1 0x60 DUP5 ADD MSTORE PUSH1 0x80 DUP4 ADD MSTORE PUSH1 0xA0 DUP3 ADD MSTORE PUSH1 0xC0 SWAP1 RETURN JUMPDEST CALLVALUE PUSH2 0x2F0 JUMPI PUSH1 0x20 DUP1 PUSH1 0x3 NOT CALLDATASIZE ADD SLT PUSH2 0x2F0 JUMPI PUSH1 0x4 CALLDATALOAD PUSH1 0x1 PUSH1 0x1 PUSH1 0x40 SHL SUB DUP2 GT PUSH2 0x2F0 JUMPI PUSH1 0x6 SWAP2 PUSH2 0x30DA PUSH2 0x3132 SWAP3 CALLDATASIZE SWAP1 PUSH1 0x4 ADD PUSH2 0x40CF JUMP JUMPDEST PUSH1 0x0 DUP1 MLOAD PUSH1 0x20 PUSH2 0x502B DUP4 CODECOPY DUP2 MLOAD SWAP2 MSTORE PUSH1 0x0 MSTORE PUSH1 0x1 DUP3 MSTORE PUSH1 0x40 PUSH1 0x0 KECCAK256 CALLER PUSH1 0x0 MSTORE DUP3 MSTORE PUSH1 0xFF PUSH1 0x40 PUSH1 0x0 KECCAK256 SLOAD AND DUP1 ISZERO PUSH2 0x3149 JUMPI JUMPDEST PUSH2 0x3114 SWAP1 PUSH2 0x47E6 JUMP JUMPDEST PUSH1 0x40 MLOAD SWAP1 PUSH2 0x275B PUSH1 0xFF DUP7 DUP4 MLOAD SWAP5 DUP7 DUP2 DUP2 DUP8 ADD SWAP8 PUSH2 0xD12 DUP2 DUP4 DUP12 PUSH2 0x4147 JUMP JUMPDEST PUSH1 0xB SWAP1 DUP3 ADD SWAP1 DUP2 MSTORE SUB ADD SWAP1 KECCAK256 ADD DUP1 SLOAD PUSH1 0xFF NOT AND SWAP1 SSTORE STOP JUMPDEST POP PUSH1 0x0 DUP1 MLOAD PUSH1 0x20 PUSH2 0x504B DUP4 CODECOPY DUP2 MLOAD SWAP2 MSTORE PUSH1 0x0 SWAP1 DUP2 MSTORE PUSH1 0x1 DUP4 MSTORE PUSH1 0x40 DUP1 DUP3 KECCAK256 CALLER DUP4 MSTORE DUP5 MSTORE SWAP1 KECCAK256 SLOAD PUSH1 0xFF AND PUSH2 0x310B JUMP JUMPDEST CALLVALUE PUSH2 0x2F0 JUMPI PUSH1 0x20 DUP1 PUSH1 0x3 NOT CALLDATASIZE ADD SLT PUSH2 0x2F0 JUMPI PUSH1 0x4 CALLDATALOAD PUSH1 0x1 PUSH1 0x1 PUSH1 0x40 SHL SUB DUP2 GT PUSH2 0x2F0 JUMPI DUP2 PUSH2 0x2405 PUSH2 0x31AC SWAP3 CALLDATASIZE SWAP1 PUSH1 0x4 ADD PUSH2 0x40CF JUMP JUMPDEST DUP2 ADD PUSH1 0xE DUP2 MSTORE SUB ADD SWAP1 KECCAK256 SWAP1 PUSH1 0x40 MLOAD SWAP1 DUP2 DUP2 DUP5 SLOAD SWAP2 DUP3 DUP2 MSTORE ADD SWAP4 PUSH1 0x0 MSTORE DUP2 PUSH1 0x0 KECCAK256 SWAP2 PUSH1 0x0 SWAP1 JUMPDEST DUP3 DUP3 LT PUSH2 0x31E8 JUMPI PUSH2 0x2460 DUP6 PUSH2 0x2454 DUP2 DUP10 SUB DUP3 PUSH2 0x4093 JUMP JUMPDEST DUP4 SLOAD DUP7 MSTORE SWAP5 DUP6 ADD SWAP5 PUSH1 0x1 SWAP4 DUP5 ADD SWAP4 SWAP1 SWAP2 ADD SWAP1 PUSH2 0x31D1 JUMP JUMPDEST CALLVALUE PUSH2 0x2F0 JUMPI PUSH1 0x0 CALLDATASIZE PUSH1 0x3 NOT ADD SLT PUSH2 0x2F0 JUMPI PUSH1 0x20 PUSH1 0x8 SLOAD PUSH1 0x40 MLOAD SWAP1 DUP2 MSTORE RETURN JUMPDEST PUSH1 0x20 DUP1 PUSH1 0x3 NOT CALLDATASIZE ADD SLT PUSH2 0x2F0 JUMPI PUSH1 0x5 SLOAD PUSH1 0x4 CALLDATALOAD SWAP2 SWAP1 PUSH1 0x1 PUSH1 0x1 PUSH1 0xA0 SHL SUB AND DUP1 ISZERO PUSH2 0x32ED JUMPI SWAP1 DUP1 PUSH1 0x0 SWAP3 PUSH1 0x64 PUSH1 0x40 MLOAD DUP1 SWAP6 DUP2 SWAP4 PUSH4 0x23B872DD PUSH1 0xE0 SHL DUP4 MSTORE CALLER PUSH1 0x4 DUP5 ADD MSTORE ADDRESS PUSH1 0x24 DUP5 ADD MSTORE DUP9 PUSH1 0x44 DUP5 ADD MSTORE GAS CALL SWAP2 DUP3 ISZERO PUSH2 0x12FE JUMPI PUSH32 0x543BA50A5EEC5E6178218E364B1D0F396157B3C8FA278522C2CB7FD99407D474 SWAP3 PUSH2 0x32A7 SWAP2 PUSH1 0x0 SWAP2 PUSH2 0x32D0 JUMPI POP PUSH2 0x4EDD JUMP JUMPDEST PUSH2 0x32B3 DUP4 PUSH1 0x11 SLOAD PUSH2 0x4771 JUMP JUMPDEST PUSH1 0x11 SSTORE PUSH2 0x32C2 DUP4 PUSH1 0x13 SLOAD PUSH2 0x4771 JUMP JUMPDEST PUSH1 0x13 SSTORE PUSH1 0x40 MLOAD SWAP3 DUP4 MSTORE CALLER SWAP3 LOG2 STOP JUMPDEST PUSH2 0x32E7 SWAP2 POP DUP4 RETURNDATASIZE DUP6 GT PUSH2 0x214A JUMPI PUSH2 0x213C DUP2 DUP4 PUSH2 0x4093 JUMP JUMPDEST DUP6 PUSH2 0x1C3D JUMP JUMPDEST POP DUP2 CALLVALUE SUB PUSH2 0x331C JUMPI PUSH32 0x543BA50A5EEC5E6178218E364B1D0F396157B3C8FA278522C2CB7FD99407D474 SWAP1 PUSH2 0x32A7 JUMP JUMPDEST PUSH1 0x64 SWAP1 PUSH1 0x40 MLOAD SWAP1 PUSH3 0x461BCD PUSH1 0xE5 SHL DUP3 MSTORE PUSH1 0x4 DUP3 ADD MSTORE PUSH1 0x13 PUSH1 0x24 DUP3 ADD MSTORE PUSH19 0x8AA89040C2DADEEADCE840DAD2E6DAC2E8C6D PUSH1 0x6B SHL PUSH1 0x44 DUP3 ADD MSTORE REVERT JUMPDEST CALLVALUE PUSH2 0x2F0 JUMPI PUSH1 0x20 DUP1 PUSH1 0x3 NOT CALLDATASIZE ADD SLT PUSH2 0x2F0 JUMPI PUSH1 0x4 CALLDATALOAD SWAP1 PUSH1 0x0 DUP1 MLOAD PUSH1 0x20 PUSH2 0x502B DUP4 CODECOPY DUP2 MLOAD SWAP2 MSTORE PUSH1 0x0 MSTORE PUSH1 0x1 DUP2 MSTORE PUSH1 0x40 PUSH1 0x0 KECCAK256 CALLER PUSH1 0x0 MSTORE DUP2 MSTORE PUSH1 0xFF PUSH1 0x40 PUSH1 0x0 KECCAK256 SLOAD AND DUP1 ISZERO PUSH2 0x34D9 JUMPI JUMPDEST PUSH2 0x33A6 SWAP1 PUSH2 0x47E6 JUMP JUMPDEST DUP2 PUSH1 0x0 MSTORE PUSH1 0xC DUP2 MSTORE PUSH1 0x40 PUSH1 0x0 KECCAK256 PUSH2 0x33BF DUP2 SLOAD ISZERO ISZERO PUSH2 0x4D87 JUMP JUMPDEST PUSH1 0xD DUP2 ADD PUSH1 0x40 MLOAD PUSH2 0x33D4 DUP2 PUSH2 0x3DD DUP2 DUP6 PUSH2 0x429F JUMP JUMPDEST DUP4 DUP2 MLOAD SWAP2 ADD KECCAK256 PUSH2 0x33E2 PUSH2 0x49E6 JUMP JUMPDEST DUP5 DUP2 MLOAD SWAP2 ADD KECCAK256 EQ DUP1 ISZERO PUSH2 0x34AD JUMPI JUMPDEST ISZERO PUSH2 0x3454 JUMPI SWAP2 PUSH2 0x344F PUSH1 0x1 SWAP3 DUP5 PUSH2 0x342B PUSH2 0xC2A PUSH32 0x61054C61A3F82A296B7CFD4D6A7993FC78AF450D2733C04CCB92AE5D1D54B20F SWAP8 SLOAD PUSH2 0x4265 JUMP JUMPDEST PUSH1 0x12 PUSH9 0x10D85B98D95B1B1959 PUSH1 0xBA SHL ADD SWAP1 SSTORE PUSH1 0x40 MLOAD DUP4 DUP2 MSTORE SWAP4 DUP5 SWAP4 DUP5 ADD SWAP2 ADD PUSH2 0x429F JUMP JUMPDEST SUB SWAP1 LOG2 STOP JUMPDEST PUSH1 0x40 MLOAD PUSH3 0x461BCD PUSH1 0xE5 SHL DUP2 MSTORE PUSH1 0x4 DUP2 ADD DUP5 SWAP1 MSTORE PUSH1 0x2B PUSH1 0x24 DUP3 ADD MSTORE PUSH32 0x43616E206F6E6C792063616E63656C2070656E64696E67206F7220617070726F PUSH1 0x44 DUP3 ADD MSTORE PUSH11 0x1D9959081C185E5C9BDB1B PUSH1 0xAA SHL PUSH1 0x64 DUP3 ADD MSTORE PUSH1 0x84 SWAP1 REVERT JUMPDEST POP PUSH1 0x40 MLOAD PUSH2 0x34BF DUP2 PUSH2 0x3DD DUP2 DUP6 PUSH2 0x429F JUMP JUMPDEST DUP4 DUP2 MLOAD SWAP2 ADD KECCAK256 PUSH2 0x34CD PUSH2 0x4E55 JUMP JUMPDEST DUP5 DUP2 MLOAD SWAP2 ADD KECCAK256 EQ PUSH2 0x33F0 JUMP JUMPDEST POP PUSH1 0x0 DUP1 MLOAD PUSH1 0x20 PUSH2 0x504B DUP4 CODECOPY DUP2 MLOAD SWAP2 MSTORE PUSH1 0x0 SWAP1 DUP2 MSTORE PUSH1 0x1 DUP3 MSTORE PUSH1 0x40 DUP1 DUP3 KECCAK256 CALLER DUP4 MSTORE DUP4 MSTORE SWAP1 KECCAK256 SLOAD PUSH1 0xFF AND PUSH2 0x339D JUMP JUMPDEST CALLVALUE PUSH2 0x2F0 JUMPI PUSH1 0x40 CALLDATASIZE PUSH1 0x3 NOT ADD SLT PUSH2 0x2F0 JUMPI PUSH2 0x3520 PUSH2 0x41AE JUMP JUMPDEST CALLER PUSH1 0x1 PUSH1 0x1 PUSH1 0xA0 SHL SUB DUP3 AND SUB PUSH2 0x353C JUMPI PUSH2 0x19E0 SWAP1 PUSH1 0x4 CALLDATALOAD PUSH2 0x467A JUMP JUMPDEST PUSH1 0x40 MLOAD PUSH3 0x461BCD PUSH1 0xE5 SHL DUP2 MSTORE PUSH1 0x20 PUSH1 0x4 DUP3 ADD MSTORE PUSH1 0x2F PUSH1 0x24 DUP3 ADD MSTORE PUSH32 0x416363657373436F6E74726F6C3A2063616E206F6E6C792072656E6F756E6365 PUSH1 0x44 DUP3 ADD MSTORE PUSH15 0x103937B632B9903337B91039B2B633 PUSH1 0x89 SHL PUSH1 0x64 DUP3 ADD MSTORE PUSH1 0x84 SWAP1 REVERT JUMPDEST CALLVALUE PUSH2 0x2F0 JUMPI PUSH1 0x20 DUP1 PUSH1 0x3 NOT CALLDATASIZE ADD SLT PUSH2 0x2F0 JUMPI PUSH1 0x40 MLOAD PUSH1 0x4 CALLDATALOAD PUSH2 0x35BA DUP3 PUSH2 0x4026 JUMP JUMPDEST PUSH1 0x0 DUP3 MSTORE PUSH1 0x0 PUSH1 0xC0 PUSH1 0x60 SWAP4 DUP5 DUP7 DUP3 ADD MSTORE DUP3 PUSH1 0x40 DUP3 ADD MSTORE DUP5 DUP1 DUP3 ADD MSTORE DUP5 PUSH1 0x80 DUP3 ADD MSTORE DUP3 PUSH1 0xA0 DUP3 ADD MSTORE ADD MSTORE DUP1 PUSH1 0x0 MSTORE PUSH1 0xF DUP4 MSTORE PUSH1 0x40 PUSH1 0x0 KECCAK256 SLOAD ISZERO PUSH2 0x36F0 JUMPI PUSH1 0x0 MSTORE PUSH1 0xF DUP3 MSTORE PUSH1 0x40 PUSH1 0x0 KECCAK256 PUSH1 0x40 MLOAD SWAP2 PUSH2 0x360F DUP4 PUSH2 0x4026 JUMP JUMPDEST DUP2 SLOAD DUP4 MSTORE PUSH2 0x36DF PUSH1 0x40 MLOAD SWAP2 PUSH2 0x362B DUP4 PUSH2 0x288A DUP2 PUSH1 0x1 DUP9 ADD PUSH2 0x429F JUMP JUMPDEST DUP6 DUP6 ADD SWAP3 DUP4 MSTORE PUSH1 0x2 DUP5 ADD SLOAD PUSH1 0x40 DUP7 ADD SWAP1 DUP2 MSTORE PUSH2 0x36CE PUSH1 0x40 MLOAD PUSH2 0x3654 DUP2 PUSH2 0x3DD DUP2 PUSH1 0x3 DUP12 ADD PUSH2 0x429F JUMP JUMPDEST DUP4 DUP9 ADD SWAP1 DUP2 MSTORE PUSH1 0x40 MLOAD SWAP4 PUSH2 0x366F DUP6 PUSH2 0x1CD7 DUP2 PUSH1 0x4 DUP13 ADD PUSH2 0x429F JUMP JUMPDEST PUSH1 0x80 DUP10 ADD SWAP5 DUP6 MSTORE PUSH2 0x36B3 PUSH1 0x6 PUSH1 0x5 DUP11 ADD SLOAD SWAP10 PUSH1 0xA0 DUP13 ADD SWAP11 DUP12 MSTORE ADD SLOAD SWAP8 PUSH1 0xC0 DUP12 ADD SWAP9 DUP10 MSTORE PUSH1 0x40 MLOAD SWAP12 DUP13 SWAP12 DUP2 DUP14 MSTORE MLOAD SWAP1 DUP13 ADD MSTORE MLOAD PUSH1 0xE0 PUSH1 0x40 DUP13 ADD MSTORE PUSH2 0x100 DUP12 ADD SWAP1 PUSH2 0x4240 JUMP JUMPDEST SWAP4 MLOAD SWAP1 DUP10 ADD MSTORE MLOAD SWAP2 PUSH1 0x1F NOT SWAP3 DUP4 DUP10 DUP4 SUB ADD PUSH1 0x80 DUP11 ADD MSTORE PUSH2 0x4240 JUMP JUMPDEST SWAP2 MLOAD SWAP1 DUP7 DUP4 SUB ADD PUSH1 0xA0 DUP8 ADD MSTORE PUSH2 0x4240 JUMP JUMPDEST SWAP2 MLOAD PUSH1 0xC0 DUP5 ADD MSTORE MLOAD PUSH1 0xE0 DUP4 ADD MSTORE SUB SWAP1 RETURN JUMPDEST PUSH1 0x40 MLOAD PUSH3 0x461BCD PUSH1 0xE5 SHL DUP2 MSTORE PUSH1 0x4 DUP2 ADD DUP5 SWAP1 MSTORE PUSH1 0x1A PUSH1 0x24 DUP3 ADD MSTORE PUSH32 0x5472616E73616374696F6E20646F6573206E6F74206578697374000000000000 PUSH1 0x44 DUP3 ADD MSTORE PUSH1 0x64 SWAP1 REVERT JUMPDEST CALLVALUE PUSH2 0x2F0 JUMPI PUSH1 0x40 CALLDATASIZE PUSH1 0x3 NOT ADD SLT PUSH2 0x2F0 JUMPI PUSH1 0x4 CALLDATALOAD PUSH2 0x3751 PUSH2 0x41AE JUMP JUMPDEST DUP2 PUSH1 0x0 MSTORE PUSH1 0x1 PUSH1 0x20 MSTORE PUSH2 0x376B PUSH1 0x1 PUSH1 0x40 PUSH1 0x0 KECCAK256 ADD SLOAD PUSH2 0x437B JUMP JUMPDEST DUP2 PUSH1 0x0 MSTORE PUSH1 0x1 PUSH1 0x20 MSTORE PUSH1 0x40 PUSH1 0x0 KECCAK256 SWAP1 PUSH1 0x1 DUP1 PUSH1 0xA0 SHL SUB AND SWAP1 DUP2 PUSH1 0x0 MSTORE PUSH1 0x20 MSTORE PUSH1 0xFF PUSH1 0x40 PUSH1 0x0 KECCAK256 SLOAD AND ISZERO PUSH2 0x379A JUMPI STOP JUMPDEST DUP2 PUSH1 0x0 MSTORE PUSH1 0x1 PUSH1 0x20 MSTORE PUSH1 0x40 PUSH1 0x0 KECCAK256 DUP2 PUSH1 0x0 MSTORE PUSH1 0x20 MSTORE PUSH1 0x40 PUSH1 0x0 KECCAK256 PUSH1 0x1 PUSH1 0xFF NOT DUP3 SLOAD AND OR SWAP1 SSTORE CALLER SWAP2 PUSH32 0x2F8788117E7EFF1D82E926EC794901D17C78024A50270940304540A733656F0D PUSH1 0x0 DUP1 LOG4 STOP JUMPDEST CALLVALUE PUSH2 0x2F0 JUMPI PUSH1 0x0 CALLDATASIZE PUSH1 0x3 NOT ADD SLT PUSH2 0x2F0 JUMPI PUSH1 0x20 PUSH1 0x40 MLOAD PUSH32 0x5A3425EA67E73C95853ECFC0C443062DE292A303C186BC2AAC1178AE1B86C62A DUP2 MSTORE RETURN JUMPDEST CALLVALUE PUSH2 0x2F0 JUMPI PUSH1 0x20 CALLDATASIZE PUSH1 0x3 NOT ADD SLT PUSH2 0x2F0 JUMPI PUSH1 0x4 CALLDATALOAD PUSH1 0x0 MSTORE PUSH1 0x1 PUSH1 0x20 MSTORE PUSH1 0x20 PUSH1 0x1 PUSH1 0x40 PUSH1 0x0 KECCAK256 ADD SLOAD PUSH1 0x40 MLOAD SWAP1 DUP2 MSTORE RETURN JUMPDEST CALLVALUE PUSH2 0x2F0 JUMPI PUSH1 0x0 CALLDATASIZE PUSH1 0x3 NOT ADD SLT PUSH2 0x2F0 JUMPI PUSH1 0x6 SLOAD PUSH1 0x40 MLOAD PUSH1 0x1 PUSH1 0x1 PUSH1 0xA0 SHL SUB SWAP1 SWAP2 AND DUP2 MSTORE PUSH1 0x20 SWAP1 RETURN JUMPDEST CALLVALUE PUSH2 0x2F0 JUMPI PUSH1 0x20 DUP1 PUSH1 0x3 NOT CALLDATASIZE ADD SLT PUSH2 0x2F0 JUMPI PUSH1 0x4 CALLDATALOAD PUSH1 0x1 PUSH1 0x1 PUSH1 0x40 SHL SUB DUP2 GT PUSH2 0x2F0 JUMPI DUP2 PUSH2 0x2405 PUSH2 0x38B0 SWAP3 CALLDATASIZE SWAP1 PUSH1 0x4 ADD PUSH2 0x40CF JUMP JUMPDEST DUP2 ADD PUSH1 0x10 DUP2 MSTORE SUB ADD SWAP1 KECCAK256 SWAP1 PUSH1 0x40 MLOAD SWAP1 DUP2 DUP2 DUP5 SLOAD SWAP2 DUP3 DUP2 MSTORE ADD SWAP4 PUSH1 0x0 MSTORE DUP2 PUSH1 0x0 KECCAK256 SWAP2 PUSH1 0x0 SWAP1 JUMPDEST DUP3 DUP3 LT PUSH2 0x38EC JUMPI PUSH2 0x2460 DUP6 PUSH2 0x2454 DUP2 DUP10 SUB DUP3 PUSH2 0x4093 JUMP JUMPDEST DUP4 SLOAD DUP7 MSTORE SWAP5 DUP6 ADD SWAP5 PUSH1 0x1 SWAP4 DUP5 ADD SWAP4 SWAP1 SWAP2 ADD SWAP1 PUSH2 0x38D5 JUMP JUMPDEST CALLVALUE PUSH2 0x2F0 JUMPI PUSH2 0x3911 CALLDATASIZE PUSH2 0x41C4 JUMP JUMPDEST CALLER PUSH1 0x0 SWAP1 DUP2 MSTORE PUSH1 0x0 DUP1 MLOAD PUSH1 0x20 PUSH2 0x4FEB DUP4 CODECOPY DUP2 MLOAD SWAP2 MSTORE PUSH1 0x20 MSTORE PUSH1 0x40 SWAP1 KECCAK256 SLOAD SWAP4 SWAP6 SWAP4 SWAP1 SWAP2 SWAP1 PUSH1 0xFF AND DUP1 ISZERO PUSH2 0x3C71 JUMPI JUMPDEST PUSH2 0x3947 SWAP1 PUSH2 0x47E6 JUMP JUMPDEST DUP4 MLOAD ISZERO PUSH2 0x3C2C JUMPI PUSH1 0x64 DUP1 DUP8 GT PUSH2 0x3BEA JUMPI DUP1 DUP3 GT PUSH2 0x3BA8 JUMPI DUP1 DUP4 LT PUSH2 0x3B5A JUMPI POP PUSH1 0x40 MLOAD SWAP3 PUSH2 0x3973 DUP5 PUSH2 0x400A JUMP JUMPDEST DUP5 DUP5 MSTORE DUP6 PUSH1 0x20 DUP6 ADD MSTORE DUP7 PUSH1 0x40 DUP6 ADD MSTORE PUSH1 0x60 DUP5 ADD MSTORE PUSH1 0x80 DUP4 ADD MSTORE PUSH1 0xA0 DUP3 ADD MSTORE PUSH1 0x1 PUSH1 0xC0 DUP3 ADD MSTORE PUSH1 0x0 PUSH1 0xE0 DUP3 ADD MSTORE PUSH1 0x0 PUSH2 0x100 DUP3 ADD MSTORE PUSH1 0x40 MLOAD PUSH1 0x20 DUP2 DUP5 MLOAD PUSH2 0x39BC DUP2 DUP4 DUP6 DUP10 ADD PUSH2 0x4147 JUMP JUMPDEST DUP2 ADD PUSH1 0xB DUP2 MSTORE SUB ADD SWAP1 KECCAK256 SWAP1 DUP1 MLOAD DUP1 MLOAD SWAP1 PUSH1 0x1 PUSH1 0x1 PUSH1 0x40 SHL SUB DUP3 GT PUSH2 0x1125 JUMPI PUSH2 0x39EE DUP3 PUSH2 0x39E8 DUP7 SLOAD PUSH2 0x4265 JUMP JUMPDEST DUP7 PUSH2 0x4884 JUMP JUMPDEST PUSH1 0x20 SWAP1 PUSH1 0x1F DUP4 GT PUSH1 0x1 EQ PUSH2 0x3AC1 JUMPI PUSH2 0x100 PUSH2 0x3AA8 SWAP5 DUP5 PUSH1 0x40 SWAP9 SWAP6 PUSH32 0xA833B2B1D3891905E8131E62FB850438CD3C07FBEA8916196F6E960B4EB13046 SWAP11 SWAP9 SWAP6 PUSH1 0x8 SWAP6 PUSH1 0x0 SWAP3 PUSH2 0x3AB6 JUMPI JUMPDEST POP POP DUP2 PUSH1 0x1 SHL SWAP2 PUSH1 0x0 NOT SWAP1 PUSH1 0x3 SHL SHR NOT AND OR DUP5 SSTORE JUMPDEST PUSH1 0x20 DUP2 ADD MLOAD PUSH1 0x1 DUP6 ADD SSTORE DUP8 DUP2 ADD MLOAD PUSH1 0x2 DUP6 ADD SSTORE PUSH1 0x60 DUP2 ADD MLOAD PUSH1 0x3 DUP6 ADD SSTORE PUSH1 0x80 DUP2 ADD MLOAD PUSH1 0x4 DUP6 ADD SSTORE PUSH1 0xA0 DUP2 ADD MLOAD PUSH1 0x5 DUP6 ADD SSTORE PUSH1 0x6 DUP5 ADD PUSH1 0xC0 DUP3 ADD MLOAD ISZERO ISZERO PUSH1 0xFF DUP1 NOT DUP4 SLOAD AND SWAP2 AND OR SWAP1 SSTORE PUSH1 0xE0 DUP2 ADD MLOAD PUSH1 0x7 DUP6 ADD SSTORE ADD MLOAD SWAP2 ADD SSTORE PUSH2 0x48C9 JUMP JUMPDEST SWAP4 DUP3 MLOAD SWAP2 DUP3 MSTORE PUSH1 0x20 DUP3 ADD MSTORE LOG2 STOP JUMPDEST ADD MLOAD SWAP1 POP DUP13 DUP1 PUSH2 0x3A37 JUMP JUMPDEST SWAP1 DUP5 PUSH1 0x0 MSTORE PUSH1 0x20 PUSH1 0x0 KECCAK256 SWAP2 PUSH1 0x0 JUMPDEST PUSH1 0x1F NOT DUP6 AND DUP2 LT PUSH2 0x3B42 JUMPI POP PUSH2 0x3AA8 SWAP5 PUSH1 0x1 DUP6 PUSH32 0xA833B2B1D3891905E8131E62FB850438CD3C07FBEA8916196F6E960B4EB13046 SWAP11 SWAP9 SWAP6 PUSH1 0x8 SWAP6 PUSH2 0x100 SWAP6 PUSH1 0x40 SWAP13 SWAP10 PUSH1 0x1F NOT DUP2 AND LT PUSH2 0x3B29 JUMPI JUMPDEST POP POP POP DUP2 SHL ADD DUP5 SSTORE PUSH2 0x3A4C JUMP JUMPDEST ADD MLOAD PUSH1 0x0 NOT PUSH1 0xF8 DUP5 PUSH1 0x3 SHL AND SHR NOT AND SWAP1 SSTORE DUP13 DUP1 DUP1 PUSH2 0x3B1C JUMP JUMPDEST SWAP2 SWAP3 PUSH1 0x20 PUSH1 0x1 DUP2 SWAP3 DUP7 DUP6 ADD MLOAD DUP2 SSTORE ADD SWAP5 ADD SWAP3 ADD PUSH2 0x3ACF JUMP JUMPDEST PUSH1 0x84 SWAP1 PUSH1 0x29 PUSH1 0xF8 SHL PUSH1 0x40 MLOAD SWAP2 PUSH3 0x461BCD PUSH1 0xE5 SHL DUP4 MSTORE PUSH1 0x20 PUSH1 0x4 DUP5 ADD MSTORE PUSH1 0x21 PUSH1 0x24 DUP5 ADD MSTORE PUSH32 0x4F76657274696D652072617465206D757374206265203E3D2031303020283178 PUSH1 0x44 DUP5 ADD MSTORE DUP3 ADD MSTORE REVERT JUMPDEST PUSH1 0x40 MLOAD PUSH3 0x461BCD PUSH1 0xE5 SHL DUP2 MSTORE PUSH1 0x20 PUSH1 0x4 DUP3 ADD MSTORE PUSH1 0x17 PUSH1 0x24 DUP3 ADD MSTORE PUSH32 0x5461782072617465206D757374206265203C3D20313030000000000000000000 PUSH1 0x44 DUP3 ADD MSTORE REVERT JUMPDEST PUSH1 0x40 MLOAD PUSH3 0x461BCD PUSH1 0xE5 SHL DUP2 MSTORE PUSH1 0x20 PUSH1 0x4 DUP3 ADD MSTORE PUSH1 0x18 PUSH1 0x24 DUP3 ADD MSTORE PUSH32 0x4B504920626F6E7573206D757374206265203C3D203130300000000000000000 PUSH1 0x44 DUP3 ADD MSTORE REVERT JUMPDEST PUSH1 0x40 MLOAD PUSH3 0x461BCD PUSH1 0xE5 SHL DUP2 MSTORE PUSH1 0x20 PUSH1 0x4 DUP3 ADD MSTORE PUSH1 0x1C PUSH1 0x24 DUP3 ADD MSTORE PUSH32 0x456D706C6F796565204449442063616E6E6F7420626520656D70747900000000 PUSH1 0x44 DUP3 ADD MSTORE PUSH1 0x64 SWAP1 REVERT JUMPDEST POP CALLER PUSH1 0x0 SWAP1 DUP2 MSTORE PUSH1 0x0 DUP1 MLOAD PUSH1 0x20 PUSH2 0x500B DUP4 CODECOPY DUP2 MLOAD SWAP2 MSTORE PUSH1 0x20 MSTORE PUSH1 0x40 SWAP1 KECCAK256 SLOAD PUSH1 0xFF AND PUSH2 0x393E JUMP JUMPDEST CALLVALUE PUSH2 0x2F0 JUMPI PUSH1 0x20 DUP1 PUSH1 0x3 NOT CALLDATASIZE ADD SLT PUSH2 0x2F0 JUMPI PUSH2 0x3CB1 PUSH2 0x4198 JUMP JUMPDEST PUSH1 0x0 DUP1 MLOAD PUSH1 0x20 PUSH2 0x504B DUP4 CODECOPY DUP2 MLOAD SWAP2 MSTORE PUSH1 0x0 MSTORE PUSH1 0x1 DUP1 DUP4 MSTORE PUSH1 0x40 PUSH1 0x0 KECCAK256 CALLER PUSH1 0x0 MSTORE DUP4 MSTORE PUSH2 0x3CE4 PUSH1 0xFF PUSH1 0x40 PUSH1 0x0 KECCAK256 SLOAD AND PUSH2 0x478F JUMP JUMPDEST PUSH1 0x0 DUP1 MLOAD PUSH1 0x20 PUSH2 0x502B DUP4 CODECOPY DUP2 MLOAD SWAP2 MSTORE SWAP3 DUP4 PUSH1 0x0 MSTORE DUP2 DUP2 MSTORE PUSH2 0x96E DUP3 PUSH1 0x40 PUSH1 0x0 KECCAK256 ADD SLOAD PUSH2 0x437B JUMP JUMPDEST CALLVALUE PUSH2 0x2F0 JUMPI PUSH1 0x20 CALLDATASIZE PUSH1 0x3 NOT ADD SLT PUSH2 0x2F0 JUMPI PUSH1 0x4 CALLDATALOAD PUSH2 0x3D27 PUSH2 0x46F0 JUMP JUMPDEST PUSH2 0x3D2F PUSH2 0x4F21 JUMP JUMPDEST PUSH2 0x3D56 DUP2 PUSH1 0x13 SLOAD PUSH2 0x3D42 DUP2 DUP4 GT ISZERO PUSH2 0x4E79 JUMP JUMPDEST PUSH2 0x3D4E DUP3 PUSH1 0x12 SLOAD PUSH2 0x4771 JUMP JUMPDEST PUSH1 0x12 SSTORE PUSH2 0x4A90 JUMP JUMPDEST PUSH1 0x13 SSTORE PUSH1 0x5 SLOAD PUSH1 0x1 PUSH1 0x1 PUSH1 0xA0 SHL SUB SWAP1 DUP2 AND ISZERO PUSH2 0x3E14 JUMPI PUSH1 0x5 SLOAD PUSH1 0x0 DUP1 SLOAD PUSH1 0x40 MLOAD PUSH4 0xA9059CBB PUSH1 0xE0 SHL DUP2 MSTORE SWAP1 DUP5 AND PUSH1 0x1 PUSH1 0x1 PUSH1 0xA0 SHL SUB AND PUSH1 0x4 DUP3 ADD MSTORE PUSH1 0x24 DUP2 ADD DUP6 SWAP1 MSTORE SWAP3 SWAP2 PUSH1 0x20 SWAP2 DUP5 SWAP2 PUSH1 0x44 SWAP2 DUP4 SWAP2 DUP7 AND GAS CALL SWAP1 DUP2 ISZERO PUSH2 0x12FE JUMPI PUSH2 0x3DE4 PUSH1 0x20 SWAP3 PUSH32 0xEAFF4B37086828766AD3268786972C0CD24259D4C87A80F9D3963A3C3D999B0D SWAP5 PUSH1 0x0 SWAP2 PUSH2 0x3DF7 JUMPI POP PUSH2 0x4EDD JUMP JUMPDEST PUSH1 0x0 SLOAD AND SWAP3 PUSH1 0x40 MLOAD SWAP1 DUP2 MSTORE LOG2 PUSH1 0x1 PUSH1 0x2 SSTORE STOP JUMPDEST PUSH2 0x3E0E SWAP2 POP DUP5 RETURNDATASIZE DUP2 GT PUSH2 0x214A JUMPI PUSH2 0x213C DUP2 DUP4 PUSH2 0x4093 JUMP JUMPDEST DUP7 PUSH2 0x1C3D JUMP JUMPDEST PUSH1 0x0 DUP1 DUP1 DUP1 DUP6 DUP6 DUP3 SLOAD AND DUP3 DUP3 ISZERO PUSH2 0x3E55 JUMPI JUMPDEST CALL ISZERO PUSH2 0x12FE JUMPI PUSH1 0x20 PUSH32 0xEAFF4B37086828766AD3268786972C0CD24259D4C87A80F9D3963A3C3D999B0D SWAP2 PUSH2 0x3DE4 JUMP JUMPDEST POP PUSH2 0x8FC PUSH2 0x3E26 JUMP JUMPDEST CALLVALUE PUSH2 0x2F0 JUMPI PUSH1 0x40 CALLDATASIZE PUSH1 0x3 NOT ADD SLT PUSH2 0x2F0 JUMPI CALLER PUSH1 0x0 SWAP1 DUP2 MSTORE PUSH1 0x0 DUP1 MLOAD PUSH1 0x20 PUSH2 0x500B DUP4 CODECOPY DUP2 MLOAD SWAP2 MSTORE PUSH1 0x20 MSTORE PUSH1 0x40 SWAP1 KECCAK256 SLOAD PUSH1 0x4 CALLDATALOAD SWAP1 PUSH1 0x24 CALLDATALOAD SWAP1 PUSH2 0x3EA0 SWAP1 PUSH1 0xFF AND PUSH2 0x478F JUMP JUMPDEST DUP2 ISZERO PUSH2 0x3F36 JUMPI DUP1 ISZERO PUSH2 0x3EE6 JUMPI DUP2 PUSH1 0x40 SWAP2 PUSH32 0x599D9B7A01A6CF80E498B224FBF50AC4D5EC5BC0305A17D60E13DBA94EAE1617 SWAP4 PUSH1 0x8 SSTORE DUP1 PUSH1 0x9 SSTORE DUP3 MLOAD SWAP2 DUP3 MSTORE PUSH1 0x20 DUP3 ADD MSTORE LOG1 STOP JUMPDEST PUSH1 0x40 MLOAD PUSH3 0x461BCD PUSH1 0xE5 SHL DUP2 MSTORE PUSH1 0x20 PUSH1 0x4 DUP3 ADD MSTORE PUSH1 0x22 PUSH1 0x24 DUP3 ADD MSTORE PUSH32 0x5374616E6461726420776F726B696E6720686F757273206D757374206265203E PUSH1 0x44 DUP3 ADD MSTORE PUSH2 0x203 PUSH1 0xF4 SHL PUSH1 0x64 DUP3 ADD MSTORE PUSH1 0x84 SWAP1 REVERT JUMPDEST PUSH1 0x40 MLOAD PUSH3 0x461BCD PUSH1 0xE5 SHL DUP2 MSTORE PUSH1 0x20 PUSH1 0x4 DUP3 ADD MSTORE PUSH1 0x21 PUSH1 0x24 DUP3 ADD MSTORE PUSH32 0x5374616E6461726420776F726B696E672064617973206D757374206265203E20 PUSH1 0x44 DUP3 ADD MSTORE PUSH1 0x3 PUSH1 0xFC SHL PUSH1 0x64 DUP3 ADD MSTORE PUSH1 0x84 SWAP1 REVERT JUMPDEST CALLVALUE PUSH2 0x2F0 JUMPI PUSH1 0x20 PUSH2 0x3F98 PUSH2 0x297D CALLDATASIZE PUSH2 0x4116 JUMP JUMPDEST DUP2 ADD PUSH1 0xE DUP2 MSTORE SUB ADD SWAP1 KECCAK256 DUP1 SLOAD DUP3 LT ISZERO PUSH2 0x2F0 JUMPI PUSH1 0x20 SWAP2 PUSH2 0x29B1 SWAP2 PUSH2 0x416A JUMP JUMPDEST CALLVALUE PUSH2 0x2F0 JUMPI PUSH1 0x20 CALLDATASIZE PUSH1 0x3 NOT ADD SLT PUSH2 0x2F0 JUMPI PUSH1 0x4 CALLDATALOAD SWAP1 PUSH4 0xFFFFFFFF PUSH1 0xE0 SHL DUP3 AND DUP1 SWAP3 SUB PUSH2 0x2F0 JUMPI PUSH1 0x20 SWAP2 PUSH4 0x7965DB0B PUSH1 0xE0 SHL DUP2 EQ SWAP1 DUP2 ISZERO PUSH2 0x3FF9 JUMPI JUMPDEST POP ISZERO ISZERO DUP2 MSTORE RETURN JUMPDEST PUSH4 0x1FFC9A7 PUSH1 0xE0 SHL EQ SWAP1 POP DUP4 PUSH2 0x3FF2 JUMP JUMPDEST PUSH2 0x120 DUP2 ADD SWAP1 DUP2 LT PUSH1 0x1 PUSH1 0x1 PUSH1 0x40 SHL SUB DUP3 GT OR PUSH2 0x1125 JUMPI PUSH1 0x40 MSTORE JUMP JUMPDEST PUSH1 0xE0 DUP2 ADD SWAP1 DUP2 LT PUSH1 0x1 PUSH1 0x1 PUSH1 0x40 SHL SUB DUP3 GT OR PUSH2 0x1125 JUMPI PUSH1 0x40 MSTORE JUMP JUMPDEST PUSH2 0x260 DUP2 ADD SWAP1 DUP2 LT PUSH1 0x1 PUSH1 0x1 PUSH1 0x40 SHL SUB DUP3 GT OR PUSH2 0x1125 JUMPI PUSH1 0x40 MSTORE JUMP JUMPDEST PUSH1 0x60 DUP2 ADD SWAP1 DUP2 LT PUSH1 0x1 PUSH1 0x1 PUSH1 0x40 SHL SUB DUP3 GT OR PUSH2 0x1125 JUMPI PUSH1 0x40 MSTORE JUMP JUMPDEST PUSH1 0x40 DUP2 ADD SWAP1 DUP2 LT PUSH1 0x1 PUSH1 0x1 PUSH1 0x40 SHL SUB DUP3 GT OR PUSH2 0x1125 JUMPI PUSH1 0x40 MSTORE JUMP JUMPDEST SWAP1 PUSH1 0x1F DUP1 NOT SWAP2 ADD AND DUP2 ADD SWAP1 DUP2 LT PUSH1 0x1 PUSH1 0x1 PUSH1 0x40 SHL SUB DUP3 GT OR PUSH2 0x1125 JUMPI PUSH1 0x40 MSTORE JUMP JUMPDEST PUSH1 0x1 PUSH1 0x1 PUSH1 0x40 SHL SUB DUP2 GT PUSH2 0x1125 JUMPI PUSH1 0x1F ADD PUSH1 0x1F NOT AND PUSH1 0x20 ADD SWAP1 JUMP JUMPDEST DUP2 PUSH1 0x1F DUP3 ADD SLT ISZERO PUSH2 0x2F0 JUMPI DUP1 CALLDATALOAD SWAP1 PUSH2 0x40E6 DUP3 PUSH2 0x40B4 JUMP JUMPDEST SWAP3 PUSH2 0x40F4 PUSH1 0x40 MLOAD SWAP5 DUP6 PUSH2 0x4093 JUMP JUMPDEST DUP3 DUP5 MSTORE PUSH1 0x20 DUP4 DUP4 ADD ADD GT PUSH2 0x2F0 JUMPI DUP2 PUSH1 0x0 SWAP3 PUSH1 0x20 DUP1 SWAP4 ADD DUP4 DUP7 ADD CALLDATACOPY DUP4 ADD ADD MSTORE SWAP1 JUMP JUMPDEST PUSH1 0x40 PUSH1 0x3 NOT DUP3 ADD SLT PUSH2 0x2F0 JUMPI PUSH1 0x4 CALLDATALOAD SWAP1 PUSH1 0x1 PUSH1 0x1 PUSH1 0x40 SHL SUB DUP3 GT PUSH2 0x2F0 JUMPI PUSH2 0x4140 SWAP2 PUSH1 0x4 ADD PUSH2 0x40CF JUMP JUMPDEST SWAP1 PUSH1 0x24 CALLDATALOAD SWAP1 JUMP JUMPDEST PUSH1 0x0 JUMPDEST DUP4 DUP2 LT PUSH2 0x415A JUMPI POP POP PUSH1 0x0 SWAP2 ADD MSTORE JUMP JUMPDEST DUP2 DUP2 ADD MLOAD DUP4 DUP3 ADD MSTORE PUSH1 0x20 ADD PUSH2 0x414A JUMP JUMPDEST DUP1 SLOAD DUP3 LT ISZERO PUSH2 0x4182 JUMPI PUSH1 0x0 MSTORE PUSH1 0x20 PUSH1 0x0 KECCAK256 ADD SWAP1 PUSH1 0x0 SWAP1 JUMP JUMPDEST PUSH4 0x4E487B71 PUSH1 0xE0 SHL PUSH1 0x0 MSTORE PUSH1 0x32 PUSH1 0x4 MSTORE PUSH1 0x24 PUSH1 0x0 REVERT JUMPDEST PUSH1 0x4 CALLDATALOAD SWAP1 PUSH1 0x1 PUSH1 0x1 PUSH1 0xA0 SHL SUB DUP3 AND DUP3 SUB PUSH2 0x2F0 JUMPI JUMP JUMPDEST PUSH1 0x24 CALLDATALOAD SWAP1 PUSH1 0x1 PUSH1 0x1 PUSH1 0xA0 SHL SUB DUP3 AND DUP3 SUB PUSH2 0x2F0 JUMPI JUMP JUMPDEST PUSH1 0xC0 PUSH1 0x3 NOT DUP3 ADD SLT PUSH2 0x2F0 JUMPI PUSH1 0x4 CALLDATALOAD SWAP1 PUSH1 0x1 PUSH1 0x1 PUSH1 0x40 SHL SUB DUP3 GT PUSH2 0x2F0 JUMPI PUSH2 0x41EE SWAP2 PUSH1 0x4 ADD PUSH2 0x40CF JUMP JUMPDEST SWAP1 PUSH1 0x24 CALLDATALOAD SWAP1 PUSH1 0x44 CALLDATALOAD SWAP1 PUSH1 0x64 CALLDATALOAD SWAP1 PUSH1 0x84 CALLDATALOAD SWAP1 PUSH1 0xA4 CALLDATALOAD SWAP1 JUMP JUMPDEST PUSH1 0x20 SWAP1 DUP2 PUSH1 0x40 DUP2 DUP4 ADD SWAP3 DUP3 DUP2 MSTORE DUP6 MLOAD DUP1 SWAP5 MSTORE ADD SWAP4 ADD SWAP2 PUSH1 0x0 JUMPDEST DUP3 DUP2 LT PUSH2 0x422C JUMPI POP POP POP POP SWAP1 JUMP JUMPDEST DUP4 MLOAD DUP6 MSTORE SWAP4 DUP2 ADD SWAP4 SWAP3 DUP2 ADD SWAP3 PUSH1 0x1 ADD PUSH2 0x421E JUMP JUMPDEST SWAP1 PUSH1 0x20 SWAP2 PUSH2 0x4259 DUP2 MLOAD DUP1 SWAP3 DUP2 DUP6 MSTORE DUP6 DUP1 DUP7 ADD SWAP2 ADD PUSH2 0x4147 JUMP JUMPDEST PUSH1 0x1F ADD PUSH1 0x1F NOT AND ADD ADD SWAP1 JUMP JUMPDEST SWAP1 PUSH1 0x1 DUP3 DUP2 SHR SWAP3 AND DUP1 ISZERO PUSH2 0x4295 JUMPI JUMPDEST PUSH1 0x20 DUP4 LT EQ PUSH2 0x427F JUMPI JUMP JUMPDEST PUSH4 0x4E487B71 PUSH1 0xE0 SHL PUSH1 0x0 MSTORE PUSH1 0x22 PUSH1 0x4 MSTORE PUSH1 0x24 PUSH1 0x0 REVERT JUMPDEST SWAP2 PUSH1 0x7F AND SWAP2 PUSH2 0x4274 JUMP JUMPDEST SWAP1 PUSH1 0x0 SWAP3 SWAP2 DUP1 SLOAD SWAP2 PUSH2 0x42B0 DUP4 PUSH2 0x4265 JUMP JUMPDEST SWAP2 DUP3 DUP3 MSTORE PUSH1 0x1 SWAP4 DUP5 DUP2 AND SWAP1 DUP2 PUSH1 0x0 EQ PUSH2 0x4312 JUMPI POP PUSH1 0x1 EQ PUSH2 0x42D2 JUMPI JUMPDEST POP POP POP POP JUMP JUMPDEST SWAP1 SWAP2 SWAP4 SWAP5 POP PUSH1 0x0 MSTORE PUSH1 0x20 SWAP3 DUP4 PUSH1 0x0 KECCAK256 SWAP3 DUP5 PUSH1 0x0 SWAP5 JUMPDEST DUP4 DUP7 LT PUSH2 0x42FE JUMPI POP POP POP POP ADD ADD SWAP1 CODESIZE DUP1 DUP1 DUP1 PUSH2 0x42CC JUMP JUMPDEST DUP1 SLOAD DUP6 DUP8 ADD DUP4 ADD MSTORE SWAP5 ADD SWAP4 DUP6 SWAP1 DUP3 ADD PUSH2 0x42E7 JUMP JUMPDEST SWAP3 SWAP5 POP POP POP PUSH1 0x20 SWAP4 SWAP5 POP PUSH1 0xFF NOT AND DUP4 DUP4 ADD MSTORE ISZERO ISZERO PUSH1 0x5 SHL ADD ADD SWAP1 CODESIZE DUP1 DUP1 DUP1 PUSH2 0x42CC JUMP JUMPDEST SWAP1 PUSH1 0x40 PUSH1 0x3 NOT DUP4 ADD SLT PUSH2 0x2F0 JUMPI PUSH1 0x1 PUSH1 0x1 PUSH1 0x40 SHL SUB PUSH1 0x4 CALLDATALOAD DUP2 DUP2 GT PUSH2 0x2F0 JUMPI DUP4 PUSH2 0x4361 SWAP2 PUSH1 0x4 ADD PUSH2 0x40CF JUMP JUMPDEST SWAP3 PUSH1 0x24 CALLDATALOAD SWAP2 DUP3 GT PUSH2 0x2F0 JUMPI PUSH2 0x4378 SWAP2 PUSH1 0x4 ADD PUSH2 0x40CF JUMP JUMPDEST SWAP1 JUMP JUMPDEST PUSH1 0x0 DUP2 DUP2 MSTORE PUSH1 0x1 SWAP2 PUSH1 0x20 SWAP2 DUP4 DUP4 MSTORE PUSH1 0x40 SWAP4 DUP5 DUP3 KECCAK256 CALLER DUP4 MSTORE DUP5 MSTORE PUSH1 0xFF DUP6 DUP4 KECCAK256 SLOAD AND ISZERO PUSH2 0x43A7 JUMPI POP POP POP POP POP JUMP JUMPDEST CALLER DUP6 MLOAD SWAP4 PUSH2 0x43B4 DUP6 PUSH2 0x405D JUMP JUMPDEST PUSH1 0x2A DUP6 MSTORE DUP6 DUP6 ADD SWAP2 DUP8 CALLDATASIZE DUP5 CALLDATACOPY DUP6 MLOAD ISZERO PUSH2 0x4666 JUMPI PUSH1 0x30 DUP4 MSTORE8 DUP6 MLOAD DUP5 LT ISZERO PUSH2 0x4666 JUMPI PUSH1 0x78 PUSH1 0x21 DUP8 ADD MSTORE8 PUSH1 0x29 JUMPDEST DUP5 DUP2 GT PUSH2 0x45FC JUMPI POP PUSH2 0x45BA JUMPI DUP7 MLOAD SWAP3 PUSH1 0x80 DUP5 ADD DUP5 DUP2 LT PUSH1 0x1 PUSH1 0x1 PUSH1 0x40 SHL SUB DUP3 GT OR PUSH2 0x45A6 JUMPI DUP9 MSTORE PUSH1 0x42 DUP5 MSTORE DUP7 DUP5 ADD SWAP5 PUSH1 0x60 CALLDATASIZE DUP8 CALLDATACOPY DUP5 MLOAD ISZERO PUSH2 0x4592 JUMPI PUSH1 0x30 DUP7 MSTORE8 DUP5 MLOAD DUP3 LT ISZERO PUSH2 0x4592 JUMPI SWAP1 PUSH1 0x78 PUSH1 0x21 DUP7 ADD MSTORE8 PUSH1 0x41 SWAP2 JUMPDEST DUP2 DUP4 GT PUSH2 0x4524 JUMPI POP POP POP PUSH2 0x44E2 JUMPI PUSH2 0x44DE SWAP4 DUP7 SWAP4 PUSH2 0x44C2 SWAP4 PUSH2 0x44B3 PUSH1 0x48 SWAP5 PUSH2 0x448A SWAP11 MLOAD SWAP11 DUP12 SWAP6 PUSH32 0x416363657373436F6E74726F6C3A206163636F756E7420000000000000000000 DUP13 DUP9 ADD MSTORE MLOAD DUP1 SWAP3 PUSH1 0x37 DUP9 ADD SWAP1 PUSH2 0x4147 JUMP JUMPDEST DUP5 ADD SWAP2 PUSH17 0x1034B99036B4B9B9B4B733903937B6329 PUSH1 0x7D SHL PUSH1 0x37 DUP5 ADD MSTORE MLOAD DUP1 SWAP4 DUP7 DUP5 ADD SWAP1 PUSH2 0x4147 JUMP JUMPDEST ADD SUB PUSH1 0x28 DUP2 ADD DUP8 MSTORE ADD DUP6 PUSH2 0x4093 JUMP JUMPDEST MLOAD SWAP3 DUP4 SWAP3 PUSH3 0x461BCD PUSH1 0xE5 SHL DUP5 MSTORE PUSH1 0x4 DUP5 ADD MSTORE PUSH1 0x24 DUP4 ADD SWAP1 PUSH2 0x4240 JUMP JUMPDEST SUB SWAP1 REVERT JUMPDEST PUSH1 0x64 DUP6 DUP8 MLOAD SWAP1 PUSH3 0x461BCD PUSH1 0xE5 SHL DUP3 MSTORE DUP1 PUSH1 0x4 DUP4 ADD MSTORE PUSH1 0x24 DUP3 ADD MSTORE PUSH32 0x537472696E67733A20686578206C656E67746820696E73756666696369656E74 PUSH1 0x44 DUP3 ADD MSTORE REVERT JUMPDEST SWAP1 SWAP2 SWAP3 PUSH1 0xF DUP2 AND PUSH1 0x10 DUP2 LT ISZERO PUSH2 0x457E JUMPI PUSH16 0x181899199A1A9B1B9C1CB0B131B232B3 PUSH1 0x81 SHL SWAP1 BYTE PUSH2 0x4554 DUP6 DUP9 PUSH2 0x477E JUMP JUMPDEST MSTORE8 PUSH1 0x4 SHR SWAP3 DUP1 ISZERO PUSH2 0x456A JUMPI PUSH1 0x0 NOT ADD SWAP2 SWAP1 PUSH2 0x4432 JUMP JUMPDEST PUSH4 0x4E487B71 PUSH1 0xE0 SHL DUP3 MSTORE PUSH1 0x11 PUSH1 0x4 MSTORE PUSH1 0x24 DUP3 REVERT JUMPDEST PUSH4 0x4E487B71 PUSH1 0xE0 SHL DUP4 MSTORE PUSH1 0x32 PUSH1 0x4 MSTORE PUSH1 0x24 DUP4 REVERT JUMPDEST PUSH4 0x4E487B71 PUSH1 0xE0 SHL DUP2 MSTORE PUSH1 0x32 PUSH1 0x4 MSTORE PUSH1 0x24 SWAP1 REVERT JUMPDEST PUSH4 0x4E487B71 PUSH1 0xE0 SHL DUP7 MSTORE PUSH1 0x41 PUSH1 0x4 MSTORE PUSH1 0x24 DUP7 REVERT JUMPDEST PUSH1 0x64 DUP7 DUP9 MLOAD SWAP1 PUSH3 0x461BCD PUSH1 0xE5 SHL DUP3 MSTORE DUP1 PUSH1 0x4 DUP4 ADD MSTORE PUSH1 0x24 DUP3 ADD MSTORE PUSH32 0x537472696E67733A20686578206C656E67746820696E73756666696369656E74 PUSH1 0x44 DUP3 ADD MSTORE REVERT JUMPDEST SWAP1 PUSH1 0xF DUP2 AND PUSH1 0x10 DUP2 LT ISZERO PUSH2 0x4652 JUMPI PUSH16 0x181899199A1A9B1B9C1CB0B131B232B3 PUSH1 0x81 SHL SWAP1 BYTE PUSH2 0x462A DUP4 DUP10 PUSH2 0x477E JUMP JUMPDEST MSTORE8 PUSH1 0x4 SHR SWAP1 DUP1 ISZERO PUSH2 0x463E JUMPI PUSH1 0x0 NOT ADD PUSH2 0x43DE JUMP JUMPDEST PUSH4 0x4E487B71 PUSH1 0xE0 SHL DUP7 MSTORE PUSH1 0x11 PUSH1 0x4 MSTORE PUSH1 0x24 DUP7 REVERT JUMPDEST PUSH4 0x4E487B71 PUSH1 0xE0 SHL DUP8 MSTORE PUSH1 0x32 PUSH1 0x4 MSTORE PUSH1 0x24 DUP8 REVERT JUMPDEST PUSH4 0x4E487B71 PUSH1 0xE0 SHL DUP6 MSTORE PUSH1 0x32 PUSH1 0x4 MSTORE PUSH1 0x24 DUP6 REVERT JUMPDEST SWAP1 PUSH1 0x0 SWAP2 DUP1 DUP4 MSTORE PUSH1 0x1 PUSH1 0x20 MSTORE PUSH1 0x40 DUP4 KECCAK256 SWAP2 PUSH1 0x1 DUP1 PUSH1 0xA0 SHL SUB AND SWAP2 DUP3 DUP5 MSTORE PUSH1 0x20 MSTORE PUSH1 0xFF PUSH1 0x40 DUP5 KECCAK256 SLOAD AND PUSH2 0x46AB JUMPI POP POP POP JUMP JUMPDEST DUP1 DUP4 MSTORE PUSH1 0x1 PUSH1 0x20 MSTORE PUSH1 0x40 DUP4 KECCAK256 DUP3 DUP5 MSTORE PUSH1 0x20 MSTORE PUSH1 0x40 DUP4 KECCAK256 PUSH1 0xFF NOT DUP2 SLOAD AND SWAP1 SSTORE PUSH32 0xF6391F5C32D9C69D2A47EA670B442974B53935D1EDC7FD64EB21E047A839171B CALLER SWAP4 DUP1 LOG4 JUMP JUMPDEST PUSH1 0x0 SLOAD PUSH1 0x1 PUSH1 0x1 PUSH1 0xA0 SHL SUB AND CALLER SUB PUSH2 0x4704 JUMPI JUMP JUMPDEST PUSH1 0x64 PUSH1 0x40 MLOAD PUSH3 0x461BCD PUSH1 0xE5 SHL DUP2 MSTORE PUSH1 0x20 PUSH1 0x4 DUP3 ADD MSTORE PUSH1 0x20 PUSH1 0x24 DUP3 ADD MSTORE PUSH32 0x4F776E61626C653A2063616C6C6572206973206E6F7420746865206F776E6572 PUSH1 0x44 DUP3 ADD MSTORE REVERT JUMPDEST DUP2 DUP2 MUL SWAP3 SWAP2 DUP2 ISZERO SWAP2 DUP5 DIV EQ OR ISZERO PUSH2 0x475B JUMPI JUMP JUMPDEST PUSH4 0x4E487B71 PUSH1 0xE0 SHL PUSH1 0x0 MSTORE PUSH1 0x11 PUSH1 0x4 MSTORE PUSH1 0x24 PUSH1 0x0 REVERT JUMPDEST SWAP2 SWAP1 DUP3 ADD DUP1 SWAP3 GT PUSH2 0x475B JUMPI JUMP JUMPDEST SWAP1 DUP2 MLOAD DUP2 LT ISZERO PUSH2 0x4182 JUMPI ADD PUSH1 0x20 ADD SWAP1 JUMP JUMPDEST ISZERO PUSH2 0x4796 JUMPI JUMP JUMPDEST PUSH1 0x40 MLOAD PUSH3 0x461BCD PUSH1 0xE5 SHL DUP2 MSTORE PUSH1 0x20 PUSH1 0x4 DUP3 ADD MSTORE PUSH1 0x22 PUSH1 0x24 DUP3 ADD MSTORE PUSH32 0x4F6E6C792061646D696E2063616E20706572666F726D20746869732061637469 PUSH1 0x44 DUP3 ADD MSTORE PUSH2 0x37B7 PUSH1 0xF1 SHL PUSH1 0x64 DUP3 ADD MSTORE PUSH1 0x84 SWAP1 REVERT JUMPDEST ISZERO PUSH2 0x47ED JUMPI JUMP JUMPDEST PUSH1 0x40 MLOAD PUSH3 0x461BCD PUSH1 0xE5 SHL DUP2 MSTORE PUSH1 0x20 PUSH1 0x4 DUP3 ADD MSTORE PUSH1 0x28 PUSH1 0x24 DUP3 ADD MSTORE PUSH32 0x4F6E6C79204852206F722061646D696E2063616E20706572666F726D20746869 PUSH1 0x44 DUP3 ADD MSTORE PUSH8 0x399030B1BA34B7B7 PUSH1 0xC1 SHL PUSH1 0x64 DUP3 ADD MSTORE PUSH1 0x84 SWAP1 REVERT JUMPDEST DUP2 DUP2 LT PUSH2 0x484E JUMPI POP POP JUMP JUMPDEST PUSH1 0x0 DUP2 SSTORE PUSH1 0x1 ADD PUSH2 0x4843 JUMP JUMPDEST SWAP1 PUSH1 0x1F DUP2 GT PUSH2 0x4867 JUMPI POP POP JUMP JUMPDEST PUSH2 0x4882 SWAP2 PUSH1 0x0 MSTORE PUSH1 0x1F PUSH1 0x20 PUSH1 0x0 KECCAK256 SWAP2 ADD PUSH1 0x5 SHR DUP2 ADD SWAP1 PUSH2 0x4843 JUMP JUMPDEST JUMP JUMPDEST SWAP2 SWAP1 PUSH1 0x1F DUP2 GT PUSH2 0x4893 JUMPI POP POP POP JUMP JUMPDEST PUSH2 0x4882 SWAP3 PUSH1 0x0 MSTORE PUSH1 0x20 PUSH1 0x0 KECCAK256 SWAP1 PUSH1 0x20 PUSH1 0x1F DUP5 ADD PUSH1 0x5 SHR DUP4 ADD SWAP4 LT PUSH2 0x48BF JUMPI JUMPDEST PUSH1 0x1F ADD PUSH1 0x5 SHR ADD SWAP1 PUSH2 0x4843 JUMP JUMPDEST SWAP1 SWAP2 POP DUP2 SWAP1 PUSH2 0x48B2 JUMP JUMPDEST PUSH2 0x48E1 SWAP1 PUSH1 0x20 PUSH1 0x40 MLOAD SWAP3 DUP3 DUP5 DUP1 SWAP5 MLOAD SWAP4 DUP5 SWAP3 ADD PUSH2 0x4147 JUMP JUMPDEST DUP2 ADD SUB SWAP1 KECCAK256 SWAP1 JUMP JUMPDEST ISZERO PUSH2 0x48F0 JUMPI JUMP JUMPDEST PUSH1 0x40 MLOAD PUSH3 0x461BCD PUSH1 0xE5 SHL DUP2 MSTORE PUSH1 0x20 PUSH1 0x4 DUP3 ADD MSTORE PUSH1 0x1A PUSH1 0x24 DUP3 ADD MSTORE PUSH32 0x456D706C6F7965652073616C617279206E6F7420616374697665000000000000 PUSH1 0x44 DUP3 ADD MSTORE PUSH1 0x64 SWAP1 REVERT JUMPDEST SWAP1 SWAP2 PUSH1 0x60 DUP3 DUP5 SUB SLT PUSH2 0x2F0 JUMPI DUP2 MLOAD SWAP3 PUSH1 0x20 DUP4 ADD MLOAD SWAP3 PUSH1 0x40 DUP2 ADD MLOAD SWAP1 PUSH1 0x1 PUSH1 0x1 PUSH1 0x40 SHL SUB DUP3 GT PUSH2 0x2F0 JUMPI ADD DUP2 PUSH1 0x1F DUP3 ADD SLT ISZERO PUSH2 0x2F0 JUMPI DUP1 MLOAD PUSH2 0x4975 DUP2 PUSH2 0x40B4 JUMP JUMPDEST SWAP3 PUSH2 0x4983 PUSH1 0x40 MLOAD SWAP5 DUP6 PUSH2 0x4093 JUMP JUMPDEST DUP2 DUP5 MSTORE PUSH1 0x20 DUP3 DUP5 ADD ADD GT PUSH2 0x2F0 JUMPI PUSH2 0x4378 SWAP2 PUSH1 0x20 DUP1 DUP6 ADD SWAP2 ADD PUSH2 0x4147 JUMP JUMPDEST SWAP1 SWAP2 PUSH2 0x49B8 PUSH2 0x4378 SWAP4 PUSH1 0x40 DUP5 MSTORE PUSH1 0x40 DUP5 ADD SWAP1 PUSH2 0x4240 JUMP JUMPDEST SWAP2 PUSH1 0x20 DUP2 DUP5 SUB SWAP2 ADD MSTORE PUSH2 0x4240 JUMP JUMPDEST DUP2 ISZERO PUSH2 0x49D0 JUMPI DIV SWAP1 JUMP JUMPDEST PUSH4 0x4E487B71 PUSH1 0xE0 SHL PUSH1 0x0 MSTORE PUSH1 0x12 PUSH1 0x4 MSTORE PUSH1 0x24 PUSH1 0x0 REVERT JUMPDEST PUSH1 0x40 MLOAD SWAP1 PUSH2 0x49F3 DUP3 PUSH2 0x4078 JUMP JUMPDEST PUSH1 0x7 DUP3 MSTORE PUSH7 0x50656E64696E67 PUSH1 0xC8 SHL PUSH1 0x20 DUP4 ADD MSTORE JUMP JUMPDEST DUP1 SLOAD PUSH9 0x10000000000000000 DUP2 LT ISZERO PUSH2 0x1125 JUMPI PUSH2 0x4A2B SWAP2 PUSH1 0x1 DUP3 ADD DUP2 SSTORE PUSH2 0x416A JUMP JUMPDEST DUP2 SWAP3 SWAP2 SLOAD SWAP1 PUSH1 0x3 SHL SWAP2 DUP3 SHL SWAP2 PUSH1 0x0 NOT SWAP1 SHL NOT AND OR SWAP1 SSTORE JUMP JUMPDEST SWAP4 SWAP3 SWAP2 PUSH2 0x4A6C SWAP1 PUSH2 0x4A5E PUSH1 0x40 SWAP4 PUSH1 0x60 DUP9 MSTORE PUSH1 0x60 DUP9 ADD SWAP1 PUSH2 0x4240 JUMP JUMPDEST SWAP1 DUP7 DUP3 SUB PUSH1 0x20 DUP9 ADD MSTORE PUSH2 0x4240 JUMP JUMPDEST SWAP4 ADD MSTORE JUMP JUMPDEST PUSH1 0x40 MLOAD SWAP1 PUSH2 0x4A7E DUP3 PUSH2 0x405D JUMP JUMPDEST PUSH1 0x0 PUSH1 0x40 DUP4 DUP3 DUP2 MSTORE DUP3 PUSH1 0x20 DUP3 ADD MSTORE ADD MSTORE JUMP JUMPDEST SWAP2 SWAP1 DUP3 SUB SWAP2 DUP3 GT PUSH2 0x475B JUMPI JUMP JUMPDEST SWAP2 SWAP3 SWAP1 SWAP3 PUSH2 0x4AA9 PUSH2 0x4A71 JUMP JUMPDEST POP PUSH1 0x40 MLOAD DUP4 MLOAD DUP2 SWAP1 PUSH2 0x4ABF DUP2 DUP4 PUSH1 0x20 DUP10 ADD PUSH2 0x4147 JUMP JUMPDEST DUP2 ADD PUSH1 0xB DUP2 MSTORE SUB PUSH1 0x20 ADD SWAP1 KECCAK256 SWAP3 PUSH1 0x40 MLOAD SWAP2 PUSH2 0x4AD9 DUP4 PUSH2 0x400A JUMP JUMPDEST PUSH1 0x40 MLOAD DUP1 PUSH2 0x4AE7 DUP2 DUP9 PUSH2 0x429F JUMP JUMPDEST SUB PUSH2 0x4AF2 SWAP1 DUP3 PUSH2 0x4093 JUMP JUMPDEST DUP4 MSTORE PUSH1 0x1 DUP6 ADD SLOAD SWAP5 PUSH1 0x20 DUP5 ADD SWAP6 DUP7 MSTORE PUSH1 0x2 DUP2 ADD SLOAD SWAP3 PUSH1 0x40 DUP6 ADD SWAP4 DUP5 MSTORE PUSH1 0x3 DUP3 ADD SLOAD SWAP8 PUSH1 0x60 DUP7 ADD SWAP9 DUP10 MSTORE PUSH1 0x4 DUP4 ADD SLOAD SWAP6 PUSH1 0x80 DUP2 ADD SWAP7 DUP8 MSTORE PUSH1 0x5 DUP5 ADD SLOAD SWAP4 PUSH1 0xA0 DUP3 ADD SWAP5 DUP6 MSTORE PUSH1 0x6 DUP2 ADD SLOAD PUSH1 0xFF AND ISZERO ISZERO PUSH1 0xC0 DUP4 ADD MSTORE PUSH1 0x7 DUP2 ADD SLOAD PUSH1 0xE0 DUP4 ADD MSTORE PUSH1 0x8 ADD SLOAD SWAP1 PUSH2 0x100 ADD MSTORE PUSH2 0x4B61 SWAP2 PUSH2 0x4C11 JUMP JUMPDEST SWAP2 DUP7 MLOAD PUSH1 0x8 SLOAD PUSH2 0x4B70 SWAP2 PUSH2 0x49C6 JUMP JUMPDEST DUP4 MLOAD PUSH2 0x4B7B SWAP2 PUSH2 0x4748 JUMP JUMPDEST SWAP4 DUP8 MLOAD SWAP1 MLOAD PUSH2 0x4B89 SWAP2 PUSH2 0x4748 JUMP JUMPDEST SWAP1 PUSH2 0x4B93 SWAP2 PUSH2 0x4748 JUMP JUMPDEST PUSH2 0x2710 SWAP1 DIV SWAP7 MLOAD SWAP6 PUSH1 0xA SLOAD PUSH1 0xC SWAP1 DIV SWAP1 MLOAD SWAP1 PUSH2 0x4BAE SWAP2 PUSH2 0x49C6 JUMP JUMPDEST PUSH1 0x40 DUP4 ADD MLOAD PUSH2 0x4BBC SWAP2 PUSH2 0x4748 JUMP JUMPDEST SWAP1 MLOAD PUSH2 0x4BC7 SWAP2 PUSH2 0x4748 JUMP JUMPDEST PUSH1 0x64 SWAP1 DIV SWAP4 DUP5 DUP7 PUSH2 0x4BD8 DUP10 DUP7 PUSH2 0x4771 JUMP JUMPDEST SWAP1 PUSH2 0x4BE2 SWAP2 PUSH2 0x4771 JUMP JUMPDEST SWAP1 PUSH2 0x4BEC SWAP2 PUSH2 0x4771 JUMP JUMPDEST SWAP4 MLOAD PUSH2 0x4BF8 SWAP1 DUP6 PUSH2 0x4748 JUMP JUMPDEST PUSH1 0x64 SWAP1 DIV SWAP4 DUP5 PUSH2 0x4C07 SWAP2 PUSH2 0x4A90 JUMP JUMPDEST SWAP3 SWAP7 SWAP6 SWAP5 SWAP4 SWAP3 SWAP2 SWAP1 JUMP JUMPDEST PUSH2 0x4C19 PUSH2 0x4A71 JUMP JUMPDEST POP PUSH1 0x7 SLOAD PUSH1 0x1 PUSH1 0x1 PUSH1 0xA0 SHL SUB AND SWAP2 DUP3 ISZERO PUSH2 0x4CC8 JUMPI PUSH1 0x40 MLOAD PUSH4 0x36F26829 PUSH1 0xE2 SHL DUP2 MSTORE SWAP3 PUSH1 0x60 SWAP3 DUP5 SWAP3 DUP4 SWAP2 DUP3 SWAP2 PUSH2 0x4C51 SWAP2 PUSH1 0x4 DUP5 ADD PUSH2 0x49A1 JUMP JUMPDEST SUB SWAP2 GAS STATICCALL DUP1 ISZERO PUSH2 0x12FE JUMPI PUSH1 0x0 SWAP2 DUP3 SWAP1 DUP4 SWAP3 PUSH2 0x4C84 JUMPI JUMPDEST POP PUSH1 0x40 MLOAD SWAP3 PUSH2 0x4C75 DUP5 PUSH2 0x405D JUMP JUMPDEST DUP4 MSTORE PUSH1 0x20 DUP4 ADD MSTORE PUSH1 0x40 DUP3 ADD MSTORE SWAP1 JUMP JUMPDEST SWAP3 SWAP2 POP POP PUSH1 0x60 DUP3 RETURNDATASIZE DUP3 GT PUSH2 0x4CC0 JUMPI JUMPDEST DUP2 PUSH2 0x4CA0 PUSH1 0x60 SWAP4 DUP4 PUSH2 0x4093 JUMP JUMPDEST DUP2 ADD SUB SLT PUSH2 0x4CBD JUMPI POP DUP1 MLOAD PUSH1 0x40 PUSH1 0x20 DUP4 ADD MLOAD SWAP3 ADD MLOAD SWAP1 SWAP2 CODESIZE PUSH2 0x4C67 JUMP JUMPDEST DUP1 REVERT JUMPDEST RETURNDATASIZE SWAP2 POP PUSH2 0x4C93 JUMP JUMPDEST POP POP POP PUSH1 0x8 SLOAD PUSH1 0x9 SLOAD PUSH1 0x40 MLOAD SWAP2 PUSH2 0x4CDE DUP4 PUSH2 0x405D JUMP JUMPDEST DUP3 MSTORE PUSH1 0x20 DUP3 ADD MSTORE PUSH1 0x0 PUSH1 0x40 DUP3 ADD MSTORE SWAP1 JUMP JUMPDEST ISZERO PUSH2 0x4CF6 JUMPI JUMP JUMPDEST PUSH1 0x40 MLOAD PUSH3 0x461BCD PUSH1 0xE5 SHL DUP2 MSTORE PUSH1 0x20 PUSH1 0x4 DUP3 ADD MSTORE PUSH1 0x18 PUSH1 0x24 DUP3 ADD MSTORE PUSH32 0x4B50492073636F7265206D757374206265203C3D203130300000000000000000 PUSH1 0x44 DUP3 ADD MSTORE PUSH1 0x64 SWAP1 REVERT JUMPDEST ISZERO PUSH2 0x4D42 JUMPI JUMP JUMPDEST PUSH1 0x40 MLOAD PUSH3 0x461BCD PUSH1 0xE5 SHL DUP2 MSTORE PUSH1 0x20 PUSH1 0x4 DUP3 ADD MSTORE PUSH1 0x1A PUSH1 0x24 DUP3 ADD MSTORE PUSH32 0x576F726B696E672064617973206D757374206265203C3D203331000000000000 PUSH1 0x44 DUP3 ADD MSTORE PUSH1 0x64 SWAP1 REVERT JUMPDEST ISZERO PUSH2 0x4D8E JUMPI JUMP JUMPDEST PUSH1 0x40 MLOAD PUSH3 0x461BCD PUSH1 0xE5 SHL DUP2 MSTORE PUSH1 0x20 PUSH1 0x4 DUP3 ADD MSTORE PUSH1 0x1D PUSH1 0x24 DUP3 ADD MSTORE PUSH32 0x506179726F6C6C207265636F726420646F6573206E6F74206578697374000000 PUSH1 0x44 DUP3 ADD MSTORE PUSH1 0x64 SWAP1 REVERT JUMPDEST PUSH1 0x0 SWAP3 SWAP2 DUP2 SLOAD PUSH2 0x4DE2 DUP2 PUSH2 0x4265 JUMP JUMPDEST SWAP3 PUSH1 0x1 SWAP2 DUP1 DUP4 AND SWAP1 DUP2 ISZERO PUSH2 0x4E3A JUMPI POP PUSH1 0x1 EQ PUSH2 0x4DFE JUMPI POP POP POP POP JUMP JUMPDEST SWAP1 SWAP2 SWAP3 SWAP4 SWAP5 POP PUSH1 0x0 MSTORE PUSH1 0x20 SWAP1 DUP2 PUSH1 0x0 KECCAK256 SWAP1 PUSH1 0x0 SWAP2 JUMPDEST DUP6 DUP4 LT PUSH2 0x4E29 JUMPI POP POP POP POP ADD SWAP1 CODESIZE DUP1 DUP1 DUP1 PUSH2 0x42CC JUMP JUMPDEST DUP1 SLOAD DUP6 DUP5 ADD MSTORE SWAP2 DUP4 ADD SWAP2 DUP2 ADD PUSH2 0x4E13 JUMP JUMPDEST PUSH1 0xFF NOT AND DUP5 MSTORE POP POP POP DUP2 ISZERO ISZERO SWAP1 SWAP2 MUL ADD SWAP2 POP CODESIZE DUP1 DUP1 DUP1 PUSH2 0x42CC JUMP JUMPDEST PUSH1 0x40 MLOAD SWAP1 PUSH2 0x4E62 DUP3 PUSH2 0x4078 JUMP JUMPDEST PUSH1 0x8 DUP3 MSTORE PUSH8 0x105C1C1C9BDD9959 PUSH1 0xC2 SHL PUSH1 0x20 DUP4 ADD MSTORE JUMP JUMPDEST ISZERO PUSH2 0x4E80 JUMPI JUMP JUMPDEST PUSH1 0x40 MLOAD PUSH3 0x461BCD PUSH1 0xE5 SHL DUP2 MSTORE PUSH1 0x20 PUSH1 0x4 DUP3 ADD MSTORE PUSH1 0x1D PUSH1 0x24 DUP3 ADD MSTORE PUSH32 0x496E73756666696369656E7420636F6E74726163742062616C616E6365000000 PUSH1 0x44 DUP3 ADD MSTORE PUSH1 0x64 SWAP1 REVERT JUMPDEST SWAP1 DUP2 PUSH1 0x20 SWAP2 SUB SLT PUSH2 0x2F0 JUMPI MLOAD DUP1 ISZERO ISZERO DUP2 SUB PUSH2 0x2F0 JUMPI SWAP1 JUMP JUMPDEST ISZERO PUSH2 0x4EE4 JUMPI JUMP JUMPDEST PUSH1 0x40 MLOAD PUSH3 0x461BCD PUSH1 0xE5 SHL DUP2 MSTORE PUSH1 0x20 PUSH1 0x4 DUP3 ADD MSTORE PUSH1 0x15 PUSH1 0x24 DUP3 ADD MSTORE PUSH21 0x151BDAD95B881D1C985B9CD9995C8819985A5B1959 PUSH1 0x5A SHL PUSH1 0x44 DUP3 ADD MSTORE PUSH1 0x64 SWAP1 REVERT JUMPDEST PUSH1 0x2 DUP1 SLOAD EQ PUSH2 0x4F30 JUMPI PUSH1 0x2 DUP1 SSTORE JUMP JUMPDEST PUSH1 0x40 MLOAD PUSH3 0x461BCD PUSH1 0xE5 SHL DUP2 MSTORE PUSH1 0x20 PUSH1 0x4 DUP3 ADD MSTORE PUSH1 0x1F PUSH1 0x24 DUP3 ADD MSTORE PUSH32 0x5265656E7472616E637947756172643A207265656E7472616E742063616C6C00 PUSH1 0x44 DUP3 ADD MSTORE PUSH1 0x64 SWAP1 REVERT JUMPDEST PUSH1 0x5 SLOAD PUSH1 0x1 PUSH1 0x1 PUSH1 0xA0 SHL SUB AND DUP1 ISZERO PUSH2 0x4FE5 JUMPI PUSH1 0x20 PUSH1 0x24 SWAP2 PUSH1 0x40 MLOAD SWAP3 DUP4 DUP1 SWAP3 PUSH4 0x70A08231 PUSH1 0xE0 SHL DUP3 MSTORE ADDRESS PUSH1 0x4 DUP4 ADD MSTORE GAS STATICCALL SWAP1 DUP2 ISZERO PUSH2 0x12FE JUMPI PUSH1 0x0 SWAP2 PUSH2 0x4FB7 JUMPI POP SWAP1 JUMP JUMPDEST SWAP1 PUSH1 0x20 DUP3 RETURNDATASIZE DUP3 GT PUSH2 0x4FDD JUMPI JUMPDEST DUP2 PUSH2 0x4FD0 PUSH1 0x20 SWAP4 DUP4 PUSH2 0x4093 JUMP JUMPDEST DUP2 ADD SUB SLT PUSH2 0x4CBD JUMPI POP MLOAD SWAP1 JUMP JUMPDEST RETURNDATASIZE SWAP2 POP PUSH2 0x4FC3 JUMP JUMPDEST POP SELFBALANCE SWAP1 JUMP INVALID CALLDATACOPY PUSH26 0xF59C00FA5618369BAB564C6B7D7351C2E76FEAE47A272B4C8187 PUSH20 0xEC26A550EFBDE2D46C37E9785F1791697F77E94B 0xB7 0xB7 ADD 0xE1 SWAP16 NOT ADDRESS 0xA6 PUSH9 0x820722D37694FD7051 PUSH26 0x41C75212B0F9013E45C47A37D6D983C5304288C7AF285F2EA40C 0xBB 0xA7 LOG4 SWAP9 SMOD KECCAK256 0x5C 0xE4 0xD3 SSTORE MULMOD 0x2E CREATE2 0xA8 LOG1 DUP16 JUMP 0xE8 SWAP2 EXTCODECOPY DELEGATECALL LOG2 ADD 0xFB 0xE2 DUP8 DUP3 JUMPDEST MULMOD JUMP SWAP4 0xC2 OR PUSH22 0x98843665A28970AFFDAD861C54033E4B02E040ABC60F JUMPDEST DELEGATECALL RETURNDATACOPY CALLDATASIZE 0xF9 POP PUSH21 0x1C1098A264697066735822122061D384D7E5DF78EA DUP15 0xD5 CALL DUP13 PUSH10 0x8DC359E4307E94E26443 CODECOPY DUP12 SAR LOG0 SHL PREVRANDAO PUSH26 0x5BCE64736F6C634300081300332F8788117E7EFF1D82E926EC79 0x49 ADD 0xD1 PUSH29 0x78024A50270940304540A733656F0D0000000000000000000000000000 "},"methodIdentifiers":{"ADMIN_ROLE()":"75b238fc","DEFAULT_ADMIN_ROLE()":"a217fddf","EMPLOYEE_ROLE()":"2a4cab90","HR_ROLE()":"f3c6a198","approvePayroll(uint256)":"e8fb1652","attendanceContract()":"cbae42f9","calculateNetSalaryAuto(string,string)":"c0e5f23d","calculateNetSalaryManual(string,uint256,uint256,uint256)":"53e6837e","cancelPayroll(uint256)":"38ce4fd8","contractBalance()":"8b7afe2e","createPayroll(string,string)":"e7e6a1f8","createPayrollManual(string,string,uint256,uint256,uint256)":"dc3620e3","deactivateEmployeeSalary(string)":"52830aa7","depositFunds(uint256)":"3b76594d","employeePayrolls(string,uint256)":"8eb335d1","employeeSalaries(string)":"6e468c5f","employeeTransactions(string,uint256)":"7b43608c","getBalanceSummary()":"62c7d481","getContractBalance()":"6f9fb98a","getEmployeePayrolls(string)":"bb3a9a7f","getEmployeeSalary(string)":"a13e7ea7","getEmployeeTransactions(string)":"1b655ef0","getPayrollRecord(uint256)":"fc19c040","getPeriodPayrolls(string)":"49676faa","getRoleAdmin(bytes32)":"248a9ca3","getTransaction(uint256)":"33ea3dc8","grantEmployeeRole(address)":"f3b3444b","grantHRRole(address)":"18aaa219","grantRole(bytes32,address)":"2f2ff15d","hasRole(bytes32,address)":"91d14854","kpiContract()":"1e7a3391","owner()":"8da5cb5b","payEmployee(uint256)":"c7012a98","payrollRecords(uint256)":"70ac9067","payrollToken()":"cf20c6d1","periodPayrolls(string,uint256)":"034d0e7c","renounceOwnership()":"715018a6","renounceRole(bytes32,address)":"36568abe","revokeRole(bytes32,address)":"d547741f","setAttendanceContract(address)":"ec10c8de","setEmployeeSalary(string,uint256,uint256,uint256,uint256,uint256)":"1adb88eb","setKpiContract(address)":"61bc441d","setPayrollToken(address)":"b1e967b1","standardWorkingDaysPerMonth()":"3e1c8238","standardWorkingHoursPerMonth()":"a4ffe09c","standardWorkingHoursPerYear()":"cc0c7ee8","supportsInterface(bytes4)":"01ffc9a7","totalDeposited()":"ff50abdc","totalPaid()":"e7b0f666","transactions(uint256)":"9ace38c2","transferOwnership(address)":"f2fde38b","updateEmployeeSalary(string,uint256,uint256,uint256,uint256,uint256)":"b90aac68","updatePayroll(uint256,uint256,uint256,uint256)":"fbcdcea5","updatePayrollConfig(uint256,uint256)":"08820ca0","withdrawFunds(uint256)":"155dd5ee"}}}}}