{"contracts/ConsentManagement.sol":{"ConsentManagement":{"abi":[{"inputs":[],"stateMutability":"nonpayable","type":"constructor"},{"anonymous":false,"inputs":[{"indexed":true,"internalType":"uint256","name":"consentId","type":"uint256"},{"indexed":false,"internalType":"string","name":"employeeDid","type":"string"}],"name":"ConsentExpired","type":"event"},{"anonymous":false,"inputs":[{"indexed":true,"internalType":"uint256","name":"consentId","type":"uint256"},{"indexed":false,"internalType":"string","name":"employeeDid","type":"string"},{"indexed":false,"internalType":"address","name":"walletAddress","type":"address"}],"name":"ConsentGiven","type":"event"},{"anonymous":false,"inputs":[{"indexed":true,"internalType":"uint256","name":"consentId","type":"uint256"},{"indexed":false,"internalType":"string","name":"employeeDid","type":"string"}],"name":"ConsentRevoked","type":"event"},{"anonymous":false,"inputs":[{"indexed":true,"internalType":"address","name":"previousOwner","type":"address"},{"indexed":true,"internalType":"address","name":"newOwner","type":"address"}],"name":"OwnershipTransferred","type":"event"},{"inputs":[{"internalType":"uint256","name":"","type":"uint256"}],"name":"consents","outputs":[{"internalType":"uint256","name":"consentId","type":"uint256"},{"internalType":"string","name":"employeeDid","type":"string"},{"internalType":"address","name":"walletAddress","type":"address"},{"internalType":"string","name":"consentType","type":"string"},{"internalType":"string","name":"purpose","type":"string"},{"internalType":"uint256","name":"issuedAt","type":"uint256"},{"internalType":"uint256","name":"expiresAt","type":"uint256"},{"internalType":"bool","name":"isActive","type":"bool"},{"internalType":"string","name":"ipfsHash","type":"string"}],"stateMutability":"view","type":"function"},{"inputs":[{"internalType":"string","name":"","type":"string"},{"internalType":"uint256","name":"","type":"uint256"}],"name":"employeeConsents","outputs":[{"internalType":"uint256","name":"","type":"uint256"}],"stateMutability":"view","type":"function"},{"inputs":[],"name":"expireConsents","outputs":[],"stateMutability":"nonpayable","type":"function"},{"inputs":[{"internalType":"uint256","name":"consentId","type":"uint256"}],"name":"getConsent","outputs":[{"components":[{"internalType":"uint256","name":"consentId","type":"uint256"},{"internalType":"string","name":"employeeDid","type":"string"},{"internalType":"address","name":"walletAddress","type":"address"},{"internalType":"string","name":"consentType","type":"string"},{"internalType":"string","name":"purpose","type":"string"},{"internalType":"uint256","name":"issuedAt","type":"uint256"},{"internalType":"uint256","name":"expiresAt","type":"uint256"},{"internalType":"bool","name":"isActive","type":"bool"},{"internalType":"string","name":"ipfsHash","type":"string"}],"internalType":"struct ConsentManagement.Consent","name":"","type":"tuple"}],"stateMutability":"view","type":"function"},{"inputs":[{"internalType":"string","name":"employeeDid","type":"string"}],"name":"getEmployeeConsents","outputs":[{"internalType":"uint256[]","name":"","type":"uint256[]"}],"stateMutability":"view","type":"function"},{"inputs":[{"internalType":"address","name":"walletAddress","type":"address"}],"name":"getWalletConsents","outputs":[{"internalType":"uint256[]","name":"","type":"uint256[]"}],"stateMutability":"view","type":"function"},{"inputs":[{"internalType":"string","name":"employeeDid","type":"string"},{"internalType":"string","name":"consentType","type":"string"},{"internalType":"string","name":"purpose","type":"string"},{"internalType":"uint256","name":"duration","type":"uint256"},{"internalType":"string","name":"ipfsHash","type":"string"}],"name":"giveConsent","outputs":[{"internalType":"uint256","name":"","type":"uint256"}],"stateMutability":"nonpayable","type":"function"},{"inputs":[{"internalType":"string","name":"employeeDid","type":"string"},{"internalType":"string","name":"consentType","type":"string"}],"name":"hasActiveConsent","outputs":[{"internalType":"bool","name":"","type":"bool"}],"stateMutability":"view","type":"function"},{"inputs":[{"internalType":"uint256","name":"consentId","type":"uint256"}],"name":"isConsentValid","outputs":[{"internalType":"bool","name":"","type":"bool"}],"stateMutability":"view","type":"function"},{"inputs":[],"name":"owner","outputs":[{"internalType":"address","name":"","type":"address"}],"stateMutability":"view","type":"function"},{"inputs":[],"name":"renounceOwnership","outputs":[],"stateMutability":"nonpayable","type":"function"},{"inputs":[{"internalType":"uint256","name":"consentId","type":"uint256"}],"name":"revokeConsent","outputs":[],"stateMutability":"nonpayable","type":"function"},{"inputs":[{"internalType":"address","name":"newOwner","type":"address"}],"name":"transferOwnership","outputs":[],"stateMutability":"nonpayable","type":"function"},{"inputs":[{"internalType":"address","name":"","type":"address"},{"internalType":"uint256","name":"","type":"uint256"}],"name":"walletConsents","outputs":[{"internalType":"uint256","name":"","type":"uint256"}],"stateMutability":"view","type":"function"}],"evm":{"bytecode":{"linkReferences":{},"object":"6080806040523461005b5760008054336001600160a01b0319821681178355916001600160a01b03909116907f8be0079c531659141344cd1fd0a4f28419497f9722a3daafe3b4186f6b6457e09080a361178a90816100618239f35b600080fdfe6080604052600436101561001257600080fd5b60003560e01c806316a0042c1461101e578063212c796b14610858578063512f30a9146108025780636827e788146107aa57806368465c7b146106d1578063715018a61461067857806377581f93146105dd5780637a0e09aa146103ec5780638da5cb5b146103c3578063a70cd14114610349578063d557d53a14610234578063dd4544a11461020c578063e630bc28146101845763f2fde38b146100b657600080fd5b3461017f57602036600319011261017f576100cf611204565b6100d761139b565b6001600160a01b0390811690811561012b57600054826bffffffffffffffffffffffff60a01b821617600055167f8be0079c531659141344cd1fd0a4f28419497f9722a3daafe3b4186f6b6457e0600080a3005b60405162461bcd60e51b815260206004820152602660248201527f4f776e61626c653a206e6577206f776e657220697320746865207a65726f206160448201526564647265737360d01b6064820152608490fd5b600080fd5b3461017f5760208060031936011261017f576001600160a01b036101a6611204565b1660005260048152604060002090604051908181845491828152019360005281600020916000905b8282106101f5576101f1856101e58189038261118d565b60405191829182611248565b0390f35b8354865294850194600193840193909101906101ce565b3461017f57602036600319011261017f57602061022a600435611472565b6040519015158152f35b3461017f57602036600319011261017f576004356000526002602052604060002080546101f1604051926102768461026f8160018501611305565b038561118d565b600860018060a01b03600283015416916040516102a18161029a8160038601611305565b038261118d565b6103296040516102b88161029a8160048801611305565b61031b6005850154966006860154946102ea60ff600789015416976102e3604051809b819301611305565b038961118d565b6103086040519c8d9c8d5260208d61012091829101528d01906112a6565b9160408c01528a820360608c01526112a6565b9088820360808a01526112a6565b9360a087015260c0860152151560e08501528382036101008501526112a6565b3461017f57604036600319011261017f576004356001600160401b03811161017f576103799036906004016111ae565b6103956020602435928160405193828580945193849201611283565b81016003815203019020805482101561017f576020916103b49161121a565b90549060031b1c604051908152f35b3461017f57600036600319011261017f576000546040516001600160a01b039091168152602090f35b3461017f5760208060031936011261017f576004359060405161040e8161115b565b6000815260609283838301526040820160009052838083015283608083015260a082016000905260c082016000905260e08201600090528361010080930152806000526002835260406000205415156104669061142d565b6000526002825260406000209260405161047f8161115b565b8454815260405194856104958160018401611305565b036104a0908761118d565b81850195865260028101546001600160a01b0390811660408085019182525190959094909190856104d48160038701611305565b036104df908761118d565b848101958652604051806104f68160048801611305565b03610501908261118d565b6080860190815260058501549660a0870197885260068601549260c08801938452600787015460ff169460e089019515158652604051806008819a019061054791611305565b03610552908961118d565b8689019788526040519c8c8e9d9a8e9b8c5251908b0152516101206040819b01526101408d01610581916112a6565b9a5116908b015251601f1998898b82030160808c01526105a0916112a6565b905190888a82030160a08b01526105b6916112a6565b955160c08901525160e088015251151590860152519284830301908401526101f1916112a6565b3461017f5760208060031936011261017f576004356001600160401b03811161017f57816106126106259236906004016111ae565b8160405193828580945193849201611283565b8101600381520301902090604051908181845491828152019360005281600020916000905b828210610661576101f1856101e58189038261118d565b83548652948501946001938401939091019061064a565b3461017f57600036600319011261017f5761069161139b565b600080546001600160a01b0319811682556001600160a01b03167f8be0079c531659141344cd1fd0a4f28419497f9722a3daafe3b4186f6b6457e08280a3005b3461017f57600036600319011261017f576106ea61139b565b600180805b6106f557005b815481116107a85761073c8183926000528060206002815284604060002091600783019283549060ff82168061079b575b8061078e575b610742575b505050505050611569565b906106ef565b7f84e235a3ef1ddb32276a73d1e77be7548b8ed6ec502b1087d451a5d47ddc4d7a946107809260ff1916905560405193838594855284019101611305565b0390a2808584818080610731565b506006810154421161072c565b5060068101541515610726565b005b3461017f57604036600319011261017f576107c3611204565b6001600160a01b031660009081526004602052604090208054602435919082101561017f576020916107f49161121a565b90546040519160031b1c8152f35b3461017f57604036600319011261017f576001600160401b0360043581811161017f576108339036906004016111ae565b9060243590811161017f5760209161085261022a9236906004016111ae565b9061158e565b3461017f5760a036600319011261017f576004356001600160401b03811161017f576108889036906004016111ae565b602480356001600160401b03811161017f576108a89036906004016111ae565b906044356001600160401b03811161017f576108c89036906004016111ae565b90606435926084356001600160401b03811161017f576108ec9036906004016111ae565b855115610fda57815115610f9657835115610f525760018054810190819055948015610f4a574201804211610f35575b604051946109298661115b565b8686526020860193888552336040880152606087015260808601524260a086015260c0850152600160e085015261010084015283600052600260205260406000209083518255518051906001600160401b038211610d8057819061099060018501546112cb565b601f8111610ee2575b50602090601f8311600114610e7057600092610e65575b50508160011b916000199060031b1c19161760018201555b6002810160018060a01b036040850151166bffffffffffffffffffffffff60a01b82541617905560608301518051906001600160401b038211610d80578190610a1460038501546112cb565b601f8111610e12575b50602090601f8311600114610da057600092610d95575b50508160011b916000199060031b1c19161760038201555b60808301518051906001600160401b038211610d8057610a6f60048401546112cb565b601f8111610d39575b50602090601f8311600114610cc35791806101009492600894600092610cb8575b50508160011b916000199060031b1c19161760048201555b60a0850151600582015560c085015160068201556007810160e0860151151560ff80198354169116179055019201518051916001600160401b038311610ca45750610afc83546112cb565b601f8111610c5c575b50916020949184938690601f8311600114610bcd579180610bb294927f9b9326caa55365f28cc3bce4f16dd2f0ac42ad809d8526b1879f7d49b9d7d3ae9694600092610bc2575b50508160011b916000199060031b1c19161790555b610b888460405188818551610b798183858a01611283565b810160038152030190206113f3565b3360005260048652610b9e8460406000206113f3565b6040519182916040835260408301906112a6565b33878301520390a2604051908152f35b015190508980610b4c565b90601f1983169184600052886000209260005b818110610c4257509260019285927f9b9326caa55365f28cc3bce4f16dd2f0ac42ad809d8526b1879f7d49b9d7d3ae9896610bb2989610610c29575b505050811b019055610b61565b015160001960f88460031b161c19169055898080610c1c565b828401518555899850600190940193928a01928a01610be0565b836000526020600020601f840160051c81019160208510610c9a575b601f0160051c01905b818110610c8e5750610b05565b60008155600101610c81565b9091508190610c78565b634e487b7160e01b60009081526041600452fd5b015190508980610a99565b906004840160005260206000209160005b601f1985168110610d21575092610100949260019260089583601f19811610610d08575b505050811b016004820155610ab1565b015160001960f88460031b161c19169055898080610cf8565b91926020600181928685015181550194019201610cd4565b600484016000526020600020601f840160051c810160208510610d79575b601f830160051c82018110610d6d575050610a78565b60008155600101610d57565b5080610d57565b83634e487b7160e01b60005260416004526000fd5b015190508780610a34565b9250600384016000526020600020906000935b601f1984168510610df7576001945083601f19811610610dde575b505050811b016003820155610a4c565b015160001960f88460031b161c19169055878080610dce565b81810151835560209485019460019093019290910190610db3565b909150600384016000526020600020601f840160051c810160208510610e5e575b90849392915b601f830160051c82018110610e4f575050610a1d565b60008155859450600101610e39565b5080610e33565b0151905087806109b0565b9250600184016000526020600020906000935b601f1984168510610ec7576001945083601f19811610610eae575b505050811b0160018201556109c8565b015160001960f88460031b161c19169055878080610e9e565b81810151835560209485019460019093019290910190610e83565b909150600184016000526020600020601f840160051c810160208510610f2e575b90849392915b601f830160051c82018110610f1f575050610999565b60008155859450600101610f09565b5080610f03565b83634e487b7160e01b60005260116004526000fd5b50600061091c565b60405162461bcd60e51b8152602060048201526017818501527f507572706f73652063616e6e6f7420626520656d7074790000000000000000006044820152606490fd5b60405162461bcd60e51b815260206004820152601c818501527f436f6e73656e7420747970652063616e6e6f7420626520656d707479000000006044820152606490fd5b60405162461bcd60e51b815260206004820152601c818501527f456d706c6f796565204449442063616e6e6f7420626520656d707479000000006044820152606490fd5b3461017f5760208060031936011261017f57600435908160005260028152604060002061104d8154151561142d565b6002810154336001600160a01b039182161490811561114d575b50156111085760078101805460ff8116156110c35760ff191690556040518281527f86ca7d68cb96d8e97a06bc94b1e331f2e4ef2bb0b2bac9cbe7de828f2e4a53a492909182916110be9190830190600101611305565b0390a2005b60405162461bcd60e51b815260048101859052601760248201527f436f6e73656e7420616c7265616479207265766f6b65640000000000000000006044820152606490fd5b60405162461bcd60e51b815260048101839052601860248201527f4e6f7420617574686f72697a656420746f207265766f6b6500000000000000006044820152606490fd5b600054163314905084611067565b61012081019081106001600160401b0382111761117757604052565b634e487b7160e01b600052604160045260246000fd5b90601f801991011681019081106001600160401b0382111761117757604052565b81601f8201121561017f578035906001600160401b03821161117757604051926111e2601f8401601f19166020018561118d565b8284526020838301011161017f57816000926020809301838601378301015290565b600435906001600160a01b038216820361017f57565b80548210156112325760005260206000200190600090565b634e487b7160e01b600052603260045260246000fd5b6020908160408183019282815285518094520193019160005b82811061126f575050505090565b835185529381019392810192600101611261565b60005b8381106112965750506000910152565b8181015183820152602001611286565b906020916112bf81518092818552858086019101611283565b601f01601f1916010190565b90600182811c921680156112fb575b60208310146112e557565b634e487b7160e01b600052602260045260246000fd5b91607f16916112da565b9060009291805491611316836112cb565b9182825260019384811690816000146113785750600114611338575b50505050565b90919394506000526020928360002092846000945b838610611364575050505001019038808080611332565b80548587018301529401938590820161134d565b9294505050602093945060ff191683830152151560051b01019038808080611332565b6000546001600160a01b031633036113af57565b606460405162461bcd60e51b815260206004820152602060248201527f4f776e61626c653a2063616c6c6572206973206e6f7420746865206f776e65726044820152fd5b805468010000000000000000811015611177576114159160018201815561121a565b819291549060031b91821b91600019901b1916179055565b1561143457565b60405162461bcd60e51b815260206004820152601660248201527510dbdb9cd95b9d08191bd95cc81b9bdd08195e1a5cdd60521b6044820152606490fd5b600052600260205260408060002090805161148c8161115b565b8254815281516114a38161029a8160018801611305565b602082015260028301546001600160a01b03168282015281516114cd8161029a8160038801611305565b606082015281516114e58161029a8160048801611305565b6080820152600583015460a0820152600861152660068501549460c0840195865261029a60ff6007830154169560e086019615158752518094819301611305565b610100820152511561156257511561155c57518015159081611552575b5061154d57600190565b600090565b9050421138611543565b50600090565b5050600090565b60001981146115785760010190565b634e487b7160e01b600052601160045260246000fd5b604080519282516115a481866020809701611283565b8401938381600396878152030190209282519182838387549283815201600097885284882092885b8682821061173e575050506115e39250038461118d565b845b83518110156117345760058382821b86010151875260029081855286882087519161160f8361115b565b815483528851600194908061162681888701611305565b03611631908261118d565b848901528201546001600160a01b03168984015288519081611655818e8601611305565b03611660908361118d565b606084019182528951806116778160048701611305565b03611682908261118d565b608085015282015460a084015260068201549160c08401928352600781015460ff169360e0810194151585528a51806008819401906116c091611305565b036116cb908361118d565b610100015251868151910120855187870120149182611729575b508161170b575b5061170057506116fb90611569565b6115e5565b965050505050505090565b5180159150811561171e575b50386116ec565b905042111538611717565b5115159150386116e5565b5050505050905090565b85548452600195860195899550930192016115cc56fea264697066735822122021b0234e878e9ff6b13476b0f81dc9a48d4bebe2489822783c08f0d91eedf47f64736f6c63430008130033","opcodes":"PUSH1 0x80 DUP1 PUSH1 0x40 MSTORE CALLVALUE PUSH2 0x5B JUMPI PUSH1 0x0 DUP1 SLOAD CALLER PUSH1 0x1 PUSH1 0x1 PUSH1 0xA0 SHL SUB NOT DUP3 AND DUP2 OR DUP4 SSTORE SWAP2 PUSH1 0x1 PUSH1 0x1 PUSH1 0xA0 SHL SUB SWAP1 SWAP2 AND SWAP1 PUSH32 0x8BE0079C531659141344CD1FD0A4F28419497F9722A3DAAFE3B4186F6B6457E0 SWAP1 DUP1 LOG3 PUSH2 0x178A SWAP1 DUP2 PUSH2 0x61 DUP3 CODECOPY RETURN JUMPDEST PUSH1 0x0 DUP1 REVERT INVALID PUSH1 0x80 PUSH1 0x40 MSTORE PUSH1 0x4 CALLDATASIZE LT ISZERO PUSH2 0x12 JUMPI PUSH1 0x0 DUP1 REVERT JUMPDEST PUSH1 0x0 CALLDATALOAD PUSH1 0xE0 SHR DUP1 PUSH4 0x16A0042C EQ PUSH2 0x101E JUMPI DUP1 PUSH4 0x212C796B EQ PUSH2 0x858 JUMPI DUP1 PUSH4 0x512F30A9 EQ PUSH2 0x802 JUMPI DUP1 PUSH4 0x6827E788 EQ PUSH2 0x7AA JUMPI DUP1 PUSH4 0x68465C7B EQ PUSH2 0x6D1 JUMPI DUP1 PUSH4 0x715018A6 EQ PUSH2 0x678 JUMPI DUP1 PUSH4 0x77581F93 EQ PUSH2 0x5DD JUMPI DUP1 PUSH4 0x7A0E09AA EQ PUSH2 0x3EC JUMPI DUP1 PUSH4 0x8DA5CB5B EQ PUSH2 0x3C3 JUMPI DUP1 PUSH4 0xA70CD141 EQ PUSH2 0x349 JUMPI DUP1 PUSH4 0xD557D53A EQ PUSH2 0x234 JUMPI DUP1 PUSH4 0xDD4544A1 EQ PUSH2 0x20C JUMPI DUP1 PUSH4 0xE630BC28 EQ PUSH2 0x184 JUMPI PUSH4 0xF2FDE38B EQ PUSH2 0xB6 JUMPI PUSH1 0x0 DUP1 REVERT JUMPDEST CALLVALUE PUSH2 0x17F JUMPI PUSH1 0x20 CALLDATASIZE PUSH1 0x3 NOT ADD SLT PUSH2 0x17F JUMPI PUSH2 0xCF PUSH2 0x1204 JUMP JUMPDEST PUSH2 0xD7 PUSH2 0x139B JUMP JUMPDEST PUSH1 0x1 PUSH1 0x1 PUSH1 0xA0 SHL SUB SWAP1 DUP2 AND SWAP1 DUP2 ISZERO PUSH2 0x12B JUMPI PUSH1 0x0 SLOAD DUP3 PUSH12 0xFFFFFFFFFFFFFFFFFFFFFFFF PUSH1 0xA0 SHL DUP3 AND OR PUSH1 0x0 SSTORE AND PUSH32 0x8BE0079C531659141344CD1FD0A4F28419497F9722A3DAAFE3B4186F6B6457E0 PUSH1 0x0 DUP1 LOG3 STOP JUMPDEST PUSH1 0x40 MLOAD PUSH3 0x461BCD PUSH1 0xE5 SHL DUP2 MSTORE PUSH1 0x20 PUSH1 0x4 DUP3 ADD MSTORE PUSH1 0x26 PUSH1 0x24 DUP3 ADD MSTORE PUSH32 0x4F776E61626C653A206E6577206F776E657220697320746865207A65726F2061 PUSH1 0x44 DUP3 ADD MSTORE PUSH6 0x646472657373 PUSH1 0xD0 SHL PUSH1 0x64 DUP3 ADD MSTORE PUSH1 0x84 SWAP1 REVERT JUMPDEST PUSH1 0x0 DUP1 REVERT JUMPDEST CALLVALUE PUSH2 0x17F JUMPI PUSH1 0x20 DUP1 PUSH1 0x3 NOT CALLDATASIZE ADD SLT PUSH2 0x17F JUMPI PUSH1 0x1 PUSH1 0x1 PUSH1 0xA0 SHL SUB PUSH2 0x1A6 PUSH2 0x1204 JUMP JUMPDEST AND PUSH1 0x0 MSTORE PUSH1 0x4 DUP2 MSTORE PUSH1 0x40 PUSH1 0x0 KECCAK256 SWAP1 PUSH1 0x40 MLOAD SWAP1 DUP2 DUP2 DUP5 SLOAD SWAP2 DUP3 DUP2 MSTORE ADD SWAP4 PUSH1 0x0 MSTORE DUP2 PUSH1 0x0 KECCAK256 SWAP2 PUSH1 0x0 SWAP1 JUMPDEST DUP3 DUP3 LT PUSH2 0x1F5 JUMPI PUSH2 0x1F1 DUP6 PUSH2 0x1E5 DUP2 DUP10 SUB DUP3 PUSH2 0x118D JUMP JUMPDEST PUSH1 0x40 MLOAD SWAP2 DUP3 SWAP2 DUP3 PUSH2 0x1248 JUMP JUMPDEST SUB SWAP1 RETURN JUMPDEST DUP4 SLOAD DUP7 MSTORE SWAP5 DUP6 ADD SWAP5 PUSH1 0x1 SWAP4 DUP5 ADD SWAP4 SWAP1 SWAP2 ADD SWAP1 PUSH2 0x1CE JUMP JUMPDEST CALLVALUE PUSH2 0x17F JUMPI PUSH1 0x20 CALLDATASIZE PUSH1 0x3 NOT ADD SLT PUSH2 0x17F JUMPI PUSH1 0x20 PUSH2 0x22A PUSH1 0x4 CALLDATALOAD PUSH2 0x1472 JUMP JUMPDEST PUSH1 0x40 MLOAD SWAP1 ISZERO ISZERO DUP2 MSTORE RETURN JUMPDEST CALLVALUE PUSH2 0x17F JUMPI PUSH1 0x20 CALLDATASIZE PUSH1 0x3 NOT ADD SLT PUSH2 0x17F JUMPI PUSH1 0x4 CALLDATALOAD PUSH1 0x0 MSTORE PUSH1 0x2 PUSH1 0x20 MSTORE PUSH1 0x40 PUSH1 0x0 KECCAK256 DUP1 SLOAD PUSH2 0x1F1 PUSH1 0x40 MLOAD SWAP3 PUSH2 0x276 DUP5 PUSH2 0x26F DUP2 PUSH1 0x1 DUP6 ADD PUSH2 0x1305 JUMP JUMPDEST SUB DUP6 PUSH2 0x118D JUMP JUMPDEST PUSH1 0x8 PUSH1 0x1 DUP1 PUSH1 0xA0 SHL SUB PUSH1 0x2 DUP4 ADD SLOAD AND SWAP2 PUSH1 0x40 MLOAD PUSH2 0x2A1 DUP2 PUSH2 0x29A DUP2 PUSH1 0x3 DUP7 ADD PUSH2 0x1305 JUMP JUMPDEST SUB DUP3 PUSH2 0x118D JUMP JUMPDEST PUSH2 0x329 PUSH1 0x40 MLOAD PUSH2 0x2B8 DUP2 PUSH2 0x29A DUP2 PUSH1 0x4 DUP9 ADD PUSH2 0x1305 JUMP JUMPDEST PUSH2 0x31B PUSH1 0x5 DUP6 ADD SLOAD SWAP7 PUSH1 0x6 DUP7 ADD SLOAD SWAP5 PUSH2 0x2EA PUSH1 0xFF PUSH1 0x7 DUP10 ADD SLOAD AND SWAP8 PUSH2 0x2E3 PUSH1 0x40 MLOAD DUP1 SWAP12 DUP2 SWAP4 ADD PUSH2 0x1305 JUMP JUMPDEST SUB DUP10 PUSH2 0x118D JUMP JUMPDEST PUSH2 0x308 PUSH1 0x40 MLOAD SWAP13 DUP14 SWAP13 DUP14 MSTORE PUSH1 0x20 DUP14 PUSH2 0x120 SWAP2 DUP3 SWAP2 ADD MSTORE DUP14 ADD SWAP1 PUSH2 0x12A6 JUMP JUMPDEST SWAP2 PUSH1 0x40 DUP13 ADD MSTORE DUP11 DUP3 SUB PUSH1 0x60 DUP13 ADD MSTORE PUSH2 0x12A6 JUMP JUMPDEST SWAP1 DUP9 DUP3 SUB PUSH1 0x80 DUP11 ADD MSTORE PUSH2 0x12A6 JUMP JUMPDEST SWAP4 PUSH1 0xA0 DUP8 ADD MSTORE PUSH1 0xC0 DUP7 ADD MSTORE ISZERO ISZERO PUSH1 0xE0 DUP6 ADD MSTORE DUP4 DUP3 SUB PUSH2 0x100 DUP6 ADD MSTORE PUSH2 0x12A6 JUMP JUMPDEST CALLVALUE PUSH2 0x17F JUMPI PUSH1 0x40 CALLDATASIZE PUSH1 0x3 NOT ADD SLT PUSH2 0x17F JUMPI PUSH1 0x4 CALLDATALOAD PUSH1 0x1 PUSH1 0x1 PUSH1 0x40 SHL SUB DUP2 GT PUSH2 0x17F JUMPI PUSH2 0x379 SWAP1 CALLDATASIZE SWAP1 PUSH1 0x4 ADD PUSH2 0x11AE JUMP JUMPDEST PUSH2 0x395 PUSH1 0x20 PUSH1 0x24 CALLDATALOAD SWAP3 DUP2 PUSH1 0x40 MLOAD SWAP4 DUP3 DUP6 DUP1 SWAP5 MLOAD SWAP4 DUP5 SWAP3 ADD PUSH2 0x1283 JUMP JUMPDEST DUP2 ADD PUSH1 0x3 DUP2 MSTORE SUB ADD SWAP1 KECCAK256 DUP1 SLOAD DUP3 LT ISZERO PUSH2 0x17F JUMPI PUSH1 0x20 SWAP2 PUSH2 0x3B4 SWAP2 PUSH2 0x121A JUMP JUMPDEST SWAP1 SLOAD SWAP1 PUSH1 0x3 SHL SHR PUSH1 0x40 MLOAD SWAP1 DUP2 MSTORE RETURN JUMPDEST CALLVALUE PUSH2 0x17F JUMPI PUSH1 0x0 CALLDATASIZE PUSH1 0x3 NOT ADD SLT PUSH2 0x17F JUMPI PUSH1 0x0 SLOAD PUSH1 0x40 MLOAD PUSH1 0x1 PUSH1 0x1 PUSH1 0xA0 SHL SUB SWAP1 SWAP2 AND DUP2 MSTORE PUSH1 0x20 SWAP1 RETURN JUMPDEST CALLVALUE PUSH2 0x17F JUMPI PUSH1 0x20 DUP1 PUSH1 0x3 NOT CALLDATASIZE ADD SLT PUSH2 0x17F JUMPI PUSH1 0x4 CALLDATALOAD SWAP1 PUSH1 0x40 MLOAD PUSH2 0x40E DUP2 PUSH2 0x115B JUMP JUMPDEST PUSH1 0x0 DUP2 MSTORE PUSH1 0x60 SWAP3 DUP4 DUP4 DUP4 ADD MSTORE PUSH1 0x40 DUP3 ADD PUSH1 0x0 SWAP1 MSTORE DUP4 DUP1 DUP4 ADD MSTORE DUP4 PUSH1 0x80 DUP4 ADD MSTORE PUSH1 0xA0 DUP3 ADD PUSH1 0x0 SWAP1 MSTORE PUSH1 0xC0 DUP3 ADD PUSH1 0x0 SWAP1 MSTORE PUSH1 0xE0 DUP3 ADD PUSH1 0x0 SWAP1 MSTORE DUP4 PUSH2 0x100 DUP1 SWAP4 ADD MSTORE DUP1 PUSH1 0x0 MSTORE PUSH1 0x2 DUP4 MSTORE PUSH1 0x40 PUSH1 0x0 KECCAK256 SLOAD ISZERO ISZERO PUSH2 0x466 SWAP1 PUSH2 0x142D JUMP JUMPDEST PUSH1 0x0 MSTORE PUSH1 0x2 DUP3 MSTORE PUSH1 0x40 PUSH1 0x0 KECCAK256 SWAP3 PUSH1 0x40 MLOAD PUSH2 0x47F DUP2 PUSH2 0x115B JUMP JUMPDEST DUP5 SLOAD DUP2 MSTORE PUSH1 0x40 MLOAD SWAP5 DUP6 PUSH2 0x495 DUP2 PUSH1 0x1 DUP5 ADD PUSH2 0x1305 JUMP JUMPDEST SUB PUSH2 0x4A0 SWAP1 DUP8 PUSH2 0x118D JUMP JUMPDEST DUP2 DUP6 ADD SWAP6 DUP7 MSTORE PUSH1 0x2 DUP2 ADD SLOAD PUSH1 0x1 PUSH1 0x1 PUSH1 0xA0 SHL SUB SWAP1 DUP2 AND PUSH1 0x40 DUP1 DUP6 ADD SWAP2 DUP3 MSTORE MLOAD SWAP1 SWAP6 SWAP1 SWAP5 SWAP1 SWAP2 SWAP1 DUP6 PUSH2 0x4D4 DUP2 PUSH1 0x3 DUP8 ADD PUSH2 0x1305 JUMP JUMPDEST SUB PUSH2 0x4DF SWAP1 DUP8 PUSH2 0x118D JUMP JUMPDEST DUP5 DUP2 ADD SWAP6 DUP7 MSTORE PUSH1 0x40 MLOAD DUP1 PUSH2 0x4F6 DUP2 PUSH1 0x4 DUP9 ADD PUSH2 0x1305 JUMP JUMPDEST SUB PUSH2 0x501 SWAP1 DUP3 PUSH2 0x118D JUMP JUMPDEST PUSH1 0x80 DUP7 ADD SWAP1 DUP2 MSTORE PUSH1 0x5 DUP6 ADD SLOAD SWAP7 PUSH1 0xA0 DUP8 ADD SWAP8 DUP9 MSTORE PUSH1 0x6 DUP7 ADD SLOAD SWAP3 PUSH1 0xC0 DUP9 ADD SWAP4 DUP5 MSTORE PUSH1 0x7 DUP8 ADD SLOAD PUSH1 0xFF AND SWAP5 PUSH1 0xE0 DUP10 ADD SWAP6 ISZERO ISZERO DUP7 MSTORE PUSH1 0x40 MLOAD DUP1 PUSH1 0x8 DUP2 SWAP11 ADD SWAP1 PUSH2 0x547 SWAP2 PUSH2 0x1305 JUMP JUMPDEST SUB PUSH2 0x552 SWAP1 DUP10 PUSH2 0x118D JUMP JUMPDEST DUP7 DUP10 ADD SWAP8 DUP9 MSTORE PUSH1 0x40 MLOAD SWAP13 DUP13 DUP15 SWAP14 SWAP11 DUP15 SWAP12 DUP13 MSTORE MLOAD SWAP1 DUP12 ADD MSTORE MLOAD PUSH2 0x120 PUSH1 0x40 DUP2 SWAP12 ADD MSTORE PUSH2 0x140 DUP14 ADD PUSH2 0x581 SWAP2 PUSH2 0x12A6 JUMP JUMPDEST SWAP11 MLOAD AND SWAP1 DUP12 ADD MSTORE MLOAD PUSH1 0x1F NOT SWAP9 DUP10 DUP12 DUP3 SUB ADD PUSH1 0x80 DUP13 ADD MSTORE PUSH2 0x5A0 SWAP2 PUSH2 0x12A6 JUMP JUMPDEST SWAP1 MLOAD SWAP1 DUP9 DUP11 DUP3 SUB ADD PUSH1 0xA0 DUP12 ADD MSTORE PUSH2 0x5B6 SWAP2 PUSH2 0x12A6 JUMP JUMPDEST SWAP6 MLOAD PUSH1 0xC0 DUP10 ADD MSTORE MLOAD PUSH1 0xE0 DUP9 ADD MSTORE MLOAD ISZERO ISZERO SWAP1 DUP7 ADD MSTORE MLOAD SWAP3 DUP5 DUP4 SUB ADD SWAP1 DUP5 ADD MSTORE PUSH2 0x1F1 SWAP2 PUSH2 0x12A6 JUMP JUMPDEST CALLVALUE PUSH2 0x17F JUMPI PUSH1 0x20 DUP1 PUSH1 0x3 NOT CALLDATASIZE ADD SLT PUSH2 0x17F JUMPI PUSH1 0x4 CALLDATALOAD PUSH1 0x1 PUSH1 0x1 PUSH1 0x40 SHL SUB DUP2 GT PUSH2 0x17F JUMPI DUP2 PUSH2 0x612 PUSH2 0x625 SWAP3 CALLDATASIZE SWAP1 PUSH1 0x4 ADD PUSH2 0x11AE JUMP JUMPDEST DUP2 PUSH1 0x40 MLOAD SWAP4 DUP3 DUP6 DUP1 SWAP5 MLOAD SWAP4 DUP5 SWAP3 ADD PUSH2 0x1283 JUMP JUMPDEST DUP2 ADD PUSH1 0x3 DUP2 MSTORE SUB ADD SWAP1 KECCAK256 SWAP1 PUSH1 0x40 MLOAD SWAP1 DUP2 DUP2 DUP5 SLOAD SWAP2 DUP3 DUP2 MSTORE ADD SWAP4 PUSH1 0x0 MSTORE DUP2 PUSH1 0x0 KECCAK256 SWAP2 PUSH1 0x0 SWAP1 JUMPDEST DUP3 DUP3 LT PUSH2 0x661 JUMPI PUSH2 0x1F1 DUP6 PUSH2 0x1E5 DUP2 DUP10 SUB DUP3 PUSH2 0x118D JUMP JUMPDEST DUP4 SLOAD DUP7 MSTORE SWAP5 DUP6 ADD SWAP5 PUSH1 0x1 SWAP4 DUP5 ADD SWAP4 SWAP1 SWAP2 ADD SWAP1 PUSH2 0x64A JUMP JUMPDEST CALLVALUE PUSH2 0x17F JUMPI PUSH1 0x0 CALLDATASIZE PUSH1 0x3 NOT ADD SLT PUSH2 0x17F JUMPI PUSH2 0x691 PUSH2 0x139B JUMP JUMPDEST PUSH1 0x0 DUP1 SLOAD PUSH1 0x1 PUSH1 0x1 PUSH1 0xA0 SHL SUB NOT DUP2 AND DUP3 SSTORE PUSH1 0x1 PUSH1 0x1 PUSH1 0xA0 SHL SUB AND PUSH32 0x8BE0079C531659141344CD1FD0A4F28419497F9722A3DAAFE3B4186F6B6457E0 DUP3 DUP1 LOG3 STOP JUMPDEST CALLVALUE PUSH2 0x17F JUMPI PUSH1 0x0 CALLDATASIZE PUSH1 0x3 NOT ADD SLT PUSH2 0x17F JUMPI PUSH2 0x6EA PUSH2 0x139B JUMP JUMPDEST PUSH1 0x1 DUP1 DUP1 JUMPDEST PUSH2 0x6F5 JUMPI STOP JUMPDEST DUP2 SLOAD DUP2 GT PUSH2 0x7A8 JUMPI PUSH2 0x73C DUP2 DUP4 SWAP3 PUSH1 0x0 MSTORE DUP1 PUSH1 0x20 PUSH1 0x2 DUP2 MSTORE DUP5 PUSH1 0x40 PUSH1 0x0 KECCAK256 SWAP2 PUSH1 0x7 DUP4 ADD SWAP3 DUP4 SLOAD SWAP1 PUSH1 0xFF DUP3 AND DUP1 PUSH2 0x79B JUMPI JUMPDEST DUP1 PUSH2 0x78E JUMPI JUMPDEST PUSH2 0x742 JUMPI JUMPDEST POP POP POP POP POP POP PUSH2 0x1569 JUMP JUMPDEST SWAP1 PUSH2 0x6EF JUMP JUMPDEST PUSH32 0x84E235A3EF1DDB32276A73D1E77BE7548B8ED6EC502B1087D451A5D47DDC4D7A SWAP5 PUSH2 0x780 SWAP3 PUSH1 0xFF NOT AND SWAP1 SSTORE PUSH1 0x40 MLOAD SWAP4 DUP4 DUP6 SWAP5 DUP6 MSTORE DUP5 ADD SWAP2 ADD PUSH2 0x1305 JUMP JUMPDEST SUB SWAP1 LOG2 DUP1 DUP6 DUP5 DUP2 DUP1 DUP1 PUSH2 0x731 JUMP JUMPDEST POP PUSH1 0x6 DUP2 ADD SLOAD TIMESTAMP GT PUSH2 0x72C JUMP JUMPDEST POP PUSH1 0x6 DUP2 ADD SLOAD ISZERO ISZERO PUSH2 0x726 JUMP JUMPDEST STOP JUMPDEST CALLVALUE PUSH2 0x17F JUMPI PUSH1 0x40 CALLDATASIZE PUSH1 0x3 NOT ADD SLT PUSH2 0x17F JUMPI PUSH2 0x7C3 PUSH2 0x1204 JUMP JUMPDEST PUSH1 0x1 PUSH1 0x1 PUSH1 0xA0 SHL SUB AND PUSH1 0x0 SWAP1 DUP2 MSTORE PUSH1 0x4 PUSH1 0x20 MSTORE PUSH1 0x40 SWAP1 KECCAK256 DUP1 SLOAD PUSH1 0x24 CALLDATALOAD SWAP2 SWAP1 DUP3 LT ISZERO PUSH2 0x17F JUMPI PUSH1 0x20 SWAP2 PUSH2 0x7F4 SWAP2 PUSH2 0x121A JUMP JUMPDEST SWAP1 SLOAD PUSH1 0x40 MLOAD SWAP2 PUSH1 0x3 SHL SHR DUP2 MSTORE RETURN JUMPDEST CALLVALUE PUSH2 0x17F JUMPI PUSH1 0x40 CALLDATASIZE PUSH1 0x3 NOT ADD SLT PUSH2 0x17F JUMPI PUSH1 0x1 PUSH1 0x1 PUSH1 0x40 SHL SUB PUSH1 0x4 CALLDATALOAD DUP2 DUP2 GT PUSH2 0x17F JUMPI PUSH2 0x833 SWAP1 CALLDATASIZE SWAP1 PUSH1 0x4 ADD PUSH2 0x11AE JUMP JUMPDEST SWAP1 PUSH1 0x24 CALLDATALOAD SWAP1 DUP2 GT PUSH2 0x17F JUMPI PUSH1 0x20 SWAP2 PUSH2 0x852 PUSH2 0x22A SWAP3 CALLDATASIZE SWAP1 PUSH1 0x4 ADD PUSH2 0x11AE JUMP JUMPDEST SWAP1 PUSH2 0x158E JUMP JUMPDEST CALLVALUE PUSH2 0x17F JUMPI PUSH1 0xA0 CALLDATASIZE PUSH1 0x3 NOT ADD SLT PUSH2 0x17F JUMPI PUSH1 0x4 CALLDATALOAD PUSH1 0x1 PUSH1 0x1 PUSH1 0x40 SHL SUB DUP2 GT PUSH2 0x17F JUMPI PUSH2 0x888 SWAP1 CALLDATASIZE SWAP1 PUSH1 0x4 ADD PUSH2 0x11AE JUMP JUMPDEST PUSH1 0x24 DUP1 CALLDATALOAD PUSH1 0x1 PUSH1 0x1 PUSH1 0x40 SHL SUB DUP2 GT PUSH2 0x17F JUMPI PUSH2 0x8A8 SWAP1 CALLDATASIZE SWAP1 PUSH1 0x4 ADD PUSH2 0x11AE JUMP JUMPDEST SWAP1 PUSH1 0x44 CALLDATALOAD PUSH1 0x1 PUSH1 0x1 PUSH1 0x40 SHL SUB DUP2 GT PUSH2 0x17F JUMPI PUSH2 0x8C8 SWAP1 CALLDATASIZE SWAP1 PUSH1 0x4 ADD PUSH2 0x11AE JUMP JUMPDEST SWAP1 PUSH1 0x64 CALLDATALOAD SWAP3 PUSH1 0x84 CALLDATALOAD PUSH1 0x1 PUSH1 0x1 PUSH1 0x40 SHL SUB DUP2 GT PUSH2 0x17F JUMPI PUSH2 0x8EC SWAP1 CALLDATASIZE SWAP1 PUSH1 0x4 ADD PUSH2 0x11AE JUMP JUMPDEST DUP6 MLOAD ISZERO PUSH2 0xFDA JUMPI DUP2 MLOAD ISZERO PUSH2 0xF96 JUMPI DUP4 MLOAD ISZERO PUSH2 0xF52 JUMPI PUSH1 0x1 DUP1 SLOAD DUP2 ADD SWAP1 DUP2 SWAP1 SSTORE SWAP5 DUP1 ISZERO PUSH2 0xF4A JUMPI TIMESTAMP ADD DUP1 TIMESTAMP GT PUSH2 0xF35 JUMPI JUMPDEST PUSH1 0x40 MLOAD SWAP5 PUSH2 0x929 DUP7 PUSH2 0x115B JUMP JUMPDEST DUP7 DUP7 MSTORE PUSH1 0x20 DUP7 ADD SWAP4 DUP9 DUP6 MSTORE CALLER PUSH1 0x40 DUP9 ADD MSTORE PUSH1 0x60 DUP8 ADD MSTORE PUSH1 0x80 DUP7 ADD MSTORE TIMESTAMP PUSH1 0xA0 DUP7 ADD MSTORE PUSH1 0xC0 DUP6 ADD MSTORE PUSH1 0x1 PUSH1 0xE0 DUP6 ADD MSTORE PUSH2 0x100 DUP5 ADD MSTORE DUP4 PUSH1 0x0 MSTORE PUSH1 0x2 PUSH1 0x20 MSTORE PUSH1 0x40 PUSH1 0x0 KECCAK256 SWAP1 DUP4 MLOAD DUP3 SSTORE MLOAD DUP1 MLOAD SWAP1 PUSH1 0x1 PUSH1 0x1 PUSH1 0x40 SHL SUB DUP3 GT PUSH2 0xD80 JUMPI DUP2 SWAP1 PUSH2 0x990 PUSH1 0x1 DUP6 ADD SLOAD PUSH2 0x12CB JUMP JUMPDEST PUSH1 0x1F DUP2 GT PUSH2 0xEE2 JUMPI JUMPDEST POP PUSH1 0x20 SWAP1 PUSH1 0x1F DUP4 GT PUSH1 0x1 EQ PUSH2 0xE70 JUMPI PUSH1 0x0 SWAP3 PUSH2 0xE65 JUMPI JUMPDEST POP POP DUP2 PUSH1 0x1 SHL SWAP2 PUSH1 0x0 NOT SWAP1 PUSH1 0x3 SHL SHR NOT AND OR PUSH1 0x1 DUP3 ADD SSTORE JUMPDEST PUSH1 0x2 DUP2 ADD PUSH1 0x1 DUP1 PUSH1 0xA0 SHL SUB PUSH1 0x40 DUP6 ADD MLOAD AND PUSH12 0xFFFFFFFFFFFFFFFFFFFFFFFF PUSH1 0xA0 SHL DUP3 SLOAD AND OR SWAP1 SSTORE PUSH1 0x60 DUP4 ADD MLOAD DUP1 MLOAD SWAP1 PUSH1 0x1 PUSH1 0x1 PUSH1 0x40 SHL SUB DUP3 GT PUSH2 0xD80 JUMPI DUP2 SWAP1 PUSH2 0xA14 PUSH1 0x3 DUP6 ADD SLOAD PUSH2 0x12CB JUMP JUMPDEST PUSH1 0x1F DUP2 GT PUSH2 0xE12 JUMPI JUMPDEST POP PUSH1 0x20 SWAP1 PUSH1 0x1F DUP4 GT PUSH1 0x1 EQ PUSH2 0xDA0 JUMPI PUSH1 0x0 SWAP3 PUSH2 0xD95 JUMPI JUMPDEST POP POP DUP2 PUSH1 0x1 SHL SWAP2 PUSH1 0x0 NOT SWAP1 PUSH1 0x3 SHL SHR NOT AND OR PUSH1 0x3 DUP3 ADD SSTORE JUMPDEST PUSH1 0x80 DUP4 ADD MLOAD DUP1 MLOAD SWAP1 PUSH1 0x1 PUSH1 0x1 PUSH1 0x40 SHL SUB DUP3 GT PUSH2 0xD80 JUMPI PUSH2 0xA6F PUSH1 0x4 DUP5 ADD SLOAD PUSH2 0x12CB JUMP JUMPDEST PUSH1 0x1F DUP2 GT PUSH2 0xD39 JUMPI JUMPDEST POP PUSH1 0x20 SWAP1 PUSH1 0x1F DUP4 GT PUSH1 0x1 EQ PUSH2 0xCC3 JUMPI SWAP2 DUP1 PUSH2 0x100 SWAP5 SWAP3 PUSH1 0x8 SWAP5 PUSH1 0x0 SWAP3 PUSH2 0xCB8 JUMPI JUMPDEST POP POP DUP2 PUSH1 0x1 SHL SWAP2 PUSH1 0x0 NOT SWAP1 PUSH1 0x3 SHL SHR NOT AND OR PUSH1 0x4 DUP3 ADD SSTORE JUMPDEST PUSH1 0xA0 DUP6 ADD MLOAD PUSH1 0x5 DUP3 ADD SSTORE PUSH1 0xC0 DUP6 ADD MLOAD PUSH1 0x6 DUP3 ADD SSTORE PUSH1 0x7 DUP2 ADD PUSH1 0xE0 DUP7 ADD MLOAD ISZERO ISZERO PUSH1 0xFF DUP1 NOT DUP4 SLOAD AND SWAP2 AND OR SWAP1 SSTORE ADD SWAP3 ADD MLOAD DUP1 MLOAD SWAP2 PUSH1 0x1 PUSH1 0x1 PUSH1 0x40 SHL SUB DUP4 GT PUSH2 0xCA4 JUMPI POP PUSH2 0xAFC DUP4 SLOAD PUSH2 0x12CB JUMP JUMPDEST PUSH1 0x1F DUP2 GT PUSH2 0xC5C JUMPI JUMPDEST POP SWAP2 PUSH1 0x20 SWAP5 SWAP2 DUP5 SWAP4 DUP7 SWAP1 PUSH1 0x1F DUP4 GT PUSH1 0x1 EQ PUSH2 0xBCD JUMPI SWAP2 DUP1 PUSH2 0xBB2 SWAP5 SWAP3 PUSH32 0x9B9326CAA55365F28CC3BCE4F16DD2F0AC42AD809D8526B1879F7D49B9D7D3AE SWAP7 SWAP5 PUSH1 0x0 SWAP3 PUSH2 0xBC2 JUMPI JUMPDEST POP POP DUP2 PUSH1 0x1 SHL SWAP2 PUSH1 0x0 NOT SWAP1 PUSH1 0x3 SHL SHR NOT AND OR SWAP1 SSTORE JUMPDEST PUSH2 0xB88 DUP5 PUSH1 0x40 MLOAD DUP9 DUP2 DUP6 MLOAD PUSH2 0xB79 DUP2 DUP4 DUP6 DUP11 ADD PUSH2 0x1283 JUMP JUMPDEST DUP2 ADD PUSH1 0x3 DUP2 MSTORE SUB ADD SWAP1 KECCAK256 PUSH2 0x13F3 JUMP JUMPDEST CALLER PUSH1 0x0 MSTORE PUSH1 0x4 DUP7 MSTORE PUSH2 0xB9E DUP5 PUSH1 0x40 PUSH1 0x0 KECCAK256 PUSH2 0x13F3 JUMP JUMPDEST PUSH1 0x40 MLOAD SWAP2 DUP3 SWAP2 PUSH1 0x40 DUP4 MSTORE PUSH1 0x40 DUP4 ADD SWAP1 PUSH2 0x12A6 JUMP JUMPDEST CALLER DUP8 DUP4 ADD MSTORE SUB SWAP1 LOG2 PUSH1 0x40 MLOAD SWAP1 DUP2 MSTORE RETURN JUMPDEST ADD MLOAD SWAP1 POP DUP10 DUP1 PUSH2 0xB4C JUMP JUMPDEST SWAP1 PUSH1 0x1F NOT DUP4 AND SWAP2 DUP5 PUSH1 0x0 MSTORE DUP9 PUSH1 0x0 KECCAK256 SWAP3 PUSH1 0x0 JUMPDEST DUP2 DUP2 LT PUSH2 0xC42 JUMPI POP SWAP3 PUSH1 0x1 SWAP3 DUP6 SWAP3 PUSH32 0x9B9326CAA55365F28CC3BCE4F16DD2F0AC42AD809D8526B1879F7D49B9D7D3AE SWAP9 SWAP7 PUSH2 0xBB2 SWAP9 SWAP7 LT PUSH2 0xC29 JUMPI JUMPDEST POP POP POP DUP2 SHL ADD SWAP1 SSTORE PUSH2 0xB61 JUMP JUMPDEST ADD MLOAD PUSH1 0x0 NOT PUSH1 0xF8 DUP5 PUSH1 0x3 SHL AND SHR NOT AND SWAP1 SSTORE DUP10 DUP1 DUP1 PUSH2 0xC1C JUMP JUMPDEST DUP3 DUP5 ADD MLOAD DUP6 SSTORE DUP10 SWAP9 POP PUSH1 0x1 SWAP1 SWAP5 ADD SWAP4 SWAP3 DUP11 ADD SWAP3 DUP11 ADD PUSH2 0xBE0 JUMP JUMPDEST DUP4 PUSH1 0x0 MSTORE PUSH1 0x20 PUSH1 0x0 KECCAK256 PUSH1 0x1F DUP5 ADD PUSH1 0x5 SHR DUP2 ADD SWAP2 PUSH1 0x20 DUP6 LT PUSH2 0xC9A JUMPI JUMPDEST PUSH1 0x1F ADD PUSH1 0x5 SHR ADD SWAP1 JUMPDEST DUP2 DUP2 LT PUSH2 0xC8E JUMPI POP PUSH2 0xB05 JUMP JUMPDEST PUSH1 0x0 DUP2 SSTORE PUSH1 0x1 ADD PUSH2 0xC81 JUMP JUMPDEST SWAP1 SWAP2 POP DUP2 SWAP1 PUSH2 0xC78 JUMP JUMPDEST PUSH4 0x4E487B71 PUSH1 0xE0 SHL PUSH1 0x0 SWAP1 DUP2 MSTORE PUSH1 0x41 PUSH1 0x4 MSTORE REVERT JUMPDEST ADD MLOAD SWAP1 POP DUP10 DUP1 PUSH2 0xA99 JUMP JUMPDEST SWAP1 PUSH1 0x4 DUP5 ADD PUSH1 0x0 MSTORE PUSH1 0x20 PUSH1 0x0 KECCAK256 SWAP2 PUSH1 0x0 JUMPDEST PUSH1 0x1F NOT DUP6 AND DUP2 LT PUSH2 0xD21 JUMPI POP SWAP3 PUSH2 0x100 SWAP5 SWAP3 PUSH1 0x1 SWAP3 PUSH1 0x8 SWAP6 DUP4 PUSH1 0x1F NOT DUP2 AND LT PUSH2 0xD08 JUMPI JUMPDEST POP POP POP DUP2 SHL ADD PUSH1 0x4 DUP3 ADD SSTORE PUSH2 0xAB1 JUMP JUMPDEST ADD MLOAD PUSH1 0x0 NOT PUSH1 0xF8 DUP5 PUSH1 0x3 SHL AND SHR NOT AND SWAP1 SSTORE DUP10 DUP1 DUP1 PUSH2 0xCF8 JUMP JUMPDEST SWAP2 SWAP3 PUSH1 0x20 PUSH1 0x1 DUP2 SWAP3 DUP7 DUP6 ADD MLOAD DUP2 SSTORE ADD SWAP5 ADD SWAP3 ADD PUSH2 0xCD4 JUMP JUMPDEST PUSH1 0x4 DUP5 ADD PUSH1 0x0 MSTORE PUSH1 0x20 PUSH1 0x0 KECCAK256 PUSH1 0x1F DUP5 ADD PUSH1 0x5 SHR DUP2 ADD PUSH1 0x20 DUP6 LT PUSH2 0xD79 JUMPI JUMPDEST PUSH1 0x1F DUP4 ADD PUSH1 0x5 SHR DUP3 ADD DUP2 LT PUSH2 0xD6D JUMPI POP POP PUSH2 0xA78 JUMP JUMPDEST PUSH1 0x0 DUP2 SSTORE PUSH1 0x1 ADD PUSH2 0xD57 JUMP JUMPDEST POP DUP1 PUSH2 0xD57 JUMP JUMPDEST DUP4 PUSH4 0x4E487B71 PUSH1 0xE0 SHL PUSH1 0x0 MSTORE PUSH1 0x41 PUSH1 0x4 MSTORE PUSH1 0x0 REVERT JUMPDEST ADD MLOAD SWAP1 POP DUP8 DUP1 PUSH2 0xA34 JUMP JUMPDEST SWAP3 POP PUSH1 0x3 DUP5 ADD PUSH1 0x0 MSTORE PUSH1 0x20 PUSH1 0x0 KECCAK256 SWAP1 PUSH1 0x0 SWAP4 JUMPDEST PUSH1 0x1F NOT DUP5 AND DUP6 LT PUSH2 0xDF7 JUMPI PUSH1 0x1 SWAP5 POP DUP4 PUSH1 0x1F NOT DUP2 AND LT PUSH2 0xDDE JUMPI JUMPDEST POP POP POP DUP2 SHL ADD PUSH1 0x3 DUP3 ADD SSTORE PUSH2 0xA4C JUMP JUMPDEST ADD MLOAD PUSH1 0x0 NOT PUSH1 0xF8 DUP5 PUSH1 0x3 SHL AND SHR NOT AND SWAP1 SSTORE DUP8 DUP1 DUP1 PUSH2 0xDCE JUMP JUMPDEST DUP2 DUP2 ADD MLOAD DUP4 SSTORE PUSH1 0x20 SWAP5 DUP6 ADD SWAP5 PUSH1 0x1 SWAP1 SWAP4 ADD SWAP3 SWAP1 SWAP2 ADD SWAP1 PUSH2 0xDB3 JUMP JUMPDEST SWAP1 SWAP2 POP PUSH1 0x3 DUP5 ADD PUSH1 0x0 MSTORE PUSH1 0x20 PUSH1 0x0 KECCAK256 PUSH1 0x1F DUP5 ADD PUSH1 0x5 SHR DUP2 ADD PUSH1 0x20 DUP6 LT PUSH2 0xE5E JUMPI JUMPDEST SWAP1 DUP5 SWAP4 SWAP3 SWAP2 JUMPDEST PUSH1 0x1F DUP4 ADD PUSH1 0x5 SHR DUP3 ADD DUP2 LT PUSH2 0xE4F JUMPI POP POP PUSH2 0xA1D JUMP JUMPDEST PUSH1 0x0 DUP2 SSTORE DUP6 SWAP5 POP PUSH1 0x1 ADD PUSH2 0xE39 JUMP JUMPDEST POP DUP1 PUSH2 0xE33 JUMP JUMPDEST ADD MLOAD SWAP1 POP DUP8 DUP1 PUSH2 0x9B0 JUMP JUMPDEST SWAP3 POP PUSH1 0x1 DUP5 ADD PUSH1 0x0 MSTORE PUSH1 0x20 PUSH1 0x0 KECCAK256 SWAP1 PUSH1 0x0 SWAP4 JUMPDEST PUSH1 0x1F NOT DUP5 AND DUP6 LT PUSH2 0xEC7 JUMPI PUSH1 0x1 SWAP5 POP DUP4 PUSH1 0x1F NOT DUP2 AND LT PUSH2 0xEAE JUMPI JUMPDEST POP POP POP DUP2 SHL ADD PUSH1 0x1 DUP3 ADD SSTORE PUSH2 0x9C8 JUMP JUMPDEST ADD MLOAD PUSH1 0x0 NOT PUSH1 0xF8 DUP5 PUSH1 0x3 SHL AND SHR NOT AND SWAP1 SSTORE DUP8 DUP1 DUP1 PUSH2 0xE9E JUMP JUMPDEST DUP2 DUP2 ADD MLOAD DUP4 SSTORE PUSH1 0x20 SWAP5 DUP6 ADD SWAP5 PUSH1 0x1 SWAP1 SWAP4 ADD SWAP3 SWAP1 SWAP2 ADD SWAP1 PUSH2 0xE83 JUMP JUMPDEST SWAP1 SWAP2 POP PUSH1 0x1 DUP5 ADD PUSH1 0x0 MSTORE PUSH1 0x20 PUSH1 0x0 KECCAK256 PUSH1 0x1F DUP5 ADD PUSH1 0x5 SHR DUP2 ADD PUSH1 0x20 DUP6 LT PUSH2 0xF2E JUMPI JUMPDEST SWAP1 DUP5 SWAP4 SWAP3 SWAP2 JUMPDEST PUSH1 0x1F DUP4 ADD PUSH1 0x5 SHR DUP3 ADD DUP2 LT PUSH2 0xF1F JUMPI POP POP PUSH2 0x999 JUMP JUMPDEST PUSH1 0x0 DUP2 SSTORE DUP6 SWAP5 POP PUSH1 0x1 ADD PUSH2 0xF09 JUMP JUMPDEST POP DUP1 PUSH2 0xF03 JUMP JUMPDEST DUP4 PUSH4 0x4E487B71 PUSH1 0xE0 SHL PUSH1 0x0 MSTORE PUSH1 0x11 PUSH1 0x4 MSTORE PUSH1 0x0 REVERT JUMPDEST POP PUSH1 0x0 PUSH2 0x91C JUMP JUMPDEST PUSH1 0x40 MLOAD PUSH3 0x461BCD PUSH1 0xE5 SHL DUP2 MSTORE PUSH1 0x20 PUSH1 0x4 DUP3 ADD MSTORE PUSH1 0x17 DUP2 DUP6 ADD MSTORE PUSH32 0x507572706F73652063616E6E6F7420626520656D707479000000000000000000 PUSH1 0x44 DUP3 ADD MSTORE PUSH1 0x64 SWAP1 REVERT JUMPDEST PUSH1 0x40 MLOAD PUSH3 0x461BCD PUSH1 0xE5 SHL DUP2 MSTORE PUSH1 0x20 PUSH1 0x4 DUP3 ADD MSTORE PUSH1 0x1C DUP2 DUP6 ADD MSTORE PUSH32 0x436F6E73656E7420747970652063616E6E6F7420626520656D70747900000000 PUSH1 0x44 DUP3 ADD MSTORE PUSH1 0x64 SWAP1 REVERT JUMPDEST PUSH1 0x40 MLOAD PUSH3 0x461BCD PUSH1 0xE5 SHL DUP2 MSTORE PUSH1 0x20 PUSH1 0x4 DUP3 ADD MSTORE PUSH1 0x1C DUP2 DUP6 ADD MSTORE PUSH32 0x456D706C6F796565204449442063616E6E6F7420626520656D70747900000000 PUSH1 0x44 DUP3 ADD MSTORE PUSH1 0x64 SWAP1 REVERT JUMPDEST CALLVALUE PUSH2 0x17F JUMPI PUSH1 0x20 DUP1 PUSH1 0x3 NOT CALLDATASIZE ADD SLT PUSH2 0x17F JUMPI PUSH1 0x4 CALLDATALOAD SWAP1 DUP2 PUSH1 0x0 MSTORE PUSH1 0x2 DUP2 MSTORE PUSH1 0x40 PUSH1 0x0 KECCAK256 PUSH2 0x104D DUP2 SLOAD ISZERO ISZERO PUSH2 0x142D JUMP JUMPDEST PUSH1 0x2 DUP2 ADD SLOAD CALLER PUSH1 0x1 PUSH1 0x1 PUSH1 0xA0 SHL SUB SWAP2 DUP3 AND EQ SWAP1 DUP2 ISZERO PUSH2 0x114D JUMPI JUMPDEST POP ISZERO PUSH2 0x1108 JUMPI PUSH1 0x7 DUP2 ADD DUP1 SLOAD PUSH1 0xFF DUP2 AND ISZERO PUSH2 0x10C3 JUMPI PUSH1 0xFF NOT AND SWAP1 SSTORE PUSH1 0x40 MLOAD DUP3 DUP2 MSTORE PUSH32 0x86CA7D68CB96D8E97A06BC94B1E331F2E4EF2BB0B2BAC9CBE7DE828F2E4A53A4 SWAP3 SWAP1 SWAP2 DUP3 SWAP2 PUSH2 0x10BE SWAP2 SWAP1 DUP4 ADD SWAP1 PUSH1 0x1 ADD PUSH2 0x1305 JUMP JUMPDEST SUB SWAP1 LOG2 STOP JUMPDEST PUSH1 0x40 MLOAD PUSH3 0x461BCD PUSH1 0xE5 SHL DUP2 MSTORE PUSH1 0x4 DUP2 ADD DUP6 SWAP1 MSTORE PUSH1 0x17 PUSH1 0x24 DUP3 ADD MSTORE PUSH32 0x436F6E73656E7420616C7265616479207265766F6B6564000000000000000000 PUSH1 0x44 DUP3 ADD MSTORE PUSH1 0x64 SWAP1 REVERT JUMPDEST PUSH1 0x40 MLOAD PUSH3 0x461BCD PUSH1 0xE5 SHL DUP2 MSTORE PUSH1 0x4 DUP2 ADD DUP4 SWAP1 MSTORE PUSH1 0x18 PUSH1 0x24 DUP3 ADD MSTORE PUSH32 0x4E6F7420617574686F72697A656420746F207265766F6B650000000000000000 PUSH1 0x44 DUP3 ADD MSTORE PUSH1 0x64 SWAP1 REVERT JUMPDEST PUSH1 0x0 SLOAD AND CALLER EQ SWAP1 POP DUP5 PUSH2 0x1067 JUMP JUMPDEST PUSH2 0x120 DUP2 ADD SWAP1 DUP2 LT PUSH1 0x1 PUSH1 0x1 PUSH1 0x40 SHL SUB DUP3 GT OR PUSH2 0x1177 JUMPI PUSH1 0x40 MSTORE JUMP JUMPDEST PUSH4 0x4E487B71 PUSH1 0xE0 SHL PUSH1 0x0 MSTORE PUSH1 0x41 PUSH1 0x4 MSTORE PUSH1 0x24 PUSH1 0x0 REVERT JUMPDEST SWAP1 PUSH1 0x1F DUP1 NOT SWAP2 ADD AND DUP2 ADD SWAP1 DUP2 LT PUSH1 0x1 PUSH1 0x1 PUSH1 0x40 SHL SUB DUP3 GT OR PUSH2 0x1177 JUMPI PUSH1 0x40 MSTORE JUMP JUMPDEST DUP2 PUSH1 0x1F DUP3 ADD SLT ISZERO PUSH2 0x17F JUMPI DUP1 CALLDATALOAD SWAP1 PUSH1 0x1 PUSH1 0x1 PUSH1 0x40 SHL SUB DUP3 GT PUSH2 0x1177 JUMPI PUSH1 0x40 MLOAD SWAP3 PUSH2 0x11E2 PUSH1 0x1F DUP5 ADD PUSH1 0x1F NOT AND PUSH1 0x20 ADD DUP6 PUSH2 0x118D JUMP JUMPDEST DUP3 DUP5 MSTORE PUSH1 0x20 DUP4 DUP4 ADD ADD GT PUSH2 0x17F JUMPI DUP2 PUSH1 0x0 SWAP3 PUSH1 0x20 DUP1 SWAP4 ADD DUP4 DUP7 ADD CALLDATACOPY DUP4 ADD ADD MSTORE SWAP1 JUMP JUMPDEST PUSH1 0x4 CALLDATALOAD SWAP1 PUSH1 0x1 PUSH1 0x1 PUSH1 0xA0 SHL SUB DUP3 AND DUP3 SUB PUSH2 0x17F JUMPI JUMP JUMPDEST DUP1 SLOAD DUP3 LT ISZERO PUSH2 0x1232 JUMPI PUSH1 0x0 MSTORE PUSH1 0x20 PUSH1 0x0 KECCAK256 ADD SWAP1 PUSH1 0x0 SWAP1 JUMP JUMPDEST PUSH4 0x4E487B71 PUSH1 0xE0 SHL PUSH1 0x0 MSTORE PUSH1 0x32 PUSH1 0x4 MSTORE PUSH1 0x24 PUSH1 0x0 REVERT JUMPDEST PUSH1 0x20 SWAP1 DUP2 PUSH1 0x40 DUP2 DUP4 ADD SWAP3 DUP3 DUP2 MSTORE DUP6 MLOAD DUP1 SWAP5 MSTORE ADD SWAP4 ADD SWAP2 PUSH1 0x0 JUMPDEST DUP3 DUP2 LT PUSH2 0x126F JUMPI POP POP POP POP SWAP1 JUMP JUMPDEST DUP4 MLOAD DUP6 MSTORE SWAP4 DUP2 ADD SWAP4 SWAP3 DUP2 ADD SWAP3 PUSH1 0x1 ADD PUSH2 0x1261 JUMP JUMPDEST PUSH1 0x0 JUMPDEST DUP4 DUP2 LT PUSH2 0x1296 JUMPI POP POP PUSH1 0x0 SWAP2 ADD MSTORE JUMP JUMPDEST DUP2 DUP2 ADD MLOAD DUP4 DUP3 ADD MSTORE PUSH1 0x20 ADD PUSH2 0x1286 JUMP JUMPDEST SWAP1 PUSH1 0x20 SWAP2 PUSH2 0x12BF DUP2 MLOAD DUP1 SWAP3 DUP2 DUP6 MSTORE DUP6 DUP1 DUP7 ADD SWAP2 ADD PUSH2 0x1283 JUMP JUMPDEST PUSH1 0x1F ADD PUSH1 0x1F NOT AND ADD ADD SWAP1 JUMP JUMPDEST SWAP1 PUSH1 0x1 DUP3 DUP2 SHR SWAP3 AND DUP1 ISZERO PUSH2 0x12FB JUMPI JUMPDEST PUSH1 0x20 DUP4 LT EQ PUSH2 0x12E5 JUMPI JUMP JUMPDEST PUSH4 0x4E487B71 PUSH1 0xE0 SHL PUSH1 0x0 MSTORE PUSH1 0x22 PUSH1 0x4 MSTORE PUSH1 0x24 PUSH1 0x0 REVERT JUMPDEST SWAP2 PUSH1 0x7F AND SWAP2 PUSH2 0x12DA JUMP JUMPDEST SWAP1 PUSH1 0x0 SWAP3 SWAP2 DUP1 SLOAD SWAP2 PUSH2 0x1316 DUP4 PUSH2 0x12CB JUMP JUMPDEST SWAP2 DUP3 DUP3 MSTORE PUSH1 0x1 SWAP4 DUP5 DUP2 AND SWAP1 DUP2 PUSH1 0x0 EQ PUSH2 0x1378 JUMPI POP PUSH1 0x1 EQ PUSH2 0x1338 JUMPI JUMPDEST POP POP POP POP JUMP JUMPDEST SWAP1 SWAP2 SWAP4 SWAP5 POP PUSH1 0x0 MSTORE PUSH1 0x20 SWAP3 DUP4 PUSH1 0x0 KECCAK256 SWAP3 DUP5 PUSH1 0x0 SWAP5 JUMPDEST DUP4 DUP7 LT PUSH2 0x1364 JUMPI POP POP POP POP ADD ADD SWAP1 CODESIZE DUP1 DUP1 DUP1 PUSH2 0x1332 JUMP JUMPDEST DUP1 SLOAD DUP6 DUP8 ADD DUP4 ADD MSTORE SWAP5 ADD SWAP4 DUP6 SWAP1 DUP3 ADD PUSH2 0x134D JUMP JUMPDEST SWAP3 SWAP5 POP POP POP PUSH1 0x20 SWAP4 SWAP5 POP PUSH1 0xFF NOT AND DUP4 DUP4 ADD MSTORE ISZERO ISZERO PUSH1 0x5 SHL ADD ADD SWAP1 CODESIZE DUP1 DUP1 DUP1 PUSH2 0x1332 JUMP JUMPDEST PUSH1 0x0 SLOAD PUSH1 0x1 PUSH1 0x1 PUSH1 0xA0 SHL SUB AND CALLER SUB PUSH2 0x13AF JUMPI JUMP JUMPDEST PUSH1 0x64 PUSH1 0x40 MLOAD PUSH3 0x461BCD PUSH1 0xE5 SHL DUP2 MSTORE PUSH1 0x20 PUSH1 0x4 DUP3 ADD MSTORE PUSH1 0x20 PUSH1 0x24 DUP3 ADD MSTORE PUSH32 0x4F776E61626C653A2063616C6C6572206973206E6F7420746865206F776E6572 PUSH1 0x44 DUP3 ADD MSTORE REVERT JUMPDEST DUP1 SLOAD PUSH9 0x10000000000000000 DUP2 LT ISZERO PUSH2 0x1177 JUMPI PUSH2 0x1415 SWAP2 PUSH1 0x1 DUP3 ADD DUP2 SSTORE PUSH2 0x121A JUMP JUMPDEST DUP2 SWAP3 SWAP2 SLOAD SWAP1 PUSH1 0x3 SHL SWAP2 DUP3 SHL SWAP2 PUSH1 0x0 NOT SWAP1 SHL NOT AND OR SWAP1 SSTORE JUMP JUMPDEST ISZERO PUSH2 0x1434 JUMPI JUMP JUMPDEST PUSH1 0x40 MLOAD PUSH3 0x461BCD PUSH1 0xE5 SHL DUP2 MSTORE PUSH1 0x20 PUSH1 0x4 DUP3 ADD MSTORE PUSH1 0x16 PUSH1 0x24 DUP3 ADD MSTORE PUSH22 0x10DBDB9CD95B9D08191BD95CC81B9BDD08195E1A5CDD PUSH1 0x52 SHL PUSH1 0x44 DUP3 ADD MSTORE PUSH1 0x64 SWAP1 REVERT JUMPDEST PUSH1 0x0 MSTORE PUSH1 0x2 PUSH1 0x20 MSTORE PUSH1 0x40 DUP1 PUSH1 0x0 KECCAK256 SWAP1 DUP1 MLOAD PUSH2 0x148C DUP2 PUSH2 0x115B JUMP JUMPDEST DUP3 SLOAD DUP2 MSTORE DUP2 MLOAD PUSH2 0x14A3 DUP2 PUSH2 0x29A DUP2 PUSH1 0x1 DUP9 ADD PUSH2 0x1305 JUMP JUMPDEST PUSH1 0x20 DUP3 ADD MSTORE PUSH1 0x2 DUP4 ADD SLOAD PUSH1 0x1 PUSH1 0x1 PUSH1 0xA0 SHL SUB AND DUP3 DUP3 ADD MSTORE DUP2 MLOAD PUSH2 0x14CD DUP2 PUSH2 0x29A DUP2 PUSH1 0x3 DUP9 ADD PUSH2 0x1305 JUMP JUMPDEST PUSH1 0x60 DUP3 ADD MSTORE DUP2 MLOAD PUSH2 0x14E5 DUP2 PUSH2 0x29A DUP2 PUSH1 0x4 DUP9 ADD PUSH2 0x1305 JUMP JUMPDEST PUSH1 0x80 DUP3 ADD MSTORE PUSH1 0x5 DUP4 ADD SLOAD PUSH1 0xA0 DUP3 ADD MSTORE PUSH1 0x8 PUSH2 0x1526 PUSH1 0x6 DUP6 ADD SLOAD SWAP5 PUSH1 0xC0 DUP5 ADD SWAP6 DUP7 MSTORE PUSH2 0x29A PUSH1 0xFF PUSH1 0x7 DUP4 ADD SLOAD AND SWAP6 PUSH1 0xE0 DUP7 ADD SWAP7 ISZERO ISZERO DUP8 MSTORE MLOAD DUP1 SWAP5 DUP2 SWAP4 ADD PUSH2 0x1305 JUMP JUMPDEST PUSH2 0x100 DUP3 ADD MSTORE MLOAD ISZERO PUSH2 0x1562 JUMPI MLOAD ISZERO PUSH2 0x155C JUMPI MLOAD DUP1 ISZERO ISZERO SWAP1 DUP2 PUSH2 0x1552 JUMPI JUMPDEST POP PUSH2 0x154D JUMPI PUSH1 0x1 SWAP1 JUMP JUMPDEST PUSH1 0x0 SWAP1 JUMP JUMPDEST SWAP1 POP TIMESTAMP GT CODESIZE PUSH2 0x1543 JUMP JUMPDEST POP PUSH1 0x0 SWAP1 JUMP JUMPDEST POP POP PUSH1 0x0 SWAP1 JUMP JUMPDEST PUSH1 0x0 NOT DUP2 EQ PUSH2 0x1578 JUMPI PUSH1 0x1 ADD SWAP1 JUMP JUMPDEST PUSH4 0x4E487B71 PUSH1 0xE0 SHL PUSH1 0x0 MSTORE PUSH1 0x11 PUSH1 0x4 MSTORE PUSH1 0x24 PUSH1 0x0 REVERT JUMPDEST PUSH1 0x40 DUP1 MLOAD SWAP3 DUP3 MLOAD PUSH2 0x15A4 DUP2 DUP7 PUSH1 0x20 DUP1 SWAP8 ADD PUSH2 0x1283 JUMP JUMPDEST DUP5 ADD SWAP4 DUP4 DUP2 PUSH1 0x3 SWAP7 DUP8 DUP2 MSTORE SUB ADD SWAP1 KECCAK256 SWAP3 DUP3 MLOAD SWAP2 DUP3 DUP4 DUP4 DUP8 SLOAD SWAP3 DUP4 DUP2 MSTORE ADD PUSH1 0x0 SWAP8 DUP9 MSTORE DUP5 DUP9 KECCAK256 SWAP3 DUP9 JUMPDEST DUP7 DUP3 DUP3 LT PUSH2 0x173E JUMPI POP POP POP PUSH2 0x15E3 SWAP3 POP SUB DUP5 PUSH2 0x118D JUMP JUMPDEST DUP5 JUMPDEST DUP4 MLOAD DUP2 LT ISZERO PUSH2 0x1734 JUMPI PUSH1 0x5 DUP4 DUP3 DUP3 SHL DUP7 ADD ADD MLOAD DUP8 MSTORE PUSH1 0x2 SWAP1 DUP2 DUP6 MSTORE DUP7 DUP9 KECCAK256 DUP8 MLOAD SWAP2 PUSH2 0x160F DUP4 PUSH2 0x115B JUMP JUMPDEST DUP2 SLOAD DUP4 MSTORE DUP9 MLOAD PUSH1 0x1 SWAP5 SWAP1 DUP1 PUSH2 0x1626 DUP2 DUP9 DUP8 ADD PUSH2 0x1305 JUMP JUMPDEST SUB PUSH2 0x1631 SWAP1 DUP3 PUSH2 0x118D JUMP JUMPDEST DUP5 DUP10 ADD MSTORE DUP3 ADD SLOAD PUSH1 0x1 PUSH1 0x1 PUSH1 0xA0 SHL SUB AND DUP10 DUP5 ADD MSTORE DUP9 MLOAD SWAP1 DUP2 PUSH2 0x1655 DUP2 DUP15 DUP7 ADD PUSH2 0x1305 JUMP JUMPDEST SUB PUSH2 0x1660 SWAP1 DUP4 PUSH2 0x118D JUMP JUMPDEST PUSH1 0x60 DUP5 ADD SWAP2 DUP3 MSTORE DUP10 MLOAD DUP1 PUSH2 0x1677 DUP2 PUSH1 0x4 DUP8 ADD PUSH2 0x1305 JUMP JUMPDEST SUB PUSH2 0x1682 SWAP1 DUP3 PUSH2 0x118D JUMP JUMPDEST PUSH1 0x80 DUP6 ADD MSTORE DUP3 ADD SLOAD PUSH1 0xA0 DUP5 ADD MSTORE PUSH1 0x6 DUP3 ADD SLOAD SWAP2 PUSH1 0xC0 DUP5 ADD SWAP3 DUP4 MSTORE PUSH1 0x7 DUP2 ADD SLOAD PUSH1 0xFF AND SWAP4 PUSH1 0xE0 DUP2 ADD SWAP5 ISZERO ISZERO DUP6 MSTORE DUP11 MLOAD DUP1 PUSH1 0x8 DUP2 SWAP5 ADD SWAP1 PUSH2 0x16C0 SWAP2 PUSH2 0x1305 JUMP JUMPDEST SUB PUSH2 0x16CB SWAP1 DUP4 PUSH2 0x118D JUMP JUMPDEST PUSH2 0x100 ADD MSTORE MLOAD DUP7 DUP2 MLOAD SWAP2 ADD KECCAK256 DUP6 MLOAD DUP8 DUP8 ADD KECCAK256 EQ SWAP2 DUP3 PUSH2 0x1729 JUMPI JUMPDEST POP DUP2 PUSH2 0x170B JUMPI JUMPDEST POP PUSH2 0x1700 JUMPI POP PUSH2 0x16FB SWAP1 PUSH2 0x1569 JUMP JUMPDEST PUSH2 0x15E5 JUMP JUMPDEST SWAP7 POP POP POP POP POP POP POP SWAP1 JUMP JUMPDEST MLOAD DUP1 ISZERO SWAP2 POP DUP2 ISZERO PUSH2 0x171E JUMPI JUMPDEST POP CODESIZE PUSH2 0x16EC JUMP JUMPDEST SWAP1 POP TIMESTAMP GT ISZERO CODESIZE PUSH2 0x1717 JUMP JUMPDEST MLOAD ISZERO ISZERO SWAP2 POP CODESIZE PUSH2 0x16E5 JUMP JUMPDEST POP POP POP POP POP SWAP1 POP SWAP1 JUMP JUMPDEST DUP6 SLOAD DUP5 MSTORE PUSH1 0x1 SWAP6 DUP7 ADD SWAP6 DUP10 SWAP6 POP SWAP4 ADD SWAP3 ADD PUSH2 0x15CC JUMP INVALID LOG2 PUSH5 0x6970667358 0x22 SLT KECCAK256 0x21 0xB0 0x23 0x4E DUP8 DUP15 SWAP16 0xF6 0xB1 CALLVALUE PUSH23 0xB0F81DC9A48D4BEBE2489822783C08F0D91EEDF47F6473 PUSH16 0x6C634300081300330000000000000000 "},"methodIdentifiers":{"consents(uint256)":"d557d53a","employeeConsents(string,uint256)":"a70cd141","expireConsents()":"68465c7b","getConsent(uint256)":"7a0e09aa","getEmployeeConsents(string)":"77581f93","getWalletConsents(address)":"e630bc28","giveConsent(string,string,string,uint256,string)":"212c796b","hasActiveConsent(string,string)":"512f30a9","isConsentValid(uint256)":"dd4544a1","owner()":"8da5cb5b","renounceOwnership()":"715018a6","revokeConsent(uint256)":"16a0042c","transferOwnership(address)":"f2fde38b","walletConsents(address,uint256)":"6827e788"}}}}}