{
  "_format": "hh-sol-artifact-1",
  "contractName": "ConsentManagement",
  "sourceName": "contracts/ConsentManagement.sol",
  "abi": [
    {
      "inputs": [],
      "stateMutability": "nonpayable",
      "type": "constructor"
    },
    {
      "anonymous": false,
      "inputs": [
        {
          "indexed": true,
          "internalType": "uint256",
          "name": "consentId",
          "type": "uint256"
        },
        {
          "indexed": false,
          "internalType": "string",
          "name": "employeeDid",
          "type": "string"
        }
      ],
      "name": "ConsentExpired",
      "type": "event"
    },
    {
      "anonymous": false,
      "inputs": [
        {
          "indexed": true,
          "internalType": "uint256",
          "name": "consentId",
          "type": "uint256"
        },
        {
          "indexed": false,
          "internalType": "string",
          "name": "employeeDid",
          "type": "string"
        },
        {
          "indexed": false,
          "internalType": "address",
          "name": "walletAddress",
          "type": "address"
        }
      ],
      "name": "ConsentGiven",
      "type": "event"
    },
    {
      "anonymous": false,
      "inputs": [
        {
          "indexed": true,
          "internalType": "uint256",
          "name": "consentId",
          "type": "uint256"
        },
        {
          "indexed": false,
          "internalType": "string",
          "name": "employeeDid",
          "type": "string"
        }
      ],
      "name": "ConsentRevoked",
      "type": "event"
    },
    {
      "anonymous": false,
      "inputs": [
        {
          "indexed": true,
          "internalType": "address",
          "name": "previousOwner",
          "type": "address"
        },
        {
          "indexed": true,
          "internalType": "address",
          "name": "newOwner",
          "type": "address"
        }
      ],
      "name": "OwnershipTransferred",
      "type": "event"
    },
    {
      "inputs": [
        {
          "internalType": "uint256",
          "name": "",
          "type": "uint256"
        }
      ],
      "name": "consents",
      "outputs": [
        {
          "internalType": "uint256",
          "name": "consentId",
          "type": "uint256"
        },
        {
          "internalType": "string",
          "name": "employeeDid",
          "type": "string"
        },
        {
          "internalType": "address",
          "name": "walletAddress",
          "type": "address"
        },
        {
          "internalType": "string",
          "name": "consentType",
          "type": "string"
        },
        {
          "internalType": "string",
          "name": "purpose",
          "type": "string"
        },
        {
          "internalType": "uint256",
          "name": "issuedAt",
          "type": "uint256"
        },
        {
          "internalType": "uint256",
          "name": "expiresAt",
          "type": "uint256"
        },
        {
          "internalType": "bool",
          "name": "isActive",
          "type": "bool"
        },
        {
          "internalType": "string",
          "name": "ipfsHash",
          "type": "string"
        }
      ],
      "stateMutability": "view",
      "type": "function"
    },
    {
      "inputs": [
        {
          "internalType": "string",
          "name": "",
          "type": "string"
        },
        {
          "internalType": "uint256",
          "name": "",
          "type": "uint256"
        }
      ],
      "name": "employeeConsents",
      "outputs": [
        {
          "internalType": "uint256",
          "name": "",
          "type": "uint256"
        }
      ],
      "stateMutability": "view",
      "type": "function"
    },
    {
      "inputs": [],
      "name": "expireConsents",
      "outputs": [],
      "stateMutability": "nonpayable",
      "type": "function"
    },
    {
      "inputs": [
        {
          "internalType": "uint256",
          "name": "consentId",
          "type": "uint256"
        }
      ],
      "name": "getConsent",
      "outputs": [
        {
          "components": [
            {
              "internalType": "uint256",
              "name": "consentId",
              "type": "uint256"
            },
            {
              "internalType": "string",
              "name": "employeeDid",
              "type": "string"
            },
            {
              "internalType": "address",
              "name": "walletAddress",
              "type": "address"
            },
            {
              "internalType": "string",
              "name": "consentType",
              "type": "string"
            },
            {
              "internalType": "string",
              "name": "purpose",
              "type": "string"
            },
            {
              "internalType": "uint256",
              "name": "issuedAt",
              "type": "uint256"
            },
            {
              "internalType": "uint256",
              "name": "expiresAt",
              "type": "uint256"
            },
            {
              "internalType": "bool",
              "name": "isActive",
              "type": "bool"
            },
            {
              "internalType": "string",
              "name": "ipfsHash",
              "type": "string"
            }
          ],
          "internalType": "struct ConsentManagement.Consent",
          "name": "",
          "type": "tuple"
        }
      ],
      "stateMutability": "view",
      "type": "function"
    },
    {
      "inputs": [
        {
          "internalType": "string",
          "name": "employeeDid",
          "type": "string"
        }
      ],
      "name": "getEmployeeConsents",
      "outputs": [
        {
          "internalType": "uint256[]",
          "name": "",
          "type": "uint256[]"
        }
      ],
      "stateMutability": "view",
      "type": "function"
    },
    {
      "inputs": [
        {
          "internalType": "address",
          "name": "walletAddress",
          "type": "address"
        }
      ],
      "name": "getWalletConsents",
      "outputs": [
        {
          "internalType": "uint256[]",
          "name": "",
          "type": "uint256[]"
        }
      ],
      "stateMutability": "view",
      "type": "function"
    },
    {
      "inputs": [
        {
          "internalType": "string",
          "name": "employeeDid",
          "type": "string"
        },
        {
          "internalType": "string",
          "name": "consentType",
          "type": "string"
        },
        {
          "internalType": "string",
          "name": "purpose",
          "type": "string"
        },
        {
          "internalType": "uint256",
          "name": "duration",
          "type": "uint256"
        },
        {
          "internalType": "string",
          "name": "ipfsHash",
          "type": "string"
        }
      ],
      "name": "giveConsent",
      "outputs": [
        {
          "internalType": "uint256",
          "name": "",
          "type": "uint256"
        }
      ],
      "stateMutability": "nonpayable",
      "type": "function"
    },
    {
      "inputs": [
        {
          "internalType": "string",
          "name": "employeeDid",
          "type": "string"
        },
        {
          "internalType": "string",
          "name": "consentType",
          "type": "string"
        }
      ],
      "name": "hasActiveConsent",
      "outputs": [
        {
          "internalType": "bool",
          "name": "",
          "type": "bool"
        }
      ],
      "stateMutability": "view",
      "type": "function"
    },
    {
      "inputs": [
        {
          "internalType": "uint256",
          "name": "consentId",
          "type": "uint256"
        }
      ],
      "name": "isConsentValid",
      "outputs": [
        {
          "internalType": "bool",
          "name": "",
          "type": "bool"
        }
      ],
      "stateMutability": "view",
      "type": "function"
    },
    {
      "inputs": [],
      "name": "owner",
      "outputs": [
        {
          "internalType": "address",
          "name": "",
          "type": "address"
        }
      ],
      "stateMutability": "view",
      "type": "function"
    },
    {
      "inputs": [],
      "name": "renounceOwnership",
      "outputs": [],
      "stateMutability": "nonpayable",
      "type": "function"
    },
    {
      "inputs": [
        {
          "internalType": "uint256",
          "name": "consentId",
          "type": "uint256"
        }
      ],
      "name": "revokeConsent",
      "outputs": [],
      "stateMutability": "nonpayable",
      "type": "function"
    },
    {
      "inputs": [
        {
          "internalType": "address",
          "name": "newOwner",
          "type": "address"
        }
      ],
      "name": "transferOwnership",
      "outputs": [],
      "stateMutability": "nonpayable",
      "type": "function"
    },
    {
      "inputs": [
        {
          "internalType": "address",
          "name": "",
          "type": "address"
        },
        {
          "internalType": "uint256",
          "name": "",
          "type": "uint256"
        }
      ],
      "name": "walletConsents",
      "outputs": [
        {
          "internalType": "uint256",
          "name": "",
          "type": "uint256"
        }
      ],
      "stateMutability": "view",
      "type": "function"
    }
  ],
  "bytecode": "0x6080806040523461005b5760008054336001600160a01b0319821681178355916001600160a01b03909116907f8be0079c531659141344cd1fd0a4f28419497f9722a3daafe3b4186f6b6457e09080a361178a90816100618239f35b600080fdfe6080604052600436101561001257600080fd5b60003560e01c806316a0042c1461101e578063212c796b14610858578063512f30a9146108025780636827e788146107aa57806368465c7b146106d1578063715018a61461067857806377581f93146105dd5780637a0e09aa146103ec5780638da5cb5b146103c3578063a70cd14114610349578063d557d53a14610234578063dd4544a11461020c578063e630bc28146101845763f2fde38b146100b657600080fd5b3461017f57602036600319011261017f576100cf611204565b6100d761139b565b6001600160a01b0390811690811561012b57600054826bffffffffffffffffffffffff60a01b821617600055167f8be0079c531659141344cd1fd0a4f28419497f9722a3daafe3b4186f6b6457e0600080a3005b60405162461bcd60e51b815260206004820152602660248201527f4f776e61626c653a206e6577206f776e657220697320746865207a65726f206160448201526564647265737360d01b6064820152608490fd5b600080fd5b3461017f5760208060031936011261017f576001600160a01b036101a6611204565b1660005260048152604060002090604051908181845491828152019360005281600020916000905b8282106101f5576101f1856101e58189038261118d565b60405191829182611248565b0390f35b8354865294850194600193840193909101906101ce565b3461017f57602036600319011261017f57602061022a600435611472565b6040519015158152f35b3461017f57602036600319011261017f576004356000526002602052604060002080546101f1604051926102768461026f8160018501611305565b038561118d565b600860018060a01b03600283015416916040516102a18161029a8160038601611305565b038261118d565b6103296040516102b88161029a8160048801611305565b61031b6005850154966006860154946102ea60ff600789015416976102e3604051809b819301611305565b038961118d565b6103086040519c8d9c8d5260208d61012091829101528d01906112a6565b9160408c01528a820360608c01526112a6565b9088820360808a01526112a6565b9360a087015260c0860152151560e08501528382036101008501526112a6565b3461017f57604036600319011261017f576004356001600160401b03811161017f576103799036906004016111ae565b6103956020602435928160405193828580945193849201611283565b81016003815203019020805482101561017f576020916103b49161121a565b90549060031b1c604051908152f35b3461017f57600036600319011261017f576000546040516001600160a01b039091168152602090f35b3461017f5760208060031936011261017f576004359060405161040e8161115b565b6000815260609283838301526040820160009052838083015283608083015260a082016000905260c082016000905260e08201600090528361010080930152806000526002835260406000205415156104669061142d565b6000526002825260406000209260405161047f8161115b565b8454815260405194856104958160018401611305565b036104a0908761118d565b81850195865260028101546001600160a01b0390811660408085019182525190959094909190856104d48160038701611305565b036104df908761118d565b848101958652604051806104f68160048801611305565b03610501908261118d565b6080860190815260058501549660a0870197885260068601549260c08801938452600787015460ff169460e089019515158652604051806008819a019061054791611305565b03610552908961118d565b8689019788526040519c8c8e9d9a8e9b8c5251908b0152516101206040819b01526101408d01610581916112a6565b9a5116908b015251601f1998898b82030160808c01526105a0916112a6565b905190888a82030160a08b01526105b6916112a6565b955160c08901525160e088015251151590860152519284830301908401526101f1916112a6565b3461017f5760208060031936011261017f576004356001600160401b03811161017f57816106126106259236906004016111ae565b8160405193828580945193849201611283565b8101600381520301902090604051908181845491828152019360005281600020916000905b828210610661576101f1856101e58189038261118d565b83548652948501946001938401939091019061064a565b3461017f57600036600319011261017f5761069161139b565b600080546001600160a01b0319811682556001600160a01b03167f8be0079c531659141344cd1fd0a4f28419497f9722a3daafe3b4186f6b6457e08280a3005b3461017f57600036600319011261017f576106ea61139b565b600180805b6106f557005b815481116107a85761073c8183926000528060206002815284604060002091600783019283549060ff82168061079b575b8061078e575b610742575b505050505050611569565b906106ef565b7f84e235a3ef1ddb32276a73d1e77be7548b8ed6ec502b1087d451a5d47ddc4d7a946107809260ff1916905560405193838594855284019101611305565b0390a2808584818080610731565b506006810154421161072c565b5060068101541515610726565b005b3461017f57604036600319011261017f576107c3611204565b6001600160a01b031660009081526004602052604090208054602435919082101561017f576020916107f49161121a565b90546040519160031b1c8152f35b3461017f57604036600319011261017f576001600160401b0360043581811161017f576108339036906004016111ae565b9060243590811161017f5760209161085261022a9236906004016111ae565b9061158e565b3461017f5760a036600319011261017f576004356001600160401b03811161017f576108889036906004016111ae565b602480356001600160401b03811161017f576108a89036906004016111ae565b906044356001600160401b03811161017f576108c89036906004016111ae565b90606435926084356001600160401b03811161017f576108ec9036906004016111ae565b855115610fda57815115610f9657835115610f525760018054810190819055948015610f4a574201804211610f35575b604051946109298661115b565b8686526020860193888552336040880152606087015260808601524260a086015260c0850152600160e085015261010084015283600052600260205260406000209083518255518051906001600160401b038211610d8057819061099060018501546112cb565b601f8111610ee2575b50602090601f8311600114610e7057600092610e65575b50508160011b916000199060031b1c19161760018201555b6002810160018060a01b036040850151166bffffffffffffffffffffffff60a01b82541617905560608301518051906001600160401b038211610d80578190610a1460038501546112cb565b601f8111610e12575b50602090601f8311600114610da057600092610d95575b50508160011b916000199060031b1c19161760038201555b60808301518051906001600160401b038211610d8057610a6f60048401546112cb565b601f8111610d39575b50602090601f8311600114610cc35791806101009492600894600092610cb8575b50508160011b916000199060031b1c19161760048201555b60a0850151600582015560c085015160068201556007810160e0860151151560ff80198354169116179055019201518051916001600160401b038311610ca45750610afc83546112cb565b601f8111610c5c575b50916020949184938690601f8311600114610bcd579180610bb294927f9b9326caa55365f28cc3bce4f16dd2f0ac42ad809d8526b1879f7d49b9d7d3ae9694600092610bc2575b50508160011b916000199060031b1c19161790555b610b888460405188818551610b798183858a01611283565b810160038152030190206113f3565b3360005260048652610b9e8460406000206113f3565b6040519182916040835260408301906112a6565b33878301520390a2604051908152f35b015190508980610b4c565b90601f1983169184600052886000209260005b818110610c4257509260019285927f9b9326caa55365f28cc3bce4f16dd2f0ac42ad809d8526b1879f7d49b9d7d3ae9896610bb2989610610c29575b505050811b019055610b61565b015160001960f88460031b161c19169055898080610c1c565b828401518555899850600190940193928a01928a01610be0565b836000526020600020601f840160051c81019160208510610c9a575b601f0160051c01905b818110610c8e5750610b05565b60008155600101610c81565b9091508190610c78565b634e487b7160e01b60009081526041600452fd5b015190508980610a99565b906004840160005260206000209160005b601f1985168110610d21575092610100949260019260089583601f19811610610d08575b505050811b016004820155610ab1565b015160001960f88460031b161c19169055898080610cf8565b91926020600181928685015181550194019201610cd4565b600484016000526020600020601f840160051c810160208510610d79575b601f830160051c82018110610d6d575050610a78565b60008155600101610d57565b5080610d57565b83634e487b7160e01b60005260416004526000fd5b015190508780610a34565b9250600384016000526020600020906000935b601f1984168510610df7576001945083601f19811610610dde575b505050811b016003820155610a4c565b015160001960f88460031b161c19169055878080610dce565b81810151835560209485019460019093019290910190610db3565b909150600384016000526020600020601f840160051c810160208510610e5e575b90849392915b601f830160051c82018110610e4f575050610a1d565b60008155859450600101610e39565b5080610e33565b0151905087806109b0565b9250600184016000526020600020906000935b601f1984168510610ec7576001945083601f19811610610eae575b505050811b0160018201556109c8565b015160001960f88460031b161c19169055878080610e9e565b81810151835560209485019460019093019290910190610e83565b909150600184016000526020600020601f840160051c810160208510610f2e575b90849392915b601f830160051c82018110610f1f575050610999565b60008155859450600101610f09565b5080610f03565b83634e487b7160e01b60005260116004526000fd5b50600061091c565b60405162461bcd60e51b8152602060048201526017818501527f507572706f73652063616e6e6f7420626520656d7074790000000000000000006044820152606490fd5b60405162461bcd60e51b815260206004820152601c818501527f436f6e73656e7420747970652063616e6e6f7420626520656d707479000000006044820152606490fd5b60405162461bcd60e51b815260206004820152601c818501527f456d706c6f796565204449442063616e6e6f7420626520656d707479000000006044820152606490fd5b3461017f5760208060031936011261017f57600435908160005260028152604060002061104d8154151561142d565b6002810154336001600160a01b039182161490811561114d575b50156111085760078101805460ff8116156110c35760ff191690556040518281527f86ca7d68cb96d8e97a06bc94b1e331f2e4ef2bb0b2bac9cbe7de828f2e4a53a492909182916110be9190830190600101611305565b0390a2005b60405162461bcd60e51b815260048101859052601760248201527f436f6e73656e7420616c7265616479207265766f6b65640000000000000000006044820152606490fd5b60405162461bcd60e51b815260048101839052601860248201527f4e6f7420617574686f72697a656420746f207265766f6b6500000000000000006044820152606490fd5b600054163314905084611067565b61012081019081106001600160401b0382111761117757604052565b634e487b7160e01b600052604160045260246000fd5b90601f801991011681019081106001600160401b0382111761117757604052565b81601f8201121561017f578035906001600160401b03821161117757604051926111e2601f8401601f19166020018561118d565b8284526020838301011161017f57816000926020809301838601378301015290565b600435906001600160a01b038216820361017f57565b80548210156112325760005260206000200190600090565b634e487b7160e01b600052603260045260246000fd5b6020908160408183019282815285518094520193019160005b82811061126f575050505090565b835185529381019392810192600101611261565b60005b8381106112965750506000910152565b8181015183820152602001611286565b906020916112bf81518092818552858086019101611283565b601f01601f1916010190565b90600182811c921680156112fb575b60208310146112e557565b634e487b7160e01b600052602260045260246000fd5b91607f16916112da565b9060009291805491611316836112cb565b9182825260019384811690816000146113785750600114611338575b50505050565b90919394506000526020928360002092846000945b838610611364575050505001019038808080611332565b80548587018301529401938590820161134d565b9294505050602093945060ff191683830152151560051b01019038808080611332565b6000546001600160a01b031633036113af57565b606460405162461bcd60e51b815260206004820152602060248201527f4f776e61626c653a2063616c6c6572206973206e6f7420746865206f776e65726044820152fd5b805468010000000000000000811015611177576114159160018201815561121a565b819291549060031b91821b91600019901b1916179055565b1561143457565b60405162461bcd60e51b815260206004820152601660248201527510dbdb9cd95b9d08191bd95cc81b9bdd08195e1a5cdd60521b6044820152606490fd5b600052600260205260408060002090805161148c8161115b565b8254815281516114a38161029a8160018801611305565b602082015260028301546001600160a01b03168282015281516114cd8161029a8160038801611305565b606082015281516114e58161029a8160048801611305565b6080820152600583015460a0820152600861152660068501549460c0840195865261029a60ff6007830154169560e086019615158752518094819301611305565b610100820152511561156257511561155c57518015159081611552575b5061154d57600190565b600090565b9050421138611543565b50600090565b5050600090565b60001981146115785760010190565b634e487b7160e01b600052601160045260246000fd5b604080519282516115a481866020809701611283565b8401938381600396878152030190209282519182838387549283815201600097885284882092885b8682821061173e575050506115e39250038461118d565b845b83518110156117345760058382821b86010151875260029081855286882087519161160f8361115b565b815483528851600194908061162681888701611305565b03611631908261118d565b848901528201546001600160a01b03168984015288519081611655818e8601611305565b03611660908361118d565b606084019182528951806116778160048701611305565b03611682908261118d565b608085015282015460a084015260068201549160c08401928352600781015460ff169360e0810194151585528a51806008819401906116c091611305565b036116cb908361118d565b610100015251868151910120855187870120149182611729575b508161170b575b5061170057506116fb90611569565b6115e5565b965050505050505090565b5180159150811561171e575b50386116ec565b905042111538611717565b5115159150386116e5565b5050505050905090565b85548452600195860195899550930192016115cc56fea264697066735822122021b0234e878e9ff6b13476b0f81dc9a48d4bebe2489822783c08f0d91eedf47f64736f6c63430008130033",
  "linkReferences": {},
  "deployedLinkReferences": {}
}