{
  "_format": "hh-sol-artifact-1",
  "contractName": "QRAuthentication",
  "sourceName": "contracts/QRAuthentication.sol",
  "abi": [
    {
      "inputs": [],
      "stateMutability": "nonpayable",
      "type": "constructor"
    },
    {
      "anonymous": false,
      "inputs": [
        {
          "indexed": true,
          "internalType": "address",
          "name": "owner",
          "type": "address"
        },
        {
          "indexed": true,
          "internalType": "address",
          "name": "approved",
          "type": "address"
        },
        {
          "indexed": true,
          "internalType": "uint256",
          "name": "tokenId",
          "type": "uint256"
        }
      ],
      "name": "Approval",
      "type": "event"
    },
    {
      "anonymous": false,
      "inputs": [
        {
          "indexed": true,
          "internalType": "address",
          "name": "owner",
          "type": "address"
        },
        {
          "indexed": true,
          "internalType": "address",
          "name": "operator",
          "type": "address"
        },
        {
          "indexed": false,
          "internalType": "bool",
          "name": "approved",
          "type": "bool"
        }
      ],
      "name": "ApprovalForAll",
      "type": "event"
    },
    {
      "anonymous": false,
      "inputs": [
        {
          "indexed": true,
          "internalType": "address",
          "name": "previousOwner",
          "type": "address"
        },
        {
          "indexed": true,
          "internalType": "address",
          "name": "newOwner",
          "type": "address"
        }
      ],
      "name": "OwnershipTransferred",
      "type": "event"
    },
    {
      "anonymous": false,
      "inputs": [
        {
          "indexed": true,
          "internalType": "uint256",
          "name": "tokenId",
          "type": "uint256"
        },
        {
          "indexed": false,
          "internalType": "string",
          "name": "qrCodeId",
          "type": "string"
        },
        {
          "indexed": false,
          "internalType": "string",
          "name": "employeeDid",
          "type": "string"
        }
      ],
      "name": "QRTokenMinted",
      "type": "event"
    },
    {
      "anonymous": false,
      "inputs": [
        {
          "indexed": true,
          "internalType": "uint256",
          "name": "tokenId",
          "type": "uint256"
        },
        {
          "indexed": false,
          "internalType": "string",
          "name": "qrCodeId",
          "type": "string"
        }
      ],
      "name": "QRTokenRevoked",
      "type": "event"
    },
    {
      "anonymous": false,
      "inputs": [
        {
          "indexed": true,
          "internalType": "uint256",
          "name": "tokenId",
          "type": "uint256"
        },
        {
          "indexed": false,
          "internalType": "string",
          "name": "qrCodeId",
          "type": "string"
        },
        {
          "indexed": false,
          "internalType": "uint256",
          "name": "usageCount",
          "type": "uint256"
        }
      ],
      "name": "QRTokenUsed",
      "type": "event"
    },
    {
      "anonymous": false,
      "inputs": [
        {
          "indexed": true,
          "internalType": "address",
          "name": "from",
          "type": "address"
        },
        {
          "indexed": true,
          "internalType": "address",
          "name": "to",
          "type": "address"
        },
        {
          "indexed": true,
          "internalType": "uint256",
          "name": "tokenId",
          "type": "uint256"
        }
      ],
      "name": "Transfer",
      "type": "event"
    },
    {
      "inputs": [
        {
          "internalType": "address",
          "name": "to",
          "type": "address"
        },
        {
          "internalType": "uint256",
          "name": "tokenId",
          "type": "uint256"
        }
      ],
      "name": "approve",
      "outputs": [],
      "stateMutability": "nonpayable",
      "type": "function"
    },
    {
      "inputs": [
        {
          "internalType": "address",
          "name": "owner",
          "type": "address"
        }
      ],
      "name": "balanceOf",
      "outputs": [
        {
          "internalType": "uint256",
          "name": "",
          "type": "uint256"
        }
      ],
      "stateMutability": "view",
      "type": "function"
    },
    {
      "inputs": [
        {
          "internalType": "string",
          "name": "",
          "type": "string"
        },
        {
          "internalType": "uint256",
          "name": "",
          "type": "uint256"
        }
      ],
      "name": "employeeTokens",
      "outputs": [
        {
          "internalType": "uint256",
          "name": "",
          "type": "uint256"
        }
      ],
      "stateMutability": "view",
      "type": "function"
    },
    {
      "inputs": [
        {
          "internalType": "uint256",
          "name": "tokenId",
          "type": "uint256"
        }
      ],
      "name": "getApproved",
      "outputs": [
        {
          "internalType": "address",
          "name": "",
          "type": "address"
        }
      ],
      "stateMutability": "view",
      "type": "function"
    },
    {
      "inputs": [
        {
          "internalType": "string",
          "name": "employeeDid",
          "type": "string"
        }
      ],
      "name": "getEmployeeTokens",
      "outputs": [
        {
          "internalType": "uint256[]",
          "name": "",
          "type": "uint256[]"
        }
      ],
      "stateMutability": "view",
      "type": "function"
    },
    {
      "inputs": [
        {
          "internalType": "uint256",
          "name": "tokenId",
          "type": "uint256"
        }
      ],
      "name": "getQRToken",
      "outputs": [
        {
          "components": [
            {
              "internalType": "string",
              "name": "qrCodeId",
              "type": "string"
            },
            {
              "internalType": "string",
              "name": "employeeDid",
              "type": "string"
            },
            {
              "internalType": "string",
              "name": "qrHash",
              "type": "string"
            },
            {
              "internalType": "uint256",
              "name": "issueDate",
              "type": "uint256"
            },
            {
              "internalType": "uint256",
              "name": "expiryDate",
              "type": "uint256"
            },
            {
              "internalType": "bool",
              "name": "isActive",
              "type": "bool"
            },
            {
              "internalType": "uint256",
              "name": "usageCount",
              "type": "uint256"
            },
            {
              "internalType": "uint256",
              "name": "lastUsed",
              "type": "uint256"
            }
          ],
          "internalType": "struct QRAuthentication.QRToken",
          "name": "",
          "type": "tuple"
        }
      ],
      "stateMutability": "view",
      "type": "function"
    },
    {
      "inputs": [
        {
          "internalType": "address",
          "name": "owner",
          "type": "address"
        },
        {
          "internalType": "address",
          "name": "operator",
          "type": "address"
        }
      ],
      "name": "isApprovedForAll",
      "outputs": [
        {
          "internalType": "bool",
          "name": "",
          "type": "bool"
        }
      ],
      "stateMutability": "view",
      "type": "function"
    },
    {
      "inputs": [
        {
          "internalType": "string",
          "name": "qrCodeId",
          "type": "string"
        }
      ],
      "name": "isQRValid",
      "outputs": [
        {
          "internalType": "bool",
          "name": "",
          "type": "bool"
        }
      ],
      "stateMutability": "view",
      "type": "function"
    },
    {
      "inputs": [
        {
          "internalType": "address",
          "name": "to",
          "type": "address"
        },
        {
          "internalType": "string",
          "name": "qrCodeId",
          "type": "string"
        },
        {
          "internalType": "string",
          "name": "employeeDid",
          "type": "string"
        },
        {
          "internalType": "string",
          "name": "qrHash",
          "type": "string"
        },
        {
          "internalType": "uint256",
          "name": "expiryDate",
          "type": "uint256"
        }
      ],
      "name": "mintQRToken",
      "outputs": [
        {
          "internalType": "uint256",
          "name": "",
          "type": "uint256"
        }
      ],
      "stateMutability": "nonpayable",
      "type": "function"
    },
    {
      "inputs": [],
      "name": "name",
      "outputs": [
        {
          "internalType": "string",
          "name": "",
          "type": "string"
        }
      ],
      "stateMutability": "view",
      "type": "function"
    },
    {
      "inputs": [],
      "name": "owner",
      "outputs": [
        {
          "internalType": "address",
          "name": "",
          "type": "address"
        }
      ],
      "stateMutability": "view",
      "type": "function"
    },
    {
      "inputs": [
        {
          "internalType": "uint256",
          "name": "tokenId",
          "type": "uint256"
        }
      ],
      "name": "ownerOf",
      "outputs": [
        {
          "internalType": "address",
          "name": "",
          "type": "address"
        }
      ],
      "stateMutability": "view",
      "type": "function"
    },
    {
      "inputs": [
        {
          "internalType": "string",
          "name": "",
          "type": "string"
        }
      ],
      "name": "qrCodeToTokenId",
      "outputs": [
        {
          "internalType": "uint256",
          "name": "",
          "type": "uint256"
        }
      ],
      "stateMutability": "view",
      "type": "function"
    },
    {
      "inputs": [
        {
          "internalType": "uint256",
          "name": "",
          "type": "uint256"
        }
      ],
      "name": "qrTokens",
      "outputs": [
        {
          "internalType": "string",
          "name": "qrCodeId",
          "type": "string"
        },
        {
          "internalType": "string",
          "name": "employeeDid",
          "type": "string"
        },
        {
          "internalType": "string",
          "name": "qrHash",
          "type": "string"
        },
        {
          "internalType": "uint256",
          "name": "issueDate",
          "type": "uint256"
        },
        {
          "internalType": "uint256",
          "name": "expiryDate",
          "type": "uint256"
        },
        {
          "internalType": "bool",
          "name": "isActive",
          "type": "bool"
        },
        {
          "internalType": "uint256",
          "name": "usageCount",
          "type": "uint256"
        },
        {
          "internalType": "uint256",
          "name": "lastUsed",
          "type": "uint256"
        }
      ],
      "stateMutability": "view",
      "type": "function"
    },
    {
      "inputs": [
        {
          "internalType": "string",
          "name": "qrCodeId",
          "type": "string"
        }
      ],
      "name": "recordQRUsage",
      "outputs": [],
      "stateMutability": "nonpayable",
      "type": "function"
    },
    {
      "inputs": [],
      "name": "renounceOwnership",
      "outputs": [],
      "stateMutability": "nonpayable",
      "type": "function"
    },
    {
      "inputs": [
        {
          "internalType": "string",
          "name": "qrCodeId",
          "type": "string"
        }
      ],
      "name": "revokeQRToken",
      "outputs": [],
      "stateMutability": "nonpayable",
      "type": "function"
    },
    {
      "inputs": [
        {
          "internalType": "address",
          "name": "from",
          "type": "address"
        },
        {
          "internalType": "address",
          "name": "to",
          "type": "address"
        },
        {
          "internalType": "uint256",
          "name": "tokenId",
          "type": "uint256"
        }
      ],
      "name": "safeTransferFrom",
      "outputs": [],
      "stateMutability": "nonpayable",
      "type": "function"
    },
    {
      "inputs": [
        {
          "internalType": "address",
          "name": "from",
          "type": "address"
        },
        {
          "internalType": "address",
          "name": "to",
          "type": "address"
        },
        {
          "internalType": "uint256",
          "name": "tokenId",
          "type": "uint256"
        },
        {
          "internalType": "bytes",
          "name": "data",
          "type": "bytes"
        }
      ],
      "name": "safeTransferFrom",
      "outputs": [],
      "stateMutability": "nonpayable",
      "type": "function"
    },
    {
      "inputs": [
        {
          "internalType": "address",
          "name": "operator",
          "type": "address"
        },
        {
          "internalType": "bool",
          "name": "approved",
          "type": "bool"
        }
      ],
      "name": "setApprovalForAll",
      "outputs": [],
      "stateMutability": "nonpayable",
      "type": "function"
    },
    {
      "inputs": [
        {
          "internalType": "bytes4",
          "name": "interfaceId",
          "type": "bytes4"
        }
      ],
      "name": "supportsInterface",
      "outputs": [
        {
          "internalType": "bool",
          "name": "",
          "type": "bool"
        }
      ],
      "stateMutability": "view",
      "type": "function"
    },
    {
      "inputs": [],
      "name": "symbol",
      "outputs": [
        {
          "internalType": "string",
          "name": "",
          "type": "string"
        }
      ],
      "stateMutability": "view",
      "type": "function"
    },
    {
      "inputs": [
        {
          "internalType": "uint256",
          "name": "tokenId",
          "type": "uint256"
        }
      ],
      "name": "tokenURI",
      "outputs": [
        {
          "internalType": "string",
          "name": "",
          "type": "string"
        }
      ],
      "stateMutability": "view",
      "type": "function"
    },
    {
      "inputs": [
        {
          "internalType": "address",
          "name": "from",
          "type": "address"
        },
        {
          "internalType": "address",
          "name": "to",
          "type": "address"
        },
        {
          "internalType": "uint256",
          "name": "tokenId",
          "type": "uint256"
        }
      ],
      "name": "transferFrom",
      "outputs": [],
      "stateMutability": "nonpayable",
      "type": "function"
    },
    {
      "inputs": [
        {
          "internalType": "address",
          "name": "newOwner",
          "type": "address"
        }
      ],
      "name": "transferOwnership",
      "outputs": [],
      "stateMutability": "nonpayable",
      "type": "function"
    },
    {
      "inputs": [
        {
          "internalType": "string",
          "name": "qrCodeId",
          "type": "string"
        },
        {
          "internalType": "string",
          "name": "qrHash",
          "type": "string"
        },
        {
          "internalType": "string",
          "name": "employeeDid",
          "type": "string"
        }
      ],
      "name": "verifyQRToken",
      "outputs": [
        {
          "internalType": "bool",
          "name": "",
          "type": "bool"
        },
        {
          "internalType": "uint256",
          "name": "",
          "type": "uint256"
        }
      ],
      "stateMutability": "view",
      "type": "function"
    }
  ],
  "bytecode": "0x6080346200036b576001600160401b039060408181018381118382101762000355578152601782526020917f51522041757468656e7469636174696f6e20546f6b656e00000000000000000083820152815193828501858110828211176200035557835260048552631454905560e21b84860152815181811162000355576000948554916001948584811c941680156200034a575b8385101462000336578190601f94858111620002e3575b5083908583116001146200027f57899262000273575b5050600019600383901b1c191690851b1786555b86519283116200025f5783548481811c9116801562000254575b828210146200024057828111620001f8575b50809183116001146200019157508495829394959262000185575b5050600019600383901b1c191690821b1790555b60068054336001600160a01b03198216811790925591519290916001600160a01b0316907f8be0079c531659141344cd1fd0a4f28419497f9722a3daafe3b4186f6b6457e09080a36128879081620003718239f35b0151905038806200011c565b90601f198316968487528287209287905b898210620001e0575050838596979810620001c6575b505050811b01905562000130565b015160001960f88460031b161c19169055388080620001b8565b808785968294968601518155019501930190620001a2565b8487528187208380860160051c82019284871062000236575b0160051c019085905b8281106200022a57505062000101565b8881550185906200021a565b9250819262000211565b634e487b7160e01b87526022600452602487fd5b90607f1690620000ef565b634e487b7160e01b86526041600452602486fd5b015190503880620000c1565b898052848a208894509190601f1984168b5b87828210620002cc5750508411620002b2575b505050811b018655620000d5565b015160001960f88460031b161c19169055388080620002a4565b8385015186558b9790950194938401930162000291565b9091508880528389208580850160051c8201928686106200032c575b918991869594930160051c01915b8281106200031d575050620000ab565b8b81558594508991016200030d565b92508192620002ff565b634e487b7160e01b88526022600452602488fd5b93607f169362000094565b634e487b7160e01b600052604160045260246000fd5b600080fdfe608080604052600436101561001357600080fd5b60003560e01c90816301ffc9a714611a9e575080630316569d1461196b57806306fdde03146118c8578063081812fc146118aa5780630835ab3c14611737578063095ea7b3146115bd5780631561fd231461154457806323b872dd1461151b57806342842e0e146114f357806352c33a6c146113eb5780636352211e146113bb57806370a0823114611324578063715018a6146112c75780638da5cb5b1461129e57806395d89b41146111bf5780639bccba73146109fe5780639e5c5e61146109b55780639fdf94dc14610971578063a22cb46514610896578063b88d4fde14610835578063c87b56dd14610471578063e0f18211146103b5578063e985e9c51461035f578063f2fde38b14610296578063f404dd49146101bf5763fe4a30c21461013d57600080fd5b346101ba5760603660031901126101ba576001600160401b036004358181116101ba5761016e903690600401611bce565b906024358181116101ba57610187903690600401611bce565b916044359182116101ba576040926101a66101ac933690600401611bce565b916122f4565b825191151582526020820152f35b600080fd5b346101ba576020806003193601126101ba576004356001600160401b0381116101ba57816101f4610207923690600401611bce565b8160405193828580945193849201611bec565b8101600a81520301902060405190818382549182815201908192600052846000209060005b8682821061028257868661024282880383611b5b565b604051928392818401908285525180915260408401929160005b82811061026b57505050500390f35b83518552869550938101939281019260010161025c565b83548552909301926001928301920161022c565b346101ba5760203660031901126101ba576102af611c34565b6102b7611da3565b6001600160a01b0390811690811561030b57600654826bffffffffffffffffffffffff60a01b821617600655167f8be0079c531659141344cd1fd0a4f28419497f9722a3daafe3b4186f6b6457e0600080a3005b60405162461bcd60e51b815260206004820152602660248201527f4f776e61626c653a206e6577206f776e657220697320746865207a65726f206160448201526564647265737360d01b6064820152608490fd5b346101ba5760403660031901126101ba57610378611c34565b610380611c4a565b9060018060a01b03809116600052600560205260406000209116600052602052602060ff604060002054166040519015158152f35b346101ba5760203660031901126101ba57600435600052600860205261043560406000206103e281611cfd565b906103ef60018201611cfd565b6103fb60028301611cfd565b91600381015492600482015461045160ff6005850154169261044360076006870154960154966040519a8b9a610100808d528c0190611c0f565b908a820360208c0152611c0f565b9088820360408a0152611c0f565b9460608701526080860152151560a085015260c084015260e08301520390f35b346101ba576020806003193601126101ba576004356000818152600260205260409020546107a591906104b3906001600160a01b0316151561246b565b61246b565b80600052600883526107a061013060406000206040516104d281611b09565b6104db82611cfd565b81526104e960018301611cfd565b918782019283526104fc60028201611cfd565b6040830152600381015460608301526004810154608083015261054560ff6005830154169660a084019715158852600760068401549360c08601948552015460e085015261270e565b9251915195511561080f5761057760405161055f81611b40565b60048152637472756560e01b8a820152915b5161270e565b916040519687947f7b226e616d65223a20225152204175746820546f6b656e2023000000000000008b8701526105b6815180928d60398a019101611bec565b8501907f222c20226465736372697074696f6e223a202251522041757468656e7469636160398301527f74696f6e20546f6b656e20666f7220456d706c6f796565204449443a20000000605983015282518b840192610619826076830186611bec565b0171222c202261747472696275746573223a205b60701b60768201527f7b2274726169745f74797065223a2022515220436f6465204944222c20227661608882015266363ab2911d101160c91b60a882015261067f8c835193849160af85019101611bec565b016106d662089f4b60ea1b938460af8401527f7b2274726169745f74797065223a2022456d706c6f79656520444944222c202260b2840152683b30b63ab2911d101160b91b60d284015251809360db840190611bec565b018160db8201527f7b2274726169745f74797065223a2022416374697665222c202276616c75652260de820152621d101160e91b60fe82015282519061072582610101958d8785019101611bec565b01918201527f7b2274726169745f74797065223a2022557361676520436f756e74222c2022766101048201526730b63ab2911d101160c11b6101248201528151906107798261012c948b8685019101611bec565b019061227d60f01b90820152615d7d60f01b61012e82015203610110810184520182611b5b565b6125b8565b906107f7603d60405180947f646174613a6170706c69636174696f6e2f6a736f6e3b6261736536342c000000858301526107e781518092878686019101611bec565b810103601d810185520183611b5b565b61080b604051928284938452830190611c0f565b0390f35b61057760405161081e81611b40565b600581526466616c736560d81b8a82015291610571565b346101ba5760803660031901126101ba5761084e611c34565b610856611c4a565b606435916001600160401b0383116101ba57366023840112156101ba5761088a610894933690602481600401359101611b97565b9160443591611f0a565b005b346101ba5760403660031901126101ba576108af611c34565b60243590811515908183036101ba576001600160a01b03169133831461092c576108fe9033600052600560205260406000208460005260205260406000209060ff801983541691151516179055565b6040519081527f17307eab39ab6107e8899845ad3d59bd9653f200f220920489ca2b5937696c3160203392a3005b60405162461bcd60e51b815260206004820152601960248201527f4552433732313a20617070726f766520746f2063616c6c6572000000000000006044820152606490fd5b346101ba5760203660031901126101ba576004356001600160401b0381116101ba576109ab6109a66020923690600401611bce565b6124ae565b6040519015158152f35b346101ba5760203660031901126101ba576004356001600160401b0381116101ba576109eb60206101f481933690600401611bce565b8101600981520301902054604051908152f35b346101ba5760a03660031901126101ba57610a17611c34565b6024356001600160401b0381116101ba57610a36903690600401611bce565b9060449081356001600160401b0381116101ba57610a58903690600401611bce565b906064356001600160401b0381116101ba57610a78903690600401611bce565b610a80611da3565b84511561117b57825115611137578051156110f3576040516020818751610aaa8183858c01611bec565b81016009815203019020546110af576007805460010190819055936001600160a01b0383161561106b5750600084815260026020526040902054610afa906001600160a01b031615155b156122a8565b600084815260026020526040902054610b1d906001600160a01b03161515610af4565b6001600160a01b0391909116600081815260036020908152604080832080546001019055868352600290915280822080546001600160a01b0319168417905551929185917fddf252ad1be2c89b69c2b068fc378daa952ba7f163c4a11628f55a4df523b3ef8180a4610b8e82611b09565b84825282602083015260408201524260608201526084356080820152600160a0820152600060c0820152600060e082015282600052600860205260406000209080518051906001600160401b038211610df7578190610bed8554611cc3565b601f811161101b575b50602090601f8311600114610faf57600092610fa4575b50508160011b916000199060031b1c19161782555b60208101518051906001600160401b038211610df7578190610c476001860154611cc3565b601f8111610f51575b50602090601f8311600114610edf57600092610ed4575b50508160011b916000199060031b1c19161760018301555b60408101518051906001600160401b038211610df757610ca26002850154611cc3565b601f8111610e8d575b50602090601f8311600114610e185791806007949260e094600092610e0d575b50508160011b916000199060031b1c19161760028501555b6060810151600385015560808101516004850155610d1660a08201511515600586019060ff801983541691151516179055565b60c081015160068501550151910155816040516020818651610d3b8183858b01611bec565b81016009815203019020556040516020818351610d5b8183858801611bec565b8101600a8152030190209081549168010000000000000000831015610df757602094610dec7f6bf075f33c83a6205fa683f536689c28d96fd40a04750e5f23f570ef722e817893610db686610ddf9560018a99018155611c60565b81549060031b9088821b91600019901b1916179055604051938493604085526040850190611c0f565b9083820389850152611c0f565b0390a2604051908152f35b634e487b7160e01b600052604160045260246000fd5b015190508980610ccb565b906002850160005260206000209160005b601f1985168110610e755750926007949260019260e09583601f19811610610e5c575b505050811b016002850155610ce3565b015160001960f88460031b161c19169055898080610e4c565b91926020600181928685015181550194019201610e29565b600285016000526020600020601f840160051c810160208510610ecd575b601f830160051c82018110610ec1575050610cab565b60008155600101610eab565b5080610eab565b015190508780610c67565b9250600185016000526020600020906000935b601f1984168510610f36576001945083601f19811610610f1d575b505050811b016001830155610c7f565b015160001960f88460031b161c19169055878080610f0d565b81810151835560209485019460019093019290910190610ef2565b909150600185016000526020600020601f840160051c810160208510610f9d575b90849392915b601f830160051c82018110610f8e575050610c50565b60008155859450600101610f78565b5080610f72565b015190508780610c0d565b9250846000526020600020906000935b601f1984168510611000576001945083601f19811610610fe7575b505050811b018255610c22565b015160001960f88460031b161c19169055878080610fda565b81810151835560209485019460019093019290910190610fbf565b909150846000526020600020601f840160051c810160208510611064575b90849392915b601f830160051c82018110611055575050610bf6565b6000815585945060010161103f565b5080611039565b6064907f4552433732313a206d696e7420746f20746865207a65726f20616464726573736040519162461bcd60e51b83526020600484015260206024840152820152fd5b60405162461bcd60e51b815260206004820152601960248201527f515220636f646520494420616c7265616479206578697374730000000000000081860152606490fd5b60405162461bcd60e51b815260206004820152601760248201527f515220686173682063616e6e6f7420626520656d70747900000000000000000081860152606490fd5b60405162461bcd60e51b815260206004820152601c60248201527f456d706c6f796565204449442063616e6e6f7420626520656d7074790000000081860152606490fd5b60405162461bcd60e51b815260206004820152601a60248201527f515220636f64652049442063616e6e6f7420626520656d70747900000000000081860152606490fd5b346101ba5760003660031901126101ba57604051600060018054906111e382611cc3565b80855291818116908115611277575060011461121e575b61080b8461120a81860382611b5b565b604051918291602083526020830190611c0f565b600081815292507fb10e2d527612073b26eecdfd717e6a320cf44b4afac2b0732d9fcbe2b7fa0cf65b82841061125f57505050810160200161120a826111fa565b80546020858701810191909152909301928101611247565b60ff191660208087019190915292151560051b8501909201925061120a91508390506111fa565b346101ba5760003660031901126101ba576006546040516001600160a01b039091168152602090f35b346101ba5760003660031901126101ba576112e0611da3565b600680546001600160a01b031981169091556000906001600160a01b03167f8be0079c531659141344cd1fd0a4f28419497f9722a3daafe3b4186f6b6457e08280a3005b346101ba5760203660031901126101ba576001600160a01b03611345611c34565b1680156113645760005260036020526020604060002054604051908152f35b60405162461bcd60e51b815260206004820152602960248201527f4552433732313a2061646472657373207a65726f206973206e6f7420612076616044820152683634b21037bbb732b960b91b6064820152608490fd5b346101ba5760203660031901126101ba5760206113d9600435611e47565b6040516001600160a01b039091168152f35b346101ba576020806003193601126101ba576004356001600160401b0381116101ba5761141c903690600401611bce565b611424611da3565b604051828183516114388183858801611bec565b81016009815203019020549061144f82151561241f565b816000526008835260056040600020019283549360ff8516156114ae577f597910f3679cafb7f2a6424b5c49748a30249cf564e039f563a1611ca77a9598939460ff191690556114a9604051928284938452830190611c0f565b0390a2005b60405162461bcd60e51b815260048101839052601860248201527f515220746f6b656e20616c7265616479207265766f6b656400000000000000006044820152606490fd5b346101ba5761089461150436611c8e565b906040519261151284611b25565b60008452611f0a565b346101ba5761089461152c36611c8e565b9161153f61153a8433611fa5565b611ea8565b61206d565b346101ba5760403660031901126101ba576004356001600160401b0381116101ba57611574903690600401611bce565b6115906020602435928160405193828580945193849201611bec565b8101600a81520301902080548210156101ba576020916115af91611c60565b90546040519160031b1c8152f35b346101ba5760403660031901126101ba576115d6611c34565b602435906001600160a01b0380806115ed85611e47565b169216918083146116e8578033149081156116c3575b501561165857600083815260046020526040902080546001600160a01b0319168317905561163083611e47565b167f8c5be1e5ebec7d5bd14f71427d1e84f3dd0314c0f7b2291e5b200ac8c7c3b925600080a4005b60405162461bcd60e51b815260206004820152603d60248201527f4552433732313a20617070726f76652063616c6c6572206973206e6f7420746f60448201527f6b656e206f776e6572206f7220617070726f76656420666f7220616c6c0000006064820152608490fd5b9050600052600560205260406000203360005260205260ff6040600020541684611603565b60405162461bcd60e51b815260206004820152602160248201527f4552433732313a20617070726f76616c20746f2063757272656e74206f776e656044820152603960f91b6064820152608490fd5b346101ba576020806003193601126101ba576040516101209160043561175c83611b09565b600060e0606094858152858582015285604082015282868201528260808201528260a08201528260c082015201526117ac6104ae82600052600260205260018060a01b0360406000205416151590565b60005260088152604060002090604051926117c684611b09565b6117cf83611cfd565b84526117dd60018401611cfd565b928285019384526117f060028201611cfd565b93604086019485526003820154948387019586526118866004840154916080890192835260ff6005860154169360a08a019415158552600760068701549660c08c0197885201549660e08b01978852611876611860604051809e819e8d83525191610100809e8201520190611c0f565b9251601f198d8503810160408f01529390611c0f565b9251918b840301908b0152611c0f565b955160808801525160a087015251151560c08601525160e085015251908301520390f35b346101ba5760203660031901126101ba5760206113d9600435611e6a565b346101ba5760003660031901126101ba57604051600080546118e981611cc3565b8084529060019081811690811561127757506001146119125761080b8461120a81860382611b5b565b600080805292507f290decd9548b62a8d60345a988386fc84ba6bc95484008f6362f93160ef3e5635b82841061195357505050810160200161120a826111fa565b8054602085870181019190915290930192810161193b565b346101ba576020806003193601126101ba576004356001600160401b0381116101ba5761199c903690600401611bce565b6119a4611da3565b604051828183516119b88183858801611bec565b8101600981520301902054916119cf83151561241f565b826000526008815260406000209160ff60058401541615611a605760068301805492906000198414611a4a577f7e13e9ed44205303889de4df492db2de37794203f1a6dabf112a56a47abdc042946001611a419501809255600742910155604051938493604085526040850190611c0f565b918301520390a2005b634e487b7160e01b600052601160045260246000fd5b60405162461bcd60e51b8152600481018390526016602482015275515220746f6b656e206973206e6f742061637469766560501b6044820152606490fd5b346101ba5760203660031901126101ba576004359063ffffffff60e01b82168092036101ba576020916380ac58cd60e01b8114908115611af8575b8115611ae7575b5015158152f35b6301ffc9a760e01b14905083611ae0565b635b5e139f60e01b81149150611ad9565b61010081019081106001600160401b03821117610df757604052565b602081019081106001600160401b03821117610df757604052565b604081019081106001600160401b03821117610df757604052565b90601f801991011681019081106001600160401b03821117610df757604052565b6001600160401b038111610df757601f01601f191660200190565b929192611ba382611b7c565b91611bb16040519384611b5b565b8294818452818301116101ba578281602093846000960137010152565b9080601f830112156101ba57816020611be993359101611b97565b90565b60005b838110611bff5750506000910152565b8181015183820152602001611bef565b90602091611c2881518092818552858086019101611bec565b601f01601f1916010190565b600435906001600160a01b03821682036101ba57565b602435906001600160a01b03821682036101ba57565b8054821015611c785760005260206000200190600090565b634e487b7160e01b600052603260045260246000fd5b60609060031901126101ba576001600160a01b039060043582811681036101ba579160243590811681036101ba579060443590565b90600182811c92168015611cf3575b6020831014611cdd57565b634e487b7160e01b600052602260045260246000fd5b91607f1691611cd2565b9060405191826000825492611d1184611cc3565b908184526001948581169081600014611d805750600114611d3d575b5050611d3b92500383611b5b565b565b9093915060005260209081600020936000915b818310611d68575050611d3b93508201013880611d2d565b85548884018501529485019487945091830191611d50565b915050611d3b94506020925060ff191682840152151560051b8201013880611d2d565b6006546001600160a01b03163303611db757565b606460405162461bcd60e51b815260206004820152602060248201527f4f776e61626c653a2063616c6c6572206973206e6f7420746865206f776e65726044820152fd5b15611e0257565b60405162461bcd60e51b815260206004820152601860248201527f4552433732313a20696e76616c696420746f6b656e20494400000000000000006044820152606490fd5b6000908152600260205260409020546001600160a01b0316611be9811515611dfb565b600081815260026020526040902054611e8d906001600160a01b03161515611dfb565b6000908152600460205260409020546001600160a01b031690565b15611eaf57565b60405162461bcd60e51b815260206004820152602d60248201527f4552433732313a2063616c6c6572206973206e6f7420746f6b656e206f776e6560448201526c1c881bdc88185c1c1c9bdd9959609a1b6064820152608490fd5b90611f2e939291611f1e61153a8433611fa5565b611f2983838361206d565b612183565b15611f3557565b60405162461bcd60e51b815280611f4e60048201611f52565b0390fd5b60809060208152603260208201527f4552433732313a207472616e7366657220746f206e6f6e20455243373231526560408201527131b2b4bb32b91034b6b83632b6b2b73a32b960711b60608201520190565b906001600160a01b038080611fb984611e47565b16931691838314938415611fec575b508315611fd6575b50505090565b611fe291929350611e6a565b1614388080611fd0565b909350600052600560205260406000208260005260205260ff604060002054169238611fc8565b1561201a57565b60405162461bcd60e51b815260206004820152602560248201527f4552433732313a207472616e736665722066726f6d20696e636f72726563742060448201526437bbb732b960d91b6064820152608490fd5b906120959161207b84611e47565b6001600160a01b0393918416928492909183168414612013565b1691821561213257816120b2916120ab86611e47565b1614612013565b7fddf252ad1be2c89b69c2b068fc378daa952ba7f163c4a11628f55a4df523b3ef60008481526004602052604081206bffffffffffffffffffffffff60a01b9081815416905583825260036020526040822060001981540190558482526040822060018154019055858252600260205284604083209182541617905580a4565b60405162461bcd60e51b8152602060048201526024808201527f4552433732313a207472616e7366657220746f20746865207a65726f206164646044820152637265737360e01b6064820152608490fd5b9293600093909291803b1561229d579484916121dd9660405180948193630a85bd0160e11b9788845233600485015260018060a01b0380921660248501526044840152608060648401528260209b8c976084830190611c0f565b0393165af1849181612259575b50612248575050503d600014612240573d61220481611b7c565b906122126040519283611b5b565b81528091833d92013e5b8051918261223d5760405162461bcd60e51b815280611f4e60048201611f52565b01fd5b50606061221c565b6001600160e01b0319161492509050565b9091508581813d8311612296575b6122718183611b5b565b8101031261229257516001600160e01b0319811681036122925790386121ea565b8480fd5b503d612267565b505050915050600190565b156122af57565b60405162461bcd60e51b815260206004820152601c60248201527f4552433732313a20746f6b656e20616c7265616479206d696e746564000000006044820152606490fd5b9092919260405182818094516123108160209788809601611bec565b8101600981520301902054938415612412576000928584526008815260408420916040519361233e85611b09565b61234784611cfd565b855261235560018501611cfd565b9083860191825261236860028601611cfd565b8060408801526003860154606088015260048601549687608082015260e0600760ff60058a0154161598891560a0850152600681015460c0850152015491015284815191012090848151910120036124065751828151910120918151910120036123fd576123f65780151590816123ec575b506123e6575060019190565b91508190565b90504211386123da565b5091508190565b50508092509190565b50505050508092509190565b5050509050600090600090565b1561242657565b60405162461bcd60e51b815260206004820152601760248201527f515220746f6b656e20646f6573206e6f742065786973740000000000000000006044820152606490fd5b1561247257565b60405162461bcd60e51b8152602060048201526014602482015273151bdad95b88191bd95cc81b9bdd08195e1a5cdd60621b6044820152606490fd5b60206124c7918160405193828580945193849201611bec565b810160098152030190205480156125805760005260086020526040600020604051906124f282611b09565b6124fb81611cfd565b825261250960018201611cfd565b602083015261251a60028201611cfd565b60408301526003810154606083015260048101549182608082015260e0600760ff6005850154161593841560a0850152600681015460c08501520154910152612580578015159081612576575b5061257157600190565b600090565b9050421138612567565b50600090565b9061259082611b7c565b61259d6040519182611b5b565b82815280926125ae601f1991611b7c565b0190602036910137565b8051156126fa57604051606081018181106001600160401b03821117610df757604052604081527f4142434445464748494a4b4c4d4e4f505152535455565758595a61626364656660208201527f6768696a6b6c6d6e6f707172737475767778797a303132333435363738392b2f60408201528151600292838201809211611a4a576003918290046001600160fe1b0381168103611a4a5761265d908594951b612586565b936020850193829183518401925b8381106126a957505050505106806001146126965760021461268b575090565b603d90600019015390565b50603d9081600019820153600119015390565b85600491979293949701918251600190603f9082828260121c16880101518453828282600c1c16880101518385015382828260061c168801015188850153168501015187820153019592919061266b565b5060405161270781611b25565b6000815290565b806000917a184f03e93ff9f4daa797ed6e38ed64bf6a1f01000000000000000080821015612843575b506d04ee2d6d415b85acef810000000080831015612834575b50662386f26fc1000080831015612825575b506305f5e10080831015612816575b5061271080831015612807575b5060648210156127f7575b600a809210156127ed575b6001908160216127a5828701612586565b95860101905b6127b7575b5050505090565b600019019083906f181899199a1a9b1b9c1cb0b131b232b360811b8282061a8353049182156127e8579190826127ab565b6127b0565b9160010191612794565b9190606460029104910191612789565b6004919392049101913861277e565b60089193920491019138612771565b60109193920491019138612762565b60209193920491019138612750565b60409350810491503861273756fea26469706673582212201df9d4e278543413d7f56c8ecbc4ca82da66606f7b43ab0ab4f60fbaaed3e55e64736f6c63430008130033",
  "linkReferences": {},
  "deployedLinkReferences": {}
}