{
  "_format": "hh-sol-artifact-1",
  "contractName": "PayrollManagement",
  "sourceName": "contracts/PayrollManagement.sol",
  "abi": [
    {
      "inputs": [
        {
          "internalType": "address",
          "name": "_payrollToken",
          "type": "address"
        },
        {
          "internalType": "address",
          "name": "_kpiContract",
          "type": "address"
        },
        {
          "internalType": "address",
          "name": "_attendanceContract",
          "type": "address"
        }
      ],
      "stateMutability": "nonpayable",
      "type": "constructor"
    },
    {
      "anonymous": false,
      "inputs": [
        {
          "indexed": true,
          "internalType": "address",
          "name": "attendanceContractAddress",
          "type": "address"
        }
      ],
      "name": "AttendanceContractSet",
      "type": "event"
    },
    {
      "anonymous": false,
      "inputs": [
        {
          "indexed": true,
          "internalType": "string",
          "name": "employeeDid",
          "type": "string"
        },
        {
          "indexed": false,
          "internalType": "uint256",
          "name": "baseSalary",
          "type": "uint256"
        },
        {
          "indexed": false,
          "internalType": "uint256",
          "name": "kpiBonus",
          "type": "uint256"
        }
      ],
      "name": "EmployeeSalarySet",
      "type": "event"
    },
    {
      "anonymous": false,
      "inputs": [
        {
          "indexed": true,
          "internalType": "address",
          "name": "depositor",
          "type": "address"
        },
        {
          "indexed": false,
          "internalType": "uint256",
          "name": "amount",
          "type": "uint256"
        }
      ],
      "name": "FundsDeposited",
      "type": "event"
    },
    {
      "anonymous": false,
      "inputs": [
        {
          "indexed": true,
          "internalType": "address",
          "name": "withdrawer",
          "type": "address"
        },
        {
          "indexed": false,
          "internalType": "uint256",
          "name": "amount",
          "type": "uint256"
        }
      ],
      "name": "FundsWithdrawn",
      "type": "event"
    },
    {
      "anonymous": false,
      "inputs": [
        {
          "indexed": true,
          "internalType": "address",
          "name": "kpiContractAddress",
          "type": "address"
        }
      ],
      "name": "KpiContractSet",
      "type": "event"
    },
    {
      "anonymous": false,
      "inputs": [
        {
          "indexed": true,
          "internalType": "address",
          "name": "previousOwner",
          "type": "address"
        },
        {
          "indexed": true,
          "internalType": "address",
          "name": "newOwner",
          "type": "address"
        }
      ],
      "name": "OwnershipTransferred",
      "type": "event"
    },
    {
      "anonymous": false,
      "inputs": [
        {
          "indexed": true,
          "internalType": "uint256",
          "name": "payrollId",
          "type": "uint256"
        },
        {
          "indexed": false,
          "internalType": "string",
          "name": "employeeDid",
          "type": "string"
        },
        {
          "indexed": false,
          "internalType": "address",
          "name": "approvedBy",
          "type": "address"
        }
      ],
      "name": "PayrollApproved",
      "type": "event"
    },
    {
      "anonymous": false,
      "inputs": [
        {
          "indexed": true,
          "internalType": "uint256",
          "name": "payrollId",
          "type": "uint256"
        },
        {
          "indexed": false,
          "internalType": "string",
          "name": "employeeDid",
          "type": "string"
        }
      ],
      "name": "PayrollCancelled",
      "type": "event"
    },
    {
      "anonymous": false,
      "inputs": [
        {
          "indexed": false,
          "internalType": "uint256",
          "name": "standardWorkingDays",
          "type": "uint256"
        },
        {
          "indexed": false,
          "internalType": "uint256",
          "name": "standardWorkingHours",
          "type": "uint256"
        }
      ],
      "name": "PayrollConfigUpdated",
      "type": "event"
    },
    {
      "anonymous": false,
      "inputs": [
        {
          "indexed": true,
          "internalType": "uint256",
          "name": "payrollId",
          "type": "uint256"
        },
        {
          "indexed": false,
          "internalType": "string",
          "name": "employeeDid",
          "type": "string"
        },
        {
          "indexed": false,
          "internalType": "string",
          "name": "period",
          "type": "string"
        },
        {
          "indexed": false,
          "internalType": "uint256",
          "name": "netSalary",
          "type": "uint256"
        }
      ],
      "name": "PayrollCreated",
      "type": "event"
    },
    {
      "anonymous": false,
      "inputs": [
        {
          "indexed": true,
          "internalType": "uint256",
          "name": "payrollId",
          "type": "uint256"
        },
        {
          "indexed": false,
          "internalType": "string",
          "name": "employeeDid",
          "type": "string"
        },
        {
          "indexed": false,
          "internalType": "uint256",
          "name": "amount",
          "type": "uint256"
        },
        {
          "indexed": false,
          "internalType": "bytes32",
          "name": "txHash",
          "type": "bytes32"
        }
      ],
      "name": "PayrollPaid",
      "type": "event"
    },
    {
      "anonymous": false,
      "inputs": [
        {
          "indexed": true,
          "internalType": "uint256",
          "name": "payrollId",
          "type": "uint256"
        },
        {
          "indexed": false,
          "internalType": "string",
          "name": "employeeDid",
          "type": "string"
        },
        {
          "indexed": false,
          "internalType": "uint256",
          "name": "newNetSalary",
          "type": "uint256"
        }
      ],
      "name": "PayrollUpdated",
      "type": "event"
    },
    {
      "anonymous": false,
      "inputs": [
        {
          "indexed": true,
          "internalType": "bytes32",
          "name": "role",
          "type": "bytes32"
        },
        {
          "indexed": true,
          "internalType": "bytes32",
          "name": "previousAdminRole",
          "type": "bytes32"
        },
        {
          "indexed": true,
          "internalType": "bytes32",
          "name": "newAdminRole",
          "type": "bytes32"
        }
      ],
      "name": "RoleAdminChanged",
      "type": "event"
    },
    {
      "anonymous": false,
      "inputs": [
        {
          "indexed": true,
          "internalType": "bytes32",
          "name": "role",
          "type": "bytes32"
        },
        {
          "indexed": true,
          "internalType": "address",
          "name": "account",
          "type": "address"
        },
        {
          "indexed": true,
          "internalType": "address",
          "name": "sender",
          "type": "address"
        }
      ],
      "name": "RoleGranted",
      "type": "event"
    },
    {
      "anonymous": false,
      "inputs": [
        {
          "indexed": true,
          "internalType": "bytes32",
          "name": "role",
          "type": "bytes32"
        },
        {
          "indexed": true,
          "internalType": "address",
          "name": "account",
          "type": "address"
        },
        {
          "indexed": true,
          "internalType": "address",
          "name": "sender",
          "type": "address"
        }
      ],
      "name": "RoleRevoked",
      "type": "event"
    },
    {
      "anonymous": false,
      "inputs": [
        {
          "indexed": true,
          "internalType": "address",
          "name": "tokenAddress",
          "type": "address"
        }
      ],
      "name": "TokenSet",
      "type": "event"
    },
    {
      "anonymous": false,
      "inputs": [
        {
          "indexed": true,
          "internalType": "uint256",
          "name": "transactionId",
          "type": "uint256"
        },
        {
          "indexed": false,
          "internalType": "string",
          "name": "employeeDid",
          "type": "string"
        },
        {
          "indexed": false,
          "internalType": "uint256",
          "name": "amount",
          "type": "uint256"
        },
        {
          "indexed": false,
          "internalType": "string",
          "name": "transactionType",
          "type": "string"
        }
      ],
      "name": "TransactionRecorded",
      "type": "event"
    },
    {
      "inputs": [],
      "name": "ADMIN_ROLE",
      "outputs": [
        {
          "internalType": "bytes32",
          "name": "",
          "type": "bytes32"
        }
      ],
      "stateMutability": "view",
      "type": "function"
    },
    {
      "inputs": [],
      "name": "DEFAULT_ADMIN_ROLE",
      "outputs": [
        {
          "internalType": "bytes32",
          "name": "",
          "type": "bytes32"
        }
      ],
      "stateMutability": "view",
      "type": "function"
    },
    {
      "inputs": [],
      "name": "EMPLOYEE_ROLE",
      "outputs": [
        {
          "internalType": "bytes32",
          "name": "",
          "type": "bytes32"
        }
      ],
      "stateMutability": "view",
      "type": "function"
    },
    {
      "inputs": [],
      "name": "HR_ROLE",
      "outputs": [
        {
          "internalType": "bytes32",
          "name": "",
          "type": "bytes32"
        }
      ],
      "stateMutability": "view",
      "type": "function"
    },
    {
      "inputs": [
        {
          "internalType": "uint256",
          "name": "payrollId",
          "type": "uint256"
        }
      ],
      "name": "approvePayroll",
      "outputs": [],
      "stateMutability": "nonpayable",
      "type": "function"
    },
    {
      "inputs": [],
      "name": "attendanceContract",
      "outputs": [
        {
          "internalType": "contract IAttendanceManagement",
          "name": "",
          "type": "address"
        }
      ],
      "stateMutability": "view",
      "type": "function"
    },
    {
      "inputs": [
        {
          "internalType": "string",
          "name": "employeeDid",
          "type": "string"
        },
        {
          "internalType": "string",
          "name": "period",
          "type": "string"
        }
      ],
      "name": "calculateNetSalaryAuto",
      "outputs": [
        {
          "internalType": "uint256",
          "name": "baseSalaryActual",
          "type": "uint256"
        },
        {
          "internalType": "uint256",
          "name": "kpiBonus",
          "type": "uint256"
        },
        {
          "internalType": "uint256",
          "name": "allowance",
          "type": "uint256"
        },
        {
          "internalType": "uint256",
          "name": "overtimeBonus",
          "type": "uint256"
        },
        {
          "internalType": "uint256",
          "name": "taxAmount",
          "type": "uint256"
        },
        {
          "internalType": "uint256",
          "name": "netSalary",
          "type": "uint256"
        },
        {
          "internalType": "uint256",
          "name": "workingDays",
          "type": "uint256"
        },
        {
          "internalType": "uint256",
          "name": "kpiScore",
          "type": "uint256"
        }
      ],
      "stateMutability": "view",
      "type": "function"
    },
    {
      "inputs": [
        {
          "internalType": "string",
          "name": "employeeDid",
          "type": "string"
        },
        {
          "internalType": "uint256",
          "name": "kpiScore",
          "type": "uint256"
        },
        {
          "internalType": "uint256",
          "name": "workingDays",
          "type": "uint256"
        },
        {
          "internalType": "uint256",
          "name": "overtimeHours",
          "type": "uint256"
        }
      ],
      "name": "calculateNetSalaryManual",
      "outputs": [
        {
          "internalType": "uint256",
          "name": "baseSalaryActual",
          "type": "uint256"
        },
        {
          "internalType": "uint256",
          "name": "kpiBonus",
          "type": "uint256"
        },
        {
          "internalType": "uint256",
          "name": "allowance",
          "type": "uint256"
        },
        {
          "internalType": "uint256",
          "name": "overtimeBonus",
          "type": "uint256"
        },
        {
          "internalType": "uint256",
          "name": "taxAmount",
          "type": "uint256"
        },
        {
          "internalType": "uint256",
          "name": "netSalary",
          "type": "uint256"
        }
      ],
      "stateMutability": "view",
      "type": "function"
    },
    {
      "inputs": [
        {
          "internalType": "uint256",
          "name": "payrollId",
          "type": "uint256"
        }
      ],
      "name": "cancelPayroll",
      "outputs": [],
      "stateMutability": "nonpayable",
      "type": "function"
    },
    {
      "inputs": [],
      "name": "contractBalance",
      "outputs": [
        {
          "internalType": "uint256",
          "name": "",
          "type": "uint256"
        }
      ],
      "stateMutability": "view",
      "type": "function"
    },
    {
      "inputs": [
        {
          "internalType": "string",
          "name": "employeeDid",
          "type": "string"
        },
        {
          "internalType": "string",
          "name": "period",
          "type": "string"
        }
      ],
      "name": "createPayroll",
      "outputs": [
        {
          "internalType": "uint256",
          "name": "",
          "type": "uint256"
        }
      ],
      "stateMutability": "nonpayable",
      "type": "function"
    },
    {
      "inputs": [
        {
          "internalType": "string",
          "name": "employeeDid",
          "type": "string"
        },
        {
          "internalType": "string",
          "name": "period",
          "type": "string"
        },
        {
          "internalType": "uint256",
          "name": "kpiScore",
          "type": "uint256"
        },
        {
          "internalType": "uint256",
          "name": "workingDays",
          "type": "uint256"
        },
        {
          "internalType": "uint256",
          "name": "overtimeHours",
          "type": "uint256"
        }
      ],
      "name": "createPayrollManual",
      "outputs": [
        {
          "internalType": "uint256",
          "name": "",
          "type": "uint256"
        }
      ],
      "stateMutability": "nonpayable",
      "type": "function"
    },
    {
      "inputs": [
        {
          "internalType": "string",
          "name": "employeeDid",
          "type": "string"
        }
      ],
      "name": "deactivateEmployeeSalary",
      "outputs": [],
      "stateMutability": "nonpayable",
      "type": "function"
    },
    {
      "inputs": [
        {
          "internalType": "uint256",
          "name": "amount",
          "type": "uint256"
        }
      ],
      "name": "depositFunds",
      "outputs": [],
      "stateMutability": "payable",
      "type": "function"
    },
    {
      "inputs": [
        {
          "internalType": "string",
          "name": "",
          "type": "string"
        },
        {
          "internalType": "uint256",
          "name": "",
          "type": "uint256"
        }
      ],
      "name": "employeePayrolls",
      "outputs": [
        {
          "internalType": "uint256",
          "name": "",
          "type": "uint256"
        }
      ],
      "stateMutability": "view",
      "type": "function"
    },
    {
      "inputs": [
        {
          "internalType": "string",
          "name": "",
          "type": "string"
        }
      ],
      "name": "employeeSalaries",
      "outputs": [
        {
          "internalType": "string",
          "name": "employeeDid",
          "type": "string"
        },
        {
          "internalType": "uint256",
          "name": "baseSalary",
          "type": "uint256"
        },
        {
          "internalType": "uint256",
          "name": "kpiBonus",
          "type": "uint256"
        },
        {
          "internalType": "uint256",
          "name": "allowance",
          "type": "uint256"
        },
        {
          "internalType": "uint256",
          "name": "taxRate",
          "type": "uint256"
        },
        {
          "internalType": "uint256",
          "name": "overtimeRate",
          "type": "uint256"
        },
        {
          "internalType": "bool",
          "name": "isActive",
          "type": "bool"
        },
        {
          "internalType": "uint256",
          "name": "lastPaidDate",
          "type": "uint256"
        },
        {
          "internalType": "uint256",
          "name": "totalPaid",
          "type": "uint256"
        }
      ],
      "stateMutability": "view",
      "type": "function"
    },
    {
      "inputs": [
        {
          "internalType": "string",
          "name": "",
          "type": "string"
        },
        {
          "internalType": "uint256",
          "name": "",
          "type": "uint256"
        }
      ],
      "name": "employeeTransactions",
      "outputs": [
        {
          "internalType": "uint256",
          "name": "",
          "type": "uint256"
        }
      ],
      "stateMutability": "view",
      "type": "function"
    },
    {
      "inputs": [],
      "name": "getBalanceSummary",
      "outputs": [
        {
          "internalType": "uint256",
          "name": "_totalDeposited",
          "type": "uint256"
        },
        {
          "internalType": "uint256",
          "name": "_totalPaid",
          "type": "uint256"
        },
        {
          "internalType": "uint256",
          "name": "_contractBalance",
          "type": "uint256"
        },
        {
          "internalType": "bool",
          "name": "isBalanced",
          "type": "bool"
        }
      ],
      "stateMutability": "view",
      "type": "function"
    },
    {
      "inputs": [],
      "name": "getContractBalance",
      "outputs": [
        {
          "internalType": "uint256",
          "name": "",
          "type": "uint256"
        }
      ],
      "stateMutability": "view",
      "type": "function"
    },
    {
      "inputs": [
        {
          "internalType": "string",
          "name": "employeeDid",
          "type": "string"
        }
      ],
      "name": "getEmployeePayrolls",
      "outputs": [
        {
          "internalType": "uint256[]",
          "name": "",
          "type": "uint256[]"
        }
      ],
      "stateMutability": "view",
      "type": "function"
    },
    {
      "inputs": [
        {
          "internalType": "string",
          "name": "employeeDid",
          "type": "string"
        }
      ],
      "name": "getEmployeeSalary",
      "outputs": [
        {
          "components": [
            {
              "internalType": "string",
              "name": "employeeDid",
              "type": "string"
            },
            {
              "internalType": "uint256",
              "name": "baseSalary",
              "type": "uint256"
            },
            {
              "internalType": "uint256",
              "name": "kpiBonus",
              "type": "uint256"
            },
            {
              "internalType": "uint256",
              "name": "allowance",
              "type": "uint256"
            },
            {
              "internalType": "uint256",
              "name": "taxRate",
              "type": "uint256"
            },
            {
              "internalType": "uint256",
              "name": "overtimeRate",
              "type": "uint256"
            },
            {
              "internalType": "bool",
              "name": "isActive",
              "type": "bool"
            },
            {
              "internalType": "uint256",
              "name": "lastPaidDate",
              "type": "uint256"
            },
            {
              "internalType": "uint256",
              "name": "totalPaid",
              "type": "uint256"
            }
          ],
          "internalType": "struct PayrollManagement.EmployeeSalary",
          "name": "",
          "type": "tuple"
        }
      ],
      "stateMutability": "view",
      "type": "function"
    },
    {
      "inputs": [
        {
          "internalType": "string",
          "name": "employeeDid",
          "type": "string"
        }
      ],
      "name": "getEmployeeTransactions",
      "outputs": [
        {
          "internalType": "uint256[]",
          "name": "",
          "type": "uint256[]"
        }
      ],
      "stateMutability": "view",
      "type": "function"
    },
    {
      "inputs": [
        {
          "internalType": "uint256",
          "name": "payrollId",
          "type": "uint256"
        }
      ],
      "name": "getPayrollRecord",
      "outputs": [
        {
          "components": [
            {
              "internalType": "uint256",
              "name": "payrollId",
              "type": "uint256"
            },
            {
              "internalType": "string",
              "name": "employeeDid",
              "type": "string"
            },
            {
              "internalType": "string",
              "name": "period",
              "type": "string"
            },
            {
              "internalType": "uint256",
              "name": "baseSalary",
              "type": "uint256"
            },
            {
              "internalType": "uint256",
              "name": "actualWorkingDays",
              "type": "uint256"
            },
            {
              "internalType": "uint256",
              "name": "standardWorkingDays",
              "type": "uint256"
            },
            {
              "internalType": "uint256",
              "name": "baseSalaryActual",
              "type": "uint256"
            },
            {
              "internalType": "uint256",
              "name": "kpiBonus",
              "type": "uint256"
            },
            {
              "internalType": "uint256",
              "name": "allowance",
              "type": "uint256"
            },
            {
              "internalType": "uint256",
              "name": "overtimeBonus",
              "type": "uint256"
            },
            {
              "internalType": "uint256",
              "name": "taxAmount",
              "type": "uint256"
            },
            {
              "internalType": "uint256",
              "name": "netSalary",
              "type": "uint256"
            },
            {
              "internalType": "uint256",
              "name": "paidAmount",
              "type": "uint256"
            },
            {
              "internalType": "string",
              "name": "status",
              "type": "string"
            },
            {
              "internalType": "uint256",
              "name": "createdAt",
              "type": "uint256"
            },
            {
              "internalType": "uint256",
              "name": "approvedAt",
              "type": "uint256"
            },
            {
              "internalType": "uint256",
              "name": "paidAt",
              "type": "uint256"
            },
            {
              "internalType": "address",
              "name": "approvedBy",
              "type": "address"
            },
            {
              "internalType": "address",
              "name": "paidBy",
              "type": "address"
            }
          ],
          "internalType": "struct PayrollManagement.PayrollRecord",
          "name": "",
          "type": "tuple"
        }
      ],
      "stateMutability": "view",
      "type": "function"
    },
    {
      "inputs": [
        {
          "internalType": "string",
          "name": "period",
          "type": "string"
        }
      ],
      "name": "getPeriodPayrolls",
      "outputs": [
        {
          "internalType": "uint256[]",
          "name": "",
          "type": "uint256[]"
        }
      ],
      "stateMutability": "view",
      "type": "function"
    },
    {
      "inputs": [
        {
          "internalType": "bytes32",
          "name": "role",
          "type": "bytes32"
        }
      ],
      "name": "getRoleAdmin",
      "outputs": [
        {
          "internalType": "bytes32",
          "name": "",
          "type": "bytes32"
        }
      ],
      "stateMutability": "view",
      "type": "function"
    },
    {
      "inputs": [
        {
          "internalType": "uint256",
          "name": "transactionId",
          "type": "uint256"
        }
      ],
      "name": "getTransaction",
      "outputs": [
        {
          "components": [
            {
              "internalType": "uint256",
              "name": "transactionId",
              "type": "uint256"
            },
            {
              "internalType": "string",
              "name": "employeeDid",
              "type": "string"
            },
            {
              "internalType": "uint256",
              "name": "amount",
              "type": "uint256"
            },
            {
              "internalType": "string",
              "name": "transactionType",
              "type": "string"
            },
            {
              "internalType": "string",
              "name": "description",
              "type": "string"
            },
            {
              "internalType": "uint256",
              "name": "timestamp",
              "type": "uint256"
            },
            {
              "internalType": "bytes32",
              "name": "txHash",
              "type": "bytes32"
            }
          ],
          "internalType": "struct PayrollManagement.TransactionRecord",
          "name": "",
          "type": "tuple"
        }
      ],
      "stateMutability": "view",
      "type": "function"
    },
    {
      "inputs": [
        {
          "internalType": "address",
          "name": "account",
          "type": "address"
        }
      ],
      "name": "grantEmployeeRole",
      "outputs": [],
      "stateMutability": "nonpayable",
      "type": "function"
    },
    {
      "inputs": [
        {
          "internalType": "address",
          "name": "account",
          "type": "address"
        }
      ],
      "name": "grantHRRole",
      "outputs": [],
      "stateMutability": "nonpayable",
      "type": "function"
    },
    {
      "inputs": [
        {
          "internalType": "bytes32",
          "name": "role",
          "type": "bytes32"
        },
        {
          "internalType": "address",
          "name": "account",
          "type": "address"
        }
      ],
      "name": "grantRole",
      "outputs": [],
      "stateMutability": "nonpayable",
      "type": "function"
    },
    {
      "inputs": [
        {
          "internalType": "bytes32",
          "name": "role",
          "type": "bytes32"
        },
        {
          "internalType": "address",
          "name": "account",
          "type": "address"
        }
      ],
      "name": "hasRole",
      "outputs": [
        {
          "internalType": "bool",
          "name": "",
          "type": "bool"
        }
      ],
      "stateMutability": "view",
      "type": "function"
    },
    {
      "inputs": [],
      "name": "kpiContract",
      "outputs": [
        {
          "internalType": "contract IKpiManagement",
          "name": "",
          "type": "address"
        }
      ],
      "stateMutability": "view",
      "type": "function"
    },
    {
      "inputs": [],
      "name": "owner",
      "outputs": [
        {
          "internalType": "address",
          "name": "",
          "type": "address"
        }
      ],
      "stateMutability": "view",
      "type": "function"
    },
    {
      "inputs": [
        {
          "internalType": "uint256",
          "name": "payrollId",
          "type": "uint256"
        }
      ],
      "name": "payEmployee",
      "outputs": [],
      "stateMutability": "nonpayable",
      "type": "function"
    },
    {
      "inputs": [
        {
          "internalType": "uint256",
          "name": "",
          "type": "uint256"
        }
      ],
      "name": "payrollRecords",
      "outputs": [
        {
          "internalType": "uint256",
          "name": "payrollId",
          "type": "uint256"
        },
        {
          "internalType": "string",
          "name": "employeeDid",
          "type": "string"
        },
        {
          "internalType": "string",
          "name": "period",
          "type": "string"
        },
        {
          "internalType": "uint256",
          "name": "baseSalary",
          "type": "uint256"
        },
        {
          "internalType": "uint256",
          "name": "actualWorkingDays",
          "type": "uint256"
        },
        {
          "internalType": "uint256",
          "name": "standardWorkingDays",
          "type": "uint256"
        },
        {
          "internalType": "uint256",
          "name": "baseSalaryActual",
          "type": "uint256"
        },
        {
          "internalType": "uint256",
          "name": "kpiBonus",
          "type": "uint256"
        },
        {
          "internalType": "uint256",
          "name": "allowance",
          "type": "uint256"
        },
        {
          "internalType": "uint256",
          "name": "overtimeBonus",
          "type": "uint256"
        },
        {
          "internalType": "uint256",
          "name": "taxAmount",
          "type": "uint256"
        },
        {
          "internalType": "uint256",
          "name": "netSalary",
          "type": "uint256"
        },
        {
          "internalType": "uint256",
          "name": "paidAmount",
          "type": "uint256"
        },
        {
          "internalType": "string",
          "name": "status",
          "type": "string"
        },
        {
          "internalType": "uint256",
          "name": "createdAt",
          "type": "uint256"
        },
        {
          "internalType": "uint256",
          "name": "approvedAt",
          "type": "uint256"
        },
        {
          "internalType": "uint256",
          "name": "paidAt",
          "type": "uint256"
        },
        {
          "internalType": "address",
          "name": "approvedBy",
          "type": "address"
        },
        {
          "internalType": "address",
          "name": "paidBy",
          "type": "address"
        }
      ],
      "stateMutability": "view",
      "type": "function"
    },
    {
      "inputs": [],
      "name": "payrollToken",
      "outputs": [
        {
          "internalType": "contract IERC20",
          "name": "",
          "type": "address"
        }
      ],
      "stateMutability": "view",
      "type": "function"
    },
    {
      "inputs": [
        {
          "internalType": "string",
          "name": "",
          "type": "string"
        },
        {
          "internalType": "uint256",
          "name": "",
          "type": "uint256"
        }
      ],
      "name": "periodPayrolls",
      "outputs": [
        {
          "internalType": "uint256",
          "name": "",
          "type": "uint256"
        }
      ],
      "stateMutability": "view",
      "type": "function"
    },
    {
      "inputs": [],
      "name": "renounceOwnership",
      "outputs": [],
      "stateMutability": "nonpayable",
      "type": "function"
    },
    {
      "inputs": [
        {
          "internalType": "bytes32",
          "name": "role",
          "type": "bytes32"
        },
        {
          "internalType": "address",
          "name": "account",
          "type": "address"
        }
      ],
      "name": "renounceRole",
      "outputs": [],
      "stateMutability": "nonpayable",
      "type": "function"
    },
    {
      "inputs": [
        {
          "internalType": "bytes32",
          "name": "role",
          "type": "bytes32"
        },
        {
          "internalType": "address",
          "name": "account",
          "type": "address"
        }
      ],
      "name": "revokeRole",
      "outputs": [],
      "stateMutability": "nonpayable",
      "type": "function"
    },
    {
      "inputs": [
        {
          "internalType": "address",
          "name": "_attendanceContract",
          "type": "address"
        }
      ],
      "name": "setAttendanceContract",
      "outputs": [],
      "stateMutability": "nonpayable",
      "type": "function"
    },
    {
      "inputs": [
        {
          "internalType": "string",
          "name": "employeeDid",
          "type": "string"
        },
        {
          "internalType": "uint256",
          "name": "baseSalary",
          "type": "uint256"
        },
        {
          "internalType": "uint256",
          "name": "kpiBonus",
          "type": "uint256"
        },
        {
          "internalType": "uint256",
          "name": "allowance",
          "type": "uint256"
        },
        {
          "internalType": "uint256",
          "name": "taxRate",
          "type": "uint256"
        },
        {
          "internalType": "uint256",
          "name": "overtimeRate",
          "type": "uint256"
        }
      ],
      "name": "setEmployeeSalary",
      "outputs": [],
      "stateMutability": "nonpayable",
      "type": "function"
    },
    {
      "inputs": [
        {
          "internalType": "address",
          "name": "_kpiContract",
          "type": "address"
        }
      ],
      "name": "setKpiContract",
      "outputs": [],
      "stateMutability": "nonpayable",
      "type": "function"
    },
    {
      "inputs": [
        {
          "internalType": "address",
          "name": "_payrollToken",
          "type": "address"
        }
      ],
      "name": "setPayrollToken",
      "outputs": [],
      "stateMutability": "nonpayable",
      "type": "function"
    },
    {
      "inputs": [],
      "name": "standardWorkingDaysPerMonth",
      "outputs": [
        {
          "internalType": "uint256",
          "name": "",
          "type": "uint256"
        }
      ],
      "stateMutability": "view",
      "type": "function"
    },
    {
      "inputs": [],
      "name": "standardWorkingHoursPerMonth",
      "outputs": [
        {
          "internalType": "uint256",
          "name": "",
          "type": "uint256"
        }
      ],
      "stateMutability": "view",
      "type": "function"
    },
    {
      "inputs": [],
      "name": "standardWorkingHoursPerYear",
      "outputs": [
        {
          "internalType": "uint256",
          "name": "",
          "type": "uint256"
        }
      ],
      "stateMutability": "view",
      "type": "function"
    },
    {
      "inputs": [
        {
          "internalType": "bytes4",
          "name": "interfaceId",
          "type": "bytes4"
        }
      ],
      "name": "supportsInterface",
      "outputs": [
        {
          "internalType": "bool",
          "name": "",
          "type": "bool"
        }
      ],
      "stateMutability": "view",
      "type": "function"
    },
    {
      "inputs": [],
      "name": "totalDeposited",
      "outputs": [
        {
          "internalType": "uint256",
          "name": "",
          "type": "uint256"
        }
      ],
      "stateMutability": "view",
      "type": "function"
    },
    {
      "inputs": [],
      "name": "totalPaid",
      "outputs": [
        {
          "internalType": "uint256",
          "name": "",
          "type": "uint256"
        }
      ],
      "stateMutability": "view",
      "type": "function"
    },
    {
      "inputs": [
        {
          "internalType": "uint256",
          "name": "",
          "type": "uint256"
        }
      ],
      "name": "transactions",
      "outputs": [
        {
          "internalType": "uint256",
          "name": "transactionId",
          "type": "uint256"
        },
        {
          "internalType": "string",
          "name": "employeeDid",
          "type": "string"
        },
        {
          "internalType": "uint256",
          "name": "amount",
          "type": "uint256"
        },
        {
          "internalType": "string",
          "name": "transactionType",
          "type": "string"
        },
        {
          "internalType": "string",
          "name": "description",
          "type": "string"
        },
        {
          "internalType": "uint256",
          "name": "timestamp",
          "type": "uint256"
        },
        {
          "internalType": "bytes32",
          "name": "txHash",
          "type": "bytes32"
        }
      ],
      "stateMutability": "view",
      "type": "function"
    },
    {
      "inputs": [
        {
          "internalType": "address",
          "name": "newOwner",
          "type": "address"
        }
      ],
      "name": "transferOwnership",
      "outputs": [],
      "stateMutability": "nonpayable",
      "type": "function"
    },
    {
      "inputs": [
        {
          "internalType": "string",
          "name": "employeeDid",
          "type": "string"
        },
        {
          "internalType": "uint256",
          "name": "baseSalary",
          "type": "uint256"
        },
        {
          "internalType": "uint256",
          "name": "kpiBonus",
          "type": "uint256"
        },
        {
          "internalType": "uint256",
          "name": "allowance",
          "type": "uint256"
        },
        {
          "internalType": "uint256",
          "name": "taxRate",
          "type": "uint256"
        },
        {
          "internalType": "uint256",
          "name": "overtimeRate",
          "type": "uint256"
        }
      ],
      "name": "updateEmployeeSalary",
      "outputs": [],
      "stateMutability": "nonpayable",
      "type": "function"
    },
    {
      "inputs": [
        {
          "internalType": "uint256",
          "name": "payrollId",
          "type": "uint256"
        },
        {
          "internalType": "uint256",
          "name": "kpiScore",
          "type": "uint256"
        },
        {
          "internalType": "uint256",
          "name": "workingDays",
          "type": "uint256"
        },
        {
          "internalType": "uint256",
          "name": "overtimeHours",
          "type": "uint256"
        }
      ],
      "name": "updatePayroll",
      "outputs": [],
      "stateMutability": "nonpayable",
      "type": "function"
    },
    {
      "inputs": [
        {
          "internalType": "uint256",
          "name": "_standardWorkingDays",
          "type": "uint256"
        },
        {
          "internalType": "uint256",
          "name": "_standardWorkingHours",
          "type": "uint256"
        }
      ],
      "name": "updatePayrollConfig",
      "outputs": [],
      "stateMutability": "nonpayable",
      "type": "function"
    },
    {
      "inputs": [
        {
          "internalType": "uint256",
          "name": "amount",
          "type": "uint256"
        }
      ],
      "name": "withdrawFunds",
      "outputs": [],
      "stateMutability": "nonpayable",
      "type": "function"
    },
    {
      "stateMutability": "payable",
      "type": "receive"
    }
  ],
  "bytecode": "0x608034620002e757601f620053f838819003918201601f191683019291906001600160401b03841183851017620002ec578160609284926040968752833981010312620002e757620000518162000302565b906020916200006f846200006785850162000302565b930162000302565b600080546001600160a01b0319808216339081178455929690956001600160a01b039586949193859391929084167f8be0079c531659141344cd1fd0a4f28419497f9722a3daafe3b4186f6b6457e08b80a3600180600255601660085560b0600955610820600a558980528082528a8a20338b52825260ff8b8b20541615620002b0575b7fa49807205ce4d355092ef5a8a18f56e8913cf4a201fbe287825b095693c21775808b528183528b8b20338c52835260ff8c8c2054161562000277575b507ffd70517941c75212b0f9013e45c47a37d6d983c5304288c7af285f2ea40cbba791828b528181528b8b20338c52815260ff8c8c205416156200023c575b505050168062000207575b501680620001d2575b501691826200019c575b83516150c09081620003188239f35b827f5efc264d5d2c80d5ecd3505a89b7c8b6bffbc86e436fe4218d13e6d85124d16592600754161760075580a23880806200018d565b808460065416176006557f8db477f6b4424c3995e606a7117a72572af19f492bee06697ad2c8329f2ab7e58580a23862000183565b808660055416176005557fa07c91c183e42229e705a9795a1c06d76528b673788b849597364528c96eefb78780a2386200017a565b828b528181528b8b2090338c52528a8a209060ff1982541617905533903390600080516020620053d88339815191528b80a43880806200016f565b808b528183528b8b20338c5283528b8b208260ff1982541617905533903390600080516020620053d88339815191528d80a43862000130565b8980528082528a8a20338b5282528a8a208160ff1982541617905533338b600080516020620053d88339815191528180a4620000f3565b600080fd5b634e487b7160e01b600052604160045260246000fd5b51906001600160a01b0382168203620002e75756fe610140806040526004361015610068575b50361561001c57600080fd5b61002834601154614771565b60115561003734601354614771565b6013556040513481527f543ba50a5eec5e6178218e364b1d0f396157b3c8fa278522c2cb7fd99407d47460203392a2005b60003560e01c90816301ffc9a714613fb757508063034d0e7c14613f8557806308820ca014613e5e578063155dd5ee14613d0b57806318aaa21914613c975780631adb88eb146139035780631b655ef01461387b5780631e7a339114613852578063248a9ca3146138235780632a4cab90146137e85780632f2ff15d1461373557806333ea3dc81461359957806336568abe1461350757806338ce4fd8146133565780633b76594d1461321d5780633e1c8238146131ff57806349676faa1461317757806352830aa7146130a357806353e6837e14612eaa57806361bc441d14612dfc57806362c7d48114612d685780636e468c5f14612c995780636f9fb98a14612c7657806370ac906714612aba578063715018a614612a6157806375b238fc14612a385780637b43608c14612a065780638b7afe2e146129e85780638da5cb5b146129bf5780638eb335d11461296a57806391d148541461291d5780639ace38c214612852578063a13e7ea7146126b9578063a217fddf1461269d578063a4ffe09c1461267f578063b1e967b1146125d9578063b90aac681461247b578063bb3a9a7f146123d0578063c0e5f23d146122ca578063c7012a9814611a52578063cbae42f914611a29578063cc0c7ee814611a0b578063cf20c6d1146119e2578063d547741f146119a1578063dc3620e31461134e578063e7b0f66614611330578063e7e6a1f814610cb8578063e8fb165214610b66578063ec10c8de14610aac578063f2fde38b146109e3578063f3b3444b146108e8578063f3c6a198146108bf578063fbcdcea5146105eb578063fc19c040146102f55763ff50abdc146102d25738610010565b346102f05760003660031901126102f0576020601154604051908152f35b600080fd5b346102f05760203660031901126102f057600061024060405161031781614041565b82815260606020820152606060408201528260608201528260808201528260a08201528260c08201528260e0820152826101008201528261012082015282610140820152826101608201528261018082015260606101a0820152826101c0820152826101e08201528261020082015282610220820152015260043580600052600c6020526103ab6040600020541515614d87565b600052600c6020526040600020604051906103c582614041565b805482526040516103e4816103dd816001860161429f565b0382614093565b60208301526040516103fd816103dd816002860161429f565b60408301526003810154606083015260048101546080830152600581015460a0830152600681015460c0830152600781015460e083015260088101546101008301526009810154610120830152600a810154610140830152600b810154610160830152600c81015461018083015260405161047f816103dd81600d860161429f565b6101a0830152600e8101546101c0830152600f8101546101e0830152601081015461020083015260018060a01b03601182015416610220830152601260018060a01b03910154166102408201526040518091602082528051602083015261059a6105136104fd60208401516102606040870152610280860190614240565b6040840151858203601f19016060870152614240565b60608301516080850152608083015160a085015260a083015160c085015260c083015160e085015260e08301516101008501526101008301516101208501526101208301516101408501526101408301516101608501526101608301516101808501526101808301516101a08501526101a0830151601f19858303016101c0860152614240565b906101c08101516101e08401526101e081015161020084015261020081015161022084015260018060a01b036102208201511661024084015261024060018060a01b03910151166102608301520390f35b346102f05760803660031901126102f05760043560243560443560008051602061502b833981519152600052602060018152604060002033600052815260ff604060002054168015610891575b610641906147e6565b83600052600c815260406000209161065b83541515614d87565b60405161066f816103dd81600d880161429f565b82815191012061067d6149e6565b8381519101200361084c576106956064851115614cef565b6106a2601f821115614d3b565b600183019260405183816106b68188614dd3565b600b815203019020604051906106cb8261400a565b604051806106d9818461429f565b036106e49082614093565b825260018101548583019181835260028101549860408501998a5286600383015493606087019485526004840154966080810197885260058501549460a08201958652600681015460ff16151560c0830152600781015460e083015260080154906101000152600854610756916149c6565b9061076091614748565b998451905161076e91614748565b9061077891614748565b612710900491519260643590600a54600c9004905190610797916149c6565b906107a191614748565b90516107ac91614748565b6064900480926107bc838b614771565b906107c691614771565b906107d091614771565b92516107dc9084614748565b6064900492836107eb91614a90565b9788956004860155600685015560078401556009830155600a820155600b015560405192839260408452604084016108229161429f565b91830152037fc4c138cf6e124771be2081f23d0afa448b1c8d50a02de3069f3fec33169d80ea91a2005b60405162461bcd60e51b815260048101839052601f60248201527f43616e206f6e6c79207570646174652070656e64696e6720706179726f6c6c006044820152606490fd5b5060008051602061504b8339815191526000908152600182526040808220338352835290205460ff16610638565b346102f05760003660031901126102f057602060405160008051602061502b8339815191528152f35b346102f0576020806003193601126102f057610902614198565b60008051602061504b8339815191526000526001808352604060002033600052835261093560ff6040600020541661478f565b7f5a3425ea67e73c95853ecfc0c443062de292a303c186bc2aac1178ae1b86c62a928360005281815261096e826040600020015461437b565b600084815282825260408082206001600160a01b0390951680835294835290205460ff161561099957005b83600052818152604060002090836000525260406000209060ff1982541617905533917f2f8788117e7eff1d82e926ec794901d17c78024a50270940304540a733656f0d600080a4005b346102f05760203660031901126102f0576109fc614198565b610a046146f0565b6001600160a01b03908116908115610a5857600054826bffffffffffffffffffffffff60a01b821617600055167f8be0079c531659141344cd1fd0a4f28419497f9722a3daafe3b4186f6b6457e0600080a3005b60405162461bcd60e51b815260206004820152602660248201527f4f776e61626c653a206e6577206f776e657220697320746865207a65726f206160448201526564647265737360d01b6064820152608490fd5b346102f05760203660031901126102f057610ac5614198565b610acd6146f0565b6001600160a01b03168015610b1557600780546001600160a01b031916821790557f5efc264d5d2c80d5ecd3505a89b7c8b6bffbc86e436fe4218d13e6d85124d165600080a2005b60405162461bcd60e51b815260206004820152602360248201527f496e76616c696420617474656e64616e636520636f6e7472616374206164647260448201526265737360e81b6064820152608490fd5b346102f0576020806003193601126102f0576004359060008051602061504b833981519152600052600181526040600020336000528152610bae60ff6040600020541661478f565b81600052600c8152604060002090610bc882541515614d87565b600d8201604051610bdd816103dd818561429f565b828151910120610beb6149e6565b83815191012003610c7d5791610c729183610c30610c2a7f44dd012f44acefe4a6fb2b5d2128a7a4bef294a4718a160d4999b44fadba3b389654614265565b8261485a565b601067105c1c1c9bdd995960c21b01905542600f8301556011820180546001600160a01b0319163317905560408051818152938493909184019060010161429f565b9033908301520390a2005b60405162461bcd60e51b8152600481018390526013602482015272506179726f6c6c206e6f742070656e64696e6760681b6044820152606490fd5b346102f057610cc636614335565b336000908152600080516020614feb833981519152602052604090205460ff16801561130a575b610cf6906147e6565b610d2460ff60066040516020818751610d128183858c01614147565b8101600b8152030190200154166148e9565b6006546001600160a01b0316600081611235575b610d4491508284614a9d565b959693909460016003949394540197886003556001610d7260208c8160405193828580945193849201614147565b8101600b815203019020015497516008549060405199610d918b614041565b8b8b528c60208c01528860408c015260608b015260808a015260a089015260c088015260e0870152610100860152610120850152610140840152816101608401526000610180840152610de26149e6565b6101a0840152426101c084015260006101e084015260006102008401526000610220840152600061024084015283600052600c6020526040600020948351865560208401518051906001600160401b038211611125578190610e5482610e4b60018c0154614265565b60018c01614884565b602090601f83116001146111c3576000926111b8575b50508160011b916000199060031b1c19161760018701555b60408401518051906001600160401b038211611125578190610eb482610eab60028c0154614265565b60028c01614884565b602090601f83116001146111465760009261113b575b50508160011b916000199060031b1c19161760028701555b606084015160038701556080840151600487015560a0840151600587015560c0840151600687015560e0840151600787015561010084015160088701556101208401516009870155610140840151600a870155610160840151600b870155610180840151600c8701556101a0840151928351966001600160401b03881161112557878795610f8260209a610f79600d860154614265565b600d8601614884565b8990601f831160011461109b57918061108595949260008051602061506b833981519152999a94600092611090575b50508160011b916000199060031b1c191617600d8201555b6101c0820151600e8201556101e0820151600f82015561020082015160108201556102208201516011820180546001600160a01b03199081166001600160a01b03938416179091556102409093015160129092018054909316911617905560405183516110529188918b90829061104381838b8601614147565b8101600d815203019020614a09565b611079866040518a81885161106a8183858d01614147565b8101600e815203019020614a09565b60405193849384614a43565b0390a2604051908152f35b015190508c80610fb1565b97929190600d83016000528a6000209860005b601f198416811061110b57509160008051602061506b83398151915298996001926110859796959483601f198116106110f2575b505050811b01600d820155610fc9565b015160001960f88460031b161c191690558c80806110e2565b828201518b556001909a01998b9950918c01918c016110ae565b634e487b7160e01b600052604160045260246000fd5b015190508880610eca565b9250600289016000526020600020906000935b601f198416851061119d576001945083601f19811610611184575b505050811b016002870155610ee2565b015160001960f88460031b161c19169055888080611174565b81810151835560209485019460019093019290910190611159565b015190508880610e6a565b9250600189016000526020600020906000935b601f198416851061121a576001945083601f19811610611201575b505050811b016001870155610e82565b015160001960f88460031b161c191690558880806111f1565b818101518355602094850194600190930192909101906111d6565b5060006040518092630467e0f560e11b825281806112578789600484016149a1565b03915afa80156112fe576000916000916112d8575b5080156112cf5761127c916149c6565b6064811161128a5780610d38565b60405162461bcd60e51b815260206004820152601f60248201527f496e76616c6964204b50492073636f72652066726f6d20636f6e7472616374006044820152606490fd5b5050600061127c565b90506112f791503d806000833e6112ef8183614093565b810190614935565b508461126c565b6040513d6000823e3d90fd5b5033600090815260008051602061500b833981519152602052604090205460ff16610ced565b346102f05760003660031901126102f0576020601254604051908152f35b346102f05760a03660031901126102f0576004356001600160401b0381116102f05761137e9036906004016140cf565b6024356001600160401b0381116102f05761139d9036906004016140cf565b336000908152600080516020614feb833981519152602052604090205460ff16801561197b575b6113cd906147e6565b6113e960ff60066040516020818751610d128183858c01614147565b6114126044356113fc6064821115614cef565b61140b601f6064351115614d3b565b8284614a9d565b939496955050505060643581526040608435910152604051602081865161143c8183858b01614147565b8101600b81520301902091604051936114548561400a565b604051611465816103dd818861429f565b85526008600185015494856020880152600281015460408801526003810154606088015260048101546080880152600581015460a088015260ff600682015416151560c0880152600781015460e088015201546101008601526114d7600854946114d286606435926149c6565b614748565b9260646115016114f66084356114d2600c600a540460208c01516149c6565b60a089015190614748565b049061151a8261151583611515878a614771565b614771565b92611536606461152e60808b015187614748565b048095614a90565b956020600160035401998a600355015197604051986115548a614041565b8a8a528b60208b01528760408b015260608a015260643560808a015260a089015260c088015260e08701526101008601526101208501526101408401528161016084015260006101808401526115a86149e6565b6101a0840152426101c084015260006101e084015260006102008401526000610220840152600061024084015283600052600c6020526040600020948351865560208401518051906001600160401b03821161112557819061161182610e4b60018c0154614265565b602090601f8311600114611909576000926118fe575b50508160011b916000199060031b1c19161760018701555b60408401518051906001600160401b03821161112557819061166882610eab60028c0154614265565b602090601f831160011461188c57600092611881575b50508160011b916000199060031b1c19161760028701555b606084015160038701556080840151600487015560a0840151600587015560c0840151600687015560e0840151600787015561010084015160088701556101208401516009870155610140840151600a870155610160840151600b870155610180840151600c8701556101a0840151928351966001600160401b0388116111255787879561172d60209a610f79600d860154614265565b8990601f83116001146117f757918061108595949260008051602061506b833981519152999a946000926117ec575b50508160011b916000199060031b1c191617600d8201555b6101c0820151600e8201556101e0820151600f82015561020082015160108201556011810190610240601260018060a01b03928361022087015116946bffffffffffffffffffffffff60a01b9586825416179055019301511690825416179055611052866040518a8187516110438183858c01614147565b015190508c8061175c565b97929190600d83016000528a6000209860005b601f198416811061186757509160008051602061506b83398151915298996001926110859796959483601f1981161061184e575b505050811b01600d820155611774565b015160001960f88460031b161c191690558c808061183e565b828201518b556001909a01998b9950918c01918c0161180a565b01519050888061167e565b9250600289016000526020600020906000935b601f19841685106118e3576001945083601f198116106118ca575b505050811b016002870155611696565b015160001960f88460031b161c191690558880806118ba565b8181015183556020948501946001909301929091019061189f565b015190508880611627565b9250600189016000526020600020906000935b601f1984168510611960576001945083601f19811610611947575b505050811b01600187015561163f565b015160001960f88460031b161c19169055888080611937565b8181015183556020948501946001909301929091019061191c565b5033600090815260008051602061500b833981519152602052604090205460ff166113c4565b346102f05760403660031901126102f0576119e06004356119c06141ae565b908060005260016020526119db60016040600020015461437b565b61467a565b005b346102f05760003660031901126102f0576005546040516001600160a01b039091168152602090f35b346102f05760003660031901126102f0576020600a54604051908152f35b346102f05760003660031901126102f0576007546040516001600160a01b039091168152602090f35b346102f05760203660031901126102f05733600090815260008051602061500b8339815191526020526040902054611a8c9060ff1661478f565b611a94614f21565b600435600052600c6020526040600020611ab081541515614d87565b600d8101604051611ac5816103dd818561429f565b60208151910120611ad4614e55565b602081519101200361228e57600b820154908115612250576005546001600160a01b03919082168015612202576020602491604051928380926370a0823160e01b82523060048301525afa80156112fe5784906000906121cc575b611b3b92501015614e79565b611b48610c2a8254614265565b60086314185a5960e21b019055600c83018290554260108401556012830180546001600160a01b03191633179055604051600890602081611b8c8160018901614dd3565b600b81520301902042600782015501611ba6838254614771565b9055611bb482601254614771565b60125560055481168015801591906121c5576020602491604051928380926370a0823160e01b82523060048301525afa9081156112fe57600091612193575b505b601355156121515760055460405163a9059cbb60e01b8152336004820152602481018490529160209183916044918391600091165af180156112fe57611c4391600091612122575b50614edd565b6040516020810190611c7b81611c6d85600435428791606093918352602083015260408201520190565b03601f198101835282614093565b519020915b604051927202830bcb937b636103337b9103832b934b7b21606d1b6020850152611cc284611cb46033820160028601614dd3565b03601f198101865285614093565b60405193611cde85611cd7816001870161429f565b0386614093565b604051611cea81614078565b600681526553616c61727960d01b60208201526001600454019182600455604051611d1481614026565b838152602081019188835287604083015283606083015260808201524260a08201528460c082015283600052600f60205260406000209181518355518051906001600160401b038211611125578190611d7d82611d746001880154614265565b60018801614884565b602090601f83116001146120b0576000926120a5575b50508160011b916000199060031b1c19161760018301555b6040810151600283015560608101518051906001600160401b038211611125578190611de782611dde6003880154614265565b60038801614884565b602090601f831160011461203357600092612028575b50508160011b916000199060031b1c19161760038301555b60808101518051906001600160401b03821161112557611e4582611e3c6004870154614265565b60048701614884565b602090601f8311600114611f675793600660c07f7aa2b2c1775c7b79c4437b21360f4005ef7648644a57e3c6221240719c5c7f379b9c9585611f27967f35f40bc6254d16659c30da1d658dc7236ac919f02ed864ab8357f22295ee4d2d9a96611f139a600092611f5c575b50508160011b916000199060031b1c19161760048501555b60a081015160058501550151910155611eff866040516020818751611ef08183858c01614147565b81016010815203019020614a09565b604051938493606085526060850190614240565b908a60208501528382036040850152614240565b0390a2611f426040519260608452600160608501910161429f565b936020830152604082015280600435930390a26001600255005b015190503880611eb0565b906004850160005260206000209160005b601f1985168110612010575060c07f7aa2b2c1775c7b79c4437b21360f4005ef7648644a57e3c6221240719c5c7f379b9c956001867f35f40bc6254d16659c30da1d658dc7236ac919f02ed864ab8357f22295ee4d2d9a96611f139a96600696611f279a601f19811610611ff7575b505050811b016004850155611ec8565b015160001960f88460031b161c19169055388080611fe7565b91926020600181928685015181550194019201611f78565b015190508a80611dfd565b9250600385016000526020600020906000935b601f198416851061208a576001945083601f19811610612071575b505050811b016003830155611e15565b015160001960f88460031b161c191690558a8080612061565b81810151835560209485019460019093019290910190612046565b015190508a80611d93565b9250600185016000526020600020906000935b601f1984168510612107576001945083601f198116106120ee575b505050811b016001830155611dab565b015160001960f88460031b161c191690558a80806120de565b818101518355602094850194600190930192909101906120c3565b612144915060203d60201161214a575b61213c8183614093565b810190614ec5565b84611c3d565b503d612132565b506000808080843382f1156112fe57604051602081019061218a81611c6d85600435428791606093918352602083015260408201520190565b51902091611c80565b90506020813d6020116121bd575b816121ae60209383614093565b810103126102f0575185611bf3565b3d91506121a1565b5047611bf5565b50506020813d6020116121fa575b816121e760209383614093565b810103126102f05783611b3b9151611b2f565b3d91506121da565b5082471015611b3b5760405162461bcd60e51b815260206004820152601860248201527f496e73756666696369656e74204554482062616c616e636500000000000000006044820152606490fd5b60405162461bcd60e51b8152602060048201526016602482015275125b9d985b1a59081c185e5b595b9d08185b5bdd5b9d60521b6044820152606490fd5b60405162461bcd60e51b815260206004820152601460248201527314185e5c9bdb1b081b9bdd08185c1c1c9bdd995960621b6044820152606490fd5b346102f0576122d836614335565b6122f460ff60066040516020818751610d128183858c01614147565b600654600092906001600160a01b03168061234f575b61010084612319818686614a9d565b9695969390939291925194604051978852602088015260408701526060860152608085015260a084015260c083015260e0820152f35b604051630467e0f560e11b81529350600090849081806123738787600484016149a1565b03915afa9081156112fe5761010093612319926000916000916123b2575b5080156123a9576123a1916149c6565b93509061230a565b505060006123a1565b90506123c991503d806000833e6112ef8183614093565b5086612391565b346102f0576020806003193601126102f0576004356001600160401b0381116102f057816124056124189236906004016140cf565b8160405193828580945193849201614147565b8101600d81520301902090604051908181845491828152019360005281600020916000905b828210612464576124608561245481890382614093565b60405191829182614205565b0390f35b83548652948501946001938401939091019061243d565b346102f057612489366141c4565b336000908152600080516020614feb833981519152602090815260409091205490969391929060ff1680156125ab575b6124c2906147e6565b60405160ff60068651928a81818a01956124dd818389614147565b8101600b815203019020015416156125665792600561255a937fa833b2b1d3891905e8131e62fb850438cd3c07fbea8916196f6e960b4eb130469896936125328b60409a988b51809381928a51928391614147565b8101600b815203019020918860018401558760028401556003830155600482015501556148c9565b948351928352820152a2005b60405162461bcd60e51b815260048101899052601760248201527f456d706c6f7965652073616c617279206e6f74207365740000000000000000006044820152606490fd5b5060008051602061504b8339815191526000908152600188526040808220338352895290205460ff166124b9565b346102f05760203660031901126102f0576125f2614198565b6125fa6146f0565b6001600160a01b0316801561264257600580546001600160a01b031916821790557fa07c91c183e42229e705a9795a1c06d76528b673788b849597364528c96eefb7600080a2005b60405162461bcd60e51b8152602060048201526015602482015274496e76616c696420746f6b656e206164647265737360581b6044820152606490fd5b346102f05760003660031901126102f0576020600954604051908152f35b346102f05760003660031901126102f057602060405160008152f35b346102f0576020806003193601126102f057600435906001600160401b0382116102f0576126ee61281d9236906004016140cf565b61276c82604051926126ff8461400a565b60608452600082850152600060408501526000606085015260006080850152600060a0850152600060c0850152600060e08501526000610100809501526040519061275b60ff6006835194868181870197610d1281838b614147565b604051938492839251928391614147565b8101600b81520301902091604051926127848461400a565b604051612795816103dd818561429f565b84526001810154928285019384526002820154916040860192835260038101546060870190815260048201546080880190815260058301549060a0890191825260ff6006850154169260c08a019315158452600860078601549560e08c01968752015496868b019788526040519b8c9b8a8d52518c6101209b8c9101526101408d0190614240565b995160408c01525160608b01525160808a01525160a08901525160c088015251151560e0870152519085015251908301520390f35b346102f05760203660031901126102f057600435600052600f60205260406000208054604051916128918361288a816001850161429f565b0384614093565b600281015461290e604051916128ae8361288a816003880161429f565b612900604051916128c68361288a8160048a0161429f565b60066005870154960154946128ed604051998a998a5260e060208b015260e08a0190614240565b9160408901528782036060890152614240565b908582036080870152614240565b9160a084015260c08301520390f35b346102f05760403660031901126102f0576129366141ae565b600435600052600160205260406000209060018060a01b0316600052602052602060ff604060002054166040519015158152f35b346102f057602061299261297d36614116565b92908160405193828580945193849201614147565b8101600d81520301902080548210156102f0576020916129b19161416a565b90546040519160031b1c8152f35b346102f05760003660031901126102f0576000546040516001600160a01b039091168152602090f35b346102f05760003660031901126102f0576020601354604051908152f35b346102f0576020612a1961297d36614116565b8101601081520301902080548210156102f0576020916129b19161416a565b346102f05760003660031901126102f057602060405160008051602061504b8339815191528152f35b346102f05760003660031901126102f057612a7a6146f0565b600080546001600160a01b0319811682556001600160a01b03167f8be0079c531659141344cd1fd0a4f28419497f9722a3daafe3b4186f6b6457e08280a3005b346102f05760203660031901126102f057600435600052600c602052604060002080612c398154612b016040518060e052612af8816001870161429f565b0360e051614093565b612b2160405180608052612b18816002870161429f565b03608051614093565b612b7b836003810154926004820154600583015460068401546007850154600886015491600987015493600a88015495600b890154976010600f600c8c01549b6040519d8e80612b7481600d860161429f565b0390614093565b600e8101546101005201549f01549d601260018060a01b03918260118201541660c052015416610120526040518060a05252612bdd612bca61026080602060a051015260a0510160e051614240565b60a0516040818303910152608051614240565b9a606060a0510152608060a051015260a08051015260c060a051015260e060a051015261010060a051015261012060a051015261014060a051015261016060a051015261018060a051015260a0516101a0818403910152614240565b91610100516101c060a05101526101e060a051015261020060a051015260c05161022060a05101526101205161024060a051015260a05180910390f35b346102f05760003660031901126102f0576020612c91614f75565b604051908152f35b346102f05760203660031901126102f0576004356001600160401b0381116102f057612cd16020612405612d389336906004016140cf565b8101600b81520301902060405190612cf482612ced818461429f565b0383614093565b6001810154906002810154906003810154600482015460058301549060ff600685015416926008600786015495015495604051998a99610120808c528b0190614240565b9760208a015260408901526060880152608087015260a0860152151560c085015260e08401526101008301520390f35b346102f05760003660031901126102f0576040516337cfdcc560e11b8152602081600481305afa80156112fe57600090612dca575b601154601254608092612db08183614771565b831491604051938452602084015260408301526060820152f35b506020813d8211612df4575b81612de360209383614093565b810103126102f05760809051612d9d565b3d9150612dd6565b346102f05760203660031901126102f057612e15614198565b612e1d6146f0565b6001600160a01b03168015612e6557600680546001600160a01b031916821790557f8db477f6b4424c3995e606a7117a72572af19f492bee06697ad2c8329f2ab7e5600080a2005b60405162461bcd60e51b815260206004820152601c60248201527f496e76616c6964204b504920636f6e74726163742061646472657373000000006044820152606490fd5b346102f05760803660031901126102f0576004356001600160401b0381116102f057612eda9036906004016140cf565b6024356044359160405190805191806020830193612ef9818387614147565b8101600b81520360200190206006015460ff16612f15906148e9565b612f226064841115614cef565b612f2f601f851115614d3b565b60405180928192518092612f4292614147565b8101600b81520360200190209060405190612f5c8261400a565b60405180612f6a818661429f565b03612f759082614093565b8252600183015492602083019184835260028201549560408501968752600383015495606086019687526004840154956080810196875260058501549460a08201958652600681015460ff16151560c0830152600781015460e083015260080154906101000152600854612fe8916149c6565b90612ff291614748565b958351905161300091614748565b9061300a91614748565b612710900493519160643590600a54600c9004905190613029916149c6565b9061303391614748565b905161303e91614748565b6064900490818161304f8688614771565b9061305991614771565b9061306391614771565b925161306f9084614748565b60649004928361307e91614a90565b93604051958652602086015260408501526060840152608083015260a082015260c090f35b346102f0576020806003193601126102f0576004356001600160401b0381116102f0576006916130da6131329236906004016140cf565b60008051602061502b83398151915260005260018252604060002033600052825260ff604060002054168015613149575b613114906147e6565b6040519061275b60ff86835194868181870197610d1281838b614147565b600b9082019081520301902001805460ff19169055005b5060008051602061504b8339815191526000908152600183526040808220338352845290205460ff1661310b565b346102f0576020806003193601126102f0576004356001600160401b0381116102f057816124056131ac9236906004016140cf565b8101600e81520301902090604051908181845491828152019360005281600020916000905b8282106131e8576124608561245481890382614093565b8354865294850194600193840193909101906131d1565b346102f05760003660031901126102f0576020600854604051908152f35b6020806003193601126102f05760055460043591906001600160a01b031680156132ed5790806000926064604051809581936323b872dd60e01b83523360048401523060248401528860448401525af19182156112fe577f543ba50a5eec5e6178218e364b1d0f396157b3c8fa278522c2cb7fd99407d474926132a7916000916132d05750614edd565b6132b383601154614771565b6011556132c283601354614771565b6013556040519283523392a2005b6132e79150833d851161214a5761213c8183614093565b85611c3d565b5081340361331c577f543ba50a5eec5e6178218e364b1d0f396157b3c8fa278522c2cb7fd99407d474906132a7565b6064906040519062461bcd60e51b82526004820152601360248201527208aa89040c2dadeeadce840dad2e6dac2e8c6d606b1b6044820152fd5b346102f0576020806003193601126102f0576004359060008051602061502b83398151915260005260018152604060002033600052815260ff6040600020541680156134d9575b6133a6906147e6565b81600052600c815260406000206133bf81541515614d87565b600d81016040516133d4816103dd818561429f565b8381519101206133e26149e6565b8481519101201480156134ad575b15613454579161344f6001928461342b610c2a7f61054c61a3f82a296b7cfd4d6a7993fc78af450d2733c04ccb92ae5d1d54b20f9754614265565b60126810d85b98d95b1b195960ba1b0190556040518381529384938401910161429f565b0390a2005b60405162461bcd60e51b815260048101849052602b60248201527f43616e206f6e6c792063616e63656c2070656e64696e67206f7220617070726f60448201526a1d9959081c185e5c9bdb1b60aa1b6064820152608490fd5b506040516134bf816103dd818561429f565b8381519101206134cd614e55565b848151910120146133f0565b5060008051602061504b8339815191526000908152600182526040808220338352835290205460ff1661339d565b346102f05760403660031901126102f0576135206141ae565b336001600160a01b0382160361353c576119e09060043561467a565b60405162461bcd60e51b815260206004820152602f60248201527f416363657373436f6e74726f6c3a2063616e206f6e6c792072656e6f756e636560448201526e103937b632b9903337b91039b2b63360891b6064820152608490fd5b346102f0576020806003193601126102f0576040516004356135ba82614026565b60008252600060c0606093848682015282604082015284808201528460808201528260a0820152015280600052600f8352604060002054156136f057600052600f825260406000206040519161360f83614026565b815483526136df6040519161362b8361288a816001880161429f565b8585019283526002840154604086019081526136ce604051613654816103dd8160038b0161429f565b8388019081526040519361366f85611cd78160048c0161429f565b608089019485526136b3600660058a01549960a08c019a8b5201549760c08b019889526040519b8c9b818d5251908c01525160e060408c01526101008b0190614240565b9351908901525191601f1992838983030160808a0152614240565b9151908683030160a0870152614240565b915160c08401525160e08301520390f35b60405162461bcd60e51b815260048101849052601a60248201527f5472616e73616374696f6e20646f6573206e6f742065786973740000000000006044820152606490fd5b346102f05760403660031901126102f0576004356137516141ae565b81600052600160205261376b60016040600020015461437b565b81600052600160205260406000209060018060a01b0316908160005260205260ff604060002054161561379a57005b8160005260016020526040600020816000526020526040600020600160ff1982541617905533917f2f8788117e7eff1d82e926ec794901d17c78024a50270940304540a733656f0d600080a4005b346102f05760003660031901126102f05760206040517f5a3425ea67e73c95853ecfc0c443062de292a303c186bc2aac1178ae1b86c62a8152f35b346102f05760203660031901126102f05760043560005260016020526020600160406000200154604051908152f35b346102f05760003660031901126102f0576006546040516001600160a01b039091168152602090f35b346102f0576020806003193601126102f0576004356001600160401b0381116102f057816124056138b09236906004016140cf565b8101601081520301902090604051908181845491828152019360005281600020916000905b8282106138ec576124608561245481890382614093565b8354865294850194600193840193909101906138d5565b346102f057613911366141c4565b336000908152600080516020614feb833981519152602052604090205493959390919060ff168015613c71575b613947906147e6565b835115613c2c576064808711613bea57808211613ba857808310613b5a5750604051926139738461400a565b8484528560208501528660408501526060840152608083015260a0820152600160c0820152600060e0820152600061010082015260405160208184516139bc8183858901614147565b8101600b8152030190209080518051906001600160401b038211611125576139ee826139e88654614265565b86614884565b602090601f8311600114613ac157610100613aa89484604098957fa833b2b1d3891905e8131e62fb850438cd3c07fbea8916196f6e960b4eb130469a9895600895600092613ab6575b50508160011b916000199060031b1c19161784555b60208101516001850155878101516002850155606081015160038501556080810151600485015560a081015160058501556006840160c0820151151560ff8019835416911617905560e0810151600785015501519101556148c9565b9382519182526020820152a2005b015190508c80613a37565b908460005260206000209160005b601f1985168110613b425750613aa8946001857fa833b2b1d3891905e8131e62fb850438cd3c07fbea8916196f6e960b4eb130469a98956008956101009560409c99601f19811610613b29575b505050811b018455613a4c565b015160001960f88460031b161c191690558c8080613b1c565b91926020600181928685015181550194019201613acf565b608490602960f81b6040519162461bcd60e51b835260206004840152602160248401527f4f76657274696d652072617465206d757374206265203e3d20313030202831786044840152820152fd5b60405162461bcd60e51b815260206004820152601760248201527f5461782072617465206d757374206265203c3d203130300000000000000000006044820152fd5b60405162461bcd60e51b815260206004820152601860248201527f4b504920626f6e7573206d757374206265203c3d2031303000000000000000006044820152fd5b60405162461bcd60e51b815260206004820152601c60248201527f456d706c6f796565204449442063616e6e6f7420626520656d707479000000006044820152606490fd5b5033600090815260008051602061500b833981519152602052604090205460ff1661393e565b346102f0576020806003193601126102f057613cb1614198565b60008051602061504b83398151915260005260018083526040600020336000528352613ce460ff6040600020541661478f565b60008051602061502b833981519152928360005281815261096e826040600020015461437b565b346102f05760203660031901126102f057600435613d276146f0565b613d2f614f21565b613d5681601354613d4281831115614e79565b613d4e82601254614771565b601255614a90565b6013556005546001600160a01b0390811615613e14576005546000805460405163a9059cbb60e01b81529084166001600160a01b031660048201526024810185905292916020918491604491839186165af19081156112fe57613de46020927feaff4b37086828766ad3268786972c0cd24259d4c87a80f9d3963a3c3d999b0d94600091613df75750614edd565b6000541692604051908152a26001600255005b613e0e9150843d811161214a5761213c8183614093565b86611c3d565b60008080808585825416828215613e55575bf1156112fe5760207feaff4b37086828766ad3268786972c0cd24259d4c87a80f9d3963a3c3d999b0d91613de4565b506108fc613e26565b346102f05760403660031901126102f05733600090815260008051602061500b83398151915260205260409020546004359060243590613ea09060ff1661478f565b8115613f36578015613ee657816040917f599d9b7a01a6cf80e498b224fbf50ac4d5ec5bc0305a17d60e13dba94eae1617936008558060095582519182526020820152a1005b60405162461bcd60e51b815260206004820152602260248201527f5374616e6461726420776f726b696e6720686f757273206d757374206265203e604482015261020360f41b6064820152608490fd5b60405162461bcd60e51b815260206004820152602160248201527f5374616e6461726420776f726b696e672064617973206d757374206265203e206044820152600360fc1b6064820152608490fd5b346102f0576020613f9861297d36614116565b8101600e81520301902080548210156102f0576020916129b19161416a565b346102f05760203660031901126102f0576004359063ffffffff60e01b82168092036102f057602091637965db0b60e01b8114908115613ff9575b5015158152f35b6301ffc9a760e01b14905083613ff2565b61012081019081106001600160401b0382111761112557604052565b60e081019081106001600160401b0382111761112557604052565b61026081019081106001600160401b0382111761112557604052565b606081019081106001600160401b0382111761112557604052565b604081019081106001600160401b0382111761112557604052565b90601f801991011681019081106001600160401b0382111761112557604052565b6001600160401b03811161112557601f01601f191660200190565b81601f820112156102f0578035906140e6826140b4565b926140f46040519485614093565b828452602083830101116102f057816000926020809301838601378301015290565b60406003198201126102f057600435906001600160401b0382116102f057614140916004016140cf565b9060243590565b60005b83811061415a5750506000910152565b818101518382015260200161414a565b80548210156141825760005260206000200190600090565b634e487b7160e01b600052603260045260246000fd5b600435906001600160a01b03821682036102f057565b602435906001600160a01b03821682036102f057565b60c06003198201126102f057600435906001600160401b0382116102f0576141ee916004016140cf565b906024359060443590606435906084359060a43590565b6020908160408183019282815285518094520193019160005b82811061422c575050505090565b83518552938101939281019260010161421e565b9060209161425981518092818552858086019101614147565b601f01601f1916010190565b90600182811c92168015614295575b602083101461427f57565b634e487b7160e01b600052602260045260246000fd5b91607f1691614274565b90600092918054916142b083614265565b91828252600193848116908160001461431257506001146142d2575b50505050565b90919394506000526020928360002092846000945b8386106142fe5750505050010190388080806142cc565b8054858701830152940193859082016142e7565b9294505050602093945060ff191683830152151560051b010190388080806142cc565b9060406003198301126102f0576001600160401b036004358181116102f05783614361916004016140cf565b926024359182116102f057614378916004016140cf565b90565b6000818152600191602091838352604093848220338352845260ff8583205416156143a7575050505050565b338551936143b48561405d565b602a8552858501918736843785511561466657603083538551841015614666576078602187015360295b8481116145fc57506145ba57865192608084018481106001600160401b038211176145a657885260428452868401946060368737845115614592576030865384518210156145925790607860218601536041915b818311614524575050506144e2576144de9386936144c2936144b360489461448a9a519a8b957f416363657373436f6e74726f6c3a206163636f756e74200000000000000000008c8801525180926037880190614147565b8401917001034b99036b4b9b9b4b733903937b6329607d1b603784015251809386840190614147565b01036028810187520185614093565b5192839262461bcd60e51b845260048401526024830190614240565b0390fd5b60648587519062461bcd60e51b825280600483015260248201527f537472696e67733a20686578206c656e67746820696e73756666696369656e746044820152fd5b909192600f8116601081101561457e576f181899199a1a9b1b9c1cb0b131b232b360811b901a614554858861477e565b5360041c92801561456a57600019019190614432565b634e487b7160e01b82526011600452602482fd5b634e487b7160e01b83526032600452602483fd5b634e487b7160e01b81526032600452602490fd5b634e487b7160e01b86526041600452602486fd5b60648688519062461bcd60e51b825280600483015260248201527f537472696e67733a20686578206c656e67746820696e73756666696369656e746044820152fd5b90600f81166010811015614652576f181899199a1a9b1b9c1cb0b131b232b360811b901a61462a838961477e565b5360041c90801561463e57600019016143de565b634e487b7160e01b86526011600452602486fd5b634e487b7160e01b87526032600452602487fd5b634e487b7160e01b85526032600452602485fd5b906000918083526001602052604083209160018060a01b03169182845260205260ff6040842054166146ab57505050565b8083526001602052604083208284526020526040832060ff1981541690557ff6391f5c32d9c69d2a47ea670b442974b53935d1edc7fd64eb21e047a839171b339380a4565b6000546001600160a01b0316330361470457565b606460405162461bcd60e51b815260206004820152602060248201527f4f776e61626c653a2063616c6c6572206973206e6f7420746865206f776e65726044820152fd5b8181029291811591840414171561475b57565b634e487b7160e01b600052601160045260246000fd5b9190820180921161475b57565b908151811015614182570160200190565b1561479657565b60405162461bcd60e51b815260206004820152602260248201527f4f6e6c792061646d696e2063616e20706572666f726d2074686973206163746960448201526137b760f11b6064820152608490fd5b156147ed57565b60405162461bcd60e51b815260206004820152602860248201527f4f6e6c79204852206f722061646d696e2063616e20706572666f726d20746869604482015267399030b1ba34b7b760c11b6064820152608490fd5b81811061484e575050565b60008155600101614843565b90601f8111614867575050565b61488291600052601f6020600020910160051c810190614843565b565b9190601f811161489357505050565b614882926000526020600020906020601f840160051c830193106148bf575b601f0160051c0190614843565b90915081906148b2565b6148e190602060405192828480945193849201614147565b810103902090565b156148f057565b60405162461bcd60e51b815260206004820152601a60248201527f456d706c6f7965652073616c617279206e6f74206163746976650000000000006044820152606490fd5b90916060828403126102f0578151926020830151926040810151906001600160401b0382116102f0570181601f820112156102f0578051614975816140b4565b926149836040519485614093565b818452602082840101116102f0576143789160208085019101614147565b90916149b861437893604084526040840190614240565b916020818403910152614240565b81156149d0570490565b634e487b7160e01b600052601260045260246000fd5b604051906149f382614078565b600782526650656e64696e6760c81b6020830152565b80546801000000000000000081101561112557614a2b9160018201815561416a565b819291549060031b91821b91600019901b1916179055565b939291614a6c90614a5e604093606088526060880190614240565b908682036020880152614240565b930152565b60405190614a7e8261405d565b60006040838281528260208201520152565b9190820391821161475b57565b91929092614aa9614a71565b5060405183518190614abf818360208901614147565b8101600b81520360200190209260405191614ad98361400a565b60405180614ae7818861429f565b03614af29082614093565b83526001850154946020840195865260028101549260408501938452600382015497606086019889526004830154956080810196875260058401549360a08201948552600681015460ff16151560c0830152600781015460e083015260080154906101000152614b6191614c11565b918651600854614b70916149c6565b8351614b7b91614748565b9387519051614b8991614748565b90614b9391614748565b6127109004965195600a54600c9004905190614bae916149c6565b6040830151614bbc91614748565b9051614bc791614748565b60649004938486614bd88986614771565b90614be291614771565b90614bec91614771565b9351614bf89085614748565b606490049384614c0791614a90565b9296959493929190565b614c19614a71565b506007546001600160a01b0316918215614cc8576040516336f2682960e21b815292606092849283918291614c5191600484016149a1565b03915afa80156112fe5760009182908392614c84575b5060405192614c758461405d565b83526020830152604082015290565b929150506060823d8211614cc0575b81614ca060609383614093565b81010312614cbd5750805160406020830151920151909138614c67565b80fd5b3d9150614c93565b50505060085460095460405191614cde8361405d565b825260208201526000604082015290565b15614cf657565b60405162461bcd60e51b815260206004820152601860248201527f4b50492073636f7265206d757374206265203c3d2031303000000000000000006044820152606490fd5b15614d4257565b60405162461bcd60e51b815260206004820152601a60248201527f576f726b696e672064617973206d757374206265203c3d2033310000000000006044820152606490fd5b15614d8e57565b60405162461bcd60e51b815260206004820152601d60248201527f506179726f6c6c207265636f726420646f6573206e6f742065786973740000006044820152606490fd5b600092918154614de281614265565b92600191808316908115614e3a5750600114614dfe5750505050565b90919293945060005260209081600020906000915b858310614e2957505050500190388080806142cc565b805485840152918301918101614e13565b60ff19168452505050811515909102019150388080806142cc565b60405190614e6282614078565b6008825267105c1c1c9bdd995960c21b6020830152565b15614e8057565b60405162461bcd60e51b815260206004820152601d60248201527f496e73756666696369656e7420636f6e74726163742062616c616e63650000006044820152606490fd5b908160209103126102f0575180151581036102f05790565b15614ee457565b60405162461bcd60e51b8152602060048201526015602482015274151bdad95b881d1c985b9cd9995c8819985a5b1959605a1b6044820152606490fd5b6002805414614f305760028055565b60405162461bcd60e51b815260206004820152601f60248201527f5265656e7472616e637947756172643a207265656e7472616e742063616c6c006044820152606490fd5b6005546001600160a01b03168015614fe5576020602491604051928380926370a0823160e01b82523060048301525afa9081156112fe57600091614fb7575090565b906020823d8211614fdd575b81614fd060209383614093565b81010312614cbd57505190565b3d9150614fc3565b50479056fe3779f59c00fa5618369bab564c6b7d7351c2e76feae47a272b4c818773ec26a550efbde2d46c37e9785f1791697f77e94bb7b701e19f1930a668820722d37694fd70517941c75212b0f9013e45c47a37d6d983c5304288c7af285f2ea40cbba7a49807205ce4d355092ef5a8a18f56e8913cf4a201fbe287825b095693c2177598843665a28970affdad861c54033e4b02e040abc60f5bf43e36f950741c1098a264697066735822122061d384d7e5df78ea8ed5f18c698dc359e4307e94e26443398b1da01b44795bce64736f6c634300081300332f8788117e7eff1d82e926ec794901d17c78024a50270940304540a733656f0d",
  "linkReferences": {},
  "deployedLinkReferences": {}
}